{
  "contractName": "Client",
  "abi": [
    {
      "inputs": [
        {
          "internalType": "address",
          "name": "storageAddress",
          "type": "address"
        }
      ],
      "payable": false,
      "stateMutability": "nonpayable",
      "type": "constructor"
    },
    {
      "constant": false,
      "inputs": [
        {
          "internalType": "bytes32",
          "name": "_pname",
          "type": "bytes32"
        },
        {
          "internalType": "bytes32",
          "name": "_consulDateID",
          "type": "bytes32"
        },
        {
          "internalType": "bytes",
          "name": "_ipfsConsulHash",
          "type": "bytes"
        },
        {
          "internalType": "bytes",
          "name": "newPatientIpfs",
          "type": "bytes"
        }
      ],
      "name": "consultationCreate",
      "outputs": [
        {
          "internalType": "bool",
          "name": "",
          "type": "bool"
        }
      ],
      "payable": false,
      "stateMutability": "nonpayable",
      "type": "function"
    },
    {
      "constant": true,
      "inputs": [
        {
          "internalType": "uint256",
          "name": "_index",
          "type": "uint256"
        }
      ],
      "name": "getConsultationByConsultationIndex",
      "outputs": [
        {
          "internalType": "bytes32",
          "name": "consulID",
          "type": "bytes32"
        },
        {
          "internalType": "bytes",
          "name": "ipfs",
          "type": "bytes"
        }
      ],
      "payable": false,
      "stateMutability": "view",
      "type": "function"
    },
    {
      "constant": true,
      "inputs": [
        {
          "internalType": "bytes32",
          "name": "_consulDateID",
          "type": "bytes32"
        }
      ],
      "name": "getConsultationIpfsByConsultationID",
      "outputs": [
        {
          "internalType": "bytes",
          "name": "ipfs",
          "type": "bytes"
        }
      ],
      "payable": false,
      "stateMutability": "view",
      "type": "function"
    },
    {
      "constant": true,
      "inputs": [
        {
          "internalType": "bytes32",
          "name": "_consulDateID",
          "type": "bytes32"
        }
      ],
      "name": "getConsultationIndexByConsultationID",
      "outputs": [
        {
          "internalType": "uint256",
          "name": "",
          "type": "uint256"
        }
      ],
      "payable": false,
      "stateMutability": "view",
      "type": "function"
    },
    {
      "constant": true,
      "inputs": [
        {
          "internalType": "bytes32",
          "name": "_pname",
          "type": "bytes32"
        }
      ],
      "name": "getConsultationsByPatientName",
      "outputs": [
        {
          "internalType": "bytes32[]",
          "name": "",
          "type": "bytes32[]"
        },
        {
          "internalType": "bytes[]",
          "name": "",
          "type": "bytes[]"
        }
      ],
      "payable": false,
      "stateMutability": "view",
      "type": "function"
    },
    {
      "constant": true,
      "inputs": [
        {
          "internalType": "address",
          "name": "patientAddress",
          "type": "address"
        }
      ],
      "name": "getConsultationsByPatientAddress",
      "outputs": [
        {
          "internalType": "bytes32[]",
          "name": "",
          "type": "bytes32[]"
        },
        {
          "internalType": "bytes[]",
          "name": "",
          "type": "bytes[]"
        }
      ],
      "payable": false,
      "stateMutability": "view",
      "type": "function"
    },
    {
      "constant": false,
      "inputs": [
        {
          "internalType": "bytes32",
          "name": "patientName",
          "type": "bytes32"
        },
        {
          "internalType": "bytes",
          "name": "ipfsHash",
          "type": "bytes"
        }
      ],
      "name": "registerPatient",
      "outputs": [
        {
          "internalType": "bool",
          "name": "",
          "type": "bool"
        }
      ],
      "payable": false,
      "stateMutability": "nonpayable",
      "type": "function"
    },
    {
      "constant": true,
      "inputs": [
        {
          "internalType": "address",
          "name": "_patientAdresses",
          "type": "address"
        }
      ],
      "name": "hasPatient",
      "outputs": [
        {
          "internalType": "bool",
          "name": "",
          "type": "bool"
        }
      ],
      "payable": false,
      "stateMutability": "view",
      "type": "function"
    },
    {
      "constant": true,
      "inputs": [
        {
          "internalType": "bytes32",
          "name": "pname",
          "type": "bytes32"
        }
      ],
      "name": "patientNameTaken",
      "outputs": [
        {
          "internalType": "bool",
          "name": "takenIndeed",
          "type": "bool"
        }
      ],
      "payable": false,
      "stateMutability": "view",
      "type": "function"
    },
    {
      "constant": false,
      "inputs": [
        {
          "internalType": "bytes",
          "name": "ipfsHash",
          "type": "bytes"
        }
      ],
      "name": "updatePatient",
      "outputs": [
        {
          "internalType": "bool",
          "name": "",
          "type": "bool"
        }
      ],
      "payable": false,
      "stateMutability": "nonpayable",
      "type": "function"
    },
    {
      "constant": true,
      "inputs": [],
      "name": "getPatientCount",
      "outputs": [
        {
          "internalType": "uint256",
          "name": "",
          "type": "uint256"
        }
      ],
      "payable": false,
      "stateMutability": "view",
      "type": "function"
    },
    {
      "constant": true,
      "inputs": [
        {
          "internalType": "uint256",
          "name": "index",
          "type": "uint256"
        }
      ],
      "name": "getPatientByIndex",
      "outputs": [
        {
          "internalType": "address",
          "name": "",
          "type": "address"
        },
        {
          "internalType": "bytes32",
          "name": "",
          "type": "bytes32"
        },
        {
          "internalType": "bytes",
          "name": "",
          "type": "bytes"
        }
      ],
      "payable": false,
      "stateMutability": "view",
      "type": "function"
    },
    {
      "constant": true,
      "inputs": [
        {
          "internalType": "uint256",
          "name": "index",
          "type": "uint256"
        }
      ],
      "name": "getAddressByIndex",
      "outputs": [
        {
          "internalType": "address",
          "name": "",
          "type": "address"
        }
      ],
      "payable": false,
      "stateMutability": "view",
      "type": "function"
    },
    {
      "constant": true,
      "inputs": [
        {
          "internalType": "uint256",
          "name": "index",
          "type": "uint256"
        }
      ],
      "name": "getPatientNameByIndex",
      "outputs": [
        {
          "internalType": "bytes32",
          "name": "",
          "type": "bytes32"
        }
      ],
      "payable": false,
      "stateMutability": "view",
      "type": "function"
    },
    {
      "constant": true,
      "inputs": [
        {
          "internalType": "uint256",
          "name": "index",
          "type": "uint256"
        }
      ],
      "name": "getIpfsHashByIndex",
      "outputs": [
        {
          "internalType": "bytes",
          "name": "",
          "type": "bytes"
        }
      ],
      "payable": false,
      "stateMutability": "view",
      "type": "function"
    },
    {
      "constant": true,
      "inputs": [
        {
          "internalType": "address",
          "name": "patientAddress",
          "type": "address"
        }
      ],
      "name": "getPatientByAddress",
      "outputs": [
        {
          "internalType": "uint256",
          "name": "",
          "type": "uint256"
        },
        {
          "internalType": "bytes32",
          "name": "",
          "type": "bytes32"
        },
        {
          "internalType": "bytes",
          "name": "",
          "type": "bytes"
        }
      ],
      "payable": false,
      "stateMutability": "view",
      "type": "function"
    },
    {
      "constant": true,
      "inputs": [
        {
          "internalType": "address",
          "name": "patientAddress",
          "type": "address"
        }
      ],
      "name": "getIndexByAddress",
      "outputs": [
        {
          "internalType": "uint256",
          "name": "",
          "type": "uint256"
        }
      ],
      "payable": false,
      "stateMutability": "view",
      "type": "function"
    },
    {
      "constant": true,
      "inputs": [
        {
          "internalType": "address",
          "name": "patientAddress",
          "type": "address"
        }
      ],
      "name": "getPatientNameByAddress",
      "outputs": [
        {
          "internalType": "bytes32",
          "name": "",
          "type": "bytes32"
        }
      ],
      "payable": false,
      "stateMutability": "view",
      "type": "function"
    },
    {
      "constant": true,
      "inputs": [
        {
          "internalType": "address",
          "name": "patientAddress",
          "type": "address"
        }
      ],
      "name": "getIpfsHashByAddress",
      "outputs": [
        {
          "internalType": "bytes",
          "name": "",
          "type": "bytes"
        }
      ],
      "payable": false,
      "stateMutability": "view",
      "type": "function"
    },
    {
      "constant": true,
      "inputs": [
        {
          "internalType": "bytes32",
          "name": "patientname",
          "type": "bytes32"
        }
      ],
      "name": "getPatientByPatientName",
      "outputs": [
        {
          "internalType": "uint256",
          "name": "",
          "type": "uint256"
        },
        {
          "internalType": "address",
          "name": "",
          "type": "address"
        },
        {
          "internalType": "bytes",
          "name": "",
          "type": "bytes"
        }
      ],
      "payable": false,
      "stateMutability": "view",
      "type": "function"
    },
    {
      "constant": true,
      "inputs": [
        {
          "internalType": "bytes32",
          "name": "patientname",
          "type": "bytes32"
        }
      ],
      "name": "getIndexByPatientName",
      "outputs": [
        {
          "internalType": "uint256",
          "name": "",
          "type": "uint256"
        }
      ],
      "payable": false,
      "stateMutability": "view",
      "type": "function"
    },
    {
      "constant": true,
      "inputs": [
        {
          "internalType": "bytes32",
          "name": "patientname",
          "type": "bytes32"
        }
      ],
      "name": "getAddressByPatientName",
      "outputs": [
        {
          "internalType": "address",
          "name": "",
          "type": "address"
        }
      ],
      "payable": false,
      "stateMutability": "view",
      "type": "function"
    },
    {
      "constant": true,
      "inputs": [
        {
          "internalType": "bytes32",
          "name": "patientname",
          "type": "bytes32"
        }
      ],
      "name": "getIpfsHashByPatientName",
      "outputs": [
        {
          "internalType": "bytes",
          "name": "",
          "type": "bytes"
        }
      ],
      "payable": false,
      "stateMutability": "view",
      "type": "function"
    }
  ],
  "bytecode": "0x60806040523480156200001157600080fd5b50604051620024b0380380620024b0833981810160405262000037919081019062000095565b806000806101000a81548173ffffffffffffffffffffffffffffffffffffffff021916908373ffffffffffffffffffffffffffffffffffffffff160217905550506200010f565b6000815190506200008f81620000f5565b92915050565b600060208284031215620000a857600080fd5b6000620000b8848285016200007e565b91505092915050565b6000620000ce82620000d5565b9050919050565b600073ffffffffffffffffffffffffffffffffffffffff82169050919050565b6200010081620000c1565b81146200010c57600080fd5b50565b612391806200011f6000396000f3fe608060405234801561001057600080fd5b506004361061014d5760003560e01c80639b9fc6e0116100c3578063ba5c03351161007c578063ba5c033514610489578063c190665b146104bb578063cbb7e2ff146104d9578063ce10cf8814610509578063dfb7ab6014610539578063eb9fbaa9146105695761014d565b80639b9fc6e014610366578063a74380a614610397578063ad36054b146103c7578063b1d5458d146103f9578063b564407414610429578063b9affb93146104595761014d565b806357ea0c2f1161011557806357ea0c2f1461024357806368761954146102755780636cfbc8fd146102a55780637448d8d8146102d55780637b63cec41461030657806394e7ef6e146103365761014d565b806308311925146101525780631973ef911461018257806329f78d88146101b25780632dce4167146101e257806330ca739b14610212575b600080fd5b61016c600480360361016791908101906119e1565b610599565b6040516101799190612015565b60405180910390f35b61019c60048036036101979190810190611893565b610651565b6040516101a99190612037565b60405180910390f35b6101cc60048036036101c79190810190611bf0565b610704565b6040516101d99190612015565b60405180910390f35b6101fc60048036036101f791908101906119e1565b6107bc565b6040516102099190612037565b60405180910390f35b61022c60048036036102279190810190611893565b61086f565b60405161023a929190611f25565b60405180910390f35b61025d60048036036102589190810190611bf0565b61092a565b60405161026c93929190611ee7565b60405180910390f35b61028f600480360361028a9190810190611ac6565b6109eb565b60405161029c9190611f5c565b60405180910390f35b6102bf60048036036102ba91908101906119e1565b610aa3565b6040516102cc9190611ecc565b60405180910390f35b6102ef60048036036102ea91908101906119e1565b610b56565b6040516102fd929190611f25565b60405180910390f35b610320600480360361031b91908101906119e1565b610c11565b60405161032d9190611f5c565b60405180910390f35b610350600480360361034b9190810190611b6e565b610cc4565b60405161035d9190611f5c565b60405180910390f35b610380600480360361037b9190810190611bf0565b610d79565b60405161038e929190611fe5565b60405180910390f35b6103b160048036036103ac9190810190611893565b610e35565b6040516103be9190612015565b60405180910390f35b6103e160048036036103dc91908101906119e1565b610eed565b6040516103f093929190612052565b60405180910390f35b610413600480360361040e91908101906119e1565b610fae565b6040516104209190612037565b60405180910390f35b610443600480360361043e9190810190611a33565b611061565b6040516104509190611f5c565b60405180910390f35b610473600480360361046e9190810190611893565b611122565b6040516104809190611f77565b60405180910390f35b6104a3600480360361049e9190810190611893565b6111d5565b6040516104b293929190612090565b60405180910390f35b6104c3611296565b6040516104d09190612037565b60405180910390f35b6104f360048036036104ee9190810190611bf0565b61133c565b6040516105009190611f77565b60405180910390f35b610523600480360361051e9190810190611bf0565b6113ef565b6040516105309190611ecc565b60405180910390f35b610553600480360361054e91908101906119e1565b6114a2565b6040516105609190612015565b60405180910390f35b610583600480360361057e9190810190611893565b61155a565b6040516105909190611f5c565b60405180910390f35b60606000809054906101000a900473ffffffffffffffffffffffffffffffffffffffff1673ffffffffffffffffffffffffffffffffffffffff166308311925836040518263ffffffff1660e01b81526004016105f59190611f77565b60006040518083038186803b15801561060d57600080fd5b505afa158015610621573d6000803e3d6000fd5b505050506040513d6000823e3d601f19601f8201168201806040525061064a9190810190611baf565b9050919050565b60008060009054906101000a900473ffffffffffffffffffffffffffffffffffffffff1673ffffffffffffffffffffffffffffffffffffffff16631973ef91836040518263ffffffff1660e01b81526004016106ad9190611ecc565b60206040518083038186803b1580156106c557600080fd5b505afa1580156106d9573d6000803e3d6000fd5b505050506040513d601f19601f820116820180604052506106fd9190810190611c19565b9050919050565b60606000809054906101000a900473ffffffffffffffffffffffffffffffffffffffff1673ffffffffffffffffffffffffffffffffffffffff166329f78d88836040518263ffffffff1660e01b81526004016107609190612037565b60006040518083038186803b15801561077857600080fd5b505afa15801561078c573d6000803e3d6000fd5b505050506040513d6000823e3d601f19601f820116820180604052506107b59190810190611baf565b9050919050565b60008060009054906101000a900473ffffffffffffffffffffffffffffffffffffffff1673ffffffffffffffffffffffffffffffffffffffff16632dce4167836040518263ffffffff1660e01b81526004016108189190611f77565b60206040518083038186803b15801561083057600080fd5b505afa158015610844573d6000803e3d6000fd5b505050506040513d601f19601f820116820180604052506108689190810190611c19565b9050919050565b6060806000809054906101000a900473ffffffffffffffffffffffffffffffffffffffff1673ffffffffffffffffffffffffffffffffffffffff166330ca739b846040518263ffffffff1660e01b81526004016108cc9190611ecc565b60006040518083038186803b1580156108e457600080fd5b505afa1580156108f8573d6000803e3d6000fd5b505050506040513d6000823e3d601f19601f82011682018060405250610921919081019061194c565b91509150915091565b60008060606000809054906101000a900473ffffffffffffffffffffffffffffffffffffffff1673ffffffffffffffffffffffffffffffffffffffff166357ea0c2f856040518263ffffffff1660e01b81526004016109899190612037565b60006040518083038186803b1580156109a157600080fd5b505afa1580156109b5573d6000803e3d6000fd5b505050506040513d6000823e3d601f19601f820116820180604052506109de91908101906118e5565b9250925092509193909250565b60008060009054906101000a900473ffffffffffffffffffffffffffffffffffffffff1673ffffffffffffffffffffffffffffffffffffffff16636876195484846040518363ffffffff1660e01b8152600401610a49929190611fe5565b602060405180830381600087803b158015610a6357600080fd5b505af1158015610a77573d6000803e3d6000fd5b505050506040513d601f19601f82011682018060405250610a9b91908101906119b8565b905092915050565b60008060009054906101000a900473ffffffffffffffffffffffffffffffffffffffff1673ffffffffffffffffffffffffffffffffffffffff16636cfbc8fd836040518263ffffffff1660e01b8152600401610aff9190611f77565b60206040518083038186803b158015610b1757600080fd5b505afa158015610b2b573d6000803e3d6000fd5b505050506040513d601f19601f82011682018060405250610b4f91908101906118bc565b9050919050565b6060806000809054906101000a900473ffffffffffffffffffffffffffffffffffffffff1673ffffffffffffffffffffffffffffffffffffffff16637448d8d8846040518263ffffffff1660e01b8152600401610bb39190611f77565b60006040518083038186803b158015610bcb57600080fd5b505afa158015610bdf573d6000803e3d6000fd5b505050506040513d6000823e3d601f19601f82011682018060405250610c08919081019061194c565b91509150915091565b60008060009054906101000a900473ffffffffffffffffffffffffffffffffffffffff1673ffffffffffffffffffffffffffffffffffffffff16637b63cec4836040518263ffffffff1660e01b8152600401610c6d9190611f77565b60206040518083038186803b158015610c8557600080fd5b505afa158015610c99573d6000803e3d6000fd5b505050506040513d601f19601f82011682018060405250610cbd91908101906119b8565b9050919050565b60008060009054906101000a900473ffffffffffffffffffffffffffffffffffffffff1673ffffffffffffffffffffffffffffffffffffffff166394e7ef6e836040518263ffffffff1660e01b8152600401610d209190612015565b602060405180830381600087803b158015610d3a57600080fd5b505af1158015610d4e573d6000803e3d6000fd5b505050506040513d601f19601f82011682018060405250610d7291908101906119b8565b9050919050565b600060606000809054906101000a900473ffffffffffffffffffffffffffffffffffffffff1673ffffffffffffffffffffffffffffffffffffffff16639b9fc6e0846040518263ffffffff1660e01b8152600401610dd79190612037565b60006040518083038186803b158015610def57600080fd5b505afa158015610e03573d6000803e3d6000fd5b505050506040513d6000823e3d601f19601f82011682018060405250610e2c9190810190611b1a565b91509150915091565b60606000809054906101000a900473ffffffffffffffffffffffffffffffffffffffff1673ffffffffffffffffffffffffffffffffffffffff1663a74380a6836040518263ffffffff1660e01b8152600401610e919190611ecc565b60006040518083038186803b158015610ea957600080fd5b505afa158015610ebd573d6000803e3d6000fd5b505050506040513d6000823e3d601f19601f82011682018060405250610ee69190810190611baf565b9050919050565b60008060606000809054906101000a900473ffffffffffffffffffffffffffffffffffffffff1673ffffffffffffffffffffffffffffffffffffffff1663ad36054b856040518263ffffffff1660e01b8152600401610f4c9190611f77565b60006040518083038186803b158015610f6457600080fd5b505afa158015610f78573d6000803e3d6000fd5b505050506040513d6000823e3d601f19601f82011682018060405250610fa19190810190611c42565b9250925092509193909250565b60008060009054906101000a900473ffffffffffffffffffffffffffffffffffffffff1673ffffffffffffffffffffffffffffffffffffffff1663b1d5458d836040518263ffffffff1660e01b815260040161100a9190611f77565b60206040518083038186803b15801561102257600080fd5b505afa158015611036573d6000803e3d6000fd5b505050506040513d601f19601f8201168201806040525061105a9190810190611c19565b9050919050565b60008060009054906101000a900473ffffffffffffffffffffffffffffffffffffffff1673ffffffffffffffffffffffffffffffffffffffff1663b5644074868686866040518563ffffffff1660e01b81526004016110c39493929190611f92565b602060405180830381600087803b1580156110dd57600080fd5b505af11580156110f1573d6000803e3d6000fd5b505050506040513d601f19601f8201168201806040525061111591908101906119b8565b5060019050949350505050565b60008060009054906101000a900473ffffffffffffffffffffffffffffffffffffffff1673ffffffffffffffffffffffffffffffffffffffff1663b9affb93836040518263ffffffff1660e01b815260040161117e9190611ecc565b60206040518083038186803b15801561119657600080fd5b505afa1580156111aa573d6000803e3d6000fd5b505050506040513d601f19601f820116820180604052506111ce9190810190611a0a565b9050919050565b60008060606000809054906101000a900473ffffffffffffffffffffffffffffffffffffffff1673ffffffffffffffffffffffffffffffffffffffff1663ba5c0335856040518263ffffffff1660e01b81526004016112349190611ecc565b60006040518083038186803b15801561124c57600080fd5b505afa158015611260573d6000803e3d6000fd5b505050506040513d6000823e3d601f19601f820116820180604052506112899190810190611ca9565b9250925092509193909250565b60008060009054906101000a900473ffffffffffffffffffffffffffffffffffffffff1673ffffffffffffffffffffffffffffffffffffffff1663c190665b6040518163ffffffff1660e01b815260040160206040518083038186803b1580156112ff57600080fd5b505afa158015611313573d6000803e3d6000fd5b505050506040513d601f19601f820116820180604052506113379190810190611c19565b905090565b60008060009054906101000a900473ffffffffffffffffffffffffffffffffffffffff1673ffffffffffffffffffffffffffffffffffffffff1663cbb7e2ff836040518263ffffffff1660e01b81526004016113989190612037565b60206040518083038186803b1580156113b057600080fd5b505afa1580156113c4573d6000803e3d6000fd5b505050506040513d601f19601f820116820180604052506113e89190810190611a0a565b9050919050565b60008060009054906101000a900473ffffffffffffffffffffffffffffffffffffffff1673ffffffffffffffffffffffffffffffffffffffff1663ce10cf88836040518263ffffffff1660e01b815260040161144b9190612037565b60206040518083038186803b15801561146357600080fd5b505afa158015611477573d6000803e3d6000fd5b505050506040513d601f19601f8201168201806040525061149b91908101906118bc565b9050919050565b60606000809054906101000a900473ffffffffffffffffffffffffffffffffffffffff1673ffffffffffffffffffffffffffffffffffffffff1663dfb7ab60836040518263ffffffff1660e01b81526004016114fe9190611f77565b60006040518083038186803b15801561151657600080fd5b505afa15801561152a573d6000803e3d6000fd5b505050506040513d6000823e3d601f19601f820116820180604052506115539190810190611baf565b9050919050565b60008060009054906101000a900473ffffffffffffffffffffffffffffffffffffffff1673ffffffffffffffffffffffffffffffffffffffff1663eb9fbaa9836040518263ffffffff1660e01b81526004016115b69190611ecc565b60206040518083038186803b1580156115ce57600080fd5b505afa1580156115e2573d6000803e3d6000fd5b505050506040513d601f19601f8201168201806040525061160691908101906119b8565b9050919050565b60008135905061161c816122f2565b92915050565b600081519050611631816122f2565b92915050565b600082601f83011261164857600080fd5b815161165b611656826120fb565b6120ce565b9150818183526020840193506020810190508385602084028201111561168057600080fd5b60005b838110156116b057816116968882611758565b845260208401935060208301925050600181019050611683565b5050505092915050565b600082601f8301126116cb57600080fd5b81516116de6116d982612123565b6120ce565b9150818183526020840193506020810190508360005b83811015611724578151860161170a888261176d565b8452602084019350602083019250506001810190506116f4565b5050505092915050565b60008151905061173d81612309565b92915050565b60008135905061175281612320565b92915050565b60008151905061176781612320565b92915050565b600082601f83011261177e57600080fd5b815161179161178c8261214b565b6120ce565b915080825260208301602083018583830111156117ad57600080fd5b6117b88382846122ae565b50505092915050565b600082601f8301126117d257600080fd5b81356117e56117e082612177565b6120ce565b9150808252602083016020830185838301111561180157600080fd5b61180c83828461229f565b50505092915050565b600082601f83011261182657600080fd5b815161183961183482612177565b6120ce565b9150808252602083016020830185838301111561185557600080fd5b6118608382846122ae565b50505092915050565b60008135905061187881612337565b92915050565b60008151905061188d81612337565b92915050565b6000602082840312156118a557600080fd5b60006118b38482850161160d565b91505092915050565b6000602082840312156118ce57600080fd5b60006118dc84828501611622565b91505092915050565b6000806000606084860312156118fa57600080fd5b600061190886828701611622565b935050602061191986828701611758565b925050604084015167ffffffffffffffff81111561193657600080fd5b61194286828701611815565b9150509250925092565b6000806040838503121561195f57600080fd5b600083015167ffffffffffffffff81111561197957600080fd5b61198585828601611637565b925050602083015167ffffffffffffffff8111156119a257600080fd5b6119ae858286016116ba565b9150509250929050565b6000602082840312156119ca57600080fd5b60006119d88482850161172e565b91505092915050565b6000602082840312156119f357600080fd5b6000611a0184828501611743565b91505092915050565b600060208284031215611a1c57600080fd5b6000611a2a84828501611758565b91505092915050565b60008060008060808587031215611a4957600080fd5b6000611a5787828801611743565b9450506020611a6887828801611743565b935050604085013567ffffffffffffffff811115611a8557600080fd5b611a91878288016117c1565b925050606085013567ffffffffffffffff811115611aae57600080fd5b611aba878288016117c1565b91505092959194509250565b60008060408385031215611ad957600080fd5b6000611ae785828601611743565b925050602083013567ffffffffffffffff811115611b0457600080fd5b611b10858286016117c1565b9150509250929050565b60008060408385031215611b2d57600080fd5b6000611b3b85828601611758565b925050602083015167ffffffffffffffff811115611b5857600080fd5b611b6485828601611815565b9150509250929050565b600060208284031215611b8057600080fd5b600082013567ffffffffffffffff811115611b9a57600080fd5b611ba6848285016117c1565b91505092915050565b600060208284031215611bc157600080fd5b600082015167ffffffffffffffff811115611bdb57600080fd5b611be784828501611815565b91505092915050565b600060208284031215611c0257600080fd5b6000611c1084828501611869565b91505092915050565b600060208284031215611c2b57600080fd5b6000611c398482850161187e565b91505092915050565b600080600060608486031215611c5757600080fd5b6000611c658682870161187e565b9350506020611c7686828701611622565b925050604084015167ffffffffffffffff811115611c9357600080fd5b611c9f86828701611815565b9150509250925092565b600080600060608486031215611cbe57600080fd5b6000611ccc8682870161187e565b9350506020611cdd86828701611758565b925050604084015167ffffffffffffffff811115611cfa57600080fd5b611d0686828701611815565b9150509250925092565b6000611d1c8383611e2d565b60208301905092915050565b6000611d348383611e84565b905092915050565b611d458161224d565b82525050565b6000611d56826121c3565b611d608185612209565b9350611d6b836121a3565b8060005b83811015611d9c578151611d838882611d10565b9750611d8e836121ef565b925050600181019050611d6f565b5085935050505092915050565b6000611db4826121ce565b611dbe818561221a565b935083602082028501611dd0856121b3565b8060005b85811015611e0c5784840389528151611ded8582611d28565b9450611df8836121fc565b925060208a01995050600181019050611dd4565b50829750879550505050505092915050565b611e278161225f565b82525050565b611e368161226b565b82525050565b611e458161226b565b82525050565b6000611e56826121e4565b611e60818561223c565b9350611e708185602086016122ae565b611e79816122e1565b840191505092915050565b6000611e8f826121d9565b611e99818561222b565b9350611ea98185602086016122ae565b611eb2816122e1565b840191505092915050565b611ec681612295565b82525050565b6000602082019050611ee16000830184611d3c565b92915050565b6000606082019050611efc6000830186611d3c565b611f096020830185611e3c565b8181036040830152611f1b8184611e4b565b9050949350505050565b60006040820190508181036000830152611f3f8185611d4b565b90508181036020830152611f538184611da9565b90509392505050565b6000602082019050611f716000830184611e1e565b92915050565b6000602082019050611f8c6000830184611e3c565b92915050565b6000608082019050611fa76000830187611e3c565b611fb46020830186611e3c565b8181036040830152611fc68185611e4b565b90508181036060830152611fda8184611e4b565b905095945050505050565b6000604082019050611ffa6000830185611e3c565b818103602083015261200c8184611e4b565b90509392505050565b6000602082019050818103600083015261202f8184611e4b565b905092915050565b600060208201905061204c6000830184611ebd565b92915050565b60006060820190506120676000830186611ebd565b6120746020830185611d3c565b81810360408301526120868184611e4b565b9050949350505050565b60006060820190506120a56000830186611ebd565b6120b26020830185611e3c565b81810360408301526120c48184611e4b565b9050949350505050565b6000604051905081810181811067ffffffffffffffff821117156120f157600080fd5b8060405250919050565b600067ffffffffffffffff82111561211257600080fd5b602082029050602081019050919050565b600067ffffffffffffffff82111561213a57600080fd5b602082029050602081019050919050565b600067ffffffffffffffff82111561216257600080fd5b601f19601f8301169050602081019050919050565b600067ffffffffffffffff82111561218e57600080fd5b601f19601f8301169050602081019050919050565b6000819050602082019050919050565b6000819050602082019050919050565b600081519050919050565b600081519050919050565b600081519050919050565b600081519050919050565b6000602082019050919050565b6000602082019050919050565b600082825260208201905092915050565b600082825260208201905092915050565b600082825260208201905092915050565b600082825260208201905092915050565b600061225882612275565b9050919050565b60008115159050919050565b6000819050919050565b600073ffffffffffffffffffffffffffffffffffffffff82169050919050565b6000819050919050565b82818337600083830152505050565b60005b838110156122cc5780820151818401526020810190506122b1565b838111156122db576000848401525b50505050565b6000601f19601f8301169050919050565b6122fb8161224d565b811461230657600080fd5b50565b6123128161225f565b811461231d57600080fd5b50565b6123298161226b565b811461233457600080fd5b50565b61234081612295565b811461234b57600080fd5b5056fea365627a7a72315820b92d260d4e6338323004c19a7b9ba64b1b9e5d6ceb71def7512f317742b634486c6578706572696d656e74616cf564736f6c63430005100040",
  "source": "pragma solidity >=0.5.16;\npragma experimental ABIEncoderV2;\nimport \"./Consultation.sol\";\n\ncontract Storage {\n    mapping(address => uint) private addressToIndex;\n    mapping(bytes32 => uint) private patientnameToIndex;\n    address[] private addresses;\n    bytes32[] private patientUnames;\n    bytes[] private ipfsHashes;\n    \n    // Consultation mapping\n    mapping(bytes32 => uint) private consulDateIDToIndex;\n    // patient name to consultations\n    mapping(bytes32 => bytes32[]) pnameToConsulArray;\n    mapping(bytes32 => bytes[]) pnameToConsulIpfsArray;\n    // patient address to consultations\n    mapping(address => bytes32[]) paddressToConsulArray;\n    mapping(address => bytes[]) paddressToConsulIpfsArray;\n    bytes32[] consultations;\n    bytes[] private consulIPFShashes;\n\n\nfunction consultationCreate(bytes32 _pname, bytes32 _consulDateID,\n   bytes memory _ipfsConsulHash, bytes memory newPatientIpfs)public returns(bool){\n   // Create new consultation with ID and its IPFS Hash\n   new Consultation(_consulDateID, _ipfsConsulHash);\n   consultations.push(_consulDateID);\n   consulIPFShashes.push(_ipfsConsulHash);\n   consulDateIDToIndex[_consulDateID] = consultations.length;\n   pnameToConsulArray[_pname] = consultations;\n   pnameToConsulIpfsArray[_pname] = consulIPFShashes;\n   paddressToConsulArray[msg.sender] = consultations;\n   paddressToConsulIpfsArray[msg.sender] = consulIPFShashes;\n   // Consultations hash append to patient ipfs storage\n   updatePatient(newPatientIpfs);\n//   emit consultationCreated(_pname, _consulDateID);\n   return true;\n\n}\n\nfunction getConsultationByConsultationIndex(uint _index) public view returns(bytes32 consulID, bytes memory ipfs){\n   return (consultations[_index], consulIPFShashes[_index]);\n}\n\nfunction getConsultationIpfsByConsultationID(bytes32 _consulDateID) public view returns(bytes memory ipfs){\n   return consulIPFShashes[consulDateIDToIndex[_consulDateID]];\n}\n\nfunction getConsultationIndexByConsultationID(bytes32 _consulDateID) public view returns(uint){\n   return consulDateIDToIndex[_consulDateID];\n}\n\nfunction getConsultationsByPatientName(bytes32 _pname) public view returns(bytes32[] memory, bytes[] memory) {\n   require(hasPatient(getAddressByPatientName(_pname)),\n          \"Patient hasn't been found\");\n   return (pnameToConsulArray[_pname], pnameToConsulIpfsArray[_pname]);\n}\n\nfunction getConsultationsByPatientAddress(address patientAddress) public view returns(bytes32[] memory, bytes[] memory){\n   require(hasPatient(patientAddress),\n          \"Patient hasn't been found\");\n   return(paddressToConsulArray[patientAddress],paddressToConsulIpfsArray[patientAddress]);\n}\n\n    function registerPatient(bytes32 patientName, bytes memory ipfsHash) public returns(bool) {\n        require(!hasPatient(msg.sender),\n           \"Sender not authorized.\");\n        require(!patientNameTaken(patientName),\n           \"Patient name has been taken.\");\n        addresses.push(msg.sender);\n        patientUnames.push(patientName);\n        ipfsHashes.push(ipfsHash);\n        addressToIndex[msg.sender] = addresses.length - 1;\n        patientnameToIndex[patientName] = addresses.length - 1;\n        return true;\n }\n    function hasPatient(address _patientAdresses) public view returns(bool) {\n        return (addressToIndex[_patientAdresses] > 0 || _patientAdresses == addresses[0]);\n }\n    function patientNameTaken(bytes32 pname) public view returns(bool takenIndeed) {\n    return (patientnameToIndex[pname] > 0 || pname == 'self');\n }\n\n  function updatePatient(bytes memory ipfsHash) public returns(bool){\n    require(!hasPatient(msg.sender),\n            \"Sender not authorized.\");\n    ipfsHashes[addressToIndex[msg.sender]] = ipfsHash;\n    return true;\n }\n\n function getPatientCount() public view returns(uint){\n    return addresses.length;\n }\n\n function getPatientByIndex(uint index) public view returns(address,bytes32,bytes memory){\n    require((index < addresses.length),\n            \"Index out of bound!\");\n    return(addresses[index], patientUnames[index], ipfsHashes[index]);\n }\n\n function getAddressByIndex(uint index) public view returns(address){\n    require((index < addresses.length),\n            \"Index out of bound!\");\n    return addresses[index];\n }\n\n function getPatientNameByIndex(uint index) public view returns(bytes32){\n    require((index < addresses.length),\n            \"Index out of bound!\");\n    return patientUnames[index];\n }\n\n function getIpfsHashByIndex(uint index) public view returns(bytes memory){\n    require((index < addresses.length),\n            \"Index out of bound!\");\n    return ipfsHashes[index];\n }\n\n function getPatientByAddress(address patientAddress) public view returns(uint, bytes32, bytes memory){\n    require(hasPatient(patientAddress),\n            \"Patient doesn't exist!\");\n    return(addressToIndex[patientAddress], patientUnames[addressToIndex[patientAddress]], ipfsHashes[addressToIndex[patientAddress]]);\n }\n\n function getIndexByAddress(address patientAddress) public view returns(uint){\n    require(hasPatient(patientAddress),\n            \"Patient doesn't exist!\");\n    return addressToIndex[patientAddress];\n }\n\n function getPatientNameByAddress(address patientAddress) public view returns(bytes32){\n    require(hasPatient(patientAddress),\n            \"Patient doesn't exist!\");\n    return patientUnames[addressToIndex[patientAddress]];\n }\n\n function getIpfsHashByAddress(address patientAddress) public view returns(bytes memory){\n    require(hasPatient(patientAddress),\n            \"Patient doesn't exist!\");\n    return ipfsHashes[addressToIndex[patientAddress]];\n }\n\n function getPatientByPatientName(bytes32 patientname) public view returns(uint,address,bytes memory){\n    require((patientnameToIndex[patientname] < addresses.length),\n            \"Patient index out of bound!\");\n    return(patientnameToIndex[patientname], addresses[patientnameToIndex[patientname]], ipfsHashes[patientnameToIndex[patientname]]);\n }\n\n function getIndexByPatientName(bytes32 patientname) public view returns(uint){\n    require((patientNameTaken(patientname)),\n        \"Can't find the patient!\");\n    return patientnameToIndex[patientname];\n }\n\n function getAddressByPatientName(bytes32 patientname) public view returns(address){\n    require((patientNameTaken(patientname)),\n        \"Can't find the patient!\");\n    return addresses[patientnameToIndex[patientname]];\n }\n function getIpfsHashByPatientName(bytes32 patientname) public view returns(bytes memory){\n    require((patientNameTaken(patientname)),\n            \"Can't find the patient!\");\n    return ipfsHashes[patientnameToIndex[patientname]];\n }\n}\n\ncontract Client {\n\n    Storage datastore;\n\nconstructor(address storageAddress) public {\n    datastore = Storage(storageAddress);\n}\n\nfunction consultationCreate(bytes32 _pname, bytes32 _consulDateID,\n   bytes memory _ipfsConsulHash, bytes memory newPatientIpfs)public returns(bool){\n   datastore.consultationCreate(_pname, _consulDateID, _ipfsConsulHash, newPatientIpfs);\n   return true;\n\n}\n\nfunction getConsultationByConsultationIndex(uint _index) public view returns(bytes32 consulID, bytes memory ipfs){\n   return datastore.getConsultationByConsultationIndex(_index);\n}\n\nfunction getConsultationIpfsByConsultationID(bytes32 _consulDateID) public view returns(bytes memory ipfs){\n   return datastore.getConsultationIpfsByConsultationID(_consulDateID);\n}\n\nfunction getConsultationIndexByConsultationID(bytes32 _consulDateID) public view returns(uint){\n   return datastore.getConsultationIndexByConsultationID(_consulDateID);\n}\n\nfunction getConsultationsByPatientName(bytes32 _pname) public view returns(bytes32[] memory, bytes[] memory) {\n   return datastore.getConsultationsByPatientName(_pname);\n}\n\nfunction getConsultationsByPatientAddress(address patientAddress) public view returns(bytes32[] memory, bytes[] memory){\n   return datastore.getConsultationsByPatientAddress(patientAddress);\n}\n\nfunction registerPatient(bytes32 patientName, bytes memory ipfsHash) public returns(bool) {\n    return datastore.registerPatient(patientName,ipfsHash);\n }\n \nfunction hasPatient(address _patientAdresses) public view returns(bool) {\n    return datastore.hasPatient(_patientAdresses);\n }\nfunction patientNameTaken(bytes32 pname) public view returns(bool takenIndeed) {\n    return datastore.patientNameTaken(pname);\n }\n \n  function updatePatient(bytes memory ipfsHash) public returns(bool){\n    return datastore.updatePatient(ipfsHash);\n }\n\n function getPatientCount() public view returns(uint){\n    return datastore.getPatientCount();\n }\n\n function getPatientByIndex(uint index) public view returns(address,bytes32,bytes memory){\n    return datastore.getPatientByIndex(index);\n }\n\n function getAddressByIndex(uint index) public view returns(address){\n    return datastore.getAddressByIndex(index);\n }\n\n function getPatientNameByIndex(uint index) public view returns(bytes32){\n    return datastore.getPatientNameByIndex(index);\n }\n\n function getIpfsHashByIndex(uint index) public view returns(bytes memory){\n    return datastore.getIpfsHashByIndex(index);\n }\n\n function getPatientByAddress(address patientAddress) public view returns(uint, bytes32, bytes memory){\n    return datastore.getPatientByAddress(patientAddress);\n }\n\n function getIndexByAddress(address patientAddress) public view returns(uint){\n    return datastore.getIndexByAddress(patientAddress);\n }\n\n function getPatientNameByAddress(address patientAddress) public view returns(bytes32){\n    return datastore.getPatientNameByAddress(patientAddress);\n }\n\n function getIpfsHashByAddress(address patientAddress) public view returns(bytes memory){\n    return datastore.getIpfsHashByAddress(patientAddress);\n }\n\n function getPatientByPatientName(bytes32 patientname) public view returns(uint,address,bytes memory){\n    return datastore.getPatientByPatientName(patientname);\n }\n\n function getIndexByPatientName(bytes32 patientname) public view returns(uint){\n    return datastore.getIndexByPatientName(patientname);\n }\n\n function getAddressByPatientName(bytes32 patientname) public view returns(address){\n    return datastore.getAddressByPatientName(patientname);\n }\n function getIpfsHashByPatientName(bytes32 patientname) public view returns(bytes memory){\n    return datastore.getIpfsHashByPatientName(patientname);\n }\n}\n\ncontract ClientFactory {\n event LogNewClientCreated(address sender, Client newClient);\n\n function createClient(address storageContract) public returns(Client newClient) {\n   Client c = new Client(storageContract);\n   emit LogNewClientCreated(msg.sender, c);\n   return c;\n   }\n}",
  "sourcePath": "/home/eke/patient-eth-ipfs/contracts/PatientIndex.sol",
  "compiler": {
    "name": "solc",
    "version": "0.5.16+commit.9c3226ce.Emscripten.clang"
  },
  "schemaVersion": "3.0.23",
  "updatedAt": "2020-04-11T17:08:52.414Z",
  "devdoc": {
    "methods": {}
  },
  "userdoc": {
    "methods": {}
  }
}