{
  "contractName": "Client",
  "abi": [
    {
      "inputs": [
        {
          "internalType": "address",
          "name": "storageAddress",
          "type": "address"
        }
      ],
      "payable": false,
      "stateMutability": "nonpayable",
      "type": "constructor"
    },
    {
      "constant": false,
      "inputs": [
        {
          "internalType": "bytes32",
          "name": "patientName",
          "type": "bytes32"
        },
        {
          "internalType": "bytes",
          "name": "ipfsHash",
          "type": "bytes"
        }
      ],
      "name": "registerPatient",
      "outputs": [
        {
          "internalType": "bool",
          "name": "",
          "type": "bool"
        }
      ],
      "payable": false,
      "stateMutability": "nonpayable",
      "type": "function"
    },
    {
      "constant": true,
      "inputs": [
        {
          "internalType": "address",
          "name": "_patientAdresses",
          "type": "address"
        }
      ],
      "name": "hasPatient",
      "outputs": [
        {
          "internalType": "bool",
          "name": "",
          "type": "bool"
        }
      ],
      "payable": false,
      "stateMutability": "view",
      "type": "function"
    },
    {
      "constant": true,
      "inputs": [
        {
          "internalType": "bytes32",
          "name": "pname",
          "type": "bytes32"
        }
      ],
      "name": "patientNameTaken",
      "outputs": [
        {
          "internalType": "bool",
          "name": "takenIndeed",
          "type": "bool"
        }
      ],
      "payable": false,
      "stateMutability": "view",
      "type": "function"
    },
    {
      "constant": false,
      "inputs": [
        {
          "internalType": "bytes",
          "name": "ipfsHash",
          "type": "bytes"
        }
      ],
      "name": "updatePatient",
      "outputs": [
        {
          "internalType": "bool",
          "name": "",
          "type": "bool"
        }
      ],
      "payable": false,
      "stateMutability": "nonpayable",
      "type": "function"
    },
    {
      "constant": true,
      "inputs": [],
      "name": "getPatientCount",
      "outputs": [
        {
          "internalType": "uint256",
          "name": "",
          "type": "uint256"
        }
      ],
      "payable": false,
      "stateMutability": "view",
      "type": "function"
    },
    {
      "constant": true,
      "inputs": [
        {
          "internalType": "uint256",
          "name": "index",
          "type": "uint256"
        }
      ],
      "name": "getPatientByIndex",
      "outputs": [
        {
          "internalType": "address",
          "name": "",
          "type": "address"
        },
        {
          "internalType": "bytes32",
          "name": "",
          "type": "bytes32"
        },
        {
          "internalType": "bytes",
          "name": "",
          "type": "bytes"
        }
      ],
      "payable": false,
      "stateMutability": "view",
      "type": "function"
    },
    {
      "constant": true,
      "inputs": [
        {
          "internalType": "uint256",
          "name": "index",
          "type": "uint256"
        }
      ],
      "name": "getAddressByIndex",
      "outputs": [
        {
          "internalType": "address",
          "name": "",
          "type": "address"
        }
      ],
      "payable": false,
      "stateMutability": "view",
      "type": "function"
    },
    {
      "constant": true,
      "inputs": [
        {
          "internalType": "uint256",
          "name": "index",
          "type": "uint256"
        }
      ],
      "name": "getPatientNameByIndex",
      "outputs": [
        {
          "internalType": "bytes32",
          "name": "",
          "type": "bytes32"
        }
      ],
      "payable": false,
      "stateMutability": "view",
      "type": "function"
    },
    {
      "constant": true,
      "inputs": [
        {
          "internalType": "uint256",
          "name": "index",
          "type": "uint256"
        }
      ],
      "name": "getIpfsHashByIndex",
      "outputs": [
        {
          "internalType": "bytes",
          "name": "",
          "type": "bytes"
        }
      ],
      "payable": false,
      "stateMutability": "view",
      "type": "function"
    },
    {
      "constant": true,
      "inputs": [
        {
          "internalType": "address",
          "name": "patientAddress",
          "type": "address"
        }
      ],
      "name": "getPatientByAddress",
      "outputs": [
        {
          "internalType": "uint256",
          "name": "",
          "type": "uint256"
        },
        {
          "internalType": "bytes32",
          "name": "",
          "type": "bytes32"
        },
        {
          "internalType": "bytes",
          "name": "",
          "type": "bytes"
        }
      ],
      "payable": false,
      "stateMutability": "view",
      "type": "function"
    },
    {
      "constant": true,
      "inputs": [
        {
          "internalType": "address",
          "name": "patientAddress",
          "type": "address"
        }
      ],
      "name": "getIndexByAddress",
      "outputs": [
        {
          "internalType": "uint256",
          "name": "",
          "type": "uint256"
        }
      ],
      "payable": false,
      "stateMutability": "view",
      "type": "function"
    },
    {
      "constant": true,
      "inputs": [
        {
          "internalType": "address",
          "name": "patientAddress",
          "type": "address"
        }
      ],
      "name": "getPatientNameByAddress",
      "outputs": [
        {
          "internalType": "bytes32",
          "name": "",
          "type": "bytes32"
        }
      ],
      "payable": false,
      "stateMutability": "view",
      "type": "function"
    },
    {
      "constant": true,
      "inputs": [
        {
          "internalType": "address",
          "name": "patientAddress",
          "type": "address"
        }
      ],
      "name": "getIpfsHashByAddress",
      "outputs": [
        {
          "internalType": "bytes",
          "name": "",
          "type": "bytes"
        }
      ],
      "payable": false,
      "stateMutability": "view",
      "type": "function"
    },
    {
      "constant": true,
      "inputs": [
        {
          "internalType": "bytes32",
          "name": "patientname",
          "type": "bytes32"
        }
      ],
      "name": "getPatientByPatientName",
      "outputs": [
        {
          "internalType": "uint256",
          "name": "",
          "type": "uint256"
        },
        {
          "internalType": "address",
          "name": "",
          "type": "address"
        },
        {
          "internalType": "bytes",
          "name": "",
          "type": "bytes"
        }
      ],
      "payable": false,
      "stateMutability": "view",
      "type": "function"
    },
    {
      "constant": true,
      "inputs": [
        {
          "internalType": "bytes32",
          "name": "patientname",
          "type": "bytes32"
        }
      ],
      "name": "getIndexByPatientName",
      "outputs": [
        {
          "internalType": "uint256",
          "name": "",
          "type": "uint256"
        }
      ],
      "payable": false,
      "stateMutability": "view",
      "type": "function"
    },
    {
      "constant": true,
      "inputs": [
        {
          "internalType": "bytes32",
          "name": "patientname",
          "type": "bytes32"
        }
      ],
      "name": "getAddressByPatientName",
      "outputs": [
        {
          "internalType": "address",
          "name": "",
          "type": "address"
        }
      ],
      "payable": false,
      "stateMutability": "view",
      "type": "function"
    },
    {
      "constant": true,
      "inputs": [
        {
          "internalType": "bytes32",
          "name": "patientname",
          "type": "bytes32"
        }
      ],
      "name": "getIpfsHashByPatientName",
      "outputs": [
        {
          "internalType": "bytes",
          "name": "",
          "type": "bytes"
        }
      ],
      "payable": false,
      "stateMutability": "view",
      "type": "function"
    },
    {
      "constant": false,
      "inputs": [
        {
          "internalType": "bytes32",
          "name": "_pname",
          "type": "bytes32"
        },
        {
          "internalType": "bytes32",
          "name": "_consulDateID",
          "type": "bytes32"
        },
        {
          "internalType": "bytes",
          "name": "newPatientIpfs",
          "type": "bytes"
        }
      ],
      "name": "consultationCreate",
      "outputs": [
        {
          "internalType": "bool",
          "name": "",
          "type": "bool"
        }
      ],
      "payable": false,
      "stateMutability": "nonpayable",
      "type": "function"
    },
    {
      "constant": true,
      "inputs": [
        {
          "internalType": "bytes32",
          "name": "_pname",
          "type": "bytes32"
        },
        {
          "internalType": "uint256",
          "name": "_index",
          "type": "uint256"
        }
      ],
      "name": "getConsultationByConsultationIndex",
      "outputs": [
        {
          "internalType": "bytes32",
          "name": "consulID",
          "type": "bytes32"
        }
      ],
      "payable": false,
      "stateMutability": "view",
      "type": "function"
    },
    {
      "constant": true,
      "inputs": [
        {
          "internalType": "bytes32",
          "name": "_pname",
          "type": "bytes32"
        },
        {
          "internalType": "bytes32",
          "name": "_consulDateID",
          "type": "bytes32"
        }
      ],
      "name": "getConsultationIndexByConsultationID",
      "outputs": [
        {
          "internalType": "uint256",
          "name": "",
          "type": "uint256"
        }
      ],
      "payable": false,
      "stateMutability": "view",
      "type": "function"
    },
    {
      "constant": true,
      "inputs": [
        {
          "internalType": "bytes32",
          "name": "_pname",
          "type": "bytes32"
        }
      ],
      "name": "getConsultationsByPatientName",
      "outputs": [
        {
          "internalType": "bytes32[]",
          "name": "",
          "type": "bytes32[]"
        }
      ],
      "payable": false,
      "stateMutability": "view",
      "type": "function"
    },
    {
      "constant": true,
      "inputs": [
        {
          "internalType": "address",
          "name": "patientAddress",
          "type": "address"
        }
      ],
      "name": "getConsultationsByPatientAddress",
      "outputs": [
        {
          "internalType": "bytes32[]",
          "name": "",
          "type": "bytes32[]"
        }
      ],
      "payable": false,
      "stateMutability": "view",
      "type": "function"
    },
    {
      "constant": false,
      "inputs": [
        {
          "internalType": "bytes32",
          "name": "_pname",
          "type": "bytes32"
        },
        {
          "internalType": "bytes32",
          "name": "_testDateID",
          "type": "bytes32"
        },
        {
          "internalType": "bytes",
          "name": "newPatientIpfs",
          "type": "bytes"
        }
      ],
      "name": "testCreate",
      "outputs": [
        {
          "internalType": "bool",
          "name": "",
          "type": "bool"
        }
      ],
      "payable": false,
      "stateMutability": "nonpayable",
      "type": "function"
    },
    {
      "constant": true,
      "inputs": [
        {
          "internalType": "bytes32",
          "name": "patientName",
          "type": "bytes32"
        },
        {
          "internalType": "uint256",
          "name": "_index",
          "type": "uint256"
        }
      ],
      "name": "getTestByTestIndex",
      "outputs": [
        {
          "internalType": "bytes32",
          "name": "testID",
          "type": "bytes32"
        }
      ],
      "payable": false,
      "stateMutability": "view",
      "type": "function"
    },
    {
      "constant": true,
      "inputs": [
        {
          "internalType": "bytes32",
          "name": "patientName",
          "type": "bytes32"
        },
        {
          "internalType": "bytes32",
          "name": "_testDateID",
          "type": "bytes32"
        }
      ],
      "name": "getTestIndexByTestID",
      "outputs": [
        {
          "internalType": "uint256",
          "name": "",
          "type": "uint256"
        }
      ],
      "payable": false,
      "stateMutability": "view",
      "type": "function"
    },
    {
      "constant": true,
      "inputs": [
        {
          "internalType": "bytes32",
          "name": "_pname",
          "type": "bytes32"
        }
      ],
      "name": "getTestsByPatientName",
      "outputs": [
        {
          "internalType": "bytes32[]",
          "name": "",
          "type": "bytes32[]"
        }
      ],
      "payable": false,
      "stateMutability": "view",
      "type": "function"
    },
    {
      "constant": true,
      "inputs": [
        {
          "internalType": "address",
          "name": "patientAddress",
          "type": "address"
        }
      ],
      "name": "getTestsByPatientAddress",
      "outputs": [
        {
          "internalType": "bytes32[]",
          "name": "",
          "type": "bytes32[]"
        }
      ],
      "payable": false,
      "stateMutability": "view",
      "type": "function"
    },
    {
      "constant": true,
      "inputs": [
        {
          "internalType": "bytes32",
          "name": "patientName",
          "type": "bytes32"
        }
      ],
      "name": "getTestsCount",
      "outputs": [
        {
          "internalType": "uint256",
          "name": "",
          "type": "uint256"
        }
      ],
      "payable": false,
      "stateMutability": "view",
      "type": "function"
    },
    {
      "constant": false,
      "inputs": [
        {
          "internalType": "bytes32",
          "name": "patientName",
          "type": "bytes32"
        },
        {
          "internalType": "bytes32",
          "name": "consulDateID",
          "type": "bytes32"
        },
        {
          "internalType": "bytes32",
          "name": "mname",
          "type": "bytes32"
        }
      ],
      "name": "saveMedicineForPatientUse",
      "outputs": [
        {
          "internalType": "bool",
          "name": "",
          "type": "bool"
        }
      ],
      "payable": false,
      "stateMutability": "nonpayable",
      "type": "function"
    },
    {
      "constant": true,
      "inputs": [
        {
          "internalType": "bytes32",
          "name": "patientName",
          "type": "bytes32"
        },
        {
          "internalType": "bytes32",
          "name": "consulDateID",
          "type": "bytes32"
        }
      ],
      "name": "getMedicinesFromConsultation",
      "outputs": [
        {
          "internalType": "bytes32[]",
          "name": "",
          "type": "bytes32[]"
        }
      ],
      "payable": false,
      "stateMutability": "view",
      "type": "function"
    },
    {
      "constant": true,
      "inputs": [
        {
          "internalType": "bytes32",
          "name": "patientName",
          "type": "bytes32"
        },
        {
          "internalType": "bytes32",
          "name": "_consulDateID",
          "type": "bytes32"
        },
        {
          "internalType": "bytes32",
          "name": "medname",
          "type": "bytes32"
        }
      ],
      "name": "getMedicineByMedicineName",
      "outputs": [
        {
          "internalType": "bytes32",
          "name": "",
          "type": "bytes32"
        }
      ],
      "payable": false,
      "stateMutability": "view",
      "type": "function"
    },
    {
      "constant": true,
      "inputs": [
        {
          "internalType": "bytes32",
          "name": "patientName",
          "type": "bytes32"
        },
        {
          "internalType": "bytes32",
          "name": "_consulDateID",
          "type": "bytes32"
        }
      ],
      "name": "getMedicinesCountFromConsultation",
      "outputs": [
        {
          "internalType": "uint256",
          "name": "",
          "type": "uint256"
        }
      ],
      "payable": false,
      "stateMutability": "view",
      "type": "function"
    },
    {
      "constant": false,
      "inputs": [
        {
          "internalType": "bytes32",
          "name": "DoctorName",
          "type": "bytes32"
        },
        {
          "internalType": "bytes",
          "name": "ipfsHash",
          "type": "bytes"
        }
      ],
      "name": "registerDoctor",
      "outputs": [
        {
          "internalType": "bool",
          "name": "",
          "type": "bool"
        }
      ],
      "payable": false,
      "stateMutability": "nonpayable",
      "type": "function"
    },
    {
      "constant": false,
      "inputs": [
        {
          "internalType": "bytes",
          "name": "ipfsHash",
          "type": "bytes"
        }
      ],
      "name": "updateDoctor",
      "outputs": [
        {
          "internalType": "bool",
          "name": "",
          "type": "bool"
        }
      ],
      "payable": false,
      "stateMutability": "nonpayable",
      "type": "function"
    },
    {
      "constant": true,
      "inputs": [],
      "name": "getDoctorCount",
      "outputs": [
        {
          "internalType": "uint256",
          "name": "",
          "type": "uint256"
        }
      ],
      "payable": false,
      "stateMutability": "view",
      "type": "function"
    },
    {
      "constant": true,
      "inputs": [
        {
          "internalType": "uint256",
          "name": "index",
          "type": "uint256"
        }
      ],
      "name": "getDoctorByIndex",
      "outputs": [
        {
          "internalType": "address",
          "name": "",
          "type": "address"
        },
        {
          "internalType": "bytes32",
          "name": "",
          "type": "bytes32"
        },
        {
          "internalType": "bytes",
          "name": "",
          "type": "bytes"
        }
      ],
      "payable": false,
      "stateMutability": "view",
      "type": "function"
    },
    {
      "constant": true,
      "inputs": [
        {
          "internalType": "uint256",
          "name": "index",
          "type": "uint256"
        }
      ],
      "name": "getDoctorAddressByIndex",
      "outputs": [
        {
          "internalType": "address",
          "name": "",
          "type": "address"
        }
      ],
      "payable": false,
      "stateMutability": "view",
      "type": "function"
    },
    {
      "constant": true,
      "inputs": [
        {
          "internalType": "uint256",
          "name": "index",
          "type": "uint256"
        }
      ],
      "name": "getDoctorNameByIndex",
      "outputs": [
        {
          "internalType": "bytes32",
          "name": "",
          "type": "bytes32"
        }
      ],
      "payable": false,
      "stateMutability": "view",
      "type": "function"
    },
    {
      "constant": true,
      "inputs": [
        {
          "internalType": "uint256",
          "name": "index",
          "type": "uint256"
        }
      ],
      "name": "getDoctorIpfsHashByIndex",
      "outputs": [
        {
          "internalType": "bytes",
          "name": "",
          "type": "bytes"
        }
      ],
      "payable": false,
      "stateMutability": "view",
      "type": "function"
    },
    {
      "constant": true,
      "inputs": [
        {
          "internalType": "address",
          "name": "DoctorAddress",
          "type": "address"
        }
      ],
      "name": "getDoctorByAddress",
      "outputs": [
        {
          "internalType": "uint256",
          "name": "",
          "type": "uint256"
        },
        {
          "internalType": "bytes32",
          "name": "",
          "type": "bytes32"
        },
        {
          "internalType": "bytes",
          "name": "",
          "type": "bytes"
        }
      ],
      "payable": false,
      "stateMutability": "view",
      "type": "function"
    },
    {
      "constant": true,
      "inputs": [
        {
          "internalType": "address",
          "name": "DoctorAddress",
          "type": "address"
        }
      ],
      "name": "getDoctorIndexByAddress",
      "outputs": [
        {
          "internalType": "uint256",
          "name": "",
          "type": "uint256"
        }
      ],
      "payable": false,
      "stateMutability": "view",
      "type": "function"
    },
    {
      "constant": true,
      "inputs": [
        {
          "internalType": "address",
          "name": "DoctorAddress",
          "type": "address"
        }
      ],
      "name": "getDoctorNameByAddress",
      "outputs": [
        {
          "internalType": "bytes32",
          "name": "",
          "type": "bytes32"
        }
      ],
      "payable": false,
      "stateMutability": "view",
      "type": "function"
    },
    {
      "constant": true,
      "inputs": [
        {
          "internalType": "address",
          "name": "DoctorAddress",
          "type": "address"
        }
      ],
      "name": "getDoctorIpfsHashByAddress",
      "outputs": [
        {
          "internalType": "bytes",
          "name": "",
          "type": "bytes"
        }
      ],
      "payable": false,
      "stateMutability": "view",
      "type": "function"
    },
    {
      "constant": true,
      "inputs": [
        {
          "internalType": "bytes32",
          "name": "Doctorname",
          "type": "bytes32"
        }
      ],
      "name": "getDoctorByDoctorName",
      "outputs": [
        {
          "internalType": "uint256",
          "name": "",
          "type": "uint256"
        },
        {
          "internalType": "address",
          "name": "",
          "type": "address"
        },
        {
          "internalType": "bytes",
          "name": "",
          "type": "bytes"
        }
      ],
      "payable": false,
      "stateMutability": "view",
      "type": "function"
    },
    {
      "constant": true,
      "inputs": [
        {
          "internalType": "bytes32",
          "name": "Doctorname",
          "type": "bytes32"
        }
      ],
      "name": "getDoctorIndexByDoctorName",
      "outputs": [
        {
          "internalType": "uint256",
          "name": "",
          "type": "uint256"
        }
      ],
      "payable": false,
      "stateMutability": "view",
      "type": "function"
    },
    {
      "constant": true,
      "inputs": [
        {
          "internalType": "bytes32",
          "name": "Doctorname",
          "type": "bytes32"
        }
      ],
      "name": "getDoctorAddressByDoctorName",
      "outputs": [
        {
          "internalType": "address",
          "name": "",
          "type": "address"
        }
      ],
      "payable": false,
      "stateMutability": "view",
      "type": "function"
    },
    {
      "constant": true,
      "inputs": [
        {
          "internalType": "bytes32",
          "name": "Doctorname",
          "type": "bytes32"
        }
      ],
      "name": "getDoctorIpfsHashByDoctorName",
      "outputs": [
        {
          "internalType": "bytes",
          "name": "",
          "type": "bytes"
        }
      ],
      "payable": false,
      "stateMutability": "view",
      "type": "function"
    },
    {
      "constant": false,
      "inputs": [
        {
          "internalType": "bytes32",
          "name": "mname",
          "type": "bytes32"
        },
        {
          "internalType": "bytes",
          "name": "ipfsHash",
          "type": "bytes"
        }
      ],
      "name": "saveMedicine",
      "outputs": [
        {
          "internalType": "bool",
          "name": "",
          "type": "bool"
        }
      ],
      "payable": false,
      "stateMutability": "nonpayable",
      "type": "function"
    },
    {
      "constant": false,
      "inputs": [
        {
          "internalType": "bytes",
          "name": "ipfsHash",
          "type": "bytes"
        }
      ],
      "name": "updateMedicine",
      "outputs": [
        {
          "internalType": "bool",
          "name": "",
          "type": "bool"
        }
      ],
      "payable": false,
      "stateMutability": "nonpayable",
      "type": "function"
    },
    {
      "constant": true,
      "inputs": [],
      "name": "getMedicineCount",
      "outputs": [
        {
          "internalType": "uint256",
          "name": "",
          "type": "uint256"
        }
      ],
      "payable": false,
      "stateMutability": "view",
      "type": "function"
    },
    {
      "constant": true,
      "inputs": [
        {
          "internalType": "bytes32",
          "name": "mname",
          "type": "bytes32"
        }
      ],
      "name": "getMedicineByMedicinename",
      "outputs": [
        {
          "internalType": "contract Medicine",
          "name": "",
          "type": "address"
        }
      ],
      "payable": false,
      "stateMutability": "view",
      "type": "function"
    },
    {
      "constant": true,
      "inputs": [
        {
          "internalType": "uint256",
          "name": "index",
          "type": "uint256"
        }
      ],
      "name": "getMedicineByIndex",
      "outputs": [
        {
          "internalType": "bytes32",
          "name": "",
          "type": "bytes32"
        },
        {
          "internalType": "bytes",
          "name": "",
          "type": "bytes"
        }
      ],
      "payable": false,
      "stateMutability": "view",
      "type": "function"
    },
    {
      "constant": true,
      "inputs": [
        {
          "internalType": "bytes32",
          "name": "patientName",
          "type": "bytes32"
        },
        {
          "internalType": "bytes32",
          "name": "_consulDateID",
          "type": "bytes32"
        },
        {
          "internalType": "uint256",
          "name": "index",
          "type": "uint256"
        }
      ],
      "name": "getMedicineByIndex",
      "outputs": [
        {
          "internalType": "bytes32",
          "name": "",
          "type": "bytes32"
        }
      ],
      "payable": false,
      "stateMutability": "view",
      "type": "function"
    },
    {
      "constant": true,
      "inputs": [
        {
          "internalType": "uint256",
          "name": "index",
          "type": "uint256"
        }
      ],
      "name": "getMedicineNameByIndex",
      "outputs": [
        {
          "internalType": "bytes32",
          "name": "",
          "type": "bytes32"
        }
      ],
      "payable": false,
      "stateMutability": "view",
      "type": "function"
    },
    {
      "constant": true,
      "inputs": [
        {
          "internalType": "uint256",
          "name": "index",
          "type": "uint256"
        }
      ],
      "name": "getMedIpfsHashByIndex",
      "outputs": [
        {
          "internalType": "bytes",
          "name": "",
          "type": "bytes"
        }
      ],
      "payable": false,
      "stateMutability": "view",
      "type": "function"
    },
    {
      "constant": true,
      "inputs": [
        {
          "internalType": "bytes32",
          "name": "mname",
          "type": "bytes32"
        }
      ],
      "name": "getIpfsHashByMedicineName",
      "outputs": [
        {
          "internalType": "bytes",
          "name": "",
          "type": "bytes"
        }
      ],
      "payable": false,
      "stateMutability": "view",
      "type": "function"
    }
  ],
  "bytecode": "0x60806040523480156200001157600080fd5b50604051620044d1380380620044d1833981810160405262000037919081019062000117565b806000806101000a81548173ffffffffffffffffffffffffffffffffffffffff021916908373ffffffffffffffffffffffffffffffffffffffff16021790555080600160006101000a81548173ffffffffffffffffffffffffffffffffffffffff021916908373ffffffffffffffffffffffffffffffffffffffff16021790555080600260006101000a81548173ffffffffffffffffffffffffffffffffffffffff021916908373ffffffffffffffffffffffffffffffffffffffff1602179055505062000191565b600081519050620001118162000177565b92915050565b6000602082840312156200012a57600080fd5b60006200013a8482850162000100565b91505092915050565b6000620001508262000157565b9050919050565b600073ffffffffffffffffffffffffffffffffffffffff82169050919050565b620001828162000143565b81146200018e57600080fd5b50565b61433080620001a16000396000f3fe608060405234801561001057600080fd5b50600436106103785760003560e01c806372869ff9116101d3578063ba5c033511610104578063e1153e6f116100a2578063eb9fbaa91161007c578063eb9fbaa914610d14578063ed96cf3914610d44578063f421ba1014610d74578063f7a65e6014610da457610378565b8063e1153e6f14610c96578063e85a340a14610cc6578063eadeb84c14610cf657610378565b8063cbb7e2ff116100de578063cbb7e2ff14610bd6578063cc04a68514610c06578063ce10cf8814610c36578063dfb7ab6014610c6657610378565b8063ba5c033514610b56578063c190665b14610b88578063cafd134614610ba657610378565b8063a68a08a511610171578063ad37c2dc1161014b578063ad37c2dc14610a96578063b1d5458d14610ac6578063b9aa549b14610af6578063b9affb9314610b2657610378565b8063a68a08a514610a04578063a74380a614610a34578063ad36054b14610a6457610378565b806379111c1c116101ad57806379111c1c146109565780637b63cec4146109745780638f1787c2146109a457806394e7ef6e146109d457610378565b806372869ff9146108c657806374275255146108f65780637448d8d81461092657610378565b80633fe285d5116102ad5780635a357c191161024b57806368761954116102255780636876195414610804578063697d19ea146108345780636cfbc8fd14610864578063715b5f6d1461089457610378565b80635a357c19146107725780635bab5482146107a45780635fe721ff146107d457610378565b80634b3a6029116102875780634b3a6029146106ae5780635035cf52146106de57806357ea0c2f1461070e57806358c5d4bf1461074057610378565b80633fe285d51461061e57806345cfa71d1461064e578063480997971461067e57610378565b80631d37878f1161031a57806324ecae0b116102f457806324ecae0b1461055e57806329f78d881461058e57806330ca739b146105be57806331db6fd5146105ee57610378565b80631d37878f146104cd5780631e50b182146104fd57806320cfcbfa1461052e57610378565b806313684d431161035657806313684d431461040d578063140de8f21461043d57806314f519301461046d5780631973ef911461049d57610378565b806304aa42101461037d578063083121ad146103ad5780630b8d6eae146103dd575b600080fd5b610397600480360361039291908101906138cb565b610dd4565b6040516103a49190613ff5565b60405180910390f35b6103c760048036036103c29190810190613959565b610e8d565b6040516103d49190613e91565b60405180910390f35b6103f760048036036103f291908101906137a8565b610f48565b6040516104049190613e6f565b60405180910390f35b610427600480360361042291908101906137a8565b611000565b6040516104349190613ff5565b60405180910390f35b610457600480360361045291908101906138cb565b6110b9565b6040516104649190614032565b60405180910390f35b61048760048036036104829190810190613b42565b61116d565b6040516104949190613e91565b60405180910390f35b6104b760048036036104b291908101906137a8565b611222565b6040516104c49190614032565b60405180910390f35b6104e760048036036104e29190810190613bed565b6112d5565b6040516104f49190613eac565b60405180910390f35b61051760048036036105129190810190613bed565b611389565b604051610525929190613f9c565b60405180910390f35b610548600480360361054391908101906138cb565b611446565b6040516105559190614032565b60405180910390f35b61057860048036036105739190810190613959565b6114f9565b6040516105859190613eac565b60405180910390f35b6105a860048036036105a39190810190613bed565b6115b2565b6040516105b59190613ff5565b60405180910390f35b6105d860048036036105d391908101906137a8565b61166a565b6040516105e59190613e6f565b60405180910390f35b61060860048036036106039190810190613bed565b611722565b6040516106159190613eac565b60405180910390f35b6106386004803603610633919081019061391d565b6117d5565b6040516106459190614032565b60405180910390f35b610668600480360361066391908101906138cb565b61188b565b6040516106759190613e6f565b60405180910390f35b6106986004803603610693919081019061391d565b611943565b6040516106a59190613e6f565b60405180910390f35b6106c860048036036106c39190810190613bed565b6119fe565b6040516106d59190613ff5565b60405180910390f35b6106f860048036036106f391908101906139a8565b611ab7565b6040516107059190613e91565b60405180910390f35b61072860048036036107239190810190613bed565b611b72565b60405161073793929190613e31565b60405180910390f35b61075a600480360361075591908101906137a8565b611c33565b6040516107699392919061408b565b60405180910390f35b61078c60048036036107879190810190613bed565b611cf5565b60405161079b93929190613e31565b60405180910390f35b6107be60048036036107b991908101906137a8565b611db7565b6040516107cb9190614032565b60405180910390f35b6107ee60048036036107e99190810190613b06565b611e6b565b6040516107fb9190613eac565b60405180910390f35b61081e60048036036108199190810190613a5e565b611f21565b60405161082b9190613e91565b60405180910390f35b61084e60048036036108499190810190613a5e565b611fd9565b60405161085b9190613e91565b60405180910390f35b61087e600480360361087991908101906138cb565b612092565b60405161088b9190613e16565b60405180910390f35b6108ae60048036036108a991908101906138cb565b612145565b6040516108bd9392919061404d565b60405180910390f35b6108e060048036036108db91908101906138cb565b612207565b6040516108ed9190614017565b60405180910390f35b610910600480360361090b91908101906139a8565b6122bb565b60405161091d9190613e91565b60405180910390f35b610940600480360361093b91908101906138cb565b612376565b60405161094d9190613e6f565b60405180910390f35b61095e61242e565b60405161096b9190614032565b60405180910390f35b61098e600480360361098991908101906138cb565b6124d5565b60405161099b9190613e91565b60405180910390f35b6109be60048036036109b991908101906137a8565b612588565b6040516109cb9190613eac565b60405180910390f35b6109ee60048036036109e99190810190613b42565b61263c565b6040516109fb9190613e91565b60405180910390f35b610a1e6004803603610a1991908101906138cb565b6126f1565b604051610a2b9190613ff5565b60405180910390f35b610a4e6004803603610a4991908101906137a8565b6127a9565b604051610a5b9190613ff5565b60405180910390f35b610a7e6004803603610a7991908101906138cb565b612861565b604051610a8d9392919061404d565b60405180910390f35b610ab06004803603610aab91908101906138cb565b612922565b604051610abd9190613e16565b60405180910390f35b610ae06004803603610adb91908101906138cb565b6129d6565b604051610aed9190614032565b60405180910390f35b610b106004803603610b0b9190810190613b06565b612a89565b604051610b1d9190613eac565b60405180910390f35b610b406004803603610b3b91908101906137a8565b612b3f565b604051610b4d9190613eac565b60405180910390f35b610b706004803603610b6b91908101906137a8565b612bf2565b604051610b7f9392919061408b565b60405180910390f35b610b90612cb3565b604051610b9d9190614032565b60405180910390f35b610bc06004803603610bbb9190810190613b42565b612d59565b604051610bcd9190613e91565b60405180910390f35b610bf06004803603610beb9190810190613bed565b612e0f565b604051610bfd9190613eac565b60405180910390f35b610c206004803603610c1b9190810190613bed565b612ec2565b604051610c2d9190613ff5565b60405180910390f35b610c506004803603610c4b9190810190613bed565b612f7b565b604051610c5d9190613e16565b60405180910390f35b610c806004803603610c7b91908101906138cb565b61302e565b604051610c8d9190613ff5565b60405180910390f35b610cb06004803603610cab9190810190613a5e565b6130e6565b604051610cbd9190613e91565b60405180910390f35b610ce06004803603610cdb9190810190613bed565b6131a2565b604051610ced9190613e16565b60405180910390f35b610cfe613256565b604051610d0b9190614032565b60405180910390f35b610d2e6004803603610d2991908101906137a8565b6132fd565b604051610d3b9190613e91565b60405180910390f35b610d5e6004803603610d59919081019061391d565b6133b0565b604051610d6b9190614032565b60405180910390f35b610d8e6004803603610d89919081019061391d565b613466565b604051610d9b9190614032565b60405180910390f35b610dbe6004803603610db99190810190613a0f565b61351c565b604051610dcb9190613eac565b60405180910390f35b6060600160009054906101000a900473ffffffffffffffffffffffffffffffffffffffff1673ffffffffffffffffffffffffffffffffffffffff166304aa4210836040518263ffffffff1660e01b8152600401610e319190613eac565b60006040518083038186803b158015610e4957600080fd5b505afa158015610e5d573d6000803e3d6000fd5b505050506040513d6000823e3d601f19601f82011682018060405250610e869190810190613b83565b9050919050565b60008060009054906101000a900473ffffffffffffffffffffffffffffffffffffffff1673ffffffffffffffffffffffffffffffffffffffff1663083121ad8585856040518463ffffffff1660e01b8152600401610eed93929190613ef0565b602060405180830381600087803b158015610f0757600080fd5b505af1158015610f1b573d6000803e3d6000fd5b505050506040513d601f19601f82011682018060405250610f3f91908101906138a2565b90509392505050565b60606000809054906101000a900473ffffffffffffffffffffffffffffffffffffffff1673ffffffffffffffffffffffffffffffffffffffff16630b8d6eae836040518263ffffffff1660e01b8152600401610fa49190613e16565b60006040518083038186803b158015610fbc57600080fd5b505afa158015610fd0573d6000803e3d6000fd5b505050506040513d6000823e3d601f19601f82011682018060405250610ff99190810190613861565b9050919050565b6060600160009054906101000a900473ffffffffffffffffffffffffffffffffffffffff1673ffffffffffffffffffffffffffffffffffffffff166313684d43836040518263ffffffff1660e01b815260040161105d9190613e16565b60006040518083038186803b15801561107557600080fd5b505afa158015611089573d6000803e3d6000fd5b505050506040513d6000823e3d601f19601f820116820180604052506110b29190810190613b83565b9050919050565b6000600160009054906101000a900473ffffffffffffffffffffffffffffffffffffffff1673ffffffffffffffffffffffffffffffffffffffff1663140de8f2836040518263ffffffff1660e01b81526004016111169190613eac565b60206040518083038186803b15801561112e57600080fd5b505afa158015611142573d6000803e3d6000fd5b505050506040513d601f19601f820116820180604052506111669190810190613c16565b9050919050565b6000600160009054906101000a900473ffffffffffffffffffffffffffffffffffffffff1673ffffffffffffffffffffffffffffffffffffffff166314f51930836040518263ffffffff1660e01b81526004016111ca9190613ff5565b602060405180830381600087803b1580156111e457600080fd5b505af11580156111f8573d6000803e3d6000fd5b505050506040513d601f19601f8201168201806040525061121c91908101906138a2565b50919050565b60008060009054906101000a900473ffffffffffffffffffffffffffffffffffffffff1673ffffffffffffffffffffffffffffffffffffffff16631973ef91836040518263ffffffff1660e01b815260040161127e9190613e16565b60206040518083038186803b15801561129657600080fd5b505afa1580156112aa573d6000803e3d6000fd5b505050506040513d601f19601f820116820180604052506112ce9190810190613c16565b9050919050565b6000600160009054906101000a900473ffffffffffffffffffffffffffffffffffffffff1673ffffffffffffffffffffffffffffffffffffffff16631d37878f836040518263ffffffff1660e01b81526004016113329190614032565b60206040518083038186803b15801561134a57600080fd5b505afa15801561135e573d6000803e3d6000fd5b505050506040513d601f19601f8201168201806040525061138291908101906138f4565b9050919050565b60006060600260009054906101000a900473ffffffffffffffffffffffffffffffffffffffff1673ffffffffffffffffffffffffffffffffffffffff16631e50b182846040518263ffffffff1660e01b81526004016113e89190614032565b60006040518083038186803b15801561140057600080fd5b505afa158015611414573d6000803e3d6000fd5b505050506040513d6000823e3d601f19601f8201168201806040525061143d9190810190613ab2565b91509150915091565b60008060009054906101000a900473ffffffffffffffffffffffffffffffffffffffff1673ffffffffffffffffffffffffffffffffffffffff166320cfcbfa836040518263ffffffff1660e01b81526004016114a29190613eac565b60206040518083038186803b1580156114ba57600080fd5b505afa1580156114ce573d6000803e3d6000fd5b505050506040513d601f19601f820116820180604052506114f29190810190613c16565b9050919050565b60008060009054906101000a900473ffffffffffffffffffffffffffffffffffffffff1673ffffffffffffffffffffffffffffffffffffffff166324ecae0b8585856040518463ffffffff1660e01b815260040161155993929190613ef0565b60206040518083038186803b15801561157157600080fd5b505afa158015611585573d6000803e3d6000fd5b505050506040513d601f19601f820116820180604052506115a991908101906138f4565b90509392505050565b60606000809054906101000a900473ffffffffffffffffffffffffffffffffffffffff1673ffffffffffffffffffffffffffffffffffffffff166329f78d88836040518263ffffffff1660e01b815260040161160e9190614032565b60006040518083038186803b15801561162657600080fd5b505afa15801561163a573d6000803e3d6000fd5b505050506040513d6000823e3d601f19601f820116820180604052506116639190810190613b83565b9050919050565b60606000809054906101000a900473ffffffffffffffffffffffffffffffffffffffff1673ffffffffffffffffffffffffffffffffffffffff166330ca739b836040518263ffffffff1660e01b81526004016116c69190613e16565b60006040518083038186803b1580156116de57600080fd5b505afa1580156116f2573d6000803e3d6000fd5b505050506040513d6000823e3d601f19601f8201168201806040525061171b9190810190613861565b9050919050565b6000600260009054906101000a900473ffffffffffffffffffffffffffffffffffffffff1673ffffffffffffffffffffffffffffffffffffffff166331db6fd5836040518263ffffffff1660e01b815260040161177f9190614032565b60206040518083038186803b15801561179757600080fd5b505afa1580156117ab573d6000803e3d6000fd5b505050506040513d601f19601f820116820180604052506117cf91908101906138f4565b50919050565b60008060009054906101000a900473ffffffffffffffffffffffffffffffffffffffff1673ffffffffffffffffffffffffffffffffffffffff16633fe285d584846040518363ffffffff1660e01b8152600401611833929190613ec7565b60206040518083038186803b15801561184b57600080fd5b505afa15801561185f573d6000803e3d6000fd5b505050506040513d601f19601f820116820180604052506118839190810190613c16565b905092915050565b60606000809054906101000a900473ffffffffffffffffffffffffffffffffffffffff1673ffffffffffffffffffffffffffffffffffffffff166345cfa71d836040518263ffffffff1660e01b81526004016118e79190613eac565b60006040518083038186803b1580156118ff57600080fd5b505afa158015611913573d6000803e3d6000fd5b505050506040513d6000823e3d601f19601f8201168201806040525061193c9190810190613861565b9050919050565b60606000809054906101000a900473ffffffffffffffffffffffffffffffffffffffff1673ffffffffffffffffffffffffffffffffffffffff16634809979784846040518363ffffffff1660e01b81526004016119a1929190613ec7565b60006040518083038186803b1580156119b957600080fd5b505afa1580156119cd573d6000803e3d6000fd5b505050506040513d6000823e3d601f19601f820116820180604052506119f69190810190613861565b905092915050565b6060600160009054906101000a900473ffffffffffffffffffffffffffffffffffffffff1673ffffffffffffffffffffffffffffffffffffffff16634b3a6029836040518263ffffffff1660e01b8152600401611a5b9190614032565b60006040518083038186803b158015611a7357600080fd5b505afa158015611a87573d6000803e3d6000fd5b505050506040513d6000823e3d601f19601f82011682018060405250611ab09190810190613b83565b9050919050565b60008060009054906101000a900473ffffffffffffffffffffffffffffffffffffffff1673ffffffffffffffffffffffffffffffffffffffff16635035cf528585856040518463ffffffff1660e01b8152600401611b1793929190613f27565b602060405180830381600087803b158015611b3157600080fd5b505af1158015611b45573d6000803e3d6000fd5b505050506040513d601f19601f82011682018060405250611b6991908101906138a2565b90509392505050565b60008060606000809054906101000a900473ffffffffffffffffffffffffffffffffffffffff1673ffffffffffffffffffffffffffffffffffffffff166357ea0c2f856040518263ffffffff1660e01b8152600401611bd19190614032565b60006040518083038186803b158015611be957600080fd5b505afa158015611bfd573d6000803e3d6000fd5b505050506040513d6000823e3d601f19601f82011682018060405250611c2691908101906137fa565b9250925092509193909250565b6000806060600160009054906101000a900473ffffffffffffffffffffffffffffffffffffffff1673ffffffffffffffffffffffffffffffffffffffff166358c5d4bf856040518263ffffffff1660e01b8152600401611c939190613e16565b60006040518083038186803b158015611cab57600080fd5b505afa158015611cbf573d6000803e3d6000fd5b505050506040513d6000823e3d601f19601f82011682018060405250611ce89190810190613ca6565b9250925092509193909250565b6000806060600160009054906101000a900473ffffffffffffffffffffffffffffffffffffffff1673ffffffffffffffffffffffffffffffffffffffff16635a357c19856040518263ffffffff1660e01b8152600401611d559190614032565b60006040518083038186803b158015611d6d57600080fd5b505afa158015611d81573d6000803e3d6000fd5b505050506040513d6000823e3d601f19601f82011682018060405250611daa91908101906137fa565b9250925092509193909250565b6000600160009054906101000a900473ffffffffffffffffffffffffffffffffffffffff1673ffffffffffffffffffffffffffffffffffffffff16635bab5482836040518263ffffffff1660e01b8152600401611e149190613e16565b60206040518083038186803b158015611e2c57600080fd5b505afa158015611e40573d6000803e3d6000fd5b505050506040513d601f19601f82011682018060405250611e649190810190613c16565b9050919050565b60008060009054906101000a900473ffffffffffffffffffffffffffffffffffffffff1673ffffffffffffffffffffffffffffffffffffffff16635fe721ff84846040518363ffffffff1660e01b8152600401611ec9929190613fcc565b60206040518083038186803b158015611ee157600080fd5b505afa158015611ef5573d6000803e3d6000fd5b505050506040513d601f19601f82011682018060405250611f1991908101906138f4565b905092915050565b60008060009054906101000a900473ffffffffffffffffffffffffffffffffffffffff1673ffffffffffffffffffffffffffffffffffffffff16636876195484846040518363ffffffff1660e01b8152600401611f7f929190613f9c565b602060405180830381600087803b158015611f9957600080fd5b505af1158015611fad573d6000803e3d6000fd5b505050506040513d601f19601f82011682018060405250611fd191908101906138a2565b905092915050565b6000600260009054906101000a900473ffffffffffffffffffffffffffffffffffffffff1673ffffffffffffffffffffffffffffffffffffffff1663697d19ea84846040518363ffffffff1660e01b8152600401612038929190613f9c565b602060405180830381600087803b15801561205257600080fd5b505af1158015612066573d6000803e3d6000fd5b505050506040513d601f19601f8201168201806040525061208a91908101906138a2565b905092915050565b60008060009054906101000a900473ffffffffffffffffffffffffffffffffffffffff1673ffffffffffffffffffffffffffffffffffffffff16636cfbc8fd836040518263ffffffff1660e01b81526004016120ee9190613eac565b60206040518083038186803b15801561210657600080fd5b505afa15801561211a573d6000803e3d6000fd5b505050506040513d601f19601f8201168201806040525061213e91908101906137d1565b9050919050565b6000806060600160009054906101000a900473ffffffffffffffffffffffffffffffffffffffff1673ffffffffffffffffffffffffffffffffffffffff1663715b5f6d856040518263ffffffff1660e01b81526004016121a59190613eac565b60006040518083038186803b1580156121bd57600080fd5b505afa1580156121d1573d6000803e3d6000fd5b505050506040513d6000823e3d601f19601f820116820180604052506121fa9190810190613c3f565b9250925092509193909250565b6000600260009054906101000a900473ffffffffffffffffffffffffffffffffffffffff1673ffffffffffffffffffffffffffffffffffffffff166372869ff9836040518263ffffffff1660e01b81526004016122649190613eac565b60206040518083038186803b15801561227c57600080fd5b505afa158015612290573d6000803e3d6000fd5b505050506040513d601f19601f820116820180604052506122b49190810190613bc4565b9050919050565b60008060009054906101000a900473ffffffffffffffffffffffffffffffffffffffff1673ffffffffffffffffffffffffffffffffffffffff1663742752558585856040518463ffffffff1660e01b815260040161231b93929190613f27565b602060405180830381600087803b15801561233557600080fd5b505af1158015612349573d6000803e3d6000fd5b505050506040513d601f19601f8201168201806040525061236d91908101906138a2565b90509392505050565b60606000809054906101000a900473ffffffffffffffffffffffffffffffffffffffff1673ffffffffffffffffffffffffffffffffffffffff16637448d8d8836040518263ffffffff1660e01b81526004016123d29190613eac565b60006040518083038186803b1580156123ea57600080fd5b505afa1580156123fe573d6000803e3d6000fd5b505050506040513d6000823e3d601f19601f820116820180604052506124279190810190613861565b9050919050565b6000600160009054906101000a900473ffffffffffffffffffffffffffffffffffffffff1673ffffffffffffffffffffffffffffffffffffffff166379111c1c6040518163ffffffff1660e01b815260040160206040518083038186803b15801561249857600080fd5b505afa1580156124ac573d6000803e3d6000fd5b505050506040513d601f19601f820116820180604052506124d09190810190613c16565b905090565b60008060009054906101000a900473ffffffffffffffffffffffffffffffffffffffff1673ffffffffffffffffffffffffffffffffffffffff16637b63cec4836040518263ffffffff1660e01b81526004016125319190613eac565b60206040518083038186803b15801561254957600080fd5b505afa15801561255d573d6000803e3d6000fd5b505050506040513d601f19601f8201168201806040525061258191908101906138a2565b9050919050565b6000600160009054906101000a900473ffffffffffffffffffffffffffffffffffffffff1673ffffffffffffffffffffffffffffffffffffffff16638f1787c2836040518263ffffffff1660e01b81526004016125e59190613e16565b60206040518083038186803b1580156125fd57600080fd5b505afa158015612611573d6000803e3d6000fd5b505050506040513d601f19601f8201168201806040525061263591908101906138f4565b9050919050565b60008060009054906101000a900473ffffffffffffffffffffffffffffffffffffffff1673ffffffffffffffffffffffffffffffffffffffff166394e7ef6e836040518263ffffffff1660e01b81526004016126989190613ff5565b602060405180830381600087803b1580156126b257600080fd5b505af11580156126c6573d6000803e3d6000fd5b505050506040513d601f19601f820116820180604052506126ea91908101906138a2565b9050919050565b6060600260009054906101000a900473ffffffffffffffffffffffffffffffffffffffff1673ffffffffffffffffffffffffffffffffffffffff1663a68a08a5836040518263ffffffff1660e01b815260040161274e9190613eac565b60006040518083038186803b15801561276657600080fd5b505afa15801561277a573d6000803e3d6000fd5b505050506040513d6000823e3d601f19601f820116820180604052506127a39190810190613b83565b50919050565b60606000809054906101000a900473ffffffffffffffffffffffffffffffffffffffff1673ffffffffffffffffffffffffffffffffffffffff1663a74380a6836040518263ffffffff1660e01b81526004016128059190613e16565b60006040518083038186803b15801561281d57600080fd5b505afa158015612831573d6000803e3d6000fd5b505050506040513d6000823e3d601f19601f8201168201806040525061285a9190810190613b83565b9050919050565b60008060606000809054906101000a900473ffffffffffffffffffffffffffffffffffffffff1673ffffffffffffffffffffffffffffffffffffffff1663ad36054b856040518263ffffffff1660e01b81526004016128c09190613eac565b60006040518083038186803b1580156128d857600080fd5b505afa1580156128ec573d6000803e3d6000fd5b505050506040513d6000823e3d601f19601f820116820180604052506129159190810190613c3f565b9250925092509193909250565b6000600160009054906101000a900473ffffffffffffffffffffffffffffffffffffffff1673ffffffffffffffffffffffffffffffffffffffff1663ad37c2dc836040518263ffffffff1660e01b815260040161297f9190613eac565b60206040518083038186803b15801561299757600080fd5b505afa1580156129ab573d6000803e3d6000fd5b505050506040513d601f19601f820116820180604052506129cf91908101906137d1565b9050919050565b60008060009054906101000a900473ffffffffffffffffffffffffffffffffffffffff1673ffffffffffffffffffffffffffffffffffffffff1663b1d5458d836040518263ffffffff1660e01b8152600401612a329190613eac565b60206040518083038186803b158015612a4a57600080fd5b505afa158015612a5e573d6000803e3d6000fd5b505050506040513d601f19601f82011682018060405250612a829190810190613c16565b9050919050565b60008060009054906101000a900473ffffffffffffffffffffffffffffffffffffffff1673ffffffffffffffffffffffffffffffffffffffff1663b9aa549b84846040518363ffffffff1660e01b8152600401612ae7929190613fcc565b60206040518083038186803b158015612aff57600080fd5b505afa158015612b13573d6000803e3d6000fd5b505050506040513d601f19601f82011682018060405250612b3791908101906138f4565b905092915050565b60008060009054906101000a900473ffffffffffffffffffffffffffffffffffffffff1673ffffffffffffffffffffffffffffffffffffffff1663b9affb93836040518263ffffffff1660e01b8152600401612b9b9190613e16565b60206040518083038186803b158015612bb357600080fd5b505afa158015612bc7573d6000803e3d6000fd5b505050506040513d601f19601f82011682018060405250612beb91908101906138f4565b9050919050565b60008060606000809054906101000a900473ffffffffffffffffffffffffffffffffffffffff1673ffffffffffffffffffffffffffffffffffffffff1663ba5c0335856040518263ffffffff1660e01b8152600401612c519190613e16565b60006040518083038186803b158015612c6957600080fd5b505afa158015612c7d573d6000803e3d6000fd5b505050506040513d6000823e3d601f19601f82011682018060405250612ca69190810190613ca6565b9250925092509193909250565b60008060009054906101000a900473ffffffffffffffffffffffffffffffffffffffff1673ffffffffffffffffffffffffffffffffffffffff1663c190665b6040518163ffffffff1660e01b815260040160206040518083038186803b158015612d1c57600080fd5b505afa158015612d30573d6000803e3d6000fd5b505050506040513d601f19601f82011682018060405250612d549190810190613c16565b905090565b6000600260009054906101000a900473ffffffffffffffffffffffffffffffffffffffff1673ffffffffffffffffffffffffffffffffffffffff1663cafd1346836040518263ffffffff1660e01b8152600401612db69190613ff5565b602060405180830381600087803b158015612dd057600080fd5b505af1158015612de4573d6000803e3d6000fd5b505050506040513d601f19601f82011682018060405250612e0891908101906138a2565b9050919050565b60008060009054906101000a900473ffffffffffffffffffffffffffffffffffffffff1673ffffffffffffffffffffffffffffffffffffffff1663cbb7e2ff836040518263ffffffff1660e01b8152600401612e6b9190614032565b60206040518083038186803b158015612e8357600080fd5b505afa158015612e97573d6000803e3d6000fd5b505050506040513d601f19601f82011682018060405250612ebb91908101906138f4565b9050919050565b6060600260009054906101000a900473ffffffffffffffffffffffffffffffffffffffff1673ffffffffffffffffffffffffffffffffffffffff1663cc04a685836040518263ffffffff1660e01b8152600401612f1f9190614032565b60006040518083038186803b158015612f3757600080fd5b505afa158015612f4b573d6000803e3d6000fd5b505050506040513d6000823e3d601f19601f82011682018060405250612f749190810190613b83565b9050919050565b60008060009054906101000a900473ffffffffffffffffffffffffffffffffffffffff1673ffffffffffffffffffffffffffffffffffffffff1663ce10cf88836040518263ffffffff1660e01b8152600401612fd79190614032565b60206040518083038186803b158015612fef57600080fd5b505afa158015613003573d6000803e3d6000fd5b505050506040513d601f19601f8201168201806040525061302791908101906137d1565b9050919050565b60606000809054906101000a900473ffffffffffffffffffffffffffffffffffffffff1673ffffffffffffffffffffffffffffffffffffffff1663dfb7ab60836040518263ffffffff1660e01b815260040161308a9190613eac565b60006040518083038186803b1580156130a257600080fd5b505afa1580156130b6573d6000803e3d6000fd5b505050506040513d6000823e3d601f19601f820116820180604052506130df9190810190613b83565b9050919050565b6000600160009054906101000a900473ffffffffffffffffffffffffffffffffffffffff1673ffffffffffffffffffffffffffffffffffffffff1663e1153e6f84846040518363ffffffff1660e01b8152600401613145929190613f9c565b602060405180830381600087803b15801561315f57600080fd5b505af1158015613173573d6000803e3d6000fd5b505050506040513d601f19601f8201168201806040525061319791908101906138a2565b506001905092915050565b6000600160009054906101000a900473ffffffffffffffffffffffffffffffffffffffff1673ffffffffffffffffffffffffffffffffffffffff1663e85a340a836040518263ffffffff1660e01b81526004016131ff9190614032565b60206040518083038186803b15801561321757600080fd5b505afa15801561322b573d6000803e3d6000fd5b505050506040513d601f19601f8201168201806040525061324f91908101906137d1565b9050919050565b6000600260009054906101000a900473ffffffffffffffffffffffffffffffffffffffff1673ffffffffffffffffffffffffffffffffffffffff1663eadeb84c6040518163ffffffff1660e01b815260040160206040518083038186803b1580156132c057600080fd5b505afa1580156132d4573d6000803e3d6000fd5b505050506040513d601f19601f820116820180604052506132f89190810190613c16565b905090565b60008060009054906101000a900473ffffffffffffffffffffffffffffffffffffffff1673ffffffffffffffffffffffffffffffffffffffff1663eb9fbaa9836040518263ffffffff1660e01b81526004016133599190613e16565b60206040518083038186803b15801561337157600080fd5b505afa158015613385573d6000803e3d6000fd5b505050506040513d601f19601f820116820180604052506133a991908101906138a2565b9050919050565b60008060009054906101000a900473ffffffffffffffffffffffffffffffffffffffff1673ffffffffffffffffffffffffffffffffffffffff1663ed96cf3984846040518363ffffffff1660e01b815260040161340e929190613ec7565b60206040518083038186803b15801561342657600080fd5b505afa15801561343a573d6000803e3d6000fd5b505050506040513d601f19601f8201168201806040525061345e9190810190613c16565b905092915050565b60008060009054906101000a900473ffffffffffffffffffffffffffffffffffffffff1673ffffffffffffffffffffffffffffffffffffffff1663f421ba1084846040518363ffffffff1660e01b81526004016134c4929190613ec7565b60206040518083038186803b1580156134dc57600080fd5b505afa1580156134f0573d6000803e3d6000fd5b505050506040513d601f19601f820116820180604052506135149190810190613c16565b905092915050565b60008060009054906101000a900473ffffffffffffffffffffffffffffffffffffffff1673ffffffffffffffffffffffffffffffffffffffff1663f7a65e608585856040518463ffffffff1660e01b815260040161357c93929190613f65565b60206040518083038186803b15801561359457600080fd5b505afa1580156135a8573d6000803e3d6000fd5b505050506040513d601f19601f820116820180604052506135cc91908101906138f4565b90509392505050565b6000813590506135e48161427a565b92915050565b6000815190506135f98161427a565b92915050565b600082601f83011261361057600080fd5b815161362361361e826140f6565b6140c9565b9150818183526020840193506020810190508385602084028201111561364857600080fd5b60005b83811015613678578161365e88826136ac565b84526020840193506020830192505060018101905061364b565b5050505092915050565b60008151905061369181614291565b92915050565b6000813590506136a6816142a8565b92915050565b6000815190506136bb816142a8565b92915050565b600082601f8301126136d257600080fd5b81356136e56136e08261411e565b6140c9565b9150808252602083016020830185838301111561370157600080fd5b61370c838284614227565b50505092915050565b600082601f83011261372657600080fd5b81516137396137348261411e565b6140c9565b9150808252602083016020830185838301111561375557600080fd5b613760838284614236565b50505092915050565b600081519050613778816142bf565b92915050565b60008135905061378d816142d6565b92915050565b6000815190506137a2816142d6565b92915050565b6000602082840312156137ba57600080fd5b60006137c8848285016135d5565b91505092915050565b6000602082840312156137e357600080fd5b60006137f1848285016135ea565b91505092915050565b60008060006060848603121561380f57600080fd5b600061381d868287016135ea565b935050602061382e868287016136ac565b925050604084015167ffffffffffffffff81111561384b57600080fd5b61385786828701613715565b9150509250925092565b60006020828403121561387357600080fd5b600082015167ffffffffffffffff81111561388d57600080fd5b613899848285016135ff565b91505092915050565b6000602082840312156138b457600080fd5b60006138c284828501613682565b91505092915050565b6000602082840312156138dd57600080fd5b60006138eb84828501613697565b91505092915050565b60006020828403121561390657600080fd5b6000613914848285016136ac565b91505092915050565b6000806040838503121561393057600080fd5b600061393e85828601613697565b925050602061394f85828601613697565b9150509250929050565b60008060006060848603121561396e57600080fd5b600061397c86828701613697565b935050602061398d86828701613697565b925050604061399e86828701613697565b9150509250925092565b6000806000606084860312156139bd57600080fd5b60006139cb86828701613697565b93505060206139dc86828701613697565b925050604084013567ffffffffffffffff8111156139f957600080fd5b613a05868287016136c1565b9150509250925092565b600080600060608486031215613a2457600080fd5b6000613a3286828701613697565b9350506020613a4386828701613697565b9250506040613a548682870161377e565b9150509250925092565b60008060408385031215613a7157600080fd5b6000613a7f85828601613697565b925050602083013567ffffffffffffffff811115613a9c57600080fd5b613aa8858286016136c1565b9150509250929050565b60008060408385031215613ac557600080fd5b6000613ad3858286016136ac565b925050602083015167ffffffffffffffff811115613af057600080fd5b613afc85828601613715565b9150509250929050565b60008060408385031215613b1957600080fd5b6000613b2785828601613697565b9250506020613b388582860161377e565b9150509250929050565b600060208284031215613b5457600080fd5b600082013567ffffffffffffffff811115613b6e57600080fd5b613b7a848285016136c1565b91505092915050565b600060208284031215613b9557600080fd5b600082015167ffffffffffffffff811115613baf57600080fd5b613bbb84828501613715565b91505092915050565b600060208284031215613bd657600080fd5b6000613be484828501613769565b91505092915050565b600060208284031215613bff57600080fd5b6000613c0d8482850161377e565b91505092915050565b600060208284031215613c2857600080fd5b6000613c3684828501613793565b91505092915050565b600080600060608486031215613c5457600080fd5b6000613c6286828701613793565b9350506020613c73868287016135ea565b925050604084015167ffffffffffffffff811115613c9057600080fd5b613c9c86828701613715565b9150509250925092565b600080600060608486031215613cbb57600080fd5b6000613cc986828701613793565b9350506020613cda868287016136ac565b925050604084015167ffffffffffffffff811115613cf757600080fd5b613d0386828701613715565b9150509250925092565b6000613d198383613da1565b60208301905092915050565b613d2e8161419f565b82525050565b6000613d3f8261415a565b613d49818561417d565b9350613d548361414a565b8060005b83811015613d85578151613d6c8882613d0d565b9750613d7783614170565b925050600181019050613d58565b5085935050505092915050565b613d9b816141b1565b82525050565b613daa816141bd565b82525050565b613db9816141bd565b82525050565b6000613dca82614165565b613dd4818561418e565b9350613de4818560208601614236565b613ded81614269565b840191505092915050565b613e0181614203565b82525050565b613e10816141f9565b82525050565b6000602082019050613e2b6000830184613d25565b92915050565b6000606082019050613e466000830186613d25565b613e536020830185613db0565b8181036040830152613e658184613dbf565b9050949350505050565b60006020820190508181036000830152613e898184613d34565b905092915050565b6000602082019050613ea66000830184613d92565b92915050565b6000602082019050613ec16000830184613db0565b92915050565b6000604082019050613edc6000830185613db0565b613ee96020830184613db0565b9392505050565b6000606082019050613f056000830186613db0565b613f126020830185613db0565b613f1f6040830184613db0565b949350505050565b6000606082019050613f3c6000830186613db0565b613f496020830185613db0565b8181036040830152613f5b8184613dbf565b9050949350505050565b6000606082019050613f7a6000830186613db0565b613f876020830185613db0565b613f946040830184613e07565b949350505050565b6000604082019050613fb16000830185613db0565b8181036020830152613fc38184613dbf565b90509392505050565b6000604082019050613fe16000830185613db0565b613fee6020830184613e07565b9392505050565b6000602082019050818103600083015261400f8184613dbf565b905092915050565b600060208201905061402c6000830184613df8565b92915050565b60006020820190506140476000830184613e07565b92915050565b60006060820190506140626000830186613e07565b61406f6020830185613d25565b81810360408301526140818184613dbf565b9050949350505050565b60006060820190506140a06000830186613e07565b6140ad6020830185613db0565b81810360408301526140bf8184613dbf565b9050949350505050565b6000604051905081810181811067ffffffffffffffff821117156140ec57600080fd5b8060405250919050565b600067ffffffffffffffff82111561410d57600080fd5b602082029050602081019050919050565b600067ffffffffffffffff82111561413557600080fd5b601f19601f8301169050602081019050919050565b6000819050602082019050919050565b600081519050919050565b600081519050919050565b6000602082019050919050565b600082825260208201905092915050565b600082825260208201905092915050565b60006141aa826141d9565b9050919050565b60008115159050919050565b6000819050919050565b60006141d28261419f565b9050919050565b600073ffffffffffffffffffffffffffffffffffffffff82169050919050565b6000819050919050565b600061420e82614215565b9050919050565b6000614220826141d9565b9050919050565b82818337600083830152505050565b60005b83811015614254578082015181840152602081019050614239565b83811115614263576000848401525b50505050565b6000601f19601f8301169050919050565b6142838161419f565b811461428e57600080fd5b50565b61429a816141b1565b81146142a557600080fd5b50565b6142b1816141bd565b81146142bc57600080fd5b50565b6142c8816141c7565b81146142d357600080fd5b50565b6142df816141f9565b81146142ea57600080fd5b5056fea365627a7a72315820f9ff996e9bcafaf8294df71b01d7efc1e758506627cbd31900064710d5437f706c6578706572696d656e74616cf564736f6c63430005100040",
  "source": "pragma solidity >=0.5.16;\npragma experimental ABIEncoderV2;\nimport \"./PatientStorage.sol\";\nimport \"./DoctorStorage.sol\";\nimport \"./MedicineStorage.sol\";\n\ncontract Client {\n\nPatientStorage datastore;\nDoctorStorage doctorstore;\nMedicineStorage medicinestore;\n\nconstructor(address storageAddress) public {\n    datastore = PatientStorage(storageAddress);\n    doctorstore = DoctorStorage(storageAddress);\n    medicinestore = MedicineStorage(storageAddress);\n }\n // PATIENT\nfunction registerPatient(bytes32 patientName, bytes memory ipfsHash) public returns(bool) {\n    return datastore.registerPatient(patientName,ipfsHash);\n }\n\nfunction hasPatient(address _patientAdresses) public view returns(bool) {\n    return datastore.hasPatient(_patientAdresses);\n }\nfunction patientNameTaken(bytes32 pname) public view returns(bool takenIndeed) {\n    return datastore.patientNameTaken(pname);\n }\n\nfunction updatePatient(bytes memory ipfsHash) public returns(bool){\n   return datastore.updatePatient(ipfsHash);\n }\n\nfunction getPatientCount() public view returns(uint){\n   return datastore.getPatientCount();\n }\n\nfunction getPatientByIndex(uint index) public view returns(address,bytes32,bytes memory){\n   return datastore.getPatientByIndex(index);\n }\n\nfunction getAddressByIndex(uint index) public view returns(address){\n   return datastore.getAddressByIndex(index);\n }\n\nfunction getPatientNameByIndex(uint index) public view returns(bytes32){\n   return datastore.getPatientNameByIndex(index);\n }\n\nfunction getIpfsHashByIndex(uint index) public view returns(bytes memory){\n   return datastore.getIpfsHashByIndex(index);\n }\n\nfunction getPatientByAddress(address patientAddress) public view returns(uint, bytes32, bytes memory){\n   return datastore.getPatientByAddress(patientAddress);\n }\n\nfunction getIndexByAddress(address patientAddress) public view returns(uint){\n   return datastore.getIndexByAddress(patientAddress);\n }\n\nfunction getPatientNameByAddress(address patientAddress) public view returns(bytes32){\n   return datastore.getPatientNameByAddress(patientAddress);\n }\n\nfunction getIpfsHashByAddress(address patientAddress) public view returns(bytes memory){\n   return datastore.getIpfsHashByAddress(patientAddress);\n }\n\nfunction getPatientByPatientName(bytes32 patientname) public view returns(uint,address,bytes memory){\n   return datastore.getPatientByPatientName(patientname);\n }\n\nfunction getIndexByPatientName(bytes32 patientname) public view returns(uint){\n   return datastore.getIndexByPatientName(patientname);\n }\n\nfunction getAddressByPatientName(bytes32 patientname) public view returns(address){\n   return datastore.getAddressByPatientName(patientname);\n }\nfunction getIpfsHashByPatientName(bytes32 patientname) public view returns(bytes memory){\n   return datastore.getIpfsHashByPatientName(patientname);\n }\n// CONSULTATIONS\nfunction consultationCreate(bytes32 _pname, bytes32 _consulDateID, bytes memory newPatientIpfs)public returns(bool){\n   return datastore.consultationCreate(_pname, _consulDateID, newPatientIpfs);\n }\n\nfunction getConsultationByConsultationIndex(bytes32 _pname, uint _index) public view returns(bytes32 consulID){\n   return datastore.getConsultationByConsultationIndex(_pname, _index);\n }\nfunction getConsultationIndexByConsultationID(bytes32 _pname, bytes32 _consulDateID) public view returns(uint){\n   return datastore.getConsultationIndexByConsultationID(_pname, _consulDateID);\n }\n\nfunction getConsultationsByPatientName(bytes32 _pname) public view returns(bytes32[] memory){\n   return datastore.getConsultationsByPatientName(_pname);\n }\n\nfunction getConsultationsByPatientAddress(address patientAddress) public view returns(bytes32[] memory){\n   return datastore.getConsultationsByPatientAddress(patientAddress);\n }\n// TESTS\nfunction testCreate(bytes32 _pname, bytes32 _testDateID, bytes memory newPatientIpfs)public returns(bool){\n   return datastore.testCreate(_pname,_testDateID, newPatientIpfs);\n }\n\nfunction getTestByTestIndex(bytes32 patientName, uint _index) public view returns(bytes32 testID){\n   return datastore.getTestByTestIndex(patientName, _index);\n }\n\nfunction getTestIndexByTestID(bytes32 patientName, bytes32 _testDateID) public view returns(uint){\n   return datastore.getTestIndexByTestID(patientName, _testDateID);\n }\n\nfunction getTestsByPatientName(bytes32 _pname) public view returns(bytes32[] memory) {\n   return datastore.getTestsByPatientName(_pname);\n }\n\nfunction getTestsByPatientAddress(address patientAddress) public view returns(bytes32[] memory){\n   return datastore.getTestsByPatientAddress(patientAddress);\n }\nfunction getTestsCount(bytes32 patientName) public view returns (uint){\n   return datastore.getTestsCount(patientName);\n }\n// MEDICINES\nfunction saveMedicineForPatientUse(bytes32 patientName, bytes32 consulDateID,bytes32 mname) public returns(bool){\n   return datastore.saveMedicineForPatientUse(patientName, consulDateID, mname);\n }\nfunction getMedicinesFromConsultation(bytes32 patientName, bytes32 consulDateID) public view returns(bytes32[] memory){\n   return datastore.getMedicinesFromConsultation(patientName, consulDateID);\n }\nfunction getMedicineByIndex(bytes32 patientName, bytes32 _consulDateID,uint index) public view returns(bytes32){\n   return datastore.getMedicineByIndex(patientName, _consulDateID, index);\n }\nfunction getMedicineByMedicineName(bytes32 patientName, bytes32 _consulDateID, bytes32 medname)public view returns(bytes32){\n   return datastore.getMedicineByMedicineName(patientName, _consulDateID, medname);\n }\nfunction getMedicinesCountFromConsultation(bytes32 patientName, bytes32 _consulDateID) public view returns(uint){\n   return datastore.getMedicinesCountFromConsultation(patientName, _consulDateID);\n }\n// DOCTORS\nfunction registerDoctor(bytes32 DoctorName, bytes memory ipfsHash) public returns(bool) {\n   doctorstore.registerDoctor(DoctorName, ipfsHash);\n   return true;\n }\nfunction updateDoctor(bytes memory ipfsHash) public returns(bool){\n   doctorstore.updateDoctor(ipfsHash);\n }\n\nfunction getDoctorCount() public view returns(uint){\n      return doctorstore.getDoctorCount();\n }\n\nfunction getDoctorByIndex(uint index) public view returns(address,bytes32,bytes memory){\n   return doctorstore.getDoctorByIndex(index);\n }\n\nfunction getDoctorAddressByIndex(uint index) public view returns(address){\n   return doctorstore.getDoctorAddressByIndex(index);\n }\n\nfunction getDoctorNameByIndex(uint index) public view returns(bytes32){\n   return doctorstore.getDoctorNameByIndex(index);\n }\n\nfunction getDoctorIpfsHashByIndex(uint index) public view returns(bytes memory){\n   return doctorstore.getDoctorIpfsHashByIndex(index);\n }\n\nfunction getDoctorByAddress(address DoctorAddress) public view returns(uint, bytes32, bytes memory){\n   return doctorstore.getDoctorByAddress(DoctorAddress);\n }\n\nfunction getDoctorIndexByAddress(address DoctorAddress) public view returns(uint){\n   return doctorstore.getDoctorIndexByAddress(DoctorAddress);\n }\n\nfunction getDoctorNameByAddress(address DoctorAddress) public view returns(bytes32){\n   return doctorstore.getDoctorNameByAddress(DoctorAddress);\n }\n\nfunction getDoctorIpfsHashByAddress(address DoctorAddress) public view returns(bytes memory){\n   return doctorstore.getDoctorIpfsHashByAddress(DoctorAddress);\n }\n\nfunction getDoctorByDoctorName(bytes32 Doctorname) public view returns(uint,address,bytes memory){\n   return doctorstore.getDoctorByDoctorName(Doctorname);\n }\n\nfunction getDoctorIndexByDoctorName(bytes32 Doctorname) public view returns(uint){\n   return doctorstore.getDoctorIndexByDoctorName(Doctorname);\n }\n\nfunction getDoctorAddressByDoctorName(bytes32 Doctorname) public view returns(address){\n   return doctorstore.getDoctorAddressByDoctorName(Doctorname);\n }\n\nfunction getDoctorIpfsHashByDoctorName(bytes32 Doctorname) public view returns(bytes memory){\n   return doctorstore.getDoctorIpfsHashByDoctorName(Doctorname);\n }\nfunction saveMedicine(bytes32 mname, bytes memory ipfsHash) public returns(bool) {\n   return medicinestore.saveMedicine(mname, ipfsHash);\n }\n\nfunction updateMedicine(bytes memory ipfsHash) public returns(bool){\n   return medicinestore.updateMedicine(ipfsHash);\n }\n\nfunction getMedicineCount() public view returns(uint){\n   return medicinestore.getMedicineCount();\n }\nfunction getMedicineByMedicinename(bytes32 mname) public view returns(Medicine){\n   return medicinestore.getMedicineByMedicinename(mname);\n }\n\nfunction getMedicineByIndex(uint index) public view returns(bytes32,bytes memory){\n   return medicinestore.getMedicineByIndex(index);\n }\n\nfunction getMedicineNameByIndex(uint index) public view returns(bytes32){\n   medicinestore.getMedicineNameByIndex(index);\n }\n\nfunction getMedIpfsHashByIndex(uint index) public view returns(bytes memory){\n   return medicinestore.getMedIpfsHashByIndex(index);\n }\n\nfunction getIpfsHashByMedicineName(bytes32 mname) public view returns(bytes memory){\n   medicinestore.getIpfsHashByMedicineName(mname);\n }\n\n}",
  "sourcePath": "/home/eke/patient-eth-ipfs/contracts/Client.sol",
  "compiler": {
    "name": "solc",
    "version": "0.5.16+commit.9c3226ce.Emscripten.clang"
  },
  "schemaVersion": "3.1.0",
  "updatedAt": "2020-04-13T16:34:15.500Z",
  "devdoc": {
    "methods": {}
  },
  "userdoc": {
    "methods": {}
  }
}