{
  "contractName": "Client",
  "abi": [
    {
      "inputs": [
        {
          "internalType": "address",
          "name": "storageAddress",
          "type": "address"
        }
      ],
      "payable": false,
      "stateMutability": "nonpayable",
      "type": "constructor"
    },
    {
      "constant": false,
      "inputs": [
        {
          "internalType": "bytes32",
          "name": "patientName",
          "type": "bytes32"
        },
        {
          "internalType": "bytes",
          "name": "ipfsHash",
          "type": "bytes"
        }
      ],
      "name": "registerPatient",
      "outputs": [
        {
          "internalType": "bool",
          "name": "",
          "type": "bool"
        }
      ],
      "payable": false,
      "stateMutability": "nonpayable",
      "type": "function"
    },
    {
      "constant": true,
      "inputs": [
        {
          "internalType": "address",
          "name": "_patientAdresses",
          "type": "address"
        }
      ],
      "name": "hasPatient",
      "outputs": [
        {
          "internalType": "bool",
          "name": "",
          "type": "bool"
        }
      ],
      "payable": false,
      "stateMutability": "view",
      "type": "function"
    },
    {
      "constant": true,
      "inputs": [
        {
          "internalType": "bytes32",
          "name": "pname",
          "type": "bytes32"
        }
      ],
      "name": "patientNameTaken",
      "outputs": [
        {
          "internalType": "bool",
          "name": "takenIndeed",
          "type": "bool"
        }
      ],
      "payable": false,
      "stateMutability": "view",
      "type": "function"
    },
    {
      "constant": false,
      "inputs": [
        {
          "internalType": "bytes",
          "name": "ipfsHash",
          "type": "bytes"
        }
      ],
      "name": "updatePatient",
      "outputs": [
        {
          "internalType": "bool",
          "name": "",
          "type": "bool"
        }
      ],
      "payable": false,
      "stateMutability": "nonpayable",
      "type": "function"
    },
    {
      "constant": true,
      "inputs": [],
      "name": "getPatientCount",
      "outputs": [
        {
          "internalType": "uint256",
          "name": "",
          "type": "uint256"
        }
      ],
      "payable": false,
      "stateMutability": "view",
      "type": "function"
    },
    {
      "constant": true,
      "inputs": [
        {
          "internalType": "uint256",
          "name": "index",
          "type": "uint256"
        }
      ],
      "name": "getPatientByIndex",
      "outputs": [
        {
          "internalType": "address",
          "name": "",
          "type": "address"
        },
        {
          "internalType": "bytes32",
          "name": "",
          "type": "bytes32"
        },
        {
          "internalType": "bytes",
          "name": "",
          "type": "bytes"
        }
      ],
      "payable": false,
      "stateMutability": "view",
      "type": "function"
    },
    {
      "constant": true,
      "inputs": [
        {
          "internalType": "uint256",
          "name": "index",
          "type": "uint256"
        }
      ],
      "name": "getAddressByIndex",
      "outputs": [
        {
          "internalType": "address",
          "name": "",
          "type": "address"
        }
      ],
      "payable": false,
      "stateMutability": "view",
      "type": "function"
    },
    {
      "constant": true,
      "inputs": [
        {
          "internalType": "uint256",
          "name": "index",
          "type": "uint256"
        }
      ],
      "name": "getPatientNameByIndex",
      "outputs": [
        {
          "internalType": "bytes32",
          "name": "",
          "type": "bytes32"
        }
      ],
      "payable": false,
      "stateMutability": "view",
      "type": "function"
    },
    {
      "constant": true,
      "inputs": [
        {
          "internalType": "uint256",
          "name": "index",
          "type": "uint256"
        }
      ],
      "name": "getIpfsHashByIndex",
      "outputs": [
        {
          "internalType": "bytes",
          "name": "",
          "type": "bytes"
        }
      ],
      "payable": false,
      "stateMutability": "view",
      "type": "function"
    },
    {
      "constant": true,
      "inputs": [
        {
          "internalType": "address",
          "name": "patientAddress",
          "type": "address"
        }
      ],
      "name": "getPatientByAddress",
      "outputs": [
        {
          "internalType": "uint256",
          "name": "",
          "type": "uint256"
        },
        {
          "internalType": "bytes32",
          "name": "",
          "type": "bytes32"
        },
        {
          "internalType": "bytes",
          "name": "",
          "type": "bytes"
        }
      ],
      "payable": false,
      "stateMutability": "view",
      "type": "function"
    },
    {
      "constant": true,
      "inputs": [
        {
          "internalType": "address",
          "name": "patientAddress",
          "type": "address"
        }
      ],
      "name": "getIndexByAddress",
      "outputs": [
        {
          "internalType": "uint256",
          "name": "",
          "type": "uint256"
        }
      ],
      "payable": false,
      "stateMutability": "view",
      "type": "function"
    },
    {
      "constant": true,
      "inputs": [
        {
          "internalType": "address",
          "name": "patientAddress",
          "type": "address"
        }
      ],
      "name": "getPatientNameByAddress",
      "outputs": [
        {
          "internalType": "bytes32",
          "name": "",
          "type": "bytes32"
        }
      ],
      "payable": false,
      "stateMutability": "view",
      "type": "function"
    },
    {
      "constant": true,
      "inputs": [
        {
          "internalType": "address",
          "name": "patientAddress",
          "type": "address"
        }
      ],
      "name": "getIpfsHashByAddress",
      "outputs": [
        {
          "internalType": "bytes",
          "name": "",
          "type": "bytes"
        }
      ],
      "payable": false,
      "stateMutability": "view",
      "type": "function"
    },
    {
      "constant": true,
      "inputs": [
        {
          "internalType": "bytes32",
          "name": "patientname",
          "type": "bytes32"
        }
      ],
      "name": "getPatientByPatientName",
      "outputs": [
        {
          "internalType": "uint256",
          "name": "",
          "type": "uint256"
        },
        {
          "internalType": "address",
          "name": "",
          "type": "address"
        },
        {
          "internalType": "bytes",
          "name": "",
          "type": "bytes"
        }
      ],
      "payable": false,
      "stateMutability": "view",
      "type": "function"
    },
    {
      "constant": true,
      "inputs": [
        {
          "internalType": "bytes32",
          "name": "patientname",
          "type": "bytes32"
        }
      ],
      "name": "getIndexByPatientName",
      "outputs": [
        {
          "internalType": "uint256",
          "name": "",
          "type": "uint256"
        }
      ],
      "payable": false,
      "stateMutability": "view",
      "type": "function"
    },
    {
      "constant": true,
      "inputs": [
        {
          "internalType": "bytes32",
          "name": "patientname",
          "type": "bytes32"
        }
      ],
      "name": "getAddressByPatientName",
      "outputs": [
        {
          "internalType": "address",
          "name": "",
          "type": "address"
        }
      ],
      "payable": false,
      "stateMutability": "view",
      "type": "function"
    },
    {
      "constant": true,
      "inputs": [
        {
          "internalType": "bytes32",
          "name": "patientname",
          "type": "bytes32"
        }
      ],
      "name": "getIpfsHashByPatientName",
      "outputs": [
        {
          "internalType": "bytes",
          "name": "",
          "type": "bytes"
        }
      ],
      "payable": false,
      "stateMutability": "view",
      "type": "function"
    },
    {
      "constant": false,
      "inputs": [
        {
          "internalType": "bytes32",
          "name": "_pname",
          "type": "bytes32"
        },
        {
          "internalType": "bytes32",
          "name": "_consulDateID",
          "type": "bytes32"
        },
        {
          "internalType": "bytes",
          "name": "newPatientIpfs",
          "type": "bytes"
        }
      ],
      "name": "consultationCreate",
      "outputs": [
        {
          "internalType": "bool",
          "name": "",
          "type": "bool"
        }
      ],
      "payable": false,
      "stateMutability": "nonpayable",
      "type": "function"
    },
    {
      "constant": true,
      "inputs": [
        {
          "internalType": "uint256",
          "name": "_index",
          "type": "uint256"
        }
      ],
      "name": "getConsultationByConsultationIndex",
      "outputs": [
        {
          "internalType": "bytes32",
          "name": "consulID",
          "type": "bytes32"
        }
      ],
      "payable": false,
      "stateMutability": "view",
      "type": "function"
    },
    {
      "constant": true,
      "inputs": [
        {
          "internalType": "bytes32",
          "name": "_consulDateID",
          "type": "bytes32"
        }
      ],
      "name": "getConsultationIndexByConsultationID",
      "outputs": [
        {
          "internalType": "uint256",
          "name": "",
          "type": "uint256"
        }
      ],
      "payable": false,
      "stateMutability": "view",
      "type": "function"
    },
    {
      "constant": true,
      "inputs": [
        {
          "internalType": "bytes32",
          "name": "_pname",
          "type": "bytes32"
        }
      ],
      "name": "getConsultationsByPatientName",
      "outputs": [
        {
          "internalType": "bytes32[]",
          "name": "",
          "type": "bytes32[]"
        }
      ],
      "payable": false,
      "stateMutability": "view",
      "type": "function"
    },
    {
      "constant": true,
      "inputs": [
        {
          "internalType": "address",
          "name": "patientAddress",
          "type": "address"
        }
      ],
      "name": "getConsultationsByPatientAddress",
      "outputs": [
        {
          "internalType": "bytes32[]",
          "name": "",
          "type": "bytes32[]"
        }
      ],
      "payable": false,
      "stateMutability": "view",
      "type": "function"
    },
    {
      "constant": false,
      "inputs": [
        {
          "internalType": "bytes32",
          "name": "_pname",
          "type": "bytes32"
        },
        {
          "internalType": "bytes32",
          "name": "_testDateID",
          "type": "bytes32"
        },
        {
          "internalType": "bytes",
          "name": "newPatientIpfs",
          "type": "bytes"
        }
      ],
      "name": "testCreate",
      "outputs": [
        {
          "internalType": "bool",
          "name": "",
          "type": "bool"
        }
      ],
      "payable": false,
      "stateMutability": "nonpayable",
      "type": "function"
    },
    {
      "constant": true,
      "inputs": [
        {
          "internalType": "uint256",
          "name": "_index",
          "type": "uint256"
        }
      ],
      "name": "getTestByTestIndex",
      "outputs": [
        {
          "internalType": "bytes32",
          "name": "testID",
          "type": "bytes32"
        }
      ],
      "payable": false,
      "stateMutability": "view",
      "type": "function"
    },
    {
      "constant": true,
      "inputs": [
        {
          "internalType": "bytes32",
          "name": "_testDateID",
          "type": "bytes32"
        }
      ],
      "name": "getTestIndexByTestID",
      "outputs": [
        {
          "internalType": "uint256",
          "name": "",
          "type": "uint256"
        }
      ],
      "payable": false,
      "stateMutability": "view",
      "type": "function"
    },
    {
      "constant": true,
      "inputs": [
        {
          "internalType": "bytes32",
          "name": "_pname",
          "type": "bytes32"
        }
      ],
      "name": "getTestsByPatientName",
      "outputs": [
        {
          "internalType": "bytes32[]",
          "name": "",
          "type": "bytes32[]"
        }
      ],
      "payable": false,
      "stateMutability": "view",
      "type": "function"
    },
    {
      "constant": true,
      "inputs": [
        {
          "internalType": "address",
          "name": "patientAddress",
          "type": "address"
        }
      ],
      "name": "getTestsByPatientAddress",
      "outputs": [
        {
          "internalType": "bytes32[]",
          "name": "",
          "type": "bytes32[]"
        }
      ],
      "payable": false,
      "stateMutability": "view",
      "type": "function"
    },
    {
      "constant": true,
      "inputs": [],
      "name": "getTestsCount",
      "outputs": [
        {
          "internalType": "uint256",
          "name": "",
          "type": "uint256"
        }
      ],
      "payable": false,
      "stateMutability": "view",
      "type": "function"
    },
    {
      "constant": false,
      "inputs": [
        {
          "internalType": "bytes32",
          "name": "mname",
          "type": "bytes32"
        }
      ],
      "name": "saveMedicineForPatientUse",
      "outputs": [
        {
          "internalType": "bool",
          "name": "",
          "type": "bool"
        }
      ],
      "payable": false,
      "stateMutability": "nonpayable",
      "type": "function"
    },
    {
      "constant": true,
      "inputs": [],
      "name": "getMedicinesFromConsultation",
      "outputs": [
        {
          "internalType": "bytes32[]",
          "name": "",
          "type": "bytes32[]"
        }
      ],
      "payable": false,
      "stateMutability": "view",
      "type": "function"
    },
    {
      "constant": false,
      "inputs": [
        {
          "internalType": "bytes32",
          "name": "DoctorName",
          "type": "bytes32"
        },
        {
          "internalType": "bytes",
          "name": "ipfsHash",
          "type": "bytes"
        }
      ],
      "name": "registerDoctor",
      "outputs": [
        {
          "internalType": "bool",
          "name": "",
          "type": "bool"
        }
      ],
      "payable": false,
      "stateMutability": "nonpayable",
      "type": "function"
    },
    {
      "constant": false,
      "inputs": [
        {
          "internalType": "bytes",
          "name": "ipfsHash",
          "type": "bytes"
        }
      ],
      "name": "updateDoctor",
      "outputs": [
        {
          "internalType": "bool",
          "name": "",
          "type": "bool"
        }
      ],
      "payable": false,
      "stateMutability": "nonpayable",
      "type": "function"
    },
    {
      "constant": true,
      "inputs": [],
      "name": "getDoctorCount",
      "outputs": [
        {
          "internalType": "uint256",
          "name": "",
          "type": "uint256"
        }
      ],
      "payable": false,
      "stateMutability": "view",
      "type": "function"
    },
    {
      "constant": true,
      "inputs": [
        {
          "internalType": "uint256",
          "name": "index",
          "type": "uint256"
        }
      ],
      "name": "getDoctorByIndex",
      "outputs": [
        {
          "internalType": "address",
          "name": "",
          "type": "address"
        },
        {
          "internalType": "bytes32",
          "name": "",
          "type": "bytes32"
        },
        {
          "internalType": "bytes",
          "name": "",
          "type": "bytes"
        }
      ],
      "payable": false,
      "stateMutability": "view",
      "type": "function"
    },
    {
      "constant": true,
      "inputs": [
        {
          "internalType": "uint256",
          "name": "index",
          "type": "uint256"
        }
      ],
      "name": "getDoctorAddressByIndex",
      "outputs": [
        {
          "internalType": "address",
          "name": "",
          "type": "address"
        }
      ],
      "payable": false,
      "stateMutability": "view",
      "type": "function"
    },
    {
      "constant": true,
      "inputs": [
        {
          "internalType": "uint256",
          "name": "index",
          "type": "uint256"
        }
      ],
      "name": "getDoctorNameByIndex",
      "outputs": [
        {
          "internalType": "bytes32",
          "name": "",
          "type": "bytes32"
        }
      ],
      "payable": false,
      "stateMutability": "view",
      "type": "function"
    },
    {
      "constant": true,
      "inputs": [
        {
          "internalType": "uint256",
          "name": "index",
          "type": "uint256"
        }
      ],
      "name": "getDoctorIpfsHashByIndex",
      "outputs": [
        {
          "internalType": "bytes",
          "name": "",
          "type": "bytes"
        }
      ],
      "payable": false,
      "stateMutability": "view",
      "type": "function"
    },
    {
      "constant": true,
      "inputs": [
        {
          "internalType": "address",
          "name": "DoctorAddress",
          "type": "address"
        }
      ],
      "name": "getDoctorByAddress",
      "outputs": [
        {
          "internalType": "uint256",
          "name": "",
          "type": "uint256"
        },
        {
          "internalType": "bytes32",
          "name": "",
          "type": "bytes32"
        },
        {
          "internalType": "bytes",
          "name": "",
          "type": "bytes"
        }
      ],
      "payable": false,
      "stateMutability": "view",
      "type": "function"
    },
    {
      "constant": true,
      "inputs": [
        {
          "internalType": "address",
          "name": "DoctorAddress",
          "type": "address"
        }
      ],
      "name": "getDoctorIndexByAddress",
      "outputs": [
        {
          "internalType": "uint256",
          "name": "",
          "type": "uint256"
        }
      ],
      "payable": false,
      "stateMutability": "view",
      "type": "function"
    },
    {
      "constant": true,
      "inputs": [
        {
          "internalType": "address",
          "name": "DoctorAddress",
          "type": "address"
        }
      ],
      "name": "getDoctorNameByAddress",
      "outputs": [
        {
          "internalType": "bytes32",
          "name": "",
          "type": "bytes32"
        }
      ],
      "payable": false,
      "stateMutability": "view",
      "type": "function"
    },
    {
      "constant": true,
      "inputs": [
        {
          "internalType": "address",
          "name": "DoctorAddress",
          "type": "address"
        }
      ],
      "name": "getDoctorIpfsHashByAddress",
      "outputs": [
        {
          "internalType": "bytes",
          "name": "",
          "type": "bytes"
        }
      ],
      "payable": false,
      "stateMutability": "view",
      "type": "function"
    },
    {
      "constant": true,
      "inputs": [
        {
          "internalType": "bytes32",
          "name": "Doctorname",
          "type": "bytes32"
        }
      ],
      "name": "getDoctorByDoctorName",
      "outputs": [
        {
          "internalType": "uint256",
          "name": "",
          "type": "uint256"
        },
        {
          "internalType": "address",
          "name": "",
          "type": "address"
        },
        {
          "internalType": "bytes",
          "name": "",
          "type": "bytes"
        }
      ],
      "payable": false,
      "stateMutability": "view",
      "type": "function"
    },
    {
      "constant": true,
      "inputs": [
        {
          "internalType": "bytes32",
          "name": "Doctorname",
          "type": "bytes32"
        }
      ],
      "name": "getDoctorIndexByDoctorName",
      "outputs": [
        {
          "internalType": "uint256",
          "name": "",
          "type": "uint256"
        }
      ],
      "payable": false,
      "stateMutability": "view",
      "type": "function"
    },
    {
      "constant": true,
      "inputs": [
        {
          "internalType": "bytes32",
          "name": "Doctorname",
          "type": "bytes32"
        }
      ],
      "name": "getDoctorAddressByDoctorName",
      "outputs": [
        {
          "internalType": "address",
          "name": "",
          "type": "address"
        }
      ],
      "payable": false,
      "stateMutability": "view",
      "type": "function"
    },
    {
      "constant": true,
      "inputs": [
        {
          "internalType": "bytes32",
          "name": "Doctorname",
          "type": "bytes32"
        }
      ],
      "name": "getDoctorIpfsHashByDoctorName",
      "outputs": [
        {
          "internalType": "bytes",
          "name": "",
          "type": "bytes"
        }
      ],
      "payable": false,
      "stateMutability": "view",
      "type": "function"
    },
    {
      "constant": false,
      "inputs": [
        {
          "internalType": "bytes32",
          "name": "mname",
          "type": "bytes32"
        },
        {
          "internalType": "bytes",
          "name": "ipfsHash",
          "type": "bytes"
        }
      ],
      "name": "saveMedicine",
      "outputs": [
        {
          "internalType": "bool",
          "name": "",
          "type": "bool"
        }
      ],
      "payable": false,
      "stateMutability": "nonpayable",
      "type": "function"
    },
    {
      "constant": false,
      "inputs": [
        {
          "internalType": "bytes",
          "name": "ipfsHash",
          "type": "bytes"
        }
      ],
      "name": "updateMedicine",
      "outputs": [
        {
          "internalType": "bool",
          "name": "",
          "type": "bool"
        }
      ],
      "payable": false,
      "stateMutability": "nonpayable",
      "type": "function"
    },
    {
      "constant": true,
      "inputs": [],
      "name": "getMedicineCount",
      "outputs": [
        {
          "internalType": "uint256",
          "name": "",
          "type": "uint256"
        }
      ],
      "payable": false,
      "stateMutability": "view",
      "type": "function"
    },
    {
      "constant": true,
      "inputs": [
        {
          "internalType": "bytes32",
          "name": "mname",
          "type": "bytes32"
        }
      ],
      "name": "getMedicineByMedicinename",
      "outputs": [
        {
          "internalType": "contract Medicine",
          "name": "",
          "type": "address"
        }
      ],
      "payable": false,
      "stateMutability": "view",
      "type": "function"
    },
    {
      "constant": true,
      "inputs": [
        {
          "internalType": "uint256",
          "name": "index",
          "type": "uint256"
        }
      ],
      "name": "getMedicineByIndex",
      "outputs": [
        {
          "internalType": "bytes32",
          "name": "",
          "type": "bytes32"
        },
        {
          "internalType": "bytes",
          "name": "",
          "type": "bytes"
        }
      ],
      "payable": false,
      "stateMutability": "view",
      "type": "function"
    },
    {
      "constant": true,
      "inputs": [
        {
          "internalType": "uint256",
          "name": "index",
          "type": "uint256"
        }
      ],
      "name": "getMedicineNameByIndex",
      "outputs": [
        {
          "internalType": "bytes32",
          "name": "",
          "type": "bytes32"
        }
      ],
      "payable": false,
      "stateMutability": "view",
      "type": "function"
    },
    {
      "constant": true,
      "inputs": [
        {
          "internalType": "uint256",
          "name": "index",
          "type": "uint256"
        }
      ],
      "name": "getMedIpfsHashByIndex",
      "outputs": [
        {
          "internalType": "bytes",
          "name": "",
          "type": "bytes"
        }
      ],
      "payable": false,
      "stateMutability": "view",
      "type": "function"
    },
    {
      "constant": true,
      "inputs": [
        {
          "internalType": "bytes32",
          "name": "mname",
          "type": "bytes32"
        }
      ],
      "name": "getIpfsHashByMedicineName",
      "outputs": [
        {
          "internalType": "bytes",
          "name": "",
          "type": "bytes"
        }
      ],
      "payable": false,
      "stateMutability": "view",
      "type": "function"
    }
  ],
  "bytecode": "0x60806040523480156200001157600080fd5b5060405162003f9f38038062003f9f833981810160405262000037919081019062000117565b806000806101000a81548173ffffffffffffffffffffffffffffffffffffffff021916908373ffffffffffffffffffffffffffffffffffffffff16021790555080600160006101000a81548173ffffffffffffffffffffffffffffffffffffffff021916908373ffffffffffffffffffffffffffffffffffffffff16021790555080600260006101000a81548173ffffffffffffffffffffffffffffffffffffffff021916908373ffffffffffffffffffffffffffffffffffffffff1602179055505062000191565b600081519050620001118162000177565b92915050565b6000602082840312156200012a57600080fd5b60006200013a8482850162000100565b91505092915050565b6000620001508262000157565b9050919050565b600073ffffffffffffffffffffffffffffffffffffffff82169050919050565b620001828162000143565b81146200018e57600080fd5b50565b613dfe80620001a16000396000f3fe608060405234801561001057600080fd5b50600436106103275760003560e01c8063715b5f6d116101b8578063ad37c2dc11610104578063cc04a685116100a2578063e1153e6f1161007c578063e1153e6f14610c21578063e85a340a14610c51578063eadeb84c14610c81578063eb9fbaa914610c9f57610327565b8063cc04a68514610b91578063ce10cf8814610bc1578063dfb7ab6014610bf157610327565b8063ba5c0335116100de578063ba5c033514610ae1578063c190665b14610b13578063cafd134614610b31578063cbb7e2ff14610b6157610327565b8063ad37c2dc14610a51578063b1d5458d14610a81578063b9affb9314610ab157610327565b80637b63cec4116101715780639b9fc6e01161014b5780639b9fc6e01461098f578063a68a08a5146109bf578063a74380a6146109ef578063ad36054b14610a1f57610327565b80637b63cec4146108ff5780638f1787c21461092f57806394e7ef6e1461095f57610327565b8063715b5f6d1461080157806372869ff91461083357806374275255146108635780637448d8d81461089357806377e4afe4146108c357806379111c1c146108e157610327565b806331db6fd51161027757806358c5d4bf11610230578063624a4dac1161020a578063624a4dac146107535780636876195414610771578063697d19ea146107a15780636cfbc8fd146107d157610327565b806358c5d4bf146106bf5780635a357c19146106f15780635bab54821461072357610327565b806331db6fd51461059d57806345cfa71d146105cd5780634b3a6029146105fd5780635035cf521461062d578063511ad5221461065d57806357ea0c2f1461068d57610327565b80631d37878f116102e4578063234c1618116102be578063234c1618146104dd57806329f78d881461050d5780632dce41671461053d57806330ca739b1461056d57610327565b80631d37878f1461044c5780631e50b1821461047c5780631f97c4c3146104ad57610327565b806304aa42101461032c5780630b8d6eae1461035c57806313684d431461038c578063140de8f2146103bc57806314f51930146103ec5780631973ef911461041c575b600080fd5b6103466004803603610341919081019061356f565b610ccf565b6040516103539190613ac3565b60405180910390f35b6103766004803603610371919081019061344c565b610d88565b60405161038391906139fd565b60405180910390f35b6103a660048036036103a1919081019061344c565b610e40565b6040516103b39190613ac3565b60405180910390f35b6103d660048036036103d1919081019061356f565b610ef9565b6040516103e39190613b00565b60405180910390f35b610406600480360361040191908101906136d0565b610fad565b6040516104139190613a1f565b60405180910390f35b6104366004803603610431919081019061344c565b611062565b6040516104439190613b00565b60405180910390f35b6104666004803603610461919081019061377b565b611115565b6040516104739190613a3a565b60405180910390f35b6104966004803603610491919081019061377b565b6111c9565b6040516104a4929190613a93565b60405180910390f35b6104c760048036036104c2919081019061356f565b611286565b6040516104d49190613a1f565b60405180910390f35b6104f760048036036104f2919081019061356f565b61133b565b6040516105049190613b00565b60405180910390f35b6105276004803603610522919081019061377b565b6113ee565b6040516105349190613ac3565b60405180910390f35b6105576004803603610552919081019061356f565b6114a6565b6040516105649190613b00565b60405180910390f35b6105876004803603610582919081019061344c565b611559565b60405161059491906139fd565b60405180910390f35b6105b760048036036105b2919081019061377b565b611611565b6040516105c49190613a3a565b60405180910390f35b6105e760048036036105e2919081019061356f565b6116c4565b6040516105f491906139fd565b60405180910390f35b6106176004803603610612919081019061377b565b61177c565b6040516106249190613ac3565b60405180910390f35b610647600480360361064291908101906135c1565b611835565b6040516106549190613a1f565b60405180910390f35b6106776004803603610672919081019061377b565b6118f0565b6040516106849190613a3a565b60405180910390f35b6106a760048036036106a2919081019061377b565b6119a3565b6040516106b6939291906139bf565b60405180910390f35b6106d960048036036106d4919081019061344c565b611a64565b6040516106e893929190613b59565b60405180910390f35b61070b6004803603610706919081019061377b565b611b26565b60405161071a939291906139bf565b60405180910390f35b61073d6004803603610738919081019061344c565b611be8565b60405161074a9190613b00565b60405180910390f35b61075b611c9c565b6040516107689190613b00565b60405180910390f35b61078b60048036036107869190810190613628565b611d42565b6040516107989190613a1f565b60405180910390f35b6107bb60048036036107b69190810190613628565b611dfa565b6040516107c89190613a1f565b60405180910390f35b6107eb60048036036107e6919081019061356f565b611eb3565b6040516107f891906139a4565b60405180910390f35b61081b6004803603610816919081019061356f565b611f66565b60405161082a93929190613b1b565b60405180910390f35b61084d6004803603610848919081019061356f565b612028565b60405161085a9190613ae5565b60405180910390f35b61087d600480360361087891908101906135c1565b6120dc565b60405161088a9190613a1f565b60405180910390f35b6108ad60048036036108a8919081019061356f565b612197565b6040516108ba91906139fd565b60405180910390f35b6108cb61224f565b6040516108d891906139fd565b60405180910390f35b6108e96122fa565b6040516108f69190613b00565b60405180910390f35b6109196004803603610914919081019061356f565b6123a1565b6040516109269190613a1f565b60405180910390f35b6109496004803603610944919081019061344c565b612454565b6040516109569190613a3a565b60405180910390f35b610979600480360361097491908101906136d0565b612508565b6040516109869190613a1f565b60405180910390f35b6109a960048036036109a4919081019061377b565b6125bd565b6040516109b69190613a3a565b60405180910390f35b6109d960048036036109d4919081019061356f565b612670565b6040516109e69190613ac3565b60405180910390f35b610a096004803603610a04919081019061344c565b612728565b604051610a169190613ac3565b60405180910390f35b610a396004803603610a34919081019061356f565b6127e0565b604051610a4893929190613b1b565b60405180910390f35b610a6b6004803603610a66919081019061356f565b6128a1565b604051610a7891906139a4565b60405180910390f35b610a9b6004803603610a96919081019061356f565b612955565b604051610aa89190613b00565b60405180910390f35b610acb6004803603610ac6919081019061344c565b612a08565b604051610ad89190613a3a565b60405180910390f35b610afb6004803603610af6919081019061344c565b612abb565b604051610b0a93929190613b59565b60405180910390f35b610b1b612b7c565b604051610b289190613b00565b60405180910390f35b610b4b6004803603610b4691908101906136d0565b612c22565b604051610b589190613a1f565b60405180910390f35b610b7b6004803603610b76919081019061377b565b612cd8565b604051610b889190613a3a565b60405180910390f35b610bab6004803603610ba6919081019061377b565b612d8b565b604051610bb89190613ac3565b60405180910390f35b610bdb6004803603610bd6919081019061377b565b612e44565b604051610be891906139a4565b60405180910390f35b610c0b6004803603610c06919081019061356f565b612ef7565b604051610c189190613ac3565b60405180910390f35b610c3b6004803603610c369190810190613628565b612faf565b604051610c489190613a1f565b60405180910390f35b610c6b6004803603610c66919081019061377b565b61306b565b604051610c7891906139a4565b60405180910390f35b610c8961311f565b604051610c969190613b00565b60405180910390f35b610cb96004803603610cb4919081019061344c565b6131c6565b604051610cc69190613a1f565b60405180910390f35b6060600160009054906101000a900473ffffffffffffffffffffffffffffffffffffffff1673ffffffffffffffffffffffffffffffffffffffff166304aa4210836040518263ffffffff1660e01b8152600401610d2c9190613a3a565b60006040518083038186803b158015610d4457600080fd5b505afa158015610d58573d6000803e3d6000fd5b505050506040513d6000823e3d601f19601f82011682018060405250610d819190810190613711565b9050919050565b60606000809054906101000a900473ffffffffffffffffffffffffffffffffffffffff1673ffffffffffffffffffffffffffffffffffffffff16630b8d6eae836040518263ffffffff1660e01b8152600401610de491906139a4565b60006040518083038186803b158015610dfc57600080fd5b505afa158015610e10573d6000803e3d6000fd5b505050506040513d6000823e3d601f19601f82011682018060405250610e399190810190613505565b9050919050565b6060600160009054906101000a900473ffffffffffffffffffffffffffffffffffffffff1673ffffffffffffffffffffffffffffffffffffffff166313684d43836040518263ffffffff1660e01b8152600401610e9d91906139a4565b60006040518083038186803b158015610eb557600080fd5b505afa158015610ec9573d6000803e3d6000fd5b505050506040513d6000823e3d601f19601f82011682018060405250610ef29190810190613711565b9050919050565b6000600160009054906101000a900473ffffffffffffffffffffffffffffffffffffffff1673ffffffffffffffffffffffffffffffffffffffff1663140de8f2836040518263ffffffff1660e01b8152600401610f569190613a3a565b60206040518083038186803b158015610f6e57600080fd5b505afa158015610f82573d6000803e3d6000fd5b505050506040513d601f19601f82011682018060405250610fa691908101906137a4565b9050919050565b6000600160009054906101000a900473ffffffffffffffffffffffffffffffffffffffff1673ffffffffffffffffffffffffffffffffffffffff166314f51930836040518263ffffffff1660e01b815260040161100a9190613ac3565b602060405180830381600087803b15801561102457600080fd5b505af1158015611038573d6000803e3d6000fd5b505050506040513d601f19601f8201168201806040525061105c9190810190613546565b50919050565b60008060009054906101000a900473ffffffffffffffffffffffffffffffffffffffff1673ffffffffffffffffffffffffffffffffffffffff16631973ef91836040518263ffffffff1660e01b81526004016110be91906139a4565b60206040518083038186803b1580156110d657600080fd5b505afa1580156110ea573d6000803e3d6000fd5b505050506040513d601f19601f8201168201806040525061110e91908101906137a4565b9050919050565b6000600160009054906101000a900473ffffffffffffffffffffffffffffffffffffffff1673ffffffffffffffffffffffffffffffffffffffff16631d37878f836040518263ffffffff1660e01b81526004016111729190613b00565b60206040518083038186803b15801561118a57600080fd5b505afa15801561119e573d6000803e3d6000fd5b505050506040513d601f19601f820116820180604052506111c29190810190613598565b9050919050565b60006060600260009054906101000a900473ffffffffffffffffffffffffffffffffffffffff1673ffffffffffffffffffffffffffffffffffffffff16631e50b182846040518263ffffffff1660e01b81526004016112289190613b00565b60006040518083038186803b15801561124057600080fd5b505afa158015611254573d6000803e3d6000fd5b505050506040513d6000823e3d601f19601f8201168201806040525061127d919081019061367c565b91509150915091565b60008060009054906101000a900473ffffffffffffffffffffffffffffffffffffffff1673ffffffffffffffffffffffffffffffffffffffff16631f97c4c3836040518263ffffffff1660e01b81526004016112e29190613a3a565b602060405180830381600087803b1580156112fc57600080fd5b505af1158015611310573d6000803e3d6000fd5b505050506040513d601f19601f820116820180604052506113349190810190613546565b9050919050565b60008060009054906101000a900473ffffffffffffffffffffffffffffffffffffffff1673ffffffffffffffffffffffffffffffffffffffff1663234c1618836040518263ffffffff1660e01b81526004016113979190613a3a565b60206040518083038186803b1580156113af57600080fd5b505afa1580156113c3573d6000803e3d6000fd5b505050506040513d601f19601f820116820180604052506113e791908101906137a4565b9050919050565b60606000809054906101000a900473ffffffffffffffffffffffffffffffffffffffff1673ffffffffffffffffffffffffffffffffffffffff166329f78d88836040518263ffffffff1660e01b815260040161144a9190613b00565b60006040518083038186803b15801561146257600080fd5b505afa158015611476573d6000803e3d6000fd5b505050506040513d6000823e3d601f19601f8201168201806040525061149f9190810190613711565b9050919050565b60008060009054906101000a900473ffffffffffffffffffffffffffffffffffffffff1673ffffffffffffffffffffffffffffffffffffffff16632dce4167836040518263ffffffff1660e01b81526004016115029190613a3a565b60206040518083038186803b15801561151a57600080fd5b505afa15801561152e573d6000803e3d6000fd5b505050506040513d601f19601f8201168201806040525061155291908101906137a4565b9050919050565b60606000809054906101000a900473ffffffffffffffffffffffffffffffffffffffff1673ffffffffffffffffffffffffffffffffffffffff166330ca739b836040518263ffffffff1660e01b81526004016115b591906139a4565b60006040518083038186803b1580156115cd57600080fd5b505afa1580156115e1573d6000803e3d6000fd5b505050506040513d6000823e3d601f19601f8201168201806040525061160a9190810190613505565b9050919050565b6000600260009054906101000a900473ffffffffffffffffffffffffffffffffffffffff1673ffffffffffffffffffffffffffffffffffffffff166331db6fd5836040518263ffffffff1660e01b815260040161166e9190613b00565b60206040518083038186803b15801561168657600080fd5b505afa15801561169a573d6000803e3d6000fd5b505050506040513d601f19601f820116820180604052506116be9190810190613598565b50919050565b60606000809054906101000a900473ffffffffffffffffffffffffffffffffffffffff1673ffffffffffffffffffffffffffffffffffffffff166345cfa71d836040518263ffffffff1660e01b81526004016117209190613a3a565b60006040518083038186803b15801561173857600080fd5b505afa15801561174c573d6000803e3d6000fd5b505050506040513d6000823e3d601f19601f820116820180604052506117759190810190613505565b9050919050565b6060600160009054906101000a900473ffffffffffffffffffffffffffffffffffffffff1673ffffffffffffffffffffffffffffffffffffffff16634b3a6029836040518263ffffffff1660e01b81526004016117d99190613b00565b60006040518083038186803b1580156117f157600080fd5b505afa158015611805573d6000803e3d6000fd5b505050506040513d6000823e3d601f19601f8201168201806040525061182e9190810190613711565b9050919050565b60008060009054906101000a900473ffffffffffffffffffffffffffffffffffffffff1673ffffffffffffffffffffffffffffffffffffffff16635035cf528585856040518463ffffffff1660e01b815260040161189593929190613a55565b602060405180830381600087803b1580156118af57600080fd5b505af11580156118c3573d6000803e3d6000fd5b505050506040513d601f19601f820116820180604052506118e79190810190613546565b90509392505050565b60008060009054906101000a900473ffffffffffffffffffffffffffffffffffffffff1673ffffffffffffffffffffffffffffffffffffffff1663511ad522836040518263ffffffff1660e01b815260040161194c9190613b00565b60206040518083038186803b15801561196457600080fd5b505afa158015611978573d6000803e3d6000fd5b505050506040513d601f19601f8201168201806040525061199c9190810190613598565b9050919050565b60008060606000809054906101000a900473ffffffffffffffffffffffffffffffffffffffff1673ffffffffffffffffffffffffffffffffffffffff166357ea0c2f856040518263ffffffff1660e01b8152600401611a029190613b00565b60006040518083038186803b158015611a1a57600080fd5b505afa158015611a2e573d6000803e3d6000fd5b505050506040513d6000823e3d601f19601f82011682018060405250611a57919081019061349e565b9250925092509193909250565b6000806060600160009054906101000a900473ffffffffffffffffffffffffffffffffffffffff1673ffffffffffffffffffffffffffffffffffffffff166358c5d4bf856040518263ffffffff1660e01b8152600401611ac491906139a4565b60006040518083038186803b158015611adc57600080fd5b505afa158015611af0573d6000803e3d6000fd5b505050506040513d6000823e3d601f19601f82011682018060405250611b199190810190613834565b9250925092509193909250565b6000806060600160009054906101000a900473ffffffffffffffffffffffffffffffffffffffff1673ffffffffffffffffffffffffffffffffffffffff16635a357c19856040518263ffffffff1660e01b8152600401611b869190613b00565b60006040518083038186803b158015611b9e57600080fd5b505afa158015611bb2573d6000803e3d6000fd5b505050506040513d6000823e3d601f19601f82011682018060405250611bdb919081019061349e565b9250925092509193909250565b6000600160009054906101000a900473ffffffffffffffffffffffffffffffffffffffff1673ffffffffffffffffffffffffffffffffffffffff16635bab5482836040518263ffffffff1660e01b8152600401611c4591906139a4565b60206040518083038186803b158015611c5d57600080fd5b505afa158015611c71573d6000803e3d6000fd5b505050506040513d601f19601f82011682018060405250611c9591908101906137a4565b9050919050565b60008060009054906101000a900473ffffffffffffffffffffffffffffffffffffffff1673ffffffffffffffffffffffffffffffffffffffff1663624a4dac6040518163ffffffff1660e01b815260040160206040518083038186803b158015611d0557600080fd5b505afa158015611d19573d6000803e3d6000fd5b505050506040513d601f19601f82011682018060405250611d3d91908101906137a4565b905090565b60008060009054906101000a900473ffffffffffffffffffffffffffffffffffffffff1673ffffffffffffffffffffffffffffffffffffffff16636876195484846040518363ffffffff1660e01b8152600401611da0929190613a93565b602060405180830381600087803b158015611dba57600080fd5b505af1158015611dce573d6000803e3d6000fd5b505050506040513d601f19601f82011682018060405250611df29190810190613546565b905092915050565b6000600260009054906101000a900473ffffffffffffffffffffffffffffffffffffffff1673ffffffffffffffffffffffffffffffffffffffff1663697d19ea84846040518363ffffffff1660e01b8152600401611e59929190613a93565b602060405180830381600087803b158015611e7357600080fd5b505af1158015611e87573d6000803e3d6000fd5b505050506040513d601f19601f82011682018060405250611eab9190810190613546565b905092915050565b60008060009054906101000a900473ffffffffffffffffffffffffffffffffffffffff1673ffffffffffffffffffffffffffffffffffffffff16636cfbc8fd836040518263ffffffff1660e01b8152600401611f0f9190613a3a565b60206040518083038186803b158015611f2757600080fd5b505afa158015611f3b573d6000803e3d6000fd5b505050506040513d601f19601f82011682018060405250611f5f9190810190613475565b9050919050565b6000806060600160009054906101000a900473ffffffffffffffffffffffffffffffffffffffff1673ffffffffffffffffffffffffffffffffffffffff1663715b5f6d856040518263ffffffff1660e01b8152600401611fc69190613a3a565b60006040518083038186803b158015611fde57600080fd5b505afa158015611ff2573d6000803e3d6000fd5b505050506040513d6000823e3d601f19601f8201168201806040525061201b91908101906137cd565b9250925092509193909250565b6000600260009054906101000a900473ffffffffffffffffffffffffffffffffffffffff1673ffffffffffffffffffffffffffffffffffffffff166372869ff9836040518263ffffffff1660e01b81526004016120859190613a3a565b60206040518083038186803b15801561209d57600080fd5b505afa1580156120b1573d6000803e3d6000fd5b505050506040513d601f19601f820116820180604052506120d59190810190613752565b9050919050565b60008060009054906101000a900473ffffffffffffffffffffffffffffffffffffffff1673ffffffffffffffffffffffffffffffffffffffff1663742752558585856040518463ffffffff1660e01b815260040161213c93929190613a55565b602060405180830381600087803b15801561215657600080fd5b505af115801561216a573d6000803e3d6000fd5b505050506040513d601f19601f8201168201806040525061218e9190810190613546565b90509392505050565b60606000809054906101000a900473ffffffffffffffffffffffffffffffffffffffff1673ffffffffffffffffffffffffffffffffffffffff16637448d8d8836040518263ffffffff1660e01b81526004016121f39190613a3a565b60006040518083038186803b15801561220b57600080fd5b505afa15801561221f573d6000803e3d6000fd5b505050506040513d6000823e3d601f19601f820116820180604052506122489190810190613505565b9050919050565b60606000809054906101000a900473ffffffffffffffffffffffffffffffffffffffff1673ffffffffffffffffffffffffffffffffffffffff166377e4afe46040518163ffffffff1660e01b815260040160006040518083038186803b1580156122b857600080fd5b505afa1580156122cc573d6000803e3d6000fd5b505050506040513d6000823e3d601f19601f820116820180604052506122f59190810190613505565b905090565b6000600160009054906101000a900473ffffffffffffffffffffffffffffffffffffffff1673ffffffffffffffffffffffffffffffffffffffff166379111c1c6040518163ffffffff1660e01b815260040160206040518083038186803b15801561236457600080fd5b505afa158015612378573d6000803e3d6000fd5b505050506040513d601f19601f8201168201806040525061239c91908101906137a4565b905090565b60008060009054906101000a900473ffffffffffffffffffffffffffffffffffffffff1673ffffffffffffffffffffffffffffffffffffffff16637b63cec4836040518263ffffffff1660e01b81526004016123fd9190613a3a565b60206040518083038186803b15801561241557600080fd5b505afa158015612429573d6000803e3d6000fd5b505050506040513d601f19601f8201168201806040525061244d9190810190613546565b9050919050565b6000600160009054906101000a900473ffffffffffffffffffffffffffffffffffffffff1673ffffffffffffffffffffffffffffffffffffffff16638f1787c2836040518263ffffffff1660e01b81526004016124b191906139a4565b60206040518083038186803b1580156124c957600080fd5b505afa1580156124dd573d6000803e3d6000fd5b505050506040513d601f19601f820116820180604052506125019190810190613598565b9050919050565b60008060009054906101000a900473ffffffffffffffffffffffffffffffffffffffff1673ffffffffffffffffffffffffffffffffffffffff166394e7ef6e836040518263ffffffff1660e01b81526004016125649190613ac3565b602060405180830381600087803b15801561257e57600080fd5b505af1158015612592573d6000803e3d6000fd5b505050506040513d601f19601f820116820180604052506125b69190810190613546565b9050919050565b60008060009054906101000a900473ffffffffffffffffffffffffffffffffffffffff1673ffffffffffffffffffffffffffffffffffffffff16639b9fc6e0836040518263ffffffff1660e01b81526004016126199190613b00565b60206040518083038186803b15801561263157600080fd5b505afa158015612645573d6000803e3d6000fd5b505050506040513d601f19601f820116820180604052506126699190810190613598565b9050919050565b6060600260009054906101000a900473ffffffffffffffffffffffffffffffffffffffff1673ffffffffffffffffffffffffffffffffffffffff1663a68a08a5836040518263ffffffff1660e01b81526004016126cd9190613a3a565b60006040518083038186803b1580156126e557600080fd5b505afa1580156126f9573d6000803e3d6000fd5b505050506040513d6000823e3d601f19601f820116820180604052506127229190810190613711565b50919050565b60606000809054906101000a900473ffffffffffffffffffffffffffffffffffffffff1673ffffffffffffffffffffffffffffffffffffffff1663a74380a6836040518263ffffffff1660e01b815260040161278491906139a4565b60006040518083038186803b15801561279c57600080fd5b505afa1580156127b0573d6000803e3d6000fd5b505050506040513d6000823e3d601f19601f820116820180604052506127d99190810190613711565b9050919050565b60008060606000809054906101000a900473ffffffffffffffffffffffffffffffffffffffff1673ffffffffffffffffffffffffffffffffffffffff1663ad36054b856040518263ffffffff1660e01b815260040161283f9190613a3a565b60006040518083038186803b15801561285757600080fd5b505afa15801561286b573d6000803e3d6000fd5b505050506040513d6000823e3d601f19601f8201168201806040525061289491908101906137cd565b9250925092509193909250565b6000600160009054906101000a900473ffffffffffffffffffffffffffffffffffffffff1673ffffffffffffffffffffffffffffffffffffffff1663ad37c2dc836040518263ffffffff1660e01b81526004016128fe9190613a3a565b60206040518083038186803b15801561291657600080fd5b505afa15801561292a573d6000803e3d6000fd5b505050506040513d601f19601f8201168201806040525061294e9190810190613475565b9050919050565b60008060009054906101000a900473ffffffffffffffffffffffffffffffffffffffff1673ffffffffffffffffffffffffffffffffffffffff1663b1d5458d836040518263ffffffff1660e01b81526004016129b19190613a3a565b60206040518083038186803b1580156129c957600080fd5b505afa1580156129dd573d6000803e3d6000fd5b505050506040513d601f19601f82011682018060405250612a0191908101906137a4565b9050919050565b60008060009054906101000a900473ffffffffffffffffffffffffffffffffffffffff1673ffffffffffffffffffffffffffffffffffffffff1663b9affb93836040518263ffffffff1660e01b8152600401612a6491906139a4565b60206040518083038186803b158015612a7c57600080fd5b505afa158015612a90573d6000803e3d6000fd5b505050506040513d601f19601f82011682018060405250612ab49190810190613598565b9050919050565b60008060606000809054906101000a900473ffffffffffffffffffffffffffffffffffffffff1673ffffffffffffffffffffffffffffffffffffffff1663ba5c0335856040518263ffffffff1660e01b8152600401612b1a91906139a4565b60006040518083038186803b158015612b3257600080fd5b505afa158015612b46573d6000803e3d6000fd5b505050506040513d6000823e3d601f19601f82011682018060405250612b6f9190810190613834565b9250925092509193909250565b60008060009054906101000a900473ffffffffffffffffffffffffffffffffffffffff1673ffffffffffffffffffffffffffffffffffffffff1663c190665b6040518163ffffffff1660e01b815260040160206040518083038186803b158015612be557600080fd5b505afa158015612bf9573d6000803e3d6000fd5b505050506040513d601f19601f82011682018060405250612c1d91908101906137a4565b905090565b6000600260009054906101000a900473ffffffffffffffffffffffffffffffffffffffff1673ffffffffffffffffffffffffffffffffffffffff1663cafd1346836040518263ffffffff1660e01b8152600401612c7f9190613ac3565b602060405180830381600087803b158015612c9957600080fd5b505af1158015612cad573d6000803e3d6000fd5b505050506040513d601f19601f82011682018060405250612cd19190810190613546565b9050919050565b60008060009054906101000a900473ffffffffffffffffffffffffffffffffffffffff1673ffffffffffffffffffffffffffffffffffffffff1663cbb7e2ff836040518263ffffffff1660e01b8152600401612d349190613b00565b60206040518083038186803b158015612d4c57600080fd5b505afa158015612d60573d6000803e3d6000fd5b505050506040513d601f19601f82011682018060405250612d849190810190613598565b9050919050565b6060600260009054906101000a900473ffffffffffffffffffffffffffffffffffffffff1673ffffffffffffffffffffffffffffffffffffffff1663cc04a685836040518263ffffffff1660e01b8152600401612de89190613b00565b60006040518083038186803b158015612e0057600080fd5b505afa158015612e14573d6000803e3d6000fd5b505050506040513d6000823e3d601f19601f82011682018060405250612e3d9190810190613711565b9050919050565b60008060009054906101000a900473ffffffffffffffffffffffffffffffffffffffff1673ffffffffffffffffffffffffffffffffffffffff1663ce10cf88836040518263ffffffff1660e01b8152600401612ea09190613b00565b60206040518083038186803b158015612eb857600080fd5b505afa158015612ecc573d6000803e3d6000fd5b505050506040513d601f19601f82011682018060405250612ef09190810190613475565b9050919050565b60606000809054906101000a900473ffffffffffffffffffffffffffffffffffffffff1673ffffffffffffffffffffffffffffffffffffffff1663dfb7ab60836040518263ffffffff1660e01b8152600401612f539190613a3a565b60006040518083038186803b158015612f6b57600080fd5b505afa158015612f7f573d6000803e3d6000fd5b505050506040513d6000823e3d601f19601f82011682018060405250612fa89190810190613711565b9050919050565b6000600160009054906101000a900473ffffffffffffffffffffffffffffffffffffffff1673ffffffffffffffffffffffffffffffffffffffff1663e1153e6f84846040518363ffffffff1660e01b815260040161300e929190613a93565b602060405180830381600087803b15801561302857600080fd5b505af115801561303c573d6000803e3d6000fd5b505050506040513d601f19601f820116820180604052506130609190810190613546565b506001905092915050565b6000600160009054906101000a900473ffffffffffffffffffffffffffffffffffffffff1673ffffffffffffffffffffffffffffffffffffffff1663e85a340a836040518263ffffffff1660e01b81526004016130c89190613b00565b60206040518083038186803b1580156130e057600080fd5b505afa1580156130f4573d6000803e3d6000fd5b505050506040513d601f19601f820116820180604052506131189190810190613475565b9050919050565b6000600260009054906101000a900473ffffffffffffffffffffffffffffffffffffffff1673ffffffffffffffffffffffffffffffffffffffff1663eadeb84c6040518163ffffffff1660e01b815260040160206040518083038186803b15801561318957600080fd5b505afa15801561319d573d6000803e3d6000fd5b505050506040513d601f19601f820116820180604052506131c191908101906137a4565b905090565b60008060009054906101000a900473ffffffffffffffffffffffffffffffffffffffff1673ffffffffffffffffffffffffffffffffffffffff1663eb9fbaa9836040518263ffffffff1660e01b815260040161322291906139a4565b60206040518083038186803b15801561323a57600080fd5b505afa15801561324e573d6000803e3d6000fd5b505050506040513d601f19601f820116820180604052506132729190810190613546565b9050919050565b60008135905061328881613d48565b92915050565b60008151905061329d81613d48565b92915050565b600082601f8301126132b457600080fd5b81516132c76132c282613bc4565b613b97565b915081818352602084019350602081019050838560208402820111156132ec57600080fd5b60005b8381101561331c57816133028882613350565b8452602084019350602083019250506001810190506132ef565b5050505092915050565b60008151905061333581613d5f565b92915050565b60008135905061334a81613d76565b92915050565b60008151905061335f81613d76565b92915050565b600082601f83011261337657600080fd5b813561338961338482613bec565b613b97565b915080825260208301602083018583830111156133a557600080fd5b6133b0838284613cf5565b50505092915050565b600082601f8301126133ca57600080fd5b81516133dd6133d882613bec565b613b97565b915080825260208301602083018583830111156133f957600080fd5b613404838284613d04565b50505092915050565b60008151905061341c81613d8d565b92915050565b60008135905061343181613da4565b92915050565b60008151905061344681613da4565b92915050565b60006020828403121561345e57600080fd5b600061346c84828501613279565b91505092915050565b60006020828403121561348757600080fd5b60006134958482850161328e565b91505092915050565b6000806000606084860312156134b357600080fd5b60006134c18682870161328e565b93505060206134d286828701613350565b925050604084015167ffffffffffffffff8111156134ef57600080fd5b6134fb868287016133b9565b9150509250925092565b60006020828403121561351757600080fd5b600082015167ffffffffffffffff81111561353157600080fd5b61353d848285016132a3565b91505092915050565b60006020828403121561355857600080fd5b600061356684828501613326565b91505092915050565b60006020828403121561358157600080fd5b600061358f8482850161333b565b91505092915050565b6000602082840312156135aa57600080fd5b60006135b884828501613350565b91505092915050565b6000806000606084860312156135d657600080fd5b60006135e48682870161333b565b93505060206135f58682870161333b565b925050604084013567ffffffffffffffff81111561361257600080fd5b61361e86828701613365565b9150509250925092565b6000806040838503121561363b57600080fd5b60006136498582860161333b565b925050602083013567ffffffffffffffff81111561366657600080fd5b61367285828601613365565b9150509250929050565b6000806040838503121561368f57600080fd5b600061369d85828601613350565b925050602083015167ffffffffffffffff8111156136ba57600080fd5b6136c6858286016133b9565b9150509250929050565b6000602082840312156136e257600080fd5b600082013567ffffffffffffffff8111156136fc57600080fd5b61370884828501613365565b91505092915050565b60006020828403121561372357600080fd5b600082015167ffffffffffffffff81111561373d57600080fd5b613749848285016133b9565b91505092915050565b60006020828403121561376457600080fd5b60006137728482850161340d565b91505092915050565b60006020828403121561378d57600080fd5b600061379b84828501613422565b91505092915050565b6000602082840312156137b657600080fd5b60006137c484828501613437565b91505092915050565b6000806000606084860312156137e257600080fd5b60006137f086828701613437565b93505060206138018682870161328e565b925050604084015167ffffffffffffffff81111561381e57600080fd5b61382a868287016133b9565b9150509250925092565b60008060006060848603121561384957600080fd5b600061385786828701613437565b935050602061386886828701613350565b925050604084015167ffffffffffffffff81111561388557600080fd5b613891868287016133b9565b9150509250925092565b60006138a7838361392f565b60208301905092915050565b6138bc81613c6d565b82525050565b60006138cd82613c28565b6138d78185613c4b565b93506138e283613c18565b8060005b838110156139135781516138fa888261389b565b975061390583613c3e565b9250506001810190506138e6565b5085935050505092915050565b61392981613c7f565b82525050565b61393881613c8b565b82525050565b61394781613c8b565b82525050565b600061395882613c33565b6139628185613c5c565b9350613972818560208601613d04565b61397b81613d37565b840191505092915050565b61398f81613cd1565b82525050565b61399e81613cc7565b82525050565b60006020820190506139b960008301846138b3565b92915050565b60006060820190506139d460008301866138b3565b6139e1602083018561393e565b81810360408301526139f3818461394d565b9050949350505050565b60006020820190508181036000830152613a1781846138c2565b905092915050565b6000602082019050613a346000830184613920565b92915050565b6000602082019050613a4f600083018461393e565b92915050565b6000606082019050613a6a600083018661393e565b613a77602083018561393e565b8181036040830152613a89818461394d565b9050949350505050565b6000604082019050613aa8600083018561393e565b8181036020830152613aba818461394d565b90509392505050565b60006020820190508181036000830152613add818461394d565b905092915050565b6000602082019050613afa6000830184613986565b92915050565b6000602082019050613b156000830184613995565b92915050565b6000606082019050613b306000830186613995565b613b3d60208301856138b3565b8181036040830152613b4f818461394d565b9050949350505050565b6000606082019050613b6e6000830186613995565b613b7b602083018561393e565b8181036040830152613b8d818461394d565b9050949350505050565b6000604051905081810181811067ffffffffffffffff82111715613bba57600080fd5b8060405250919050565b600067ffffffffffffffff821115613bdb57600080fd5b602082029050602081019050919050565b600067ffffffffffffffff821115613c0357600080fd5b601f19601f8301169050602081019050919050565b6000819050602082019050919050565b600081519050919050565b600081519050919050565b6000602082019050919050565b600082825260208201905092915050565b600082825260208201905092915050565b6000613c7882613ca7565b9050919050565b60008115159050919050565b6000819050919050565b6000613ca082613c6d565b9050919050565b600073ffffffffffffffffffffffffffffffffffffffff82169050919050565b6000819050919050565b6000613cdc82613ce3565b9050919050565b6000613cee82613ca7565b9050919050565b82818337600083830152505050565b60005b83811015613d22578082015181840152602081019050613d07565b83811115613d31576000848401525b50505050565b6000601f19601f8301169050919050565b613d5181613c6d565b8114613d5c57600080fd5b50565b613d6881613c7f565b8114613d7357600080fd5b50565b613d7f81613c8b565b8114613d8a57600080fd5b50565b613d9681613c95565b8114613da157600080fd5b50565b613dad81613cc7565b8114613db857600080fd5b5056fea365627a7a72315820d28ee417462f0b1a52d89b6a3883ec8073f1978a6134eafa5500826900868c106c6578706572696d656e74616cf564736f6c63430005100040",
  "source": "pragma solidity >=0.5.16;\npragma experimental ABIEncoderV2;\nimport \"./PatientStorage.sol\";\nimport \"./DoctorStorage.sol\";\nimport \"./MedicineStorage.sol\";\n\ncontract Client {\n\nPatientStorage datastore;\nDoctorStorage doctorstore;\nMedicineStorage medicinestore;\n\nconstructor(address storageAddress) public {\n    datastore = PatientStorage(storageAddress);\n    doctorstore = DoctorStorage(storageAddress);\n    medicinestore = MedicineStorage(storageAddress);\n }\nfunction registerPatient(bytes32 patientName, bytes memory ipfsHash) public returns(bool) {\n    return datastore.registerPatient(patientName,ipfsHash);\n }\n\nfunction hasPatient(address _patientAdresses) public view returns(bool) {\n    return datastore.hasPatient(_patientAdresses);\n }\nfunction patientNameTaken(bytes32 pname) public view returns(bool takenIndeed) {\n    return datastore.patientNameTaken(pname);\n }\n\nfunction updatePatient(bytes memory ipfsHash) public returns(bool){\n   return datastore.updatePatient(ipfsHash);\n }\n\nfunction getPatientCount() public view returns(uint){\n   return datastore.getPatientCount();\n }\n\nfunction getPatientByIndex(uint index) public view returns(address,bytes32,bytes memory){\n   return datastore.getPatientByIndex(index);\n }\n\nfunction getAddressByIndex(uint index) public view returns(address){\n   return datastore.getAddressByIndex(index);\n }\n\nfunction getPatientNameByIndex(uint index) public view returns(bytes32){\n   return datastore.getPatientNameByIndex(index);\n }\n\nfunction getIpfsHashByIndex(uint index) public view returns(bytes memory){\n   return datastore.getIpfsHashByIndex(index);\n }\n\nfunction getPatientByAddress(address patientAddress) public view returns(uint, bytes32, bytes memory){\n   return datastore.getPatientByAddress(patientAddress);\n }\n\nfunction getIndexByAddress(address patientAddress) public view returns(uint){\n   return datastore.getIndexByAddress(patientAddress);\n }\n\nfunction getPatientNameByAddress(address patientAddress) public view returns(bytes32){\n   return datastore.getPatientNameByAddress(patientAddress);\n }\n\nfunction getIpfsHashByAddress(address patientAddress) public view returns(bytes memory){\n   return datastore.getIpfsHashByAddress(patientAddress);\n }\n\nfunction getPatientByPatientName(bytes32 patientname) public view returns(uint,address,bytes memory){\n   return datastore.getPatientByPatientName(patientname);\n }\n\nfunction getIndexByPatientName(bytes32 patientname) public view returns(uint){\n   return datastore.getIndexByPatientName(patientname);\n }\n\nfunction getAddressByPatientName(bytes32 patientname) public view returns(address){\n   return datastore.getAddressByPatientName(patientname);\n }\nfunction getIpfsHashByPatientName(bytes32 patientname) public view returns(bytes memory){\n   return datastore.getIpfsHashByPatientName(patientname);\n }\nfunction consultationCreate(bytes32 _pname, bytes32 _consulDateID, bytes memory newPatientIpfs)public returns(bool){\n   return datastore.consultationCreate(_pname, _consulDateID, newPatientIpfs);\n }\n\nfunction getConsultationByConsultationIndex(uint _index) public view returns(bytes32 consulID){\n   return datastore.getConsultationByConsultationIndex(_index);\n }\nfunction getConsultationIndexByConsultationID(bytes32 _consulDateID) public view returns(uint){\n   return datastore.getConsultationIndexByConsultationID(_consulDateID);\n }\n\nfunction getConsultationsByPatientName(bytes32 _pname) public view returns(bytes32[] memory){\n   return datastore.getConsultationsByPatientName(_pname);\n }\n\nfunction getConsultationsByPatientAddress(address patientAddress) public view returns(bytes32[] memory){\n   return datastore.getConsultationsByPatientAddress(patientAddress);\n }\nfunction testCreate(bytes32 _pname, bytes32 _testDateID, bytes memory newPatientIpfs)public returns(bool){\n   return datastore.testCreate(_pname,_testDateID, newPatientIpfs);\n }\n\nfunction getTestByTestIndex(uint _index) public view returns(bytes32 testID){\n   return datastore.getTestByTestIndex(_index);\n }\n\nfunction getTestIndexByTestID(bytes32 _testDateID) public view returns(uint){\n   return datastore.getTestIndexByTestID(_testDateID);\n }\n\nfunction getTestsByPatientName(bytes32 _pname) public view returns(bytes32[] memory) {\n   return datastore.getTestsByPatientName(_pname);\n }\n\nfunction getTestsByPatientAddress(address patientAddress) public view returns(bytes32[] memory){\n   return datastore.getTestsByPatientAddress(patientAddress);\n }\nfunction getTestsCount() public view returns (uint){\n   return datastore.getTestsCount();\n }\nfunction saveMedicineForPatientUse(bytes32 mname) public returns(bool){\n   return datastore.saveMedicineForPatientUse(mname);\n }\nfunction getMedicinesFromConsultation() public view returns(bytes32[] memory){\n   return datastore.getMedicinesFromConsultation();\n }\n // Doctor store functions:\nfunction registerDoctor(bytes32 DoctorName, bytes memory ipfsHash) public returns(bool) {\n   doctorstore.registerDoctor(DoctorName, ipfsHash);\n   return true;\n }\nfunction updateDoctor(bytes memory ipfsHash) public returns(bool){\n   doctorstore.updateDoctor(ipfsHash);\n }\n\nfunction getDoctorCount() public view returns(uint){\n      return doctorstore.getDoctorCount();\n }\n\nfunction getDoctorByIndex(uint index) public view returns(address,bytes32,bytes memory){\n   return doctorstore.getDoctorByIndex(index);\n }\n\nfunction getDoctorAddressByIndex(uint index) public view returns(address){\n   return doctorstore.getDoctorAddressByIndex(index);\n }\n\nfunction getDoctorNameByIndex(uint index) public view returns(bytes32){\n   return doctorstore.getDoctorNameByIndex(index);\n }\n\nfunction getDoctorIpfsHashByIndex(uint index) public view returns(bytes memory){\n   return doctorstore.getDoctorIpfsHashByIndex(index);\n }\n\nfunction getDoctorByAddress(address DoctorAddress) public view returns(uint, bytes32, bytes memory){\n   return doctorstore.getDoctorByAddress(DoctorAddress);\n }\n\nfunction getDoctorIndexByAddress(address DoctorAddress) public view returns(uint){\n   return doctorstore.getDoctorIndexByAddress(DoctorAddress);\n }\n\nfunction getDoctorNameByAddress(address DoctorAddress) public view returns(bytes32){\n   return doctorstore.getDoctorNameByAddress(DoctorAddress);\n }\n\nfunction getDoctorIpfsHashByAddress(address DoctorAddress) public view returns(bytes memory){\n   return doctorstore.getDoctorIpfsHashByAddress(DoctorAddress);\n }\n\nfunction getDoctorByDoctorName(bytes32 Doctorname) public view returns(uint,address,bytes memory){\n   return doctorstore.getDoctorByDoctorName(Doctorname);\n }\n\nfunction getDoctorIndexByDoctorName(bytes32 Doctorname) public view returns(uint){\n   return doctorstore.getDoctorIndexByDoctorName(Doctorname);\n }\n\nfunction getDoctorAddressByDoctorName(bytes32 Doctorname) public view returns(address){\n   return doctorstore.getDoctorAddressByDoctorName(Doctorname);\n }\n\nfunction getDoctorIpfsHashByDoctorName(bytes32 Doctorname) public view returns(bytes memory){\n   return doctorstore.getDoctorIpfsHashByDoctorName(Doctorname);\n }\nfunction saveMedicine(bytes32 mname, bytes memory ipfsHash) public returns(bool) {\n   return medicinestore.saveMedicine(mname, ipfsHash);\n }\n\nfunction updateMedicine(bytes memory ipfsHash) public returns(bool){\n   return medicinestore.updateMedicine(ipfsHash);\n }\n\nfunction getMedicineCount() public view returns(uint){\n   return medicinestore.getMedicineCount();\n }\nfunction getMedicineByMedicinename(bytes32 mname) public view returns(Medicine){\n   return medicinestore.getMedicineByMedicinename(mname);\n }\n\nfunction getMedicineByIndex(uint index) public view returns(bytes32,bytes memory){\n   return medicinestore.getMedicineByIndex(index);\n }\n\nfunction getMedicineNameByIndex(uint index) public view returns(bytes32){\n   medicinestore.getMedicineNameByIndex(index);\n }\n\nfunction getMedIpfsHashByIndex(uint index) public view returns(bytes memory){\n   return medicinestore.getMedIpfsHashByIndex(index);\n }\n\nfunction getIpfsHashByMedicineName(bytes32 mname) public view returns(bytes memory){\n   medicinestore.getIpfsHashByMedicineName(mname);\n }\n\n}",
  "sourcePath": "/home/eke/patient-eth-ipfs/contracts/Client.sol",
  "compiler": {
    "name": "solc",
    "version": "0.5.16+commit.9c3226ce.Emscripten.clang"
  },
  "schemaVersion": "3.0.23",
  "updatedAt": "2020-04-12T12:22:00.615Z",
  "devdoc": {
    "methods": {}
  },
  "userdoc": {
    "methods": {}
  }
}