{
  "contractName": "Consultation",
  "abi": [
    {
      "inputs": [
        {
          "internalType": "address",
          "name": "_addr",
          "type": "address"
        },
        {
          "internalType": "bytes32",
          "name": "_patientuname",
          "type": "bytes32"
        },
        {
          "internalType": "bytes32",
          "name": "_consulDateID",
          "type": "bytes32"
        }
      ],
      "payable": false,
      "stateMutability": "nonpayable",
      "type": "constructor"
    },
    {
      "constant": false,
      "inputs": [
        {
          "internalType": "bytes32",
          "name": "mname",
          "type": "bytes32"
        }
      ],
      "name": "saveMedicineForPatientUse",
      "outputs": [
        {
          "internalType": "bool",
          "name": "",
          "type": "bool"
        }
      ],
      "payable": false,
      "stateMutability": "nonpayable",
      "type": "function"
    },
    {
      "constant": true,
      "inputs": [],
      "name": "getMedicinesFromConsultation",
      "outputs": [
        {
          "internalType": "bytes32[]",
          "name": "",
          "type": "bytes32[]"
        }
      ],
      "payable": false,
      "stateMutability": "view",
      "type": "function"
    },
    {
      "constant": true,
      "inputs": [
        {
          "internalType": "uint256",
          "name": "index",
          "type": "uint256"
        }
      ],
      "name": "getMedicineByIndex",
      "outputs": [
        {
          "internalType": "bytes32",
          "name": "",
          "type": "bytes32"
        }
      ],
      "payable": false,
      "stateMutability": "view",
      "type": "function"
    },
    {
      "constant": true,
      "inputs": [
        {
          "internalType": "bytes32",
          "name": "medname",
          "type": "bytes32"
        }
      ],
      "name": "getMedicineByMedicineName",
      "outputs": [
        {
          "internalType": "bytes32",
          "name": "",
          "type": "bytes32"
        }
      ],
      "payable": false,
      "stateMutability": "view",
      "type": "function"
    },
    {
      "constant": true,
      "inputs": [],
      "name": "getMedicinesCountFromConsultation",
      "outputs": [
        {
          "internalType": "uint256",
          "name": "",
          "type": "uint256"
        }
      ],
      "payable": false,
      "stateMutability": "view",
      "type": "function"
    }
  ],
  "bytecode": "0x608060405234801561001057600080fd5b506040516103a13803806103a18339818101604052606081101561003357600080fd5b81019080805190602001909291908051906020019092919080519060200190929190505050826000806101000a81548173ffffffffffffffffffffffffffffffffffffffff021916908373ffffffffffffffffffffffffffffffffffffffff16021790555081600181905550806002819055505050506102e9806100b86000396000f3fe608060405234801561001057600080fd5b50600436106100575760003560e01c80631e50b1821461005c5780631f97c4c31461009e57806377e4afe4146100e4578063c294ab1e14610143578063cd24834114610185575b600080fd5b6100886004803603602081101561007257600080fd5b81019080803590602001909291905050506101a3565b6040518082815260200191505060405180910390f35b6100ca600480360360208110156100b457600080fd5b81019080803590602001909291905050506101c4565b604051808215151515815260200191505060405180910390f35b6100ec61021b565b6040518080602001828103825283818151815260200191508051906020019060200280838360005b8381101561012f578082015181840152602081019050610114565b505050509050019250505060405180910390f35b61016f6004803603602081101561015957600080fd5b8101908080359060200190929190505050610273565b6040518082815260200191505060405180910390f35b61018d6102a7565b6040518082815260200191505060405180910390f35b6000600382815481106101b257fe5b90600052602060002001549050919050565b60006003829080600181540180825580915050906001820390600052602060002001600090919290919091505550600160038054905003600460008481526020019081526020016000208190555060019050919050565b6060600380548060200260200160405190810160405280929190818152602001828054801561026957602002820191906000526020600020905b815481526020019060010190808311610255575b5050505050905090565b6000600360046000848152602001908152602001600020548154811061029557fe5b90600052602060002001549050919050565b600060038054905090509056fea265627a7a72315820fc0228fae71216a509e244ec8f9fdc7def038ca0f48e9842c08d8ab4275c99f164736f6c63430005100032",
  "source": "pragma solidity >=0.5.16;\n\ncontract Consultation {\n  address private addr;\n  bytes32 private patientuname;\n  bytes32 private consulDateID;\n  bytes32[] private medicines;\n  mapping(bytes32 => uint) private medicinenameToIndex;\n\n\n  constructor(address _addr, bytes32 _patientuname, bytes32 _consulDateID) public{\n    addr = _addr;\n    patientuname = _patientuname;\n    consulDateID = _consulDateID;\n   }\n\n  function saveMedicineForPatientUse(bytes32 mname) public returns(bool){\n    medicines.push(mname);\n    medicinenameToIndex[mname] = medicines.length - 1;\n    return true;\n  }\n  \n  function getMedicinesFromConsultation() public view returns(bytes32[] memory){\n    return medicines;\n  }\n  function getMedicineByIndex(uint index) public view returns(bytes32){\n    return medicines[index];\n  }\n  function getMedicineByMedicineName(bytes32 medname)public view returns(bytes32){\n    return medicines[medicinenameToIndex[medname]];\n  }\n  function getMedicinesCountFromConsultation() public view returns(uint){\n    return medicines.length;\n  }\n}",
  "sourcePath": "/home/eke/patient-eth-ipfs/contracts/Consultation.sol",
  "compiler": {
    "name": "solc",
    "version": "0.5.16+commit.9c3226ce.Emscripten.clang"
  },
  "schemaVersion": "3.1.0",
  "updatedAt": "2020-04-13T16:34:15.527Z",
  "devdoc": {
    "methods": {}
  },
  "userdoc": {
    "methods": {}
  }
}