{
  "contractName": "Consultation",
  "abi": [
    {
      "inputs": [
        {
          "internalType": "address",
          "name": "_addr",
          "type": "address"
        },
        {
          "internalType": "bytes32",
          "name": "_patientuname",
          "type": "bytes32"
        },
        {
          "internalType": "bytes32",
          "name": "_consulDateID",
          "type": "bytes32"
        }
      ],
      "payable": false,
      "stateMutability": "nonpayable",
      "type": "constructor"
    },
    {
      "constant": false,
      "inputs": [
        {
          "internalType": "bytes32",
          "name": "mname",
          "type": "bytes32"
        }
      ],
      "name": "saveMedicineForPatientUse",
      "outputs": [
        {
          "internalType": "bool",
          "name": "",
          "type": "bool"
        }
      ],
      "payable": false,
      "stateMutability": "nonpayable",
      "type": "function"
    },
    {
      "constant": true,
      "inputs": [],
      "name": "getMedicinesFromConsultation",
      "outputs": [
        {
          "internalType": "bytes32[]",
          "name": "",
          "type": "bytes32[]"
        }
      ],
      "payable": false,
      "stateMutability": "view",
      "type": "function"
    }
  ],
  "bytecode": "0x608060405234801561001057600080fd5b5060405161027c38038061027c8339818101604052606081101561003357600080fd5b81019080805190602001909291908051906020019092919080519060200190929190505050826000806101000a81548173ffffffffffffffffffffffffffffffffffffffff021916908373ffffffffffffffffffffffffffffffffffffffff16021790555081600181905550806002819055505050506101c4806100b86000396000f3fe608060405234801561001057600080fd5b50600436106100365760003560e01c80631f97c4c31461003b57806377e4afe414610081575b600080fd5b6100676004803603602081101561005157600080fd5b81019080803590602001909291905050506100e0565b604051808215151515815260200191505060405180910390f35b610089610137565b6040518080602001828103825283818151815260200191508051906020019060200280838360005b838110156100cc5780820151818401526020810190506100b1565b505050509050019250505060405180910390f35b60006003829080600181540180825580915050906001820390600052602060002001600090919290919091505550600160038054905003600460008481526020019081526020016000208190555060019050919050565b6060600380548060200260200160405190810160405280929190818152602001828054801561018557602002820191906000526020600020905b815481526020019060010190808311610171575b505050505090509056fea265627a7a72315820a28acc80c16d4ce281046eedcc0203dc0edc02632ded63becab36794e973bd4964736f6c63430005100032",
  "source": "pragma solidity >=0.5.16;\n\ncontract Consultation {\n  address private addr;\n  bytes32 private patientuname;\n  bytes32 private consulDateID;\n  bytes32[] private medicines;\n  mapping(bytes32 => uint) private medicinenameToIndex;\n\n  constructor(address _addr, bytes32 _patientuname, bytes32 _consulDateID) public{\n    addr = _addr;\n    patientuname = _patientuname;\n    consulDateID = _consulDateID;\n   }\n\n  function saveMedicineForPatientUse(bytes32 mname) public returns(bool){\n    medicines.push(mname);\n    medicinenameToIndex[mname] = medicines.length - 1;\n    return true;\n  }\n  function getMedicinesFromConsultation() public view returns(bytes32[] memory){\n    return medicines;\n  }\n}",
  "sourcePath": "/home/eke/patient-eth-ipfs/contracts/Consultation.sol",
  "compiler": {
    "name": "solc",
    "version": "0.5.16+commit.9c3226ce.Emscripten.clang"
  },
  "schemaVersion": "3.0.23",
  "updatedAt": "2020-04-12T12:22:00.632Z",
  "devdoc": {
    "methods": {}
  },
  "userdoc": {
    "methods": {}
  }
}