{
  "contractName": "DoctorStorage",
  "abi": [
    {
      "constant": false,
      "inputs": [
        {
          "internalType": "bytes32",
          "name": "DoctorName",
          "type": "bytes32"
        },
        {
          "internalType": "bytes",
          "name": "ipfsHash",
          "type": "bytes"
        }
      ],
      "name": "registerDoctor",
      "outputs": [
        {
          "internalType": "bool",
          "name": "",
          "type": "bool"
        }
      ],
      "payable": false,
      "stateMutability": "nonpayable",
      "type": "function"
    },
    {
      "constant": true,
      "inputs": [
        {
          "internalType": "address",
          "name": "_DoctorAdresses",
          "type": "address"
        }
      ],
      "name": "hasDoctor",
      "outputs": [
        {
          "internalType": "bool",
          "name": "",
          "type": "bool"
        }
      ],
      "payable": false,
      "stateMutability": "view",
      "type": "function"
    },
    {
      "constant": true,
      "inputs": [
        {
          "internalType": "bytes32",
          "name": "pname",
          "type": "bytes32"
        }
      ],
      "name": "DoctorNameTaken",
      "outputs": [
        {
          "internalType": "bool",
          "name": "takenIndeed",
          "type": "bool"
        }
      ],
      "payable": false,
      "stateMutability": "view",
      "type": "function"
    },
    {
      "constant": false,
      "inputs": [
        {
          "internalType": "bytes",
          "name": "ipfsHash",
          "type": "bytes"
        }
      ],
      "name": "updateDoctor",
      "outputs": [
        {
          "internalType": "bool",
          "name": "",
          "type": "bool"
        }
      ],
      "payable": false,
      "stateMutability": "nonpayable",
      "type": "function"
    },
    {
      "constant": true,
      "inputs": [],
      "name": "getDoctorCount",
      "outputs": [
        {
          "internalType": "uint256",
          "name": "",
          "type": "uint256"
        }
      ],
      "payable": false,
      "stateMutability": "view",
      "type": "function"
    },
    {
      "constant": true,
      "inputs": [
        {
          "internalType": "uint256",
          "name": "index",
          "type": "uint256"
        }
      ],
      "name": "getDoctorByIndex",
      "outputs": [
        {
          "internalType": "address",
          "name": "",
          "type": "address"
        },
        {
          "internalType": "bytes32",
          "name": "",
          "type": "bytes32"
        },
        {
          "internalType": "bytes",
          "name": "",
          "type": "bytes"
        }
      ],
      "payable": false,
      "stateMutability": "view",
      "type": "function"
    },
    {
      "constant": true,
      "inputs": [
        {
          "internalType": "uint256",
          "name": "index",
          "type": "uint256"
        }
      ],
      "name": "getAddressByIndex",
      "outputs": [
        {
          "internalType": "address",
          "name": "",
          "type": "address"
        }
      ],
      "payable": false,
      "stateMutability": "view",
      "type": "function"
    },
    {
      "constant": true,
      "inputs": [
        {
          "internalType": "uint256",
          "name": "index",
          "type": "uint256"
        }
      ],
      "name": "getDoctorNameByIndex",
      "outputs": [
        {
          "internalType": "bytes32",
          "name": "",
          "type": "bytes32"
        }
      ],
      "payable": false,
      "stateMutability": "view",
      "type": "function"
    },
    {
      "constant": true,
      "inputs": [
        {
          "internalType": "uint256",
          "name": "index",
          "type": "uint256"
        }
      ],
      "name": "getIpfsHashByIndex",
      "outputs": [
        {
          "internalType": "bytes",
          "name": "",
          "type": "bytes"
        }
      ],
      "payable": false,
      "stateMutability": "view",
      "type": "function"
    },
    {
      "constant": true,
      "inputs": [
        {
          "internalType": "address",
          "name": "DoctorAddress",
          "type": "address"
        }
      ],
      "name": "getDoctorByAddress",
      "outputs": [
        {
          "internalType": "uint256",
          "name": "",
          "type": "uint256"
        },
        {
          "internalType": "bytes32",
          "name": "",
          "type": "bytes32"
        },
        {
          "internalType": "bytes",
          "name": "",
          "type": "bytes"
        }
      ],
      "payable": false,
      "stateMutability": "view",
      "type": "function"
    },
    {
      "constant": true,
      "inputs": [
        {
          "internalType": "address",
          "name": "DoctorAddress",
          "type": "address"
        }
      ],
      "name": "getIndexByAddress",
      "outputs": [
        {
          "internalType": "uint256",
          "name": "",
          "type": "uint256"
        }
      ],
      "payable": false,
      "stateMutability": "view",
      "type": "function"
    },
    {
      "constant": true,
      "inputs": [
        {
          "internalType": "address",
          "name": "DoctorAddress",
          "type": "address"
        }
      ],
      "name": "getDoctorNameByAddress",
      "outputs": [
        {
          "internalType": "bytes32",
          "name": "",
          "type": "bytes32"
        }
      ],
      "payable": false,
      "stateMutability": "view",
      "type": "function"
    },
    {
      "constant": true,
      "inputs": [
        {
          "internalType": "address",
          "name": "DoctorAddress",
          "type": "address"
        }
      ],
      "name": "getIpfsHashByAddress",
      "outputs": [
        {
          "internalType": "bytes",
          "name": "",
          "type": "bytes"
        }
      ],
      "payable": false,
      "stateMutability": "view",
      "type": "function"
    },
    {
      "constant": true,
      "inputs": [
        {
          "internalType": "bytes32",
          "name": "Doctorname",
          "type": "bytes32"
        }
      ],
      "name": "getDoctorByDoctorName",
      "outputs": [
        {
          "internalType": "uint256",
          "name": "",
          "type": "uint256"
        },
        {
          "internalType": "address",
          "name": "",
          "type": "address"
        },
        {
          "internalType": "bytes",
          "name": "",
          "type": "bytes"
        }
      ],
      "payable": false,
      "stateMutability": "view",
      "type": "function"
    },
    {
      "constant": true,
      "inputs": [
        {
          "internalType": "bytes32",
          "name": "Doctorname",
          "type": "bytes32"
        }
      ],
      "name": "getIndexByDoctorName",
      "outputs": [
        {
          "internalType": "uint256",
          "name": "",
          "type": "uint256"
        }
      ],
      "payable": false,
      "stateMutability": "view",
      "type": "function"
    },
    {
      "constant": true,
      "inputs": [
        {
          "internalType": "bytes32",
          "name": "Doctorname",
          "type": "bytes32"
        }
      ],
      "name": "getAddressByDoctorName",
      "outputs": [
        {
          "internalType": "address",
          "name": "",
          "type": "address"
        }
      ],
      "payable": false,
      "stateMutability": "view",
      "type": "function"
    },
    {
      "constant": true,
      "inputs": [
        {
          "internalType": "bytes32",
          "name": "Doctorname",
          "type": "bytes32"
        }
      ],
      "name": "getIpfsHashByDoctorName",
      "outputs": [
        {
          "internalType": "bytes",
          "name": "",
          "type": "bytes"
        }
      ],
      "payable": false,
      "stateMutability": "view",
      "type": "function"
    }
  ],
  "bytecode": "0x608060405234801561001057600080fd5b506122f9806100206000396000f3fe60806040523480156200001157600080fd5b5060043610620001245760003560e01c806386c5efe911620000b1578063a74380a6116200007b578063a74380a614620003a3578063ce10cf8814620003d9578063d6a0fb42146200040f578063e1153e6f1462000445578063fca200df146200047b5762000124565b806386c5efe914620002cb5780638a87641f14620003015780638f1787c214620003375780639a56a2df146200036d5762000124565b806358c5d4bf11620000f357806358c5d4bf14620002015780635a357c191462000239578063715b5f6d146200027157806379111c1c14620002a95762000124565b806314f5193014620001295780631973ef91146200015f5780631d37878f146200019557806329f78d8814620001cb575b600080fd5b620001476004803603620001419190810190620016e4565b620004b1565b604051620001569190620019c7565b60405180910390f35b6200017d600480360362000177919081019062001606565b620005be565b6040516200018c919062001b25565b60405180910390f35b620001b36004803603620001ad919081019062001729565b62000653565b604051620001c29190620019e4565b60405180910390f35b620001e96004803603620001e3919081019062001729565b620006bf565b604051620001f8919062001a35565b60405180910390f35b6200021f600480360362000219919081019062001606565b620007c7565b604051620002309392919062001b86565b60405180910390f35b62000257600480360362000251919081019062001729565b620009b2565b604051620002689392919062001983565b60405180910390f35b6200028f60048036036200028991908101906200165e565b62000b18565b604051620002a09392919062001b42565b60405180910390f35b620002b362000cb2565b604051620002c2919062001b25565b60405180910390f35b620002e96004803603620002e3919081019062001606565b62000cbf565b604051620002f89190620019c7565b60405180910390f35b6200031f60048036036200031991908101906200165e565b62000d79565b6040516200032e919062001966565b60405180910390f35b6200035560048036036200034f919081019062001606565b62000e1b565b604051620003649190620019e4565b60405180910390f35b6200038b60048036036200038591908101906200165e565b62000ec8565b6040516200039a919062001a35565b60405180910390f35b620003c16004803603620003bb919081019062001606565b62000fe6565b604051620003d0919062001a35565b60405180910390f35b620003f76004803603620003f1919081019062001729565b6200112f565b60405162000406919062001966565b60405180910390f35b6200042d60048036036200042791908101906200165e565b620011bb565b6040516200043c919062001b25565b60405180910390f35b6200046360048036036200045d91908101906200168a565b62001225565b604051620004729190620019c7565b60405180910390f35b6200049960048036036200049391908101906200165e565b62001447565b604051620004a89190620019c7565b60405180910390f35b6000620004be3362000cbf565b1562000501576040517f08c379a0000000000000000000000000000000000000000000000000000000008152600401620004f89062001b03565b60405180910390fd5b600560009054906101000a900473ffffffffffffffffffffffffffffffffffffffff1673ffffffffffffffffffffffffffffffffffffffff166314f51930836040518263ffffffff1660e01b81526004016200055e919062001a35565b602060405180830381600087803b1580156200057957600080fd5b505af11580156200058e573d6000803e3d6000fd5b505050506040513d601f19601f82011682018060405250620005b4919081019062001632565b5060019050919050565b6000620005cb8262000cbf565b6200060d576040517f08c379a0000000000000000000000000000000000000000000000000000000008152600401620006049062001a9d565b60405180910390fd5b6000808373ffffffffffffffffffffffffffffffffffffffff1673ffffffffffffffffffffffffffffffffffffffff168152602001908152602001600020549050919050565b600060028054905082106200069f576040517f08c379a0000000000000000000000000000000000000000000000000000000008152600401620006969062001ae1565b60405180910390fd5b60038281548110620006ad57fe5b90600052602060002001549050919050565b606060028054905082106200070b576040517f08c379a0000000000000000000000000000000000000000000000000000000008152600401620007029062001ae1565b60405180910390fd5b600482815481106200071957fe5b906000526020600020018054600181600116156101000203166002900480601f016020809104026020016040519081016040528092919081815260200182805460018160011615610100020316600290048015620007bb5780601f106200078f57610100808354040283529160200191620007bb565b820191906000526020600020905b8154815290600101906020018083116200079d57829003601f168201915b50505050509050919050565b6000806060620007d78462000cbf565b62000819576040517f08c379a0000000000000000000000000000000000000000000000000000000008152600401620008109062001a9d565b60405180910390fd5b6000808573ffffffffffffffffffffffffffffffffffffffff1673ffffffffffffffffffffffffffffffffffffffff1681526020019081526020016000205460036000808773ffffffffffffffffffffffffffffffffffffffff1673ffffffffffffffffffffffffffffffffffffffff1681526020019081526020016000205481548110620008a457fe5b906000526020600020015460046000808873ffffffffffffffffffffffffffffffffffffffff1673ffffffffffffffffffffffffffffffffffffffff1681526020019081526020016000205481548110620008fb57fe5b90600052602060002001808054600181600116156101000203166002900480601f0160208091040260200160405190810160405280929190818152602001828054600181600116156101000203166002900480156200099e5780601f1062000972576101008083540402835291602001916200099e565b820191906000526020600020905b8154815290600101906020018083116200098057829003601f168201915b505050505090509250925092509193909250565b6000806060600280549050841062000a01576040517f08c379a0000000000000000000000000000000000000000000000000000000008152600401620009f89062001ae1565b60405180910390fd5b6002848154811062000a0f57fe5b9060005260206000200160009054906101000a900473ffffffffffffffffffffffffffffffffffffffff166003858154811062000a4857fe5b90600052602060002001546004868154811062000a6157fe5b90600052602060002001808054600181600116156101000203166002900480601f01602080910402602001604051908101604052809291908181526020018280546001816001161561010002031660029004801562000b045780601f1062000ad85761010080835404028352916020019162000b04565b820191906000526020600020905b81548152906001019060200180831162000ae657829003601f168201915b505050505090509250925092509193909250565b600080606060028054905060016000868152602001908152602001600020541062000b7a576040517f08c379a000000000000000000000000000000000000000000000000000000000815260040162000b719062001a59565b60405180910390fd5b6001600085815260200190815260200160002054600260016000878152602001908152602001600020548154811062000baf57fe5b9060005260206000200160009054906101000a900473ffffffffffffffffffffffffffffffffffffffff16600460016000888152602001908152602001600020548154811062000bfb57fe5b90600052602060002001808054600181600116156101000203166002900480601f01602080910402602001604051908101604052809291908181526020018280546001816001161561010002031660029004801562000c9e5780601f1062000c725761010080835404028352916020019162000c9e565b820191906000526020600020905b81548152906001019060200180831162000c8057829003601f168201915b505050505090509250925092509193909250565b6000600280549050905090565b6000806000808473ffffffffffffffffffffffffffffffffffffffff1673ffffffffffffffffffffffffffffffffffffffff16815260200190815260200160002054118062000d725750600260008154811062000d1857fe5b9060005260206000200160009054906101000a900473ffffffffffffffffffffffffffffffffffffffff1673ffffffffffffffffffffffffffffffffffffffff168273ffffffffffffffffffffffffffffffffffffffff16145b9050919050565b600062000d868262001447565b62000dc8576040517f08c379a000000000000000000000000000000000000000000000000000000000815260040162000dbf9062001abf565b60405180910390fd5b600260016000848152602001908152602001600020548154811062000de957fe5b9060005260206000200160009054906101000a900473ffffffffffffffffffffffffffffffffffffffff169050919050565b600062000e288262000cbf565b62000e6a576040517f08c379a000000000000000000000000000000000000000000000000000000000815260040162000e619062001a9d565b60405180910390fd5b60036000808473ffffffffffffffffffffffffffffffffffffffff1673ffffffffffffffffffffffffffffffffffffffff168152602001908152602001600020548154811062000eb657fe5b90600052602060002001549050919050565b606062000ed58262001447565b62000f17576040517f08c379a000000000000000000000000000000000000000000000000000000000815260040162000f0e9062001abf565b60405180910390fd5b600460016000848152602001908152602001600020548154811062000f3857fe5b906000526020600020018054600181600116156101000203166002900480601f01602080910402602001604051908101604052809291908181526020018280546001816001161561010002031660029004801562000fda5780601f1062000fae5761010080835404028352916020019162000fda565b820191906000526020600020905b81548152906001019060200180831162000fbc57829003601f168201915b50505050509050919050565b606062000ff38262000cbf565b62001035576040517f08c379a00000000000000000000000000000000000000000000000000000000081526004016200102c9062001a9d565b60405180910390fd5b60046000808473ffffffffffffffffffffffffffffffffffffffff1673ffffffffffffffffffffffffffffffffffffffff16815260200190815260200160002054815481106200108157fe5b906000526020600020018054600181600116156101000203166002900480601f016020809104026020016040519081016040528092919081815260200182805460018160011615610100020316600290048015620011235780601f10620010f75761010080835404028352916020019162001123565b820191906000526020600020905b8154815290600101906020018083116200110557829003601f168201915b50505050509050919050565b600060028054905082106200117b576040517f08c379a0000000000000000000000000000000000000000000000000000000008152600401620011729062001ae1565b60405180910390fd5b600282815481106200118957fe5b9060005260206000200160009054906101000a900473ffffffffffffffffffffffffffffffffffffffff169050919050565b6000620011c88262001447565b6200120a576040517f08c379a0000000000000000000000000000000000000000000000000000000008152600401620012019062001abf565b60405180910390fd5b60016000838152602001908152602001600020549050919050565b6000620012323362000cbf565b1562001275576040517f08c379a00000000000000000000000000000000000000000000000000000000081526004016200126c9062001b03565b60405180910390fd5b620012808362001447565b15620012c3576040517f08c379a0000000000000000000000000000000000000000000000000000000008152600401620012ba9062001a7b565b60405180910390fd5b8282604051620012d39062001491565b620012e092919062001a01565b604051809103906000f080158015620012fd573d6000803e3d6000fd5b505060023390806001815401808255809150509060018203906000526020600020016000909192909190916101000a81548173ffffffffffffffffffffffffffffffffffffffff021916908373ffffffffffffffffffffffffffffffffffffffff1602179055505060038390806001815401808255809150509060018203906000526020600020016000909192909190915055506004829080600181540180825580915050906001820390600052602060002001600090919290919091509080519060200190620013d09291906200149f565b50506001600280549050036000803373ffffffffffffffffffffffffffffffffffffffff1673ffffffffffffffffffffffffffffffffffffffff1681526020019081526020016000208190555060016002805490500360016000858152602001908152602001600020819055506001905092915050565b600080600160008481526020019081526020016000205411806200148a57507f73656c660000000000000000000000000000000000000000000000000000000082145b9050919050565b6105528062001d6583390190565b828054600181600116156101000203166002900490600052602060002090601f016020900481019282601f10620014e257805160ff191683800117855562001513565b8280016001018555821562001513579182015b8281111562001512578251825591602001919060010190620014f5565b5b50905062001522919062001526565b5090565b6200154b91905b80821115620015475760008160009055506001016200152d565b5090565b90565b6000813590506200155f8162001cfc565b92915050565b600081519050620015768162001d16565b92915050565b6000813590506200158d8162001d30565b92915050565b600082601f830112620015a557600080fd5b8135620015bc620015b68262001bf8565b62001bca565b91508082526020830160208301858383011115620015d957600080fd5b620015e683828462001ca6565b50505092915050565b600081359050620016008162001d4a565b92915050565b6000602082840312156200161957600080fd5b600062001629848285016200154e565b91505092915050565b6000602082840312156200164557600080fd5b6000620016558482850162001565565b91505092915050565b6000602082840312156200167157600080fd5b600062001681848285016200157c565b91505092915050565b600080604083850312156200169e57600080fd5b6000620016ae858286016200157c565b925050602083013567ffffffffffffffff811115620016cc57600080fd5b620016da8582860162001593565b9150509250929050565b600060208284031215620016f757600080fd5b600082013567ffffffffffffffff8111156200171257600080fd5b620017208482850162001593565b91505092915050565b6000602082840312156200173c57600080fd5b60006200174c84828501620015ef565b91505092915050565b620017608162001c52565b82525050565b620017718162001c66565b82525050565b620017828162001c72565b82525050565b6000620017958262001c25565b620017a1818562001c30565b9350620017b381856020860162001cb5565b620017be8162001ceb565b840191505092915050565b6000620017d8601a8362001c41565b91507f446f63746f7220696e646578206f7574206f6620626f756e64210000000000006000830152602082019050919050565b60006200181a601b8362001c41565b91507f446f63746f72206e616d6520686173206265656e2074616b656e2e00000000006000830152602082019050919050565b60006200185c60158362001c41565b91507f446f63746f7220646f65736e27742065786973742100000000000000000000006000830152602082019050919050565b60006200189e60168362001c41565b91507f43616e27742066696e642074686520446f63746f7221000000000000000000006000830152602082019050919050565b6000620018e060138362001c41565b91507f496e646578206f7574206f6620626f756e6421000000000000000000000000006000830152602082019050919050565b60006200192260168362001c41565b91507f53656e646572206e6f7420617574686f72697a65642e000000000000000000006000830152602082019050919050565b620019608162001c9c565b82525050565b60006020820190506200197d600083018462001755565b92915050565b60006060820190506200199a600083018662001755565b620019a9602083018562001777565b8181036040830152620019bd818462001788565b9050949350505050565b6000602082019050620019de600083018462001766565b92915050565b6000602082019050620019fb600083018462001777565b92915050565b600060408201905062001a18600083018562001777565b818103602083015262001a2c818462001788565b90509392505050565b6000602082019050818103600083015262001a51818462001788565b905092915050565b6000602082019050818103600083015262001a7481620017c9565b9050919050565b6000602082019050818103600083015262001a96816200180b565b9050919050565b6000602082019050818103600083015262001ab8816200184d565b9050919050565b6000602082019050818103600083015262001ada816200188f565b9050919050565b6000602082019050818103600083015262001afc81620018d1565b9050919050565b6000602082019050818103600083015262001b1e8162001913565b9050919050565b600060208201905062001b3c600083018462001955565b92915050565b600060608201905062001b59600083018662001955565b62001b68602083018562001755565b818103604083015262001b7c818462001788565b9050949350505050565b600060608201905062001b9d600083018662001955565b62001bac602083018562001777565b818103604083015262001bc0818462001788565b9050949350505050565b6000604051905081810181811067ffffffffffffffff8211171562001bee57600080fd5b8060405250919050565b600067ffffffffffffffff82111562001c1057600080fd5b601f19601f8301169050602081019050919050565b600081519050919050565b600082825260208201905092915050565b600082825260208201905092915050565b600062001c5f8262001c7c565b9050919050565b60008115159050919050565b6000819050919050565b600073ffffffffffffffffffffffffffffffffffffffff82169050919050565b6000819050919050565b82818337600083830152505050565b60005b8381101562001cd557808201518184015260208101905062001cb8565b8381111562001ce5576000848401525b50505050565b6000601f19601f8301169050919050565b62001d078162001c52565b811462001d1357600080fd5b50565b62001d218162001c66565b811462001d2d57600080fd5b50565b62001d3b8162001c72565b811462001d4757600080fd5b50565b62001d558162001c9c565b811462001d6157600080fd5b5056fe608060405234801561001057600080fd5b50604051610552380380610552833981810160405261003291908101906101a5565b336000806101000a81548173ffffffffffffffffffffffffffffffffffffffff021916908373ffffffffffffffffffffffffffffffffffffffff16021790555081600181905550806002908051906020019061008f929190610097565b5050506102a6565b828054600181600116156101000203166002900490600052602060002090601f016020900481019282601f106100d857805160ff1916838001178555610106565b82800160010185558215610106579182015b828111156101055782518255916020019190600101906100ea565b5b5090506101139190610117565b5090565b61013991905b8082111561013557600081600090555060010161011d565b5090565b90565b60008151905061014b8161028f565b92915050565b600082601f83011261016257600080fd5b815161017561017082610226565b6101f9565b9150808252602083016020830185838301111561019157600080fd5b61019c83828461025c565b50505092915050565b600080604083850312156101b857600080fd5b60006101c68582860161013c565b925050602083015167ffffffffffffffff8111156101e357600080fd5b6101ef85828601610151565b9150509250929050565b6000604051905081810181811067ffffffffffffffff8211171561021c57600080fd5b8060405250919050565b600067ffffffffffffffff82111561023d57600080fd5b601f19601f8301169050602081019050919050565b6000819050919050565b60005b8381101561027a57808201518184015260208101905061025f565b83811115610289576000848401525b50505050565b61029881610252565b81146102a357600080fd5b50565b61029d806102b56000396000f3fe608060405234801561001057600080fd5b506004361061002b5760003560e01c806314f5193014610030575b600080fd5b61004a6004803603610045919081019061017b565b610060565b60405161005791906101cb565b60405180910390f35b60008160029080519060200190610078929190610082565b5060019050919050565b828054600181600116156101000203166002900490600052602060002090601f016020900481019282601f106100c357805160ff19168380011785556100f1565b828001600101855582156100f1579182015b828111156100f05782518255916020019190600101906100d5565b5b5090506100fe9190610102565b5090565b61012491905b80821115610120576000816000905550600101610108565b5090565b90565b600082601f83011261013857600080fd5b813561014b61014682610213565b6101e6565b9150808252602083016020830185838301111561016757600080fd5b61017283828461024b565b50505092915050565b60006020828403121561018d57600080fd5b600082013567ffffffffffffffff8111156101a757600080fd5b6101b384828501610127565b91505092915050565b6101c58161023f565b82525050565b60006020820190506101e060008301846101bc565b92915050565b6000604051905081810181811067ffffffffffffffff8211171561020957600080fd5b8060405250919050565b600067ffffffffffffffff82111561022a57600080fd5b601f19601f8301169050602081019050919050565b60008115159050919050565b8281833760008383015250505056fea365627a7a72315820a8b640de03ace1761fef75b33aac0130b97cdd1ebb13616626702c3f64e457856c6578706572696d656e74616cf564736f6c63430005100040a365627a7a72315820589bd01078984144075a712a3b6b225b02ed14c5d8abed33bde6a465c53b61236c6578706572696d656e74616cf564736f6c63430005100040",
  "source": "pragma solidity >=0.5.16;\npragma experimental ABIEncoderV2;\nimport \"./Doctor.sol\";\n\ncontract DoctorStorage {\n   mapping(address => uint) private addressToIndex;\n   mapping(bytes32 => uint) private doctornameToIndex;\n   address[] private addresses;\n   bytes32[] private doctorUnames;\n   bytes[] private ipfsHashes;\n   Doctor p;\n\n   function registerDoctor(bytes32 DoctorName, bytes memory ipfsHash) public returns(bool) {\n     require(!hasDoctor(msg.sender),\n            \"Sender not authorized.\");\n     require(!DoctorNameTaken(DoctorName),\n            \"Doctor name has been taken.\");\n      new Doctor(DoctorName, ipfsHash);\n      addresses.push(msg.sender);\n      doctorUnames.push(DoctorName);\n      ipfsHashes.push(ipfsHash);\n      addressToIndex[msg.sender] = addresses.length - 1;\n      doctornameToIndex[DoctorName] = addresses.length - 1;\n      return true;\n   }\n\n   function hasDoctor(address _DoctorAdresses) public view returns(bool) {\n      return (addressToIndex[_DoctorAdresses] > 0 || _DoctorAdresses == addresses[0]);\n   }\n\n   function DoctorNameTaken(bytes32 pname) public view returns(bool takenIndeed) {\n      return (doctornameToIndex[pname] > 0 || pname == 'self');\n   }\n\n   function updateDoctor(bytes memory ipfsHash) public returns(bool){\n      require(!hasDoctor(msg.sender),\n            \"Sender not authorized.\");\n      p.updateDoctor(ipfsHash);\n      return true;\n   }\n\n   function getDoctorCount() public view returns(uint){\n      return addresses.length;\n   }\n\n   function getDoctorByIndex(uint index) public view returns(address,bytes32,bytes memory){\n      require((index < addresses.length),\n            \"Index out of bound!\");\n      return(addresses[index], doctorUnames[index], ipfsHashes[index]);\n   }\n\n   function getAddressByIndex(uint index) public view returns(address){\n      require((index < addresses.length),\n            \"Index out of bound!\");\n      return addresses[index];\n   }\n\n   function getDoctorNameByIndex(uint index) public view returns(bytes32){\n      require((index < addresses.length),\n            \"Index out of bound!\");\n      return doctorUnames[index];\n   }\n\n   function getIpfsHashByIndex(uint index) public view returns(bytes memory){\n      require((index < addresses.length),\n            \"Index out of bound!\");\n      return ipfsHashes[index];\n   }\n\n   function getDoctorByAddress(address DoctorAddress) public view returns(uint, bytes32, bytes memory){\n      require(hasDoctor(DoctorAddress),\n            \"Doctor doesn't exist!\");\n      return(addressToIndex[DoctorAddress], doctorUnames[addressToIndex[DoctorAddress]], ipfsHashes[addressToIndex[DoctorAddress]]);\n   }\n\n   function getIndexByAddress(address DoctorAddress) public view returns(uint){\n      require(hasDoctor(DoctorAddress),\n            \"Doctor doesn't exist!\");\n      return addressToIndex[DoctorAddress];\n   }\n\n   function getDoctorNameByAddress(address DoctorAddress) public view returns(bytes32){\n      require(hasDoctor(DoctorAddress),\n            \"Doctor doesn't exist!\");\n      return doctorUnames[addressToIndex[DoctorAddress]];\n   }\n\n   function getIpfsHashByAddress(address DoctorAddress) public view returns(bytes memory){\n      require(hasDoctor(DoctorAddress),\n            \"Doctor doesn't exist!\");\n      return ipfsHashes[addressToIndex[DoctorAddress]];\n   }\n\n   function getDoctorByDoctorName(bytes32 Doctorname) public view returns(uint,address,bytes memory){\n      require((doctornameToIndex[Doctorname] < addresses.length),\n            \"Doctor index out of bound!\");\n      return(doctornameToIndex[Doctorname], addresses[doctornameToIndex[Doctorname]], ipfsHashes[doctornameToIndex[Doctorname]]);\n   }\n\n   function getIndexByDoctorName(bytes32 Doctorname) public view returns(uint){\n      require((DoctorNameTaken(Doctorname)),\n            \"Can't find the Doctor!\");\n      return doctornameToIndex[Doctorname];\n   }\n\n   function getAddressByDoctorName(bytes32 Doctorname) public view returns(address){\n      require((DoctorNameTaken(Doctorname)),\n        \"Can't find the Doctor!\");\n      return addresses[doctornameToIndex[Doctorname]];\n   }\n\n   function getIpfsHashByDoctorName(bytes32 Doctorname) public view returns(bytes memory){\n      require((DoctorNameTaken(Doctorname)),\n            \"Can't find the Doctor!\");\n      return ipfsHashes[doctornameToIndex[Doctorname]];\n   }\n}",
  "sourcePath": "/home/eke/patient-eth-ipfs/contracts/DoctorStorage.sol",
  "compiler": {
    "name": "solc",
    "version": "0.5.16+commit.9c3226ce.Emscripten.clang"
  },
  "schemaVersion": "3.0.23",
  "updatedAt": "2020-04-11T19:39:13.092Z",
  "devdoc": {
    "methods": {}
  },
  "userdoc": {
    "methods": {}
  }
}