{
  "contractName": "Doctor",
  "abi": [
    {
      "inputs": [
        {
          "internalType": "bytes32",
          "name": "_doctoruname",
          "type": "bytes32"
        },
        {
          "internalType": "bytes",
          "name": "_IpfsHash",
          "type": "bytes"
        }
      ],
      "payable": false,
      "stateMutability": "nonpayable",
      "type": "constructor"
    },
    {
      "constant": false,
      "inputs": [
        {
          "internalType": "bytes",
          "name": "ipfsHash",
          "type": "bytes"
        }
      ],
      "name": "updateDoctor",
      "outputs": [
        {
          "internalType": "bool",
          "name": "",
          "type": "bool"
        }
      ],
      "payable": false,
      "stateMutability": "nonpayable",
      "type": "function"
    }
  ],
  "bytecode": "0x608060405234801561001057600080fd5b50604051610552380380610552833981810160405261003291908101906101a5565b336000806101000a81548173ffffffffffffffffffffffffffffffffffffffff021916908373ffffffffffffffffffffffffffffffffffffffff16021790555081600181905550806002908051906020019061008f929190610097565b5050506102a6565b828054600181600116156101000203166002900490600052602060002090601f016020900481019282601f106100d857805160ff1916838001178555610106565b82800160010185558215610106579182015b828111156101055782518255916020019190600101906100ea565b5b5090506101139190610117565b5090565b61013991905b8082111561013557600081600090555060010161011d565b5090565b90565b60008151905061014b8161028f565b92915050565b600082601f83011261016257600080fd5b815161017561017082610226565b6101f9565b9150808252602083016020830185838301111561019157600080fd5b61019c83828461025c565b50505092915050565b600080604083850312156101b857600080fd5b60006101c68582860161013c565b925050602083015167ffffffffffffffff8111156101e357600080fd5b6101ef85828601610151565b9150509250929050565b6000604051905081810181811067ffffffffffffffff8211171561021c57600080fd5b8060405250919050565b600067ffffffffffffffff82111561023d57600080fd5b601f19601f8301169050602081019050919050565b6000819050919050565b60005b8381101561027a57808201518184015260208101905061025f565b83811115610289576000848401525b50505050565b61029881610252565b81146102a357600080fd5b50565b61029d806102b56000396000f3fe608060405234801561001057600080fd5b506004361061002b5760003560e01c806314f5193014610030575b600080fd5b61004a6004803603610045919081019061017b565b610060565b60405161005791906101cb565b60405180910390f35b60008160029080519060200190610078929190610082565b5060019050919050565b828054600181600116156101000203166002900490600052602060002090601f016020900481019282601f106100c357805160ff19168380011785556100f1565b828001600101855582156100f1579182015b828111156100f05782518255916020019190600101906100d5565b5b5090506100fe9190610102565b5090565b61012491905b80821115610120576000816000905550600101610108565b5090565b90565b600082601f83011261013857600080fd5b813561014b61014682610213565b6101e6565b9150808252602083016020830185838301111561016757600080fd5b61017283828461024b565b50505092915050565b60006020828403121561018d57600080fd5b600082013567ffffffffffffffff8111156101a757600080fd5b6101b384828501610127565b91505092915050565b6101c58161023f565b82525050565b60006020820190506101e060008301846101bc565b92915050565b6000604051905081810181811067ffffffffffffffff8211171561020957600080fd5b8060405250919050565b600067ffffffffffffffff82111561022a57600080fd5b601f19601f8301169050602081019050919050565b60008115159050919050565b8281833760008383015250505056fea365627a7a72315820a8b640de03ace1761fef75b33aac0130b97cdd1ebb13616626702c3f64e457856c6578706572696d656e74616cf564736f6c63430005100040",
  "source": "pragma solidity >=0.5.16;\npragma experimental ABIEncoderV2;\nimport \"./Consultation.sol\";\n\ncontract Doctor{\n    address private addr;\n    bytes32 private doctoruname;\n    bytes private IpfsHash;\n\n    constructor(bytes32 _doctoruname,bytes memory _IpfsHash) public{\n        addr = msg.sender;\n        doctoruname = _doctoruname;\n        IpfsHash = _IpfsHash;\n    }\n\n    function updateDoctor(bytes memory ipfsHash) public returns(bool){\n        IpfsHash = ipfsHash;\n        return true;\n    }\n\n\n}",
  "sourcePath": "/home/eke/patient-eth-ipfs/contracts/Doctor.sol",
  "compiler": {
    "name": "solc",
    "version": "0.5.16+commit.9c3226ce.Emscripten.clang"
  },
  "schemaVersion": "3.0.23",
  "updatedAt": "2020-04-11T19:39:13.088Z",
  "devdoc": {
    "methods": {}
  },
  "userdoc": {
    "methods": {}
  }
}