{
  "contractName": "Doctor",
  "abi": [
    {
      "inputs": [
        {
          "internalType": "bytes32",
          "name": "_doctoruname",
          "type": "bytes32"
        },
        {
          "internalType": "bytes",
          "name": "_IpfsHash",
          "type": "bytes"
        }
      ],
      "payable": false,
      "stateMutability": "nonpayable",
      "type": "constructor"
    },
    {
      "constant": false,
      "inputs": [
        {
          "internalType": "bytes",
          "name": "ipfsHash",
          "type": "bytes"
        }
      ],
      "name": "updateDoctor",
      "outputs": [
        {
          "internalType": "bool",
          "name": "",
          "type": "bool"
        }
      ],
      "payable": false,
      "stateMutability": "nonpayable",
      "type": "function"
    }
  ],
  "bytecode": "0x608060405234801561001057600080fd5b506040516104103803806104108339818101604052604081101561003357600080fd5b81019080805190602001909291908051604051939291908464010000000082111561005d57600080fd5b8382019150602082018581111561007357600080fd5b825186600182028301116401000000008211171561009057600080fd5b8083526020830192505050908051906020019080838360005b838110156100c45780820151818401526020810190506100a9565b50505050905090810190601f1680156100f15780820380516001836020036101000a031916815260200191505b50604052505050336000806101000a81548173ffffffffffffffffffffffffffffffffffffffff021916908373ffffffffffffffffffffffffffffffffffffffff16021790555081600181905550806002908051906020019061015592919061015d565b505050610202565b828054600181600116156101000203166002900490600052602060002090601f016020900481019282601f1061019e57805160ff19168380011785556101cc565b828001600101855582156101cc579182015b828111156101cb5782518255916020019190600101906101b0565b5b5090506101d991906101dd565b5090565b6101ff91905b808211156101fb5760008160009055506001016101e3565b5090565b90565b6101ff806102116000396000f3fe608060405234801561001057600080fd5b506004361061002b5760003560e01c806314f5193014610030575b600080fd5b6100e96004803603602081101561004657600080fd5b810190808035906020019064010000000081111561006357600080fd5b82018360208201111561007557600080fd5b8035906020019184600183028401116401000000008311171561009757600080fd5b91908080601f016020809104026020016040519081016040528093929190818152602001838380828437600081840152601f19601f820116905080830192505050505050509192919290505050610103565b604051808215151515815260200191505060405180910390f35b6000816002908051906020019061011b929190610125565b5060019050919050565b828054600181600116156101000203166002900490600052602060002090601f016020900481019282601f1061016657805160ff1916838001178555610194565b82800160010185558215610194579182015b82811115610193578251825591602001919060010190610178565b5b5090506101a191906101a5565b5090565b6101c791905b808211156101c35760008160009055506001016101ab565b5090565b9056fea265627a7a72315820c8ab32c85ffac272a94548c488b5d5cf3f9223d1eabc42aac75cbd6c7478f65664736f6c63430005100032",
  "source": "pragma solidity >=0.5.16;\n\ncontract Doctor{\n    address private addr;\n    bytes32 private doctoruname;\n    bytes private IpfsHash;\n\n    constructor(bytes32 _doctoruname,bytes memory _IpfsHash) public{\n        addr = msg.sender;\n        doctoruname = _doctoruname;\n        IpfsHash = _IpfsHash;\n    }\n\n    function updateDoctor(bytes memory ipfsHash) public returns(bool){\n        IpfsHash = ipfsHash;\n        return true;\n    }\n\n\n}",
  "sourcePath": "/home/eke/patient-eth-ipfs/contracts/Doctor.sol",
  "compiler": {
    "name": "solc",
    "version": "0.5.16+commit.9c3226ce.Emscripten.clang"
  },
  "schemaVersion": "3.0.23",
  "updatedAt": "2020-04-11T20:09:21.506Z",
  "devdoc": {
    "methods": {}
  },
  "userdoc": {
    "methods": {}
  }
}