{
  "contractName": "DoctorStorage",
  "abi": [
    {
      "constant": false,
      "inputs": [
        {
          "internalType": "bytes32",
          "name": "DoctorName",
          "type": "bytes32"
        },
        {
          "internalType": "bytes",
          "name": "ipfsHash",
          "type": "bytes"
        }
      ],
      "name": "registerDoctor",
      "outputs": [
        {
          "internalType": "bool",
          "name": "",
          "type": "bool"
        }
      ],
      "payable": false,
      "stateMutability": "nonpayable",
      "type": "function"
    },
    {
      "constant": true,
      "inputs": [
        {
          "internalType": "address",
          "name": "_DoctorAdresses",
          "type": "address"
        }
      ],
      "name": "hasDoctor",
      "outputs": [
        {
          "internalType": "bool",
          "name": "",
          "type": "bool"
        }
      ],
      "payable": false,
      "stateMutability": "view",
      "type": "function"
    },
    {
      "constant": true,
      "inputs": [
        {
          "internalType": "bytes32",
          "name": "pname",
          "type": "bytes32"
        }
      ],
      "name": "DoctorNameTaken",
      "outputs": [
        {
          "internalType": "bool",
          "name": "takenIndeed",
          "type": "bool"
        }
      ],
      "payable": false,
      "stateMutability": "view",
      "type": "function"
    },
    {
      "constant": false,
      "inputs": [
        {
          "internalType": "bytes",
          "name": "ipfsHash",
          "type": "bytes"
        }
      ],
      "name": "updateDoctor",
      "outputs": [
        {
          "internalType": "bool",
          "name": "",
          "type": "bool"
        }
      ],
      "payable": false,
      "stateMutability": "nonpayable",
      "type": "function"
    },
    {
      "constant": true,
      "inputs": [],
      "name": "getDoctorCount",
      "outputs": [
        {
          "internalType": "uint256",
          "name": "",
          "type": "uint256"
        }
      ],
      "payable": false,
      "stateMutability": "view",
      "type": "function"
    },
    {
      "constant": true,
      "inputs": [
        {
          "internalType": "uint256",
          "name": "index",
          "type": "uint256"
        }
      ],
      "name": "getDoctorByIndex",
      "outputs": [
        {
          "internalType": "address",
          "name": "",
          "type": "address"
        },
        {
          "internalType": "bytes32",
          "name": "",
          "type": "bytes32"
        },
        {
          "internalType": "bytes",
          "name": "",
          "type": "bytes"
        }
      ],
      "payable": false,
      "stateMutability": "view",
      "type": "function"
    },
    {
      "constant": true,
      "inputs": [
        {
          "internalType": "uint256",
          "name": "index",
          "type": "uint256"
        }
      ],
      "name": "getDoctorAddressByIndex",
      "outputs": [
        {
          "internalType": "address",
          "name": "",
          "type": "address"
        }
      ],
      "payable": false,
      "stateMutability": "view",
      "type": "function"
    },
    {
      "constant": true,
      "inputs": [
        {
          "internalType": "uint256",
          "name": "index",
          "type": "uint256"
        }
      ],
      "name": "getDoctorNameByIndex",
      "outputs": [
        {
          "internalType": "bytes32",
          "name": "",
          "type": "bytes32"
        }
      ],
      "payable": false,
      "stateMutability": "view",
      "type": "function"
    },
    {
      "constant": true,
      "inputs": [
        {
          "internalType": "uint256",
          "name": "index",
          "type": "uint256"
        }
      ],
      "name": "getDoctorIpfsHashByIndex",
      "outputs": [
        {
          "internalType": "bytes",
          "name": "",
          "type": "bytes"
        }
      ],
      "payable": false,
      "stateMutability": "view",
      "type": "function"
    },
    {
      "constant": true,
      "inputs": [
        {
          "internalType": "address",
          "name": "DoctorAddress",
          "type": "address"
        }
      ],
      "name": "getDoctorByAddress",
      "outputs": [
        {
          "internalType": "uint256",
          "name": "",
          "type": "uint256"
        },
        {
          "internalType": "bytes32",
          "name": "",
          "type": "bytes32"
        },
        {
          "internalType": "bytes",
          "name": "",
          "type": "bytes"
        }
      ],
      "payable": false,
      "stateMutability": "view",
      "type": "function"
    },
    {
      "constant": true,
      "inputs": [
        {
          "internalType": "address",
          "name": "DoctorAddress",
          "type": "address"
        }
      ],
      "name": "getDoctorIndexByAddress",
      "outputs": [
        {
          "internalType": "uint256",
          "name": "",
          "type": "uint256"
        }
      ],
      "payable": false,
      "stateMutability": "view",
      "type": "function"
    },
    {
      "constant": true,
      "inputs": [
        {
          "internalType": "address",
          "name": "DoctorAddress",
          "type": "address"
        }
      ],
      "name": "getDoctorNameByAddress",
      "outputs": [
        {
          "internalType": "bytes32",
          "name": "",
          "type": "bytes32"
        }
      ],
      "payable": false,
      "stateMutability": "view",
      "type": "function"
    },
    {
      "constant": true,
      "inputs": [
        {
          "internalType": "address",
          "name": "DoctorAddress",
          "type": "address"
        }
      ],
      "name": "getDoctorIpfsHashByAddress",
      "outputs": [
        {
          "internalType": "bytes",
          "name": "",
          "type": "bytes"
        }
      ],
      "payable": false,
      "stateMutability": "view",
      "type": "function"
    },
    {
      "constant": true,
      "inputs": [
        {
          "internalType": "bytes32",
          "name": "Doctorname",
          "type": "bytes32"
        }
      ],
      "name": "getDoctorByDoctorName",
      "outputs": [
        {
          "internalType": "uint256",
          "name": "",
          "type": "uint256"
        },
        {
          "internalType": "address",
          "name": "",
          "type": "address"
        },
        {
          "internalType": "bytes",
          "name": "",
          "type": "bytes"
        }
      ],
      "payable": false,
      "stateMutability": "view",
      "type": "function"
    },
    {
      "constant": true,
      "inputs": [
        {
          "internalType": "bytes32",
          "name": "Doctorname",
          "type": "bytes32"
        }
      ],
      "name": "getDoctorIndexByDoctorName",
      "outputs": [
        {
          "internalType": "uint256",
          "name": "",
          "type": "uint256"
        }
      ],
      "payable": false,
      "stateMutability": "view",
      "type": "function"
    },
    {
      "constant": true,
      "inputs": [
        {
          "internalType": "bytes32",
          "name": "Doctorname",
          "type": "bytes32"
        }
      ],
      "name": "getDoctorAddressByDoctorName",
      "outputs": [
        {
          "internalType": "address",
          "name": "",
          "type": "address"
        }
      ],
      "payable": false,
      "stateMutability": "view",
      "type": "function"
    },
    {
      "constant": true,
      "inputs": [
        {
          "internalType": "bytes32",
          "name": "Doctorname",
          "type": "bytes32"
        }
      ],
      "name": "getDoctorIpfsHashByDoctorName",
      "outputs": [
        {
          "internalType": "bytes",
          "name": "",
          "type": "bytes"
        }
      ],
      "payable": false,
      "stateMutability": "view",
      "type": "function"
    }
  ],
  "bytecode": "0x608060405234801561001057600080fd5b50612320806100206000396000f3fe60806040523480156200001157600080fd5b5060043610620001245760003560e01c80635bab548211620000b15780638f1787c2116200007b5780638f1787c21462000822578063ad37c2dc146200087d578063e1153e6f14620008ee578063e85a340a14620009d1578063fca200df1462000a425762000124565b80635bab54821462000661578063715b5f6d14620006bc57806379111c1c14620007a357806386c5efe914620007c35762000124565b80631d37878f11620000f35780631d37878f14620003b75780634b3a602914620003fc57806358c5d4bf14620004a95780635a357c19146200057a5762000124565b806304aa4210146200012957806313684d4314620001d6578063140de8f2146200029957806314f5193014620002de575b600080fd5b62000158600480360360208110156200014157600080fd5b810190808035906020019092919050505062000a8b565b6040518080602001828103825283818151815260200191508051906020019080838360005b838110156200019a5780820151818401526020810190506200017d565b50505050905090810190601f168015620001c85780820380516001836020036101000a031916815260200191505b509250505060405180910390f35b6200021b60048036036020811015620001ee57600080fd5b81019080803573ffffffffffffffffffffffffffffffffffffffff16906020019092919050505062000bda565b6040518080602001828103825283818151815260200191508051906020019080838360005b838110156200025d57808201518184015260208101905062000240565b50505050905090810190601f1680156200028b5780820380516001836020036101000a031916815260200191505b509250505060405180910390f35b620002c860048036036020811015620002b157600080fd5b810190808035906020019092919050505062000d54565b6040518082815260200191505060405180910390f35b6200039d60048036036020811015620002f657600080fd5b81019080803590602001906401000000008111156200031457600080fd5b8201836020820111156200032757600080fd5b803590602001918460018302840111640100000000831117156200034a57600080fd5b91908080601f016020809104026020016040519081016040528093929190818152602001838380828437600081840152601f19601f82011690508083019250505050505050919291929050505062000def565b604051808215151515815260200191505060405180910390f35b620003e660048036036020811015620003cf57600080fd5b810190808035906020019092919050505062000f95565b6040518082815260200191505060405180910390f35b6200042b600480360360208110156200041457600080fd5b810190808035906020019092919050505062001032565b6040518080602001828103825283818151815260200191508051906020019080838360005b838110156200046d57808201518184015260208101905062000450565b50505050905090810190601f1680156200049b5780820380516001836020036101000a031916815260200191505b509250505060405180910390f35b620004ee60048036036020811015620004c157600080fd5b81019080803573ffffffffffffffffffffffffffffffffffffffff1690602001909291905050506200116b565b6040518084815260200183815260200180602001828103825283818151815260200191508051906020019080838360005b838110156200053c5780820151818401526020810190506200051f565b50505050905090810190601f1680156200056a5780820380516001836020036101000a031916815260200191505b5094505050505060405180910390f35b620005a9600480360360208110156200059257600080fd5b810190808035906020019092919050505062001387565b604051808473ffffffffffffffffffffffffffffffffffffffff1673ffffffffffffffffffffffffffffffffffffffff16815260200183815260200180602001828103825283818151815260200191508051906020019080838360005b838110156200062357808201518184015260208101905062000606565b50505050905090810190601f168015620006515780820380516001836020036101000a031916815260200191505b5094505050505060405180910390f35b620006a6600480360360208110156200067957600080fd5b81019080803573ffffffffffffffffffffffffffffffffffffffff1690602001909291905050506200151e565b6040518082815260200191505060405180910390f35b620006eb60048036036020811015620006d457600080fd5b8101908080359060200190929190505050620015e4565b604051808481526020018373ffffffffffffffffffffffffffffffffffffffff1673ffffffffffffffffffffffffffffffffffffffff16815260200180602001828103825283818151815260200191508051906020019080838360005b838110156200076557808201518184015260208101905062000748565b50505050905090810190601f168015620007935780820380516001836020036101000a031916815260200191505b5094505050505060405180910390f35b620007ad620017af565b6040518082815260200191505060405180910390f35b6200080860048036036020811015620007db57600080fd5b81019080803573ffffffffffffffffffffffffffffffffffffffff169060200190929190505050620017bc565b604051808215151515815260200191505060405180910390f35b62000867600480360360208110156200083a57600080fd5b81019080803573ffffffffffffffffffffffffffffffffffffffff16906020019092919050505062001876565b6040518082815260200191505060405180910390f35b620008ac600480360360208110156200089557600080fd5b810190808035906020019092919050505062001954565b604051808273ffffffffffffffffffffffffffffffffffffffff1673ffffffffffffffffffffffffffffffffffffffff16815260200191505060405180910390f35b620009b7600480360360408110156200090657600080fd5b8101908080359060200190929190803590602001906401000000008111156200092e57600080fd5b8201836020820111156200094157600080fd5b803590602001918460018302840111640100000000831117156200096457600080fd5b91908080601f016020809104026020016040519081016040528093929190818152602001838380828437600081840152601f19601f82011690508083019250505050505050919291929050505062001a27565b604051808215151515815260200191505060405180910390f35b62000a0060048036036020811015620009e957600080fd5b810190808035906020019092919050505062001d17565b604051808273ffffffffffffffffffffffffffffffffffffffff1673ffffffffffffffffffffffffffffffffffffffff16815260200191505060405180910390f35b62000a716004803603602081101562000a5a57600080fd5b810190808035906020019092919050505062001dd4565b604051808215151515815260200191505060405180910390f35b606062000a988262001dd4565b62000b0b576040517f08c379a00000000000000000000000000000000000000000000000000000000081526004018080602001828103825260168152602001807f43616e27742066696e642074686520446f63746f72210000000000000000000081525060200191505060405180910390fd5b600460016000848152602001908152602001600020548154811062000b2c57fe5b906000526020600020018054600181600116156101000203166002900480601f01602080910402602001604051908101604052809291908181526020018280546001816001161561010002031660029004801562000bce5780601f1062000ba25761010080835404028352916020019162000bce565b820191906000526020600020905b81548152906001019060200180831162000bb057829003601f168201915b50505050509050919050565b606062000be782620017bc565b62000c5a576040517f08c379a00000000000000000000000000000000000000000000000000000000081526004018080602001828103825260158152602001807f446f63746f7220646f65736e277420657869737421000000000000000000000081525060200191505060405180910390fd5b60046000808473ffffffffffffffffffffffffffffffffffffffff1673ffffffffffffffffffffffffffffffffffffffff168152602001908152602001600020548154811062000ca657fe5b906000526020600020018054600181600116156101000203166002900480601f01602080910402602001604051908101604052809291908181526020018280546001816001161561010002031660029004801562000d485780601f1062000d1c5761010080835404028352916020019162000d48565b820191906000526020600020905b81548152906001019060200180831162000d2a57829003601f168201915b50505050509050919050565b600062000d618262001dd4565b62000dd4576040517f08c379a00000000000000000000000000000000000000000000000000000000081526004018080602001828103825260168152602001807f43616e27742066696e642074686520446f63746f72210000000000000000000081525060200191505060405180910390fd5b60016000838152602001908152602001600020549050919050565b600062000dfc33620017bc565b1562000e70576040517f08c379a00000000000000000000000000000000000000000000000000000000081526004018080602001828103825260168152602001807f53656e646572206e6f7420617574686f72697a65642e0000000000000000000081525060200191505060405180910390fd5b600560009054906101000a900473ffffffffffffffffffffffffffffffffffffffff1673ffffffffffffffffffffffffffffffffffffffff166314f51930836040518263ffffffff1660e01b81526004018080602001828103825283818151815260200191508051906020019080838360005b8381101562000f0057808201518184015260208101905062000ee3565b50505050905090810190601f16801562000f2e5780820380516001836020036101000a031916815260200191505b5092505050602060405180830381600087803b15801562000f4e57600080fd5b505af115801562000f63573d6000803e3d6000fd5b505050506040513d602081101562000f7a57600080fd5b81019080805190602001909291905050505060019050919050565b6000600280549050821062001012576040517f08c379a00000000000000000000000000000000000000000000000000000000081526004018080602001828103825260138152602001807f496e646578206f7574206f6620626f756e64210000000000000000000000000081525060200191505060405180910390fd5b600382815481106200102057fe5b90600052602060002001549050919050565b60606002805490508210620010af576040517f08c379a00000000000000000000000000000000000000000000000000000000081526004018080602001828103825260138152602001807f496e646578206f7574206f6620626f756e64210000000000000000000000000081525060200191505060405180910390fd5b60048281548110620010bd57fe5b906000526020600020018054600181600116156101000203166002900480601f0160208091040260200160405190810160405280929190818152602001828054600181600116156101000203166002900480156200115f5780601f1062001133576101008083540402835291602001916200115f565b820191906000526020600020905b8154815290600101906020018083116200114157829003601f168201915b50505050509050919050565b60008060606200117b84620017bc565b620011ee576040517f08c379a00000000000000000000000000000000000000000000000000000000081526004018080602001828103825260158152602001807f446f63746f7220646f65736e277420657869737421000000000000000000000081525060200191505060405180910390fd5b6000808573ffffffffffffffffffffffffffffffffffffffff1673ffffffffffffffffffffffffffffffffffffffff1681526020019081526020016000205460036000808773ffffffffffffffffffffffffffffffffffffffff1673ffffffffffffffffffffffffffffffffffffffff16815260200190815260200160002054815481106200127957fe5b906000526020600020015460046000808873ffffffffffffffffffffffffffffffffffffffff1673ffffffffffffffffffffffffffffffffffffffff1681526020019081526020016000205481548110620012d057fe5b90600052602060002001808054600181600116156101000203166002900480601f016020809104026020016040519081016040528092919081815260200182805460018160011615610100020316600290048015620013735780601f10620013475761010080835404028352916020019162001373565b820191906000526020600020905b8154815290600101906020018083116200135557829003601f168201915b505050505090509250925092509193909250565b6000806060600280549050841062001407576040517f08c379a00000000000000000000000000000000000000000000000000000000081526004018080602001828103825260138152602001807f496e646578206f7574206f6620626f756e64210000000000000000000000000081525060200191505060405180910390fd5b600284815481106200141557fe5b9060005260206000200160009054906101000a900473ffffffffffffffffffffffffffffffffffffffff16600385815481106200144e57fe5b9060005260206000200154600486815481106200146757fe5b90600052602060002001808054600181600116156101000203166002900480601f0160208091040260200160405190810160405280929190818152602001828054600181600116156101000203166002900480156200150a5780601f10620014de576101008083540402835291602001916200150a565b820191906000526020600020905b815481529060010190602001808311620014ec57829003601f168201915b505050505090509250925092509193909250565b60006200152b82620017bc565b6200159e576040517f08c379a00000000000000000000000000000000000000000000000000000000081526004018080602001828103825260158152602001807f446f63746f7220646f65736e277420657869737421000000000000000000000081525060200191505060405180910390fd5b6000808373ffffffffffffffffffffffffffffffffffffffff1673ffffffffffffffffffffffffffffffffffffffff168152602001908152602001600020549050919050565b600080606060028054905060016000868152602001908152602001600020541062001677576040517f08c379a000000000000000000000000000000000000000000000000000000000815260040180806020018281038252601a8152602001807f446f63746f7220696e646578206f7574206f6620626f756e642100000000000081525060200191505060405180910390fd5b60016000858152602001908152602001600020546002600160008781526020019081526020016000205481548110620016ac57fe5b9060005260206000200160009054906101000a900473ffffffffffffffffffffffffffffffffffffffff166004600160008881526020019081526020016000205481548110620016f857fe5b90600052602060002001808054600181600116156101000203166002900480601f0160208091040260200160405190810160405280929190818152602001828054600181600116156101000203166002900480156200179b5780601f106200176f576101008083540402835291602001916200179b565b820191906000526020600020905b8154815290600101906020018083116200177d57829003601f168201915b505050505090509250925092509193909250565b6000600280549050905090565b6000806000808473ffffffffffffffffffffffffffffffffffffffff1673ffffffffffffffffffffffffffffffffffffffff1681526020019081526020016000205411806200186f575060026000815481106200181557fe5b9060005260206000200160009054906101000a900473ffffffffffffffffffffffffffffffffffffffff1673ffffffffffffffffffffffffffffffffffffffff168273ffffffffffffffffffffffffffffffffffffffff16145b9050919050565b60006200188382620017bc565b620018f6576040517f08c379a00000000000000000000000000000000000000000000000000000000081526004018080602001828103825260158152602001807f446f63746f7220646f65736e277420657869737421000000000000000000000081525060200191505060405180910390fd5b60036000808473ffffffffffffffffffffffffffffffffffffffff1673ffffffffffffffffffffffffffffffffffffffff16815260200190815260200160002054815481106200194257fe5b90600052602060002001549050919050565b6000620019618262001dd4565b620019d4576040517f08c379a00000000000000000000000000000000000000000000000000000000081526004018080602001828103825260168152602001807f43616e27742066696e642074686520446f63746f72210000000000000000000081525060200191505060405180910390fd5b6002600160008481526020019081526020016000205481548110620019f557fe5b9060005260206000200160009054906101000a900473ffffffffffffffffffffffffffffffffffffffff169050919050565b600062001a3433620017bc565b1562001aa8576040517f08c379a00000000000000000000000000000000000000000000000000000000081526004018080602001828103825260168152602001807f53656e646572206e6f7420617574686f72697a65642e0000000000000000000081525060200191505060405180910390fd5b62001ab38362001dd4565b1562001b27576040517f08c379a000000000000000000000000000000000000000000000000000000000815260040180806020018281038252601b8152602001807f446f63746f72206e616d6520686173206265656e2074616b656e2e000000000081525060200191505060405180910390fd5b828260405162001b379062001e1e565b8083815260200180602001828103825283818151815260200191508051906020019080838360005b8381101562001b7c57808201518184015260208101905062001b5f565b50505050905090810190601f16801562001baa5780820380516001836020036101000a031916815260200191505b509350505050604051809103906000f08015801562001bcd573d6000803e3d6000fd5b505060023390806001815401808255809150509060018203906000526020600020016000909192909190916101000a81548173ffffffffffffffffffffffffffffffffffffffff021916908373ffffffffffffffffffffffffffffffffffffffff160217905550506003839080600181540180825580915050906001820390600052602060002001600090919290919091505550600482908060018154018082558091505090600182039060005260206000200160009091929091909150908051906020019062001ca092919062001e2c565b50506001600280549050036000803373ffffffffffffffffffffffffffffffffffffffff1673ffffffffffffffffffffffffffffffffffffffff1681526020019081526020016000208190555060016002805490500360016000858152602001908152602001600020819055506001905092915050565b6000600280549050821062001d94576040517f08c379a00000000000000000000000000000000000000000000000000000000081526004018080602001828103825260138152602001807f496e646578206f7574206f6620626f756e64210000000000000000000000000081525060200191505060405180910390fd5b6002828154811062001da257fe5b9060005260206000200160009054906101000a900473ffffffffffffffffffffffffffffffffffffffff169050919050565b6000806001600084815260200190815260200160002054118062001e1757507f73656c660000000000000000000000000000000000000000000000000000000082145b9050919050565b6104108062001edc83390190565b828054600181600116156101000203166002900490600052602060002090601f016020900481019282601f1062001e6f57805160ff191683800117855562001ea0565b8280016001018555821562001ea0579182015b8281111562001e9f57825182559160200191906001019062001e82565b5b50905062001eaf919062001eb3565b5090565b62001ed891905b8082111562001ed457600081600090555060010162001eba565b5090565b9056fe608060405234801561001057600080fd5b506040516104103803806104108339818101604052604081101561003357600080fd5b81019080805190602001909291908051604051939291908464010000000082111561005d57600080fd5b8382019150602082018581111561007357600080fd5b825186600182028301116401000000008211171561009057600080fd5b8083526020830192505050908051906020019080838360005b838110156100c45780820151818401526020810190506100a9565b50505050905090810190601f1680156100f15780820380516001836020036101000a031916815260200191505b50604052505050336000806101000a81548173ffffffffffffffffffffffffffffffffffffffff021916908373ffffffffffffffffffffffffffffffffffffffff16021790555081600181905550806002908051906020019061015592919061015d565b505050610202565b828054600181600116156101000203166002900490600052602060002090601f016020900481019282601f1061019e57805160ff19168380011785556101cc565b828001600101855582156101cc579182015b828111156101cb5782518255916020019190600101906101b0565b5b5090506101d991906101dd565b5090565b6101ff91905b808211156101fb5760008160009055506001016101e3565b5090565b90565b6101ff806102116000396000f3fe608060405234801561001057600080fd5b506004361061002b5760003560e01c806314f5193014610030575b600080fd5b6100e96004803603602081101561004657600080fd5b810190808035906020019064010000000081111561006357600080fd5b82018360208201111561007557600080fd5b8035906020019184600183028401116401000000008311171561009757600080fd5b91908080601f016020809104026020016040519081016040528093929190818152602001838380828437600081840152601f19601f820116905080830192505050505050509192919290505050610103565b604051808215151515815260200191505060405180910390f35b6000816002908051906020019061011b929190610125565b5060019050919050565b828054600181600116156101000203166002900490600052602060002090601f016020900481019282601f1061016657805160ff1916838001178555610194565b82800160010185558215610194579182015b82811115610193578251825591602001919060010190610178565b5b5090506101a191906101a5565b5090565b6101c791905b808211156101c35760008160009055506001016101ab565b5090565b9056fea265627a7a72315820c8ab32c85ffac272a94548c488b5d5cf3f9223d1eabc42aac75cbd6c7478f65664736f6c63430005100032a265627a7a72315820438f64e3d7181347fcf433e8a097af434c0b23e241ae5d493778ac3aee05d72a64736f6c63430005100032",
  "source": "pragma solidity >=0.5.16;\nimport \"./Doctor.sol\";\n\ncontract DoctorStorage {\n   mapping(address => uint) private addressToIndex;\n   mapping(bytes32 => uint) private doctornameToIndex;\n   address[] private addresses;\n   bytes32[] private doctorUnames;\n   bytes[] private ipfsHashes;\n   Doctor p;\n\n   function registerDoctor(bytes32 DoctorName, bytes memory ipfsHash) public returns(bool) {\n     require(!hasDoctor(msg.sender),\n            \"Sender not authorized.\");\n     require(!DoctorNameTaken(DoctorName),\n            \"Doctor name has been taken.\");\n      new Doctor(DoctorName, ipfsHash);\n      addresses.push(msg.sender);\n      doctorUnames.push(DoctorName);\n      ipfsHashes.push(ipfsHash);\n      addressToIndex[msg.sender] = addresses.length - 1;\n      doctornameToIndex[DoctorName] = addresses.length - 1;\n      return true;\n   }\n\n   function hasDoctor(address _DoctorAdresses) public view returns(bool) {\n      return (addressToIndex[_DoctorAdresses] > 0 || _DoctorAdresses == addresses[0]);\n   }\n\n   function DoctorNameTaken(bytes32 pname) public view returns(bool takenIndeed) {\n      return (doctornameToIndex[pname] > 0 || pname == 'self');\n   }\n\n   function updateDoctor(bytes memory ipfsHash) public returns(bool){\n      require(!hasDoctor(msg.sender),\n            \"Sender not authorized.\");\n      p.updateDoctor(ipfsHash);\n      return true;\n   }\n\n   function getDoctorCount() public view returns(uint){\n      return addresses.length;\n   }\n\n   function getDoctorByIndex(uint index) public view returns(address,bytes32,bytes memory){\n      require((index < addresses.length),\n            \"Index out of bound!\");\n      return(addresses[index], doctorUnames[index], ipfsHashes[index]);\n   }\n\n   function getDoctorAddressByIndex(uint index) public view returns(address){\n      require((index < addresses.length),\n            \"Index out of bound!\");\n      return addresses[index];\n   }\n\n   function getDoctorNameByIndex(uint index) public view returns(bytes32){\n      require((index < addresses.length),\n            \"Index out of bound!\");\n      return doctorUnames[index];\n   }\n\n   function getDoctorIpfsHashByIndex(uint index) public view returns(bytes memory){\n      require((index < addresses.length),\n            \"Index out of bound!\");\n      return ipfsHashes[index];\n   }\n\n   function getDoctorByAddress(address DoctorAddress) public view returns(uint, bytes32, bytes memory){\n      require(hasDoctor(DoctorAddress),\n            \"Doctor doesn't exist!\");\n      return(addressToIndex[DoctorAddress], doctorUnames[addressToIndex[DoctorAddress]], ipfsHashes[addressToIndex[DoctorAddress]]);\n   }\n\n   function getDoctorIndexByAddress(address DoctorAddress) public view returns(uint){\n      require(hasDoctor(DoctorAddress),\n            \"Doctor doesn't exist!\");\n      return addressToIndex[DoctorAddress];\n   }\n\n   function getDoctorNameByAddress(address DoctorAddress) public view returns(bytes32){\n      require(hasDoctor(DoctorAddress),\n            \"Doctor doesn't exist!\");\n      return doctorUnames[addressToIndex[DoctorAddress]];\n   }\n\n   function getDoctorIpfsHashByAddress(address DoctorAddress) public view returns(bytes memory){\n      require(hasDoctor(DoctorAddress),\n            \"Doctor doesn't exist!\");\n      return ipfsHashes[addressToIndex[DoctorAddress]];\n   }\n\n   function getDoctorByDoctorName(bytes32 Doctorname) public view returns(uint,address,bytes memory){\n      require((doctornameToIndex[Doctorname] < addresses.length),\n            \"Doctor index out of bound!\");\n      return(doctornameToIndex[Doctorname], addresses[doctornameToIndex[Doctorname]], ipfsHashes[doctornameToIndex[Doctorname]]);\n   }\n\n   function getDoctorIndexByDoctorName(bytes32 Doctorname) public view returns(uint){\n      require((DoctorNameTaken(Doctorname)),\n            \"Can't find the Doctor!\");\n      return doctornameToIndex[Doctorname];\n   }\n\n   function getDoctorAddressByDoctorName(bytes32 Doctorname) public view returns(address){\n      require((DoctorNameTaken(Doctorname)),\n        \"Can't find the Doctor!\");\n      return addresses[doctornameToIndex[Doctorname]];\n   }\n\n   function getDoctorIpfsHashByDoctorName(bytes32 Doctorname) public view returns(bytes memory){\n      require((DoctorNameTaken(Doctorname)),\n            \"Can't find the Doctor!\");\n      return ipfsHashes[doctornameToIndex[Doctorname]];\n   }\n}",
  "sourcePath": "/home/eke/patient-eth-ipfs/contracts/DoctorStorage.sol",
  "compiler": {
    "name": "solc",
    "version": "0.5.16+commit.9c3226ce.Emscripten.clang"
  },
  "schemaVersion": "3.0.23",
  "updatedAt": "2020-04-12T12:22:00.636Z",
  "devdoc": {
    "methods": {}
  },
  "userdoc": {
    "methods": {}
  }
}