{
  "contractName": "MedicineStorage",
  "abi": [
    {
      "constant": true,
      "inputs": [
        {
          "internalType": "bytes32",
          "name": "mname",
          "type": "bytes32"
        }
      ],
      "name": "hasMedicine",
      "outputs": [
        {
          "internalType": "bool",
          "name": "",
          "type": "bool"
        }
      ],
      "payable": false,
      "stateMutability": "view",
      "type": "function"
    },
    {
      "constant": false,
      "inputs": [
        {
          "internalType": "bytes32",
          "name": "mname",
          "type": "bytes32"
        },
        {
          "internalType": "bytes",
          "name": "ipfsHash",
          "type": "bytes"
        }
      ],
      "name": "saveMedicine",
      "outputs": [
        {
          "internalType": "bool",
          "name": "",
          "type": "bool"
        }
      ],
      "payable": false,
      "stateMutability": "nonpayable",
      "type": "function"
    },
    {
      "constant": false,
      "inputs": [
        {
          "internalType": "bytes",
          "name": "ipfsHash",
          "type": "bytes"
        }
      ],
      "name": "updateMedicine",
      "outputs": [
        {
          "internalType": "bool",
          "name": "",
          "type": "bool"
        }
      ],
      "payable": false,
      "stateMutability": "nonpayable",
      "type": "function"
    },
    {
      "constant": true,
      "inputs": [],
      "name": "getMedicineCount",
      "outputs": [
        {
          "internalType": "uint256",
          "name": "",
          "type": "uint256"
        }
      ],
      "payable": false,
      "stateMutability": "view",
      "type": "function"
    },
    {
      "constant": true,
      "inputs": [
        {
          "internalType": "bytes32",
          "name": "mname",
          "type": "bytes32"
        }
      ],
      "name": "getMedicineByMedicinename",
      "outputs": [
        {
          "internalType": "contract Medicine",
          "name": "",
          "type": "address"
        }
      ],
      "payable": false,
      "stateMutability": "view",
      "type": "function"
    },
    {
      "constant": true,
      "inputs": [
        {
          "internalType": "uint256",
          "name": "index",
          "type": "uint256"
        }
      ],
      "name": "getMedicineByIndex",
      "outputs": [
        {
          "internalType": "bytes32",
          "name": "",
          "type": "bytes32"
        },
        {
          "internalType": "bytes",
          "name": "",
          "type": "bytes"
        }
      ],
      "payable": false,
      "stateMutability": "view",
      "type": "function"
    },
    {
      "constant": true,
      "inputs": [
        {
          "internalType": "uint256",
          "name": "index",
          "type": "uint256"
        }
      ],
      "name": "getMedicineNameByIndex",
      "outputs": [
        {
          "internalType": "bytes32",
          "name": "",
          "type": "bytes32"
        }
      ],
      "payable": false,
      "stateMutability": "view",
      "type": "function"
    },
    {
      "constant": true,
      "inputs": [
        {
          "internalType": "uint256",
          "name": "index",
          "type": "uint256"
        }
      ],
      "name": "getMedIpfsHashByIndex",
      "outputs": [
        {
          "internalType": "bytes",
          "name": "",
          "type": "bytes"
        }
      ],
      "payable": false,
      "stateMutability": "view",
      "type": "function"
    },
    {
      "constant": true,
      "inputs": [
        {
          "internalType": "bytes32",
          "name": "mname",
          "type": "bytes32"
        }
      ],
      "name": "getIpfsHashByMedicineName",
      "outputs": [
        {
          "internalType": "bytes",
          "name": "",
          "type": "bytes"
        }
      ],
      "payable": false,
      "stateMutability": "view",
      "type": "function"
    }
  ],
  "bytecode": "0x608060405234801561001057600080fd5b50611188806100206000396000f3fe608060405234801561001057600080fd5b50600436106100935760003560e01c8063a68a08a511610066578063a68a08a5146102d3578063abac50a41461037a578063cafd1346146103c0578063cc04a68514610493578063eadeb84c1461053a57610093565b80631e50b1821461009857806331db6fd514610146578063697d19ea1461018857806372869ff914610265575b600080fd5b6100c4600480360360208110156100ae57600080fd5b8101908080359060200190929190505050610558565b6040518083815260200180602001828103825283818151815260200191508051906020019080838360005b8381101561010a5780820151818401526020810190506100ef565b50505050905090810190601f1680156101375780820380516001836020036101000a031916815260200191505b50935050505060405180910390f35b6101726004803603602081101561015c57600080fd5b81019080803590602001909291905050506106aa565b6040518082815260200191505060405180910390f35b61024b6004803603604081101561019e57600080fd5b8101908080359060200190929190803590602001906401000000008111156101c557600080fd5b8201836020820111156101d757600080fd5b803590602001918460018302840111640100000000831117156101f957600080fd5b91908080601f016020809104026020016040519081016040528093929190818152602001838380828437600081840152601f19601f820116905080830192505050505050509192919290505050610744565b604051808215151515815260200191505060405180910390f35b6102916004803603602081101561027b57600080fd5b8101908080359060200190929190505050610949565b604051808273ffffffffffffffffffffffffffffffffffffffff1673ffffffffffffffffffffffffffffffffffffffff16815260200191505060405180910390f35b6102ff600480360360208110156102e957600080fd5b8101908080359060200190929190505050610986565b6040518080602001828103825283818151815260200191508051906020019080838360005b8381101561033f578082015181840152602081019050610324565b50505050905090810190601f16801561036c5780820380516001836020036101000a031916815260200191505b509250505060405180910390f35b6103a66004803603602081101561039057600080fd5b8101908080359060200190929190505050610a52565b604051808215151515815260200191505060405180910390f35b610479600480360360208110156103d657600080fd5b81019080803590602001906401000000008111156103f357600080fd5b82018360208201111561040557600080fd5b8035906020019184600183028401116401000000008311171561042757600080fd5b91908080601f016020809104026020016040519081016040528093929190818152602001838380828437600081840152601f19601f820116905080830192505050505050509192919290505050610a71565b604051808215151515815260200191505060405180910390f35b6104bf600480360360208110156104a957600080fd5b8101908080359060200190929190505050610b92565b6040518080602001828103825283818151815260200191508051906020019080838360005b838110156104ff5780820151818401526020810190506104e4565b50505050905090810190601f16801561052c5780820380516001836020036101000a031916815260200191505b509250505060405180910390f35b610542610cc5565b6040518082815260200191505060405180910390f35b6000606060008054905083106105d6576040517f08c379a00000000000000000000000000000000000000000000000000000000081526004018080602001828103825260138152602001807f496e646578206f7574206f6620626f756e64210000000000000000000000000081525060200191505060405180910390fd5b600083815481106105e357fe5b9060005260206000200154600184815481106105fb57fe5b90600052602060002001808054600181600116156101000203166002900480601f01602080910402602001604051908101604052809291908181526020018280546001816001161561010002031660029004801561069a5780601f1061066f5761010080835404028352916020019161069a565b820191906000526020600020905b81548152906001019060200180831161067d57829003601f168201915b5050505050905091509150915091565b600080805490508210610725576040517f08c379a00000000000000000000000000000000000000000000000000000000081526004018080602001828103825260138152602001807f496e646578206f7574206f6620626f756e64210000000000000000000000000081525060200191505060405180910390fd5b6000828154811061073257fe5b90600052602060002001549050919050565b600061074f83610a52565b156107c2576040517f08c379a00000000000000000000000000000000000000000000000000000000081526004018080602001828103825260188152602001807f4d65646963696e6520616c72656164792065786973747321000000000000000081525060200191505060405180910390fd5b82826040516107d090610cd1565b8083815260200180602001828103825283818151815260200191508051906020019080838360005b838110156108135780820151818401526020810190506107f8565b50505050905090810190601f1680156108405780820380516001836020036101000a031916815260200191505b509350505050604051809103906000f080158015610862573d6000803e3d6000fd5b506004600085815260200190815260200160002060006101000a81548173ffffffffffffffffffffffffffffffffffffffff021916908373ffffffffffffffffffffffffffffffffffffffff1602179055506000839080600181540180825580915050906001820390600052602060002001600090919290919091505550600182908060018154018082558091505090600182039060005260206000200160009091929091909150908051906020019061091d929190610cde565b505060016000805490500360026000858152602001908152602001600020819055506001905092915050565b60006004600083815260200190815260200160002060009054906101000a900473ffffffffffffffffffffffffffffffffffffffff169050919050565b606060016002600084815260200190815260200160002054815481106109a857fe5b906000526020600020018054600181600116156101000203166002900480601f016020809104026020016040519081016040528092919081815260200182805460018160011615610100020316600290048015610a465780601f10610a1b57610100808354040283529160200191610a46565b820191906000526020600020905b815481529060010190602001808311610a2957829003601f168201915b50505050509050919050565b6000806002600084815260200190815260200160002054119050919050565b6000600360009054906101000a900473ffffffffffffffffffffffffffffffffffffffff1673ffffffffffffffffffffffffffffffffffffffff1663cafd1346836040518263ffffffff1660e01b81526004018080602001828103825283818151815260200191508051906020019080838360005b83811015610b01578082015181840152602081019050610ae6565b50505050905090810190601f168015610b2e5780820380516001836020036101000a031916815260200191505b5092505050602060405180830381600087803b158015610b4d57600080fd5b505af1158015610b61573d6000803e3d6000fd5b505050506040513d6020811015610b7757600080fd5b81019080805190602001909291905050505060019050919050565b60606000805490508210610c0e576040517f08c379a00000000000000000000000000000000000000000000000000000000081526004018080602001828103825260138152602001807f496e646578206f7574206f6620626f756e64210000000000000000000000000081525060200191505060405180910390fd5b60018281548110610c1b57fe5b906000526020600020018054600181600116156101000203166002900480601f016020809104026020016040519081016040528092919081815260200182805460018160011615610100020316600290048015610cb95780601f10610c8e57610100808354040283529160200191610cb9565b820191906000526020600020905b815481529060010190602001808311610c9c57829003601f168201915b50505050509050919050565b60008080549050905090565b6103d080610d8483390190565b828054600181600116156101000203166002900490600052602060002090601f016020900481019282601f10610d1f57805160ff1916838001178555610d4d565b82800160010185558215610d4d579182015b82811115610d4c578251825591602001919060010190610d31565b5b509050610d5a9190610d5e565b5090565b610d8091905b80821115610d7c576000816000905550600101610d64565b5090565b9056fe608060405234801561001057600080fd5b506040516103d03803806103d08339818101604052604081101561003357600080fd5b81019080805190602001909291908051604051939291908464010000000082111561005d57600080fd5b8382019150602082018581111561007357600080fd5b825186600182028301116401000000008211171561009057600080fd5b8083526020830192505050908051906020019080838360005b838110156100c45780820151818401526020810190506100a9565b50505050905090810190601f1680156100f15780820380516001836020036101000a031916815260200191505b5060405250505081600081905550806001908051906020019061011592919061011d565b5050506101c2565b828054600181600116156101000203166002900490600052602060002090601f016020900481019282601f1061015e57805160ff191683800117855561018c565b8280016001018555821561018c579182015b8281111561018b578251825591602001919060010190610170565b5b509050610199919061019d565b5090565b6101bf91905b808211156101bb5760008160009055506001016101a3565b5090565b90565b6101ff806101d16000396000f3fe608060405234801561001057600080fd5b506004361061002b5760003560e01c8063cafd134614610030575b600080fd5b6100e96004803603602081101561004657600080fd5b810190808035906020019064010000000081111561006357600080fd5b82018360208201111561007557600080fd5b8035906020019184600183028401116401000000008311171561009757600080fd5b91908080601f016020809104026020016040519081016040528093929190818152602001838380828437600081840152601f19601f820116905080830192505050505050509192919290505050610103565b604051808215151515815260200191505060405180910390f35b6000816001908051906020019061011b929190610125565b5060019050919050565b828054600181600116156101000203166002900490600052602060002090601f016020900481019282601f1061016657805160ff1916838001178555610194565b82800160010185558215610194579182015b82811115610193578251825591602001919060010190610178565b5b5090506101a191906101a5565b5090565b6101c791905b808211156101c35760008160009055506001016101ab565b5090565b9056fea265627a7a723158203dd2c1dd8ad9175f14f6528f0d1a63e389a977bba4817c07d89f72be8959325c64736f6c63430005100032a265627a7a72315820dfba25c927cd85098ca8c412187e1a63b9078375dccc0ffeeb8a8fc18d14dc8b64736f6c63430005100032",
  "source": "pragma solidity >=0.5.16;\nimport \"./Medicine.sol\";\n\ncontract MedicineStorage{\n    bytes32[] private medicineNames;\n    bytes[] private medIpfsHash;\n    mapping(bytes32 => uint) private medicinenameToIndex;\n    Medicine m;\n    mapping(bytes32 => Medicine) private mednameToMedicine;\n\n\n    function hasMedicine(bytes32 mname) public view returns(bool) {\n        return (medicinenameToIndex[mname] > 0);\n     }\n    function saveMedicine(bytes32 mname, bytes memory ipfsHash) public returns(bool) {\n        require(!hasMedicine(mname),\n            \"Medicine already exists!\");\n        mednameToMedicine[mname] = new Medicine(mname, ipfsHash);\n        medicineNames.push(mname);\n        medIpfsHash.push(ipfsHash);\n        medicinenameToIndex[mname] = medicineNames.length - 1;\n        return true;\n     }\n    function updateMedicine(bytes memory ipfsHash) public returns(bool){\n      m.updateMedicine(ipfsHash);\n      return true;\n     }\n\n    function getMedicineCount() public view returns(uint){\n      return medicineNames.length;\n     }\n    function getMedicineByMedicinename(bytes32 mname) public view returns(Medicine){\n      return mednameToMedicine[mname];\n     }\n    function getMedicineByIndex(uint index) public view returns(bytes32,bytes memory){\n      require((index < medicineNames.length),\n            \"Index out of bound!\");\n      return(medicineNames[index], medIpfsHash[index]);\n     }\n\n\n\n    function getMedicineNameByIndex(uint index) public view returns(bytes32){\n      require((index < medicineNames.length),\n            \"Index out of bound!\");\n      return medicineNames[index];\n     }\n\n    function getMedIpfsHashByIndex(uint index) public view returns(bytes memory){\n      require((index < medicineNames.length),\n            \"Index out of bound!\");\n      return medIpfsHash[index];\n     }\n    function getIpfsHashByMedicineName(bytes32 mname) public view returns(bytes memory){\n       return medIpfsHash[medicinenameToIndex[mname]];\n     }\n}",
  "sourcePath": "/home/eke/patient-eth-ipfs/contracts/MedicineStorage.sol",
  "compiler": {
    "name": "solc",
    "version": "0.5.16+commit.9c3226ce.Emscripten.clang"
  },
  "schemaVersion": "3.0.23",
  "updatedAt": "2020-04-12T12:22:00.650Z",
  "devdoc": {
    "methods": {}
  },
  "userdoc": {
    "methods": {}
  }
}