{
  "contractName": "PatientStorage",
  "abi": [
    {
      "constant": false,
      "inputs": [
        {
          "internalType": "bytes32",
          "name": "patientName",
          "type": "bytes32"
        },
        {
          "internalType": "bytes",
          "name": "ipfsHash",
          "type": "bytes"
        }
      ],
      "name": "registerPatient",
      "outputs": [
        {
          "internalType": "bool",
          "name": "",
          "type": "bool"
        }
      ],
      "payable": false,
      "stateMutability": "nonpayable",
      "type": "function"
    },
    {
      "constant": true,
      "inputs": [
        {
          "internalType": "address",
          "name": "_patientAdresses",
          "type": "address"
        }
      ],
      "name": "hasPatient",
      "outputs": [
        {
          "internalType": "bool",
          "name": "",
          "type": "bool"
        }
      ],
      "payable": false,
      "stateMutability": "view",
      "type": "function"
    },
    {
      "constant": true,
      "inputs": [
        {
          "internalType": "bytes32",
          "name": "pname",
          "type": "bytes32"
        }
      ],
      "name": "patientNameTaken",
      "outputs": [
        {
          "internalType": "bool",
          "name": "takenIndeed",
          "type": "bool"
        }
      ],
      "payable": false,
      "stateMutability": "view",
      "type": "function"
    },
    {
      "constant": false,
      "inputs": [
        {
          "internalType": "bytes",
          "name": "ipfsHash",
          "type": "bytes"
        }
      ],
      "name": "updatePatient",
      "outputs": [
        {
          "internalType": "bool",
          "name": "",
          "type": "bool"
        }
      ],
      "payable": false,
      "stateMutability": "nonpayable",
      "type": "function"
    },
    {
      "constant": true,
      "inputs": [],
      "name": "getPatientCount",
      "outputs": [
        {
          "internalType": "uint256",
          "name": "",
          "type": "uint256"
        }
      ],
      "payable": false,
      "stateMutability": "view",
      "type": "function"
    },
    {
      "constant": true,
      "inputs": [
        {
          "internalType": "bytes32",
          "name": "_pname",
          "type": "bytes32"
        }
      ],
      "name": "getPatientByPatientname",
      "outputs": [
        {
          "internalType": "contract Patient",
          "name": "",
          "type": "address"
        }
      ],
      "payable": false,
      "stateMutability": "view",
      "type": "function"
    },
    {
      "constant": true,
      "inputs": [
        {
          "internalType": "uint256",
          "name": "index",
          "type": "uint256"
        }
      ],
      "name": "getPatientByIndex",
      "outputs": [
        {
          "internalType": "address",
          "name": "",
          "type": "address"
        },
        {
          "internalType": "bytes32",
          "name": "",
          "type": "bytes32"
        },
        {
          "internalType": "bytes",
          "name": "",
          "type": "bytes"
        }
      ],
      "payable": false,
      "stateMutability": "view",
      "type": "function"
    },
    {
      "constant": true,
      "inputs": [
        {
          "internalType": "uint256",
          "name": "index",
          "type": "uint256"
        }
      ],
      "name": "getAddressByIndex",
      "outputs": [
        {
          "internalType": "address",
          "name": "",
          "type": "address"
        }
      ],
      "payable": false,
      "stateMutability": "view",
      "type": "function"
    },
    {
      "constant": true,
      "inputs": [
        {
          "internalType": "uint256",
          "name": "index",
          "type": "uint256"
        }
      ],
      "name": "getPatientNameByIndex",
      "outputs": [
        {
          "internalType": "bytes32",
          "name": "",
          "type": "bytes32"
        }
      ],
      "payable": false,
      "stateMutability": "view",
      "type": "function"
    },
    {
      "constant": true,
      "inputs": [
        {
          "internalType": "uint256",
          "name": "index",
          "type": "uint256"
        }
      ],
      "name": "getIpfsHashByIndex",
      "outputs": [
        {
          "internalType": "bytes",
          "name": "",
          "type": "bytes"
        }
      ],
      "payable": false,
      "stateMutability": "view",
      "type": "function"
    },
    {
      "constant": true,
      "inputs": [
        {
          "internalType": "address",
          "name": "patientAddress",
          "type": "address"
        }
      ],
      "name": "getPatientByAddress",
      "outputs": [
        {
          "internalType": "uint256",
          "name": "",
          "type": "uint256"
        },
        {
          "internalType": "bytes32",
          "name": "",
          "type": "bytes32"
        },
        {
          "internalType": "bytes",
          "name": "",
          "type": "bytes"
        }
      ],
      "payable": false,
      "stateMutability": "view",
      "type": "function"
    },
    {
      "constant": true,
      "inputs": [
        {
          "internalType": "address",
          "name": "patientAddress",
          "type": "address"
        }
      ],
      "name": "getIndexByAddress",
      "outputs": [
        {
          "internalType": "uint256",
          "name": "",
          "type": "uint256"
        }
      ],
      "payable": false,
      "stateMutability": "view",
      "type": "function"
    },
    {
      "constant": true,
      "inputs": [
        {
          "internalType": "address",
          "name": "patientAddress",
          "type": "address"
        }
      ],
      "name": "getPatientNameByAddress",
      "outputs": [
        {
          "internalType": "bytes32",
          "name": "",
          "type": "bytes32"
        }
      ],
      "payable": false,
      "stateMutability": "view",
      "type": "function"
    },
    {
      "constant": true,
      "inputs": [
        {
          "internalType": "address",
          "name": "patientAddress",
          "type": "address"
        }
      ],
      "name": "getIpfsHashByAddress",
      "outputs": [
        {
          "internalType": "bytes",
          "name": "",
          "type": "bytes"
        }
      ],
      "payable": false,
      "stateMutability": "view",
      "type": "function"
    },
    {
      "constant": true,
      "inputs": [
        {
          "internalType": "bytes32",
          "name": "patientname",
          "type": "bytes32"
        }
      ],
      "name": "getPatientByPatientName",
      "outputs": [
        {
          "internalType": "uint256",
          "name": "",
          "type": "uint256"
        },
        {
          "internalType": "address",
          "name": "",
          "type": "address"
        },
        {
          "internalType": "bytes",
          "name": "",
          "type": "bytes"
        }
      ],
      "payable": false,
      "stateMutability": "view",
      "type": "function"
    },
    {
      "constant": true,
      "inputs": [
        {
          "internalType": "bytes32",
          "name": "patientname",
          "type": "bytes32"
        }
      ],
      "name": "getIndexByPatientName",
      "outputs": [
        {
          "internalType": "uint256",
          "name": "",
          "type": "uint256"
        }
      ],
      "payable": false,
      "stateMutability": "view",
      "type": "function"
    },
    {
      "constant": true,
      "inputs": [
        {
          "internalType": "bytes32",
          "name": "patientname",
          "type": "bytes32"
        }
      ],
      "name": "getAddressByPatientName",
      "outputs": [
        {
          "internalType": "address",
          "name": "",
          "type": "address"
        }
      ],
      "payable": false,
      "stateMutability": "view",
      "type": "function"
    },
    {
      "constant": true,
      "inputs": [
        {
          "internalType": "bytes32",
          "name": "patientname",
          "type": "bytes32"
        }
      ],
      "name": "getIpfsHashByPatientName",
      "outputs": [
        {
          "internalType": "bytes",
          "name": "",
          "type": "bytes"
        }
      ],
      "payable": false,
      "stateMutability": "view",
      "type": "function"
    },
    {
      "constant": false,
      "inputs": [
        {
          "internalType": "bytes32",
          "name": "_pname",
          "type": "bytes32"
        },
        {
          "internalType": "bytes32",
          "name": "_consulDateID",
          "type": "bytes32"
        },
        {
          "internalType": "bytes",
          "name": "newPatientIpfs",
          "type": "bytes"
        }
      ],
      "name": "consultationCreate",
      "outputs": [
        {
          "internalType": "bool",
          "name": "",
          "type": "bool"
        }
      ],
      "payable": false,
      "stateMutability": "nonpayable",
      "type": "function"
    },
    {
      "constant": true,
      "inputs": [
        {
          "internalType": "uint256",
          "name": "_index",
          "type": "uint256"
        }
      ],
      "name": "getConsultationByConsultationIndex",
      "outputs": [
        {
          "internalType": "bytes32",
          "name": "consulID",
          "type": "bytes32"
        }
      ],
      "payable": false,
      "stateMutability": "view",
      "type": "function"
    },
    {
      "constant": true,
      "inputs": [
        {
          "internalType": "bytes32",
          "name": "_consulDateID",
          "type": "bytes32"
        }
      ],
      "name": "getConsultationIndexByConsultationID",
      "outputs": [
        {
          "internalType": "uint256",
          "name": "",
          "type": "uint256"
        }
      ],
      "payable": false,
      "stateMutability": "view",
      "type": "function"
    },
    {
      "constant": true,
      "inputs": [
        {
          "internalType": "bytes32",
          "name": "_pname",
          "type": "bytes32"
        }
      ],
      "name": "getConsultationsByPatientName",
      "outputs": [
        {
          "internalType": "bytes32[]",
          "name": "",
          "type": "bytes32[]"
        }
      ],
      "payable": false,
      "stateMutability": "view",
      "type": "function"
    },
    {
      "constant": true,
      "inputs": [
        {
          "internalType": "address",
          "name": "patientAddress",
          "type": "address"
        }
      ],
      "name": "getConsultationsByPatientAddress",
      "outputs": [
        {
          "internalType": "bytes32[]",
          "name": "",
          "type": "bytes32[]"
        }
      ],
      "payable": false,
      "stateMutability": "view",
      "type": "function"
    },
    {
      "constant": false,
      "inputs": [
        {
          "internalType": "bytes32",
          "name": "_pname",
          "type": "bytes32"
        },
        {
          "internalType": "bytes32",
          "name": "_testDateID",
          "type": "bytes32"
        },
        {
          "internalType": "bytes",
          "name": "newPatientIpfs",
          "type": "bytes"
        }
      ],
      "name": "testCreate",
      "outputs": [
        {
          "internalType": "bool",
          "name": "",
          "type": "bool"
        }
      ],
      "payable": false,
      "stateMutability": "nonpayable",
      "type": "function"
    },
    {
      "constant": true,
      "inputs": [
        {
          "internalType": "uint256",
          "name": "_index",
          "type": "uint256"
        }
      ],
      "name": "getTestByTestIndex",
      "outputs": [
        {
          "internalType": "bytes32",
          "name": "testID",
          "type": "bytes32"
        }
      ],
      "payable": false,
      "stateMutability": "view",
      "type": "function"
    },
    {
      "constant": true,
      "inputs": [
        {
          "internalType": "bytes32",
          "name": "_testDateID",
          "type": "bytes32"
        }
      ],
      "name": "getTestIndexByTestID",
      "outputs": [
        {
          "internalType": "uint256",
          "name": "",
          "type": "uint256"
        }
      ],
      "payable": false,
      "stateMutability": "view",
      "type": "function"
    },
    {
      "constant": true,
      "inputs": [
        {
          "internalType": "bytes32",
          "name": "_pname",
          "type": "bytes32"
        }
      ],
      "name": "getTestsByPatientName",
      "outputs": [
        {
          "internalType": "bytes32[]",
          "name": "",
          "type": "bytes32[]"
        }
      ],
      "payable": false,
      "stateMutability": "view",
      "type": "function"
    },
    {
      "constant": true,
      "inputs": [
        {
          "internalType": "address",
          "name": "patientAddress",
          "type": "address"
        }
      ],
      "name": "getTestsByPatientAddress",
      "outputs": [
        {
          "internalType": "bytes32[]",
          "name": "",
          "type": "bytes32[]"
        }
      ],
      "payable": false,
      "stateMutability": "view",
      "type": "function"
    },
    {
      "constant": true,
      "inputs": [],
      "name": "getTestsCount",
      "outputs": [
        {
          "internalType": "uint256",
          "name": "",
          "type": "uint256"
        }
      ],
      "payable": false,
      "stateMutability": "view",
      "type": "function"
    },
    {
      "constant": false,
      "inputs": [
        {
          "internalType": "bytes32",
          "name": "mname",
          "type": "bytes32"
        }
      ],
      "name": "saveMedicineForPatientUse",
      "outputs": [
        {
          "internalType": "bool",
          "name": "",
          "type": "bool"
        }
      ],
      "payable": false,
      "stateMutability": "nonpayable",
      "type": "function"
    },
    {
      "constant": true,
      "inputs": [],
      "name": "getMedicinesFromConsultation",
      "outputs": [
        {
          "internalType": "bytes32[]",
          "name": "",
          "type": "bytes32[]"
        }
      ],
      "payable": false,
      "stateMutability": "view",
      "type": "function"
    }
  ],
  "bytecode": "0x608060405234801561001057600080fd5b506146fb806100206000396000f3fe60806040523480156200001157600080fd5b5060043610620002145760003560e01c80637448d8d81162000129578063b9affb9311620000b1578063ce10cf88116200007b578063ce10cf881462000795578063dfb7ab6014620007cb578063eb9fbaa91462000801578063f7932fb014620008375762000214565b8063b9affb9314620006cf578063ba5c03351462000705578063c190665b146200073d578063cbb7e2ff146200075f5762000214565b80639b9fc6e011620000f35780639b9fc6e014620005f5578063a74380a6146200062b578063ad36054b1462000661578063b1d5458d14620006995762000214565b80637448d8d8146200053157806377e4afe414620005675780637b63cec4146200058957806394e7ef6e14620005bf5762000214565b806345cfa71d11620001ad578063624a4dac1162000177578063624a4dac146200046d57806368761954146200048f5780636cfbc8fd14620004c55780637427525514620004fb5762000214565b806345cfa71d14620003935780635035cf5214620003c9578063511ad52214620003ff57806357ea0c2f14620004355762000214565b8063234c161811620001ef578063234c161814620002bb57806329f78d8814620002f15780632dce4167146200032757806330ca739b146200035d5762000214565b80630b8d6eae14620002195780631973ef91146200024f5780631f97c4c31462000285575b600080fd5b62000237600480360362000231919081019062002489565b6200086d565b604051620002469190620029fc565b60405180910390f35b6200026d600480360362000267919081019062002489565b6200092c565b6040516200027c919062002bdf565b60405180910390f35b620002a360048036036200029d919081019062002526565b620009c1565b604051620002b2919062002a20565b60405180910390f35b620002d96004803603620002d3919081019062002526565b62000a7d565b604051620002e8919062002bdf565b60405180910390f35b6200030f60048036036200030991908101906200268c565b62000b37565b6040516200031e919062002ad2565b60405180910390f35b6200034560048036036200033f919081019062002526565b62000c3f565b60405162000354919062002bdf565b60405180910390f35b6200037b600480360362000375919081019062002489565b62000cf9565b6040516200038a9190620029fc565b60405180910390f35b620003b16004803603620003ab919081019062002526565b62000db8565b604051620003c09190620029fc565b60405180910390f35b620003e76004803603620003e191908101906200257e565b62000e77565b604051620003f6919062002a20565b60405180910390f35b6200041d60048036036200041791908101906200268c565b62000f39565b6040516200042c919062002a3d565b60405180910390f35b6200045360048036036200044d91908101906200268c565b62000ff3565b6040516200046493929190620029b8565b60405180910390f35b6200047762001159565b60405162000486919062002bdf565b60405180910390f35b620004ad6004803603620004a79190810190620025ed565b62001204565b604051620004bc919062002a20565b60405180910390f35b620004e36004803603620004dd919081019062002526565b62001476565b604051620004f291906200299b565b60405180910390f35b6200051960048036036200051391908101906200257e565b62001518565b60405162000528919062002a20565b60405180910390f35b6200054f600480360362000549919081019062002526565b620015da565b6040516200055e9190620029fc565b60405180910390f35b6200057162001699565b604051620005809190620029fc565b60405180910390f35b620005a76004803603620005a1919081019062002526565b62001749565b604051620005b6919062002a20565b60405180910390f35b620005dd6004803603620005d7919081019062002647565b62001793565b604051620005ec919062002a20565b60405180910390f35b6200061360048036036200060d91908101906200268c565b620018a0565b60405162000622919062002a3d565b60405180910390f35b62000649600480360362000643919081019062002489565b6200195a565b60405162000658919062002ad2565b60405180910390f35b6200067f600480360362000679919081019062002526565b62001aa3565b604051620006909392919062002bfc565b60405180910390f35b620006b76004803603620006b1919081019062002526565b62001c3d565b604051620006c6919062002bdf565b60405180910390f35b620006ed6004803603620006e7919081019062002489565b62001ca7565b604051620006fc919062002a3d565b60405180910390f35b6200072360048036036200071d919081019062002489565b62001d54565b604051620007349392919062002c40565b60405180910390f35b6200074762001f3f565b60405162000756919062002bdf565b60405180910390f35b6200077d60048036036200077791908101906200268c565b62001f4c565b6040516200078c919062002a3d565b60405180910390f35b620007b36004803603620007ad91908101906200268c565b62001fb8565b604051620007c291906200299b565b60405180910390f35b620007e96004803603620007e3919081019062002526565b62002044565b604051620007f8919062002ad2565b60405180910390f35b6200081f600480360362000819919081019062002489565b62002162565b6040516200082e919062002a20565b60405180910390f35b6200085560048036036200084f919081019062002526565b6200221c565b60405162000864919062002af6565b60405180910390f35b6060600560009054906101000a900473ffffffffffffffffffffffffffffffffffffffff1673ffffffffffffffffffffffffffffffffffffffff16630b8d6eae836040518263ffffffff1660e01b8152600401620008cc91906200299b565b60006040518083038186803b158015620008e557600080fd5b505afa158015620008fa573d6000803e3d6000fd5b505050506040513d6000823e3d601f19601f82011682018060405250620009259190810190620024b5565b9050919050565b6000620009398262002162565b6200097b576040517f08c379a0000000000000000000000000000000000000000000000000000000008152600401620009729062002b13565b60405180910390fd5b6000808373ffffffffffffffffffffffffffffffffffffffff1673ffffffffffffffffffffffffffffffffffffffff168152602001908152602001600020549050919050565b6000600560009054906101000a900473ffffffffffffffffffffffffffffffffffffffff1673ffffffffffffffffffffffffffffffffffffffff16631f97c4c3836040518263ffffffff1660e01b815260040162000a20919062002a3d565b602060405180830381600087803b15801562000a3b57600080fd5b505af115801562000a50573d6000803e3d6000fd5b505050506040513d601f19601f8201168201806040525062000a769190810190620024fa565b9050919050565b6000600560009054906101000a900473ffffffffffffffffffffffffffffffffffffffff1673ffffffffffffffffffffffffffffffffffffffff1663234c1618836040518263ffffffff1660e01b815260040162000adc919062002a3d565b60206040518083038186803b15801562000af557600080fd5b505afa15801562000b0a573d6000803e3d6000fd5b505050506040513d601f19601f8201168201806040525062000b309190810190620026b8565b9050919050565b6060600280549050821062000b83576040517f08c379a000000000000000000000000000000000000000000000000000000000815260040162000b7a9062002b9b565b60405180910390fd5b6004828154811062000b9157fe5b906000526020600020018054600181600116156101000203166002900480601f01602080910402602001604051908101604052809291908181526020018280546001816001161561010002031660029004801562000c335780601f1062000c075761010080835404028352916020019162000c33565b820191906000526020600020905b81548152906001019060200180831162000c1557829003601f168201915b50505050509050919050565b6000600560009054906101000a900473ffffffffffffffffffffffffffffffffffffffff1673ffffffffffffffffffffffffffffffffffffffff16632dce4167836040518263ffffffff1660e01b815260040162000c9e919062002a3d565b60206040518083038186803b15801562000cb757600080fd5b505afa15801562000ccc573d6000803e3d6000fd5b505050506040513d601f19601f8201168201806040525062000cf29190810190620026b8565b9050919050565b6060600560009054906101000a900473ffffffffffffffffffffffffffffffffffffffff1673ffffffffffffffffffffffffffffffffffffffff166330ca739b836040518263ffffffff1660e01b815260040162000d5891906200299b565b60006040518083038186803b15801562000d7157600080fd5b505afa15801562000d86573d6000803e3d6000fd5b505050506040513d6000823e3d601f19601f8201168201806040525062000db19190810190620024b5565b9050919050565b6060600560009054906101000a900473ffffffffffffffffffffffffffffffffffffffff1673ffffffffffffffffffffffffffffffffffffffff166345cfa71d836040518263ffffffff1660e01b815260040162000e17919062002a3d565b60006040518083038186803b15801562000e3057600080fd5b505afa15801562000e45573d6000803e3d6000fd5b505050506040513d6000823e3d601f19601f8201168201806040525062000e709190810190620024b5565b9050919050565b6000600560009054906101000a900473ffffffffffffffffffffffffffffffffffffffff1673ffffffffffffffffffffffffffffffffffffffff16635035cf528585856040518463ffffffff1660e01b815260040162000eda9392919062002a5a565b602060405180830381600087803b15801562000ef557600080fd5b505af115801562000f0a573d6000803e3d6000fd5b505050506040513d601f19601f8201168201806040525062000f309190810190620024fa565b90509392505050565b6000600560009054906101000a900473ffffffffffffffffffffffffffffffffffffffff1673ffffffffffffffffffffffffffffffffffffffff1663511ad522836040518263ffffffff1660e01b815260040162000f98919062002bdf565b60206040518083038186803b15801562000fb157600080fd5b505afa15801562000fc6573d6000803e3d6000fd5b505050506040513d601f19601f8201168201806040525062000fec919081019062002552565b9050919050565b6000806060600280549050841062001042576040517f08c379a0000000000000000000000000000000000000000000000000000000008152600401620010399062002b9b565b60405180910390fd5b600284815481106200105057fe5b9060005260206000200160009054906101000a900473ffffffffffffffffffffffffffffffffffffffff16600385815481106200108957fe5b906000526020600020015460048681548110620010a257fe5b90600052602060002001808054600181600116156101000203166002900480601f016020809104026020016040519081016040528092919081815260200182805460018160011615610100020316600290048015620011455780601f10620011195761010080835404028352916020019162001145565b820191906000526020600020905b8154815290600101906020018083116200112757829003601f168201915b505050505090509250925092509193909250565b6000600560009054906101000a900473ffffffffffffffffffffffffffffffffffffffff1673ffffffffffffffffffffffffffffffffffffffff1663624a4dac6040518163ffffffff1660e01b815260040160206040518083038186803b158015620011c457600080fd5b505afa158015620011d9573d6000803e3d6000fd5b505050506040513d601f19601f82011682018060405250620011ff9190810190620026b8565b905090565b6000620012113362002162565b1562001254576040517f08c379a00000000000000000000000000000000000000000000000000000000081526004016200124b9062002bbd565b60405180910390fd5b6200125f8362001749565b15620012a2576040517f08c379a0000000000000000000000000000000000000000000000000000000008152600401620012999062002b57565b60405180910390fd5b8282604051620012b29062002259565b620012bf92919062002a9e565b604051809103906000f080158015620012dc573d6000803e3d6000fd5b506006600085815260200190815260200160002060006101000a81548173ffffffffffffffffffffffffffffffffffffffff021916908373ffffffffffffffffffffffffffffffffffffffff16021790555060023390806001815401808255809150509060018203906000526020600020016000909192909190916101000a81548173ffffffffffffffffffffffffffffffffffffffff021916908373ffffffffffffffffffffffffffffffffffffffff1602179055505060038390806001815401808255809150509060018203906000526020600020016000909192909190915055506004829080600181540180825580915050906001820390600052602060002001600090919290919091509080519060200190620013ff92919062002267565b50506001600280549050036000803373ffffffffffffffffffffffffffffffffffffffff1673ffffffffffffffffffffffffffffffffffffffff1681526020019081526020016000208190555060016002805490500360016000858152602001908152602001600020819055506001905092915050565b6000620014838262001749565b620014c5576040517f08c379a0000000000000000000000000000000000000000000000000000000008152600401620014bc9062002b35565b60405180910390fd5b6002600160008481526020019081526020016000205481548110620014e657fe5b9060005260206000200160009054906101000a900473ffffffffffffffffffffffffffffffffffffffff169050919050565b6000600560009054906101000a900473ffffffffffffffffffffffffffffffffffffffff1673ffffffffffffffffffffffffffffffffffffffff1663742752558585856040518463ffffffff1660e01b81526004016200157b9392919062002a5a565b602060405180830381600087803b1580156200159657600080fd5b505af1158015620015ab573d6000803e3d6000fd5b505050506040513d601f19601f82011682018060405250620015d19190810190620024fa565b90509392505050565b6060600560009054906101000a900473ffffffffffffffffffffffffffffffffffffffff1673ffffffffffffffffffffffffffffffffffffffff16637448d8d8836040518263ffffffff1660e01b815260040162001639919062002a3d565b60006040518083038186803b1580156200165257600080fd5b505afa15801562001667573d6000803e3d6000fd5b505050506040513d6000823e3d601f19601f82011682018060405250620016929190810190620024b5565b9050919050565b6060600560009054906101000a900473ffffffffffffffffffffffffffffffffffffffff1673ffffffffffffffffffffffffffffffffffffffff166377e4afe46040518163ffffffff1660e01b815260040160006040518083038186803b1580156200170457600080fd5b505afa15801562001719573d6000803e3d6000fd5b505050506040513d6000823e3d601f19601f82011682018060405250620017449190810190620024b5565b905090565b600080600160008481526020019081526020016000205411806200178c57507f73656c660000000000000000000000000000000000000000000000000000000082145b9050919050565b6000620017a03362002162565b15620017e3576040517f08c379a0000000000000000000000000000000000000000000000000000000008152600401620017da9062002bbd565b60405180910390fd5b600560009054906101000a900473ffffffffffffffffffffffffffffffffffffffff1673ffffffffffffffffffffffffffffffffffffffff166394e7ef6e836040518263ffffffff1660e01b815260040162001840919062002ad2565b602060405180830381600087803b1580156200185b57600080fd5b505af115801562001870573d6000803e3d6000fd5b505050506040513d601f19601f82011682018060405250620018969190810190620024fa565b5060019050919050565b6000600560009054906101000a900473ffffffffffffffffffffffffffffffffffffffff1673ffffffffffffffffffffffffffffffffffffffff16639b9fc6e0836040518263ffffffff1660e01b8152600401620018ff919062002bdf565b60206040518083038186803b1580156200191857600080fd5b505afa1580156200192d573d6000803e3d6000fd5b505050506040513d601f19601f8201168201806040525062001953919081019062002552565b9050919050565b6060620019678262002162565b620019a9576040517f08c379a0000000000000000000000000000000000000000000000000000000008152600401620019a09062002b13565b60405180910390fd5b60046000808473ffffffffffffffffffffffffffffffffffffffff1673ffffffffffffffffffffffffffffffffffffffff1681526020019081526020016000205481548110620019f557fe5b906000526020600020018054600181600116156101000203166002900480601f01602080910402602001604051908101604052809291908181526020018280546001816001161561010002031660029004801562001a975780601f1062001a6b5761010080835404028352916020019162001a97565b820191906000526020600020905b81548152906001019060200180831162001a7957829003601f168201915b50505050509050919050565b600080606060028054905060016000868152602001908152602001600020541062001b05576040517f08c379a000000000000000000000000000000000000000000000000000000000815260040162001afc9062002b79565b60405180910390fd5b6001600085815260200190815260200160002054600260016000878152602001908152602001600020548154811062001b3a57fe5b9060005260206000200160009054906101000a900473ffffffffffffffffffffffffffffffffffffffff16600460016000888152602001908152602001600020548154811062001b8657fe5b90600052602060002001808054600181600116156101000203166002900480601f01602080910402602001604051908101604052809291908181526020018280546001816001161561010002031660029004801562001c295780601f1062001bfd5761010080835404028352916020019162001c29565b820191906000526020600020905b81548152906001019060200180831162001c0b57829003601f168201915b505050505090509250925092509193909250565b600062001c4a8262001749565b62001c8c576040517f08c379a000000000000000000000000000000000000000000000000000000000815260040162001c839062002b35565b60405180910390fd5b60016000838152602001908152602001600020549050919050565b600062001cb48262002162565b62001cf6576040517f08c379a000000000000000000000000000000000000000000000000000000000815260040162001ced9062002b13565b60405180910390fd5b60036000808473ffffffffffffffffffffffffffffffffffffffff1673ffffffffffffffffffffffffffffffffffffffff168152602001908152602001600020548154811062001d4257fe5b90600052602060002001549050919050565b600080606062001d648462002162565b62001da6576040517f08c379a000000000000000000000000000000000000000000000000000000000815260040162001d9d9062002b13565b60405180910390fd5b6000808573ffffffffffffffffffffffffffffffffffffffff1673ffffffffffffffffffffffffffffffffffffffff1681526020019081526020016000205460036000808773ffffffffffffffffffffffffffffffffffffffff1673ffffffffffffffffffffffffffffffffffffffff168152602001908152602001600020548154811062001e3157fe5b906000526020600020015460046000808873ffffffffffffffffffffffffffffffffffffffff1673ffffffffffffffffffffffffffffffffffffffff168152602001908152602001600020548154811062001e8857fe5b90600052602060002001808054600181600116156101000203166002900480601f01602080910402602001604051908101604052809291908181526020018280546001816001161561010002031660029004801562001f2b5780601f1062001eff5761010080835404028352916020019162001f2b565b820191906000526020600020905b81548152906001019060200180831162001f0d57829003601f168201915b505050505090509250925092509193909250565b6000600280549050905090565b6000600280549050821062001f98576040517f08c379a000000000000000000000000000000000000000000000000000000000815260040162001f8f9062002b9b565b60405180910390fd5b6003828154811062001fa657fe5b90600052602060002001549050919050565b6000600280549050821062002004576040517f08c379a000000000000000000000000000000000000000000000000000000000815260040162001ffb9062002b9b565b60405180910390fd5b600282815481106200201257fe5b9060005260206000200160009054906101000a900473ffffffffffffffffffffffffffffffffffffffff169050919050565b6060620020518262001749565b62002093576040517f08c379a00000000000000000000000000000000000000000000000000000000081526004016200208a9062002b35565b60405180910390fd5b6004600160008481526020019081526020016000205481548110620020b457fe5b906000526020600020018054600181600116156101000203166002900480601f016020809104026020016040519081016040528092919081815260200182805460018160011615610100020316600290048015620021565780601f106200212a5761010080835404028352916020019162002156565b820191906000526020600020905b8154815290600101906020018083116200213857829003601f168201915b50505050509050919050565b6000806000808473ffffffffffffffffffffffffffffffffffffffff1673ffffffffffffffffffffffffffffffffffffffff1681526020019081526020016000205411806200221557506002600081548110620021bb57fe5b9060005260206000200160009054906101000a900473ffffffffffffffffffffffffffffffffffffffff1673ffffffffffffffffffffffffffffffffffffffff168273ffffffffffffffffffffffffffffffffffffffff16145b9050919050565b60006006600083815260200190815260200160002060009054906101000a900473ffffffffffffffffffffffffffffffffffffffff169050919050565b6118108062002ea983390190565b828054600181600116156101000203166002900490600052602060002090601f016020900481019282601f10620022aa57805160ff1916838001178555620022db565b82800160010185558215620022db579182015b82811115620022da578251825591602001919060010190620022bd565b5b509050620022ea9190620022ee565b5090565b6200231391905b808211156200230f576000816000905550600101620022f5565b5090565b90565b600081359050620023278162002e40565b92915050565b600082601f8301126200233f57600080fd5b815162002356620023508262002cb2565b62002c84565b915081818352602084019350602081019050838560208402820111156200237c57600080fd5b60005b83811015620023b05781620023958882620023e8565b8452602084019350602083019250506001810190506200237f565b5050505092915050565b600081519050620023cb8162002e5a565b92915050565b600081359050620023e28162002e74565b92915050565b600081519050620023f98162002e74565b92915050565b600082601f8301126200241157600080fd5b813562002428620024228262002cdb565b62002c84565b915080825260208301602083018583830111156200244557600080fd5b6200245283828462002dea565b50505092915050565b6000813590506200246c8162002e8e565b92915050565b600081519050620024838162002e8e565b92915050565b6000602082840312156200249c57600080fd5b6000620024ac8482850162002316565b91505092915050565b600060208284031215620024c857600080fd5b600082015167ffffffffffffffff811115620024e357600080fd5b620024f1848285016200232d565b91505092915050565b6000602082840312156200250d57600080fd5b60006200251d84828501620023ba565b91505092915050565b6000602082840312156200253957600080fd5b60006200254984828501620023d1565b91505092915050565b6000602082840312156200256557600080fd5b60006200257584828501620023e8565b91505092915050565b6000806000606084860312156200259457600080fd5b6000620025a486828701620023d1565b9350506020620025b786828701620023d1565b925050604084013567ffffffffffffffff811115620025d557600080fd5b620025e386828701620023ff565b9150509250925092565b600080604083850312156200260157600080fd5b60006200261185828601620023d1565b925050602083013567ffffffffffffffff8111156200262f57600080fd5b6200263d85828601620023ff565b9150509250929050565b6000602082840312156200265a57600080fd5b600082013567ffffffffffffffff8111156200267557600080fd5b6200268384828501620023ff565b91505092915050565b6000602082840312156200269f57600080fd5b6000620026af848285016200245b565b91505092915050565b600060208284031215620026cb57600080fd5b6000620026db8482850162002472565b91505092915050565b6000620026f283836200278a565b60208301905092915050565b620027098162002d6e565b82525050565b60006200271c8262002d18565b62002728818562002d3b565b9350620027358362002d08565b8060005b838110156200276c578151620027508882620026e4565b97506200275d8362002d2e565b92505060018101905062002739565b5085935050505092915050565b620027848162002d82565b82525050565b620027958162002d8e565b82525050565b620027a68162002d8e565b82525050565b6000620027b98262002d23565b620027c5818562002d4c565b9350620027d781856020860162002df9565b620027e28162002e2f565b840191505092915050565b620027f88162002dc2565b82525050565b60006200280d60168362002d5d565b91507f50617469656e7420646f65736e277420657869737421000000000000000000006000830152602082019050919050565b60006200284f60178362002d5d565b91507f43616e27742066696e64207468652070617469656e74210000000000000000006000830152602082019050919050565b600062002891601c8362002d5d565b91507f50617469656e74206e616d6520686173206265656e2074616b656e2e000000006000830152602082019050919050565b6000620028d3601b8362002d5d565b91507f50617469656e7420696e646578206f7574206f6620626f756e642100000000006000830152602082019050919050565b60006200291560138362002d5d565b91507f496e646578206f7574206f6620626f756e6421000000000000000000000000006000830152602082019050919050565b60006200295760168362002d5d565b91507f53656e646572206e6f7420617574686f72697a65642e000000000000000000006000830152602082019050919050565b620029958162002db8565b82525050565b6000602082019050620029b26000830184620026fe565b92915050565b6000606082019050620029cf6000830186620026fe565b620029de60208301856200279b565b8181036040830152620029f28184620027ac565b9050949350505050565b6000602082019050818103600083015262002a1881846200270f565b905092915050565b600060208201905062002a37600083018462002779565b92915050565b600060208201905062002a5460008301846200279b565b92915050565b600060608201905062002a7160008301866200279b565b62002a8060208301856200279b565b818103604083015262002a948184620027ac565b9050949350505050565b600060408201905062002ab560008301856200279b565b818103602083015262002ac98184620027ac565b90509392505050565b6000602082019050818103600083015262002aee8184620027ac565b905092915050565b600060208201905062002b0d6000830184620027ed565b92915050565b6000602082019050818103600083015262002b2e81620027fe565b9050919050565b6000602082019050818103600083015262002b508162002840565b9050919050565b6000602082019050818103600083015262002b728162002882565b9050919050565b6000602082019050818103600083015262002b9481620028c4565b9050919050565b6000602082019050818103600083015262002bb68162002906565b9050919050565b6000602082019050818103600083015262002bd88162002948565b9050919050565b600060208201905062002bf660008301846200298a565b92915050565b600060608201905062002c1360008301866200298a565b62002c226020830185620026fe565b818103604083015262002c368184620027ac565b9050949350505050565b600060608201905062002c5760008301866200298a565b62002c6660208301856200279b565b818103604083015262002c7a8184620027ac565b9050949350505050565b6000604051905081810181811067ffffffffffffffff8211171562002ca857600080fd5b8060405250919050565b600067ffffffffffffffff82111562002cca57600080fd5b602082029050602081019050919050565b600067ffffffffffffffff82111562002cf357600080fd5b601f19601f8301169050602081019050919050565b6000819050602082019050919050565b600081519050919050565b600081519050919050565b6000602082019050919050565b600082825260208201905092915050565b600082825260208201905092915050565b600082825260208201905092915050565b600062002d7b8262002d98565b9050919050565b60008115159050919050565b6000819050919050565b600073ffffffffffffffffffffffffffffffffffffffff82169050919050565b6000819050919050565b600062002dcf8262002dd6565b9050919050565b600062002de38262002d98565b9050919050565b82818337600083830152505050565b60005b8381101562002e1957808201518184015260208101905062002dfc565b8381111562002e29576000848401525b50505050565b6000601f19601f8301169050919050565b62002e4b8162002d6e565b811462002e5757600080fd5b50565b62002e658162002d82565b811462002e7157600080fd5b50565b62002e7f8162002d8e565b811462002e8b57600080fd5b50565b62002e998162002db8565b811462002ea557600080fd5b5056fe60806040523480156200001157600080fd5b5060405162001810380380620018108339818101604052620000379190810190620001c1565b336000806101000a81548173ffffffffffffffffffffffffffffffffffffffff021916908373ffffffffffffffffffffffffffffffffffffffff160217905550816001819055508060029080519060200190620000969291906200009f565b505050620002d0565b828054600181600116156101000203166002900490600052602060002090601f016020900481019282601f10620000e257805160ff191683800117855562000113565b8280016001018555821562000113579182015b8281111562000112578251825591602001919060010190620000f5565b5b50905062000122919062000126565b5090565b6200014b91905b80821115620001475760008160009055506001016200012d565b5090565b90565b6000815190506200015f81620002b6565b92915050565b600082601f8301126200017757600080fd5b81516200018e620001888262000249565b6200021b565b91508082526020830160208301858383011115620001ab57600080fd5b620001b883828462000280565b50505092915050565b60008060408385031215620001d557600080fd5b6000620001e5858286016200014e565b925050602083015167ffffffffffffffff8111156200020357600080fd5b620002118582860162000165565b9150509250929050565b6000604051905081810181811067ffffffffffffffff821117156200023f57600080fd5b8060405250919050565b600067ffffffffffffffff8211156200026157600080fd5b601f19601f8301169050602081019050919050565b6000819050919050565b60005b83811015620002a057808201518184015260208101905062000283565b83811115620002b0576000848401525b50505050565b620002c18162000276565b8114620002cd57600080fd5b50565b61153080620002e06000396000f3fe608060405234801561001057600080fd5b50600436106100f55760003560e01c8063511ad5221161009757806377e4afe41161006657806377e4afe4146102f857806394e7ef6e146103165780639b9fc6e014610346578063f811f1ab14610376576100f5565b8063511ad5221461024a578063624a4dac1461027a57806374275255146102985780637448d8d8146102c8576100f5565b80632dce4167116100d35780632dce41671461018a57806330ca739b146101ba57806345cfa71d146101ea5780635035cf521461021a576100f5565b80630b8d6eae146100fa5780631f97c4c31461012a578063234c16181461015a575b600080fd5b610114600480360361010f9190810190610cb3565b610394565b6040516101219190610f38565b60405180910390f35b610144600480360361013f9190810190610d46565b61042b565b6040516101519190610f5a565b60405180910390f35b610174600480360361016f9190810190610d46565b6104e1565b6040516101819190610fb9565b60405180910390f35b6101a4600480360361019f9190810190610d46565b6104fe565b6040516101b19190610fb9565b60405180910390f35b6101d460048036036101cf9190810190610cb3565b61051b565b6040516101e19190610f38565b60405180910390f35b61020460048036036101ff9190810190610d46565b6105b2565b6040516102119190610f38565b60405180910390f35b610234600480360361022f9190810190610d6f565b61061d565b6040516102419190610f5a565b60405180910390f35b610264600480360361025f9190810190610e17565b610763565b6040516102719190610f75565b60405180910390f35b610282610784565b60405161028f9190610fb9565b60405180910390f35b6102b260048036036102ad9190810190610d6f565b610791565b6040516102bf9190610f5a565b60405180910390f35b6102e260048036036102dd9190810190610d46565b6108d7565b6040516102ef9190610f38565b60405180910390f35b610300610942565b60405161030d9190610f38565b60405180910390f35b610330600480360361032b9190810190610dd6565b6109ee565b60405161033d9190610f5a565b60405180910390f35b610360600480360361035b9190810190610e17565b610a10565b60405161036d9190610f75565b60405180910390f35b61037e610a31565b60405161038b9190610fb9565b60405180910390f35b6060600660008373ffffffffffffffffffffffffffffffffffffffff1673ffffffffffffffffffffffffffffffffffffffff16815260200190815260200160002080548060200260200160405190810160405280929190818152602001828054801561041f57602002820191906000526020600020905b81548152602001906001019080831161040b575b50505050509050919050565b6000600360009054906101000a900473ffffffffffffffffffffffffffffffffffffffff1673ffffffffffffffffffffffffffffffffffffffff16631f97c4c3836040518263ffffffff1660e01b81526004016104889190610f75565b602060405180830381600087803b1580156104a257600080fd5b505af11580156104b6573d6000803e3d6000fd5b505050506040513d601f19601f820116820180604052506104da9190810190610d1d565b9050919050565b600060086000838152602001908152602001600020549050919050565b600060046000838152602001908152602001600020549050919050565b6060600660008373ffffffffffffffffffffffffffffffffffffffff1673ffffffffffffffffffffffffffffffffffffffff1681526020019081526020016000208054806020026020016040519081016040528092919081815260200182805480156105a657602002820191906000526020600020905b815481526020019060010190808311610592575b50505050509050919050565b60606009600083815260200190815260200160002080548060200260200160405190810160405280929190818152602001828054801561061157602002820191906000526020600020905b8154815260200190600101908083116105fd575b50505050509050919050565b600033848460405161062e90610a3e565b61063a93929190610f01565b604051809103906000f080158015610656573d6000803e3d6000fd5b5050600b839080600181540180825580915050906001820390600052602060002001600090919290919091505550600b805490506008600085815260200190815260200160002081905550600b600960008681526020019081526020016000209080546106c4929190610a4a565b50600b600a60003373ffffffffffffffffffffffffffffffffffffffff1673ffffffffffffffffffffffffffffffffffffffff168152602001908152602001600020908054610714929190610a4a565b5061071e826109ee565b507f2bb590431d1dfc5d86ac3f951c70a27b4818eb2e4bc69ba773cf6f12b3ca98158484604051610750929190610f90565b60405180910390a1600190509392505050565b6000600b828154811061077257fe5b90600052602060002001549050919050565b6000600b80549050905090565b60003384846040516107a290610a9c565b6107ae93929190610f01565b604051809103906000f0801580156107ca573d6000803e3d6000fd5b505060078390806001815401808255809150509060018203906000526020600020016000909192909190915055506007805490506004600085815260200190815260200160002081905550600760056000868152602001908152602001600020908054610838929190610a4a565b506007600660003373ffffffffffffffffffffffffffffffffffffffff1673ffffffffffffffffffffffffffffffffffffffff168152602001908152602001600020908054610888929190610a4a565b50610892826109ee565b507f8f4940dfc4a4a23294dbd13e6f0929ba11b468a44fc5005a4f895430a844d10884846040516108c4929190610f90565b60405180910390a1600190509392505050565b60606005600083815260200190815260200160002080548060200260200160405190810160405280929190818152602001828054801561093657602002820191906000526020600020905b815481526020019060010190808311610922575b50505050509050919050565b6060600360009054906101000a900473ffffffffffffffffffffffffffffffffffffffff1673ffffffffffffffffffffffffffffffffffffffff166377e4afe46040518163ffffffff1660e01b815260040160006040518083038186803b1580156109ac57600080fd5b505afa1580156109c0573d6000803e3d6000fd5b505050506040513d6000823e3d601f19601f820116820180604052506109e99190810190610cdc565b905090565b60008160029080519060200190610a06929190610aa9565b5060019050919050565b600060078281548110610a1f57fe5b90600052602060002001549050919050565b6000600780549050905090565b60f08061118283390190565b828054828255906000526020600020908101928215610a8b5760005260206000209182015b82811115610a8a578254825591600101919060010190610a6f565b5b509050610a989190610b29565b5090565b61027c8061127283390190565b828054600181600116156101000203166002900490600052602060002090601f016020900481019282601f10610aea57805160ff1916838001178555610b18565b82800160010185558215610b18579182015b82811115610b17578251825591602001919060010190610afc565b5b509050610b259190610b4e565b5090565b610b4b91905b80821115610b47576000816000905550600101610b2f565b5090565b90565b610b7091905b80821115610b6c576000816000905550600101610b54565b5090565b90565b600081359050610b8281611125565b92915050565b600082601f830112610b9957600080fd5b8151610bac610ba782611001565b610fd4565b91508181835260208401935060208101905083856020840282011115610bd157600080fd5b60005b83811015610c015781610be78882610c35565b845260208401935060208301925050600181019050610bd4565b5050505092915050565b600081519050610c1a8161113c565b92915050565b600081359050610c2f81611153565b92915050565b600081519050610c4481611153565b92915050565b600082601f830112610c5b57600080fd5b8135610c6e610c6982611029565b610fd4565b91508082526020830160208301858383011115610c8a57600080fd5b610c95838284611116565b50505092915050565b600081359050610cad8161116a565b92915050565b600060208284031215610cc557600080fd5b6000610cd384828501610b73565b91505092915050565b600060208284031215610cee57600080fd5b600082015167ffffffffffffffff811115610d0857600080fd5b610d1484828501610b88565b91505092915050565b600060208284031215610d2f57600080fd5b6000610d3d84828501610c0b565b91505092915050565b600060208284031215610d5857600080fd5b6000610d6684828501610c20565b91505092915050565b600080600060608486031215610d8457600080fd5b6000610d9286828701610c20565b9350506020610da386828701610c20565b925050604084013567ffffffffffffffff811115610dc057600080fd5b610dcc86828701610c4a565b9150509250925092565b600060208284031215610de857600080fd5b600082013567ffffffffffffffff811115610e0257600080fd5b610e0e84828501610c4a565b91505092915050565b600060208284031215610e2957600080fd5b6000610e3784828501610c9e565b91505092915050565b6000610e4c8383610ed4565b60208301905092915050565b610e61816110e0565b82525050565b6000610e7282611065565b610e7c818561107d565b9350610e8783611055565b8060005b83811015610eb8578151610e9f8882610e40565b9750610eaa83611070565b925050600181019050610e8b565b5085935050505092915050565b610ece816110a0565b82525050565b610edd816110ac565b82525050565b610eec816110ac565b82525050565b610efb816110d6565b82525050565b6000606082019050610f166000830186610e58565b610f236020830185610ee3565b610f306040830184610ee3565b949350505050565b60006020820190508181036000830152610f528184610e67565b905092915050565b6000602082019050610f6f6000830184610ec5565b92915050565b6000602082019050610f8a6000830184610ee3565b92915050565b6000604082019050610fa56000830185610ee3565b610fb26020830184610ee3565b9392505050565b6000602082019050610fce6000830184610ef2565b92915050565b6000604051905081810181811067ffffffffffffffff82111715610ff757600080fd5b8060405250919050565b600067ffffffffffffffff82111561101857600080fd5b602082029050602081019050919050565b600067ffffffffffffffff82111561104057600080fd5b601f19601f8301169050602081019050919050565b6000819050602082019050919050565b600081519050919050565b6000602082019050919050565b600082825260208201905092915050565b6000611099826110b6565b9050919050565b60008115159050919050565b6000819050919050565b600073ffffffffffffffffffffffffffffffffffffffff82169050919050565b6000819050919050565b60006110eb826110f2565b9050919050565b60006110fd82611104565b9050919050565b600061110f826110b6565b9050919050565b82818337600083830152505050565b61112e8161108e565b811461113957600080fd5b50565b611145816110a0565b811461115057600080fd5b50565b61115c816110ac565b811461116757600080fd5b50565b611173816110d6565b811461117e57600080fd5b5056fe6080604052348015600f57600080fd5b5060405160f038038060f083398181016040526060811015602f57600080fd5b81019080805190602001909291908051906020019092919080519060200190929190505050826000806101000a81548173ffffffffffffffffffffffffffffffffffffffff021916908373ffffffffffffffffffffffffffffffffffffffff1602179055508160018190555080600281905550505050603e8060b26000396000f3fe6080604052600080fdfea265627a7a72315820119bb7d6b605b0a513377dcafe1408ee5ce032f383864e14b23f2645bdcd969a64736f6c63430005100032608060405234801561001057600080fd5b5060405161027c38038061027c8339818101604052606081101561003357600080fd5b81019080805190602001909291908051906020019092919080519060200190929190505050826000806101000a81548173ffffffffffffffffffffffffffffffffffffffff021916908373ffffffffffffffffffffffffffffffffffffffff16021790555081600181905550806002819055505050506101c4806100b86000396000f3fe608060405234801561001057600080fd5b50600436106100365760003560e01c80631f97c4c31461003b57806377e4afe414610081575b600080fd5b6100676004803603602081101561005157600080fd5b81019080803590602001909291905050506100e0565b604051808215151515815260200191505060405180910390f35b610089610137565b6040518080602001828103825283818151815260200191508051906020019060200280838360005b838110156100cc5780820151818401526020810190506100b1565b505050509050019250505060405180910390f35b60006003829080600181540180825580915050906001820390600052602060002001600090919290919091505550600160038054905003600460008481526020019081526020016000208190555060019050919050565b6060600380548060200260200160405190810160405280929190818152602001828054801561018557602002820191906000526020600020905b815481526020019060010190808311610171575b505050505090509056fea265627a7a72315820a28acc80c16d4ce281046eedcc0203dc0edc02632ded63becab36794e973bd4964736f6c63430005100032a365627a7a7231582087e57ae635a07ac5c88fb27a6702f020cd21599efc8f2c3f569c4b61af4586f76c6578706572696d656e74616cf564736f6c63430005100040a365627a7a7231582036899e01c037d24688f01b523c7cadc403a9b3fe948bc8dd116a0d2c095f31bc6c6578706572696d656e74616cf564736f6c63430005100040",
  "source": "pragma solidity >=0.5.16;\npragma experimental ABIEncoderV2;\nimport \"./Patient.sol\";\n\ncontract PatientStorage {\n   mapping(address => uint) private addressToIndex;\n   mapping(bytes32 => uint) private patientnameToIndex;\n   address[] private addresses;\n   bytes32[] private patientUnames;\n   bytes[] private ipfsHashes;\n   Patient p;\n   mapping(bytes32 => Patient) patientnameToPatient;\n\n   function registerPatient(bytes32 patientName, bytes memory ipfsHash) public returns(bool) {\n     require(!hasPatient(msg.sender),\n            \"Sender not authorized.\");\n     require(!patientNameTaken(patientName),\n            \"Patient name has been taken.\");\n      patientnameToPatient[patientName] = new Patient(patientName, ipfsHash);\n      addresses.push(msg.sender);\n      patientUnames.push(patientName);\n      ipfsHashes.push(ipfsHash);\n      addressToIndex[msg.sender] = addresses.length - 1;\n      patientnameToIndex[patientName] = addresses.length - 1;\n      return true;\n    }\n\n   function hasPatient(address _patientAdresses) public view returns(bool) {\n      return (addressToIndex[_patientAdresses] > 0 || _patientAdresses == addresses[0]);\n    }\n\n   function patientNameTaken(bytes32 pname) public view returns(bool takenIndeed) {\n      return (patientnameToIndex[pname] > 0 || pname == 'self');\n    }\n\n   function updatePatient(bytes memory ipfsHash) public returns(bool){\n      require(!hasPatient(msg.sender),\n            \"Sender not authorized.\");\n      p.updatePatient(ipfsHash);\n      return true;\n    }\n\n   function getPatientCount() public view returns(uint){\n      return addresses.length;\n    }\n   function getPatientByPatientname(bytes32 _pname) public view returns(Patient){\n      return patientnameToPatient[_pname];\n   }\n   function getPatientByIndex(uint index) public view returns(address,bytes32,bytes memory){\n      require((index < addresses.length),\n            \"Index out of bound!\");\n      return(addresses[index], patientUnames[index], ipfsHashes[index]);\n    }\n\n   function getAddressByIndex(uint index) public view returns(address){\n      require((index < addresses.length),\n            \"Index out of bound!\");\n      return addresses[index];\n    }\n\n   function getPatientNameByIndex(uint index) public view returns(bytes32){\n      require((index < addresses.length),\n            \"Index out of bound!\");\n      return patientUnames[index];\n    }\n\n   function getIpfsHashByIndex(uint index) public view returns(bytes memory){\n      require((index < addresses.length),\n            \"Index out of bound!\");\n      return ipfsHashes[index];\n    }\n\n   function getPatientByAddress(address patientAddress) public view returns(uint, bytes32, bytes memory){\n      require(hasPatient(patientAddress),\n            \"Patient doesn't exist!\");\n      return(addressToIndex[patientAddress], patientUnames[addressToIndex[patientAddress]], ipfsHashes[addressToIndex[patientAddress]]);\n    }\n\n   function getIndexByAddress(address patientAddress) public view returns(uint){\n      require(hasPatient(patientAddress),\n            \"Patient doesn't exist!\");\n      return addressToIndex[patientAddress];\n    }\n\n   function getPatientNameByAddress(address patientAddress) public view returns(bytes32){\n      require(hasPatient(patientAddress),\n            \"Patient doesn't exist!\");\n      return patientUnames[addressToIndex[patientAddress]];\n    }\n\n   function getIpfsHashByAddress(address patientAddress) public view returns(bytes memory){\n      require(hasPatient(patientAddress),\n            \"Patient doesn't exist!\");\n      return ipfsHashes[addressToIndex[patientAddress]];\n    }\n\n   function getPatientByPatientName(bytes32 patientname) public view returns(uint,address,bytes memory){\n      require((patientnameToIndex[patientname] < addresses.length),\n            \"Patient index out of bound!\");\n      return(patientnameToIndex[patientname], addresses[patientnameToIndex[patientname]], ipfsHashes[patientnameToIndex[patientname]]);\n    }\n\n   function getIndexByPatientName(bytes32 patientname) public view returns(uint){\n      require((patientNameTaken(patientname)),\n            \"Can't find the patient!\");\n      return patientnameToIndex[patientname];\n    }\n\n   function getAddressByPatientName(bytes32 patientname) public view returns(address){\n      require((patientNameTaken(patientname)),\n        \"Can't find the patient!\");\n      return addresses[patientnameToIndex[patientname]];\n    }\n\n   function getIpfsHashByPatientName(bytes32 patientname) public view returns(bytes memory){\n      require((patientNameTaken(patientname)),\n            \"Can't find the patient!\");\n      return ipfsHashes[patientnameToIndex[patientname]];\n    }\n\n   function consultationCreate(bytes32 _pname, bytes32 _consulDateID, bytes memory newPatientIpfs)public returns(bool){\n      return p.consultationCreate(_pname, _consulDateID, newPatientIpfs);\n    }\n\n   function getConsultationByConsultationIndex(uint _index) public view returns(bytes32 consulID){\n      return p.getConsultationByConsultationIndex(_index);\n    }\n   function getConsultationIndexByConsultationID(bytes32 _consulDateID) public view returns(uint){\n      return p.getConsultationIndexByConsultationID(_consulDateID);\n    }\n\n   function getConsultationsByPatientName(bytes32 _pname) public view returns(bytes32[] memory){\n      return p.getConsultationsByPatientName(_pname);\n    }\n\n   function getConsultationsByPatientAddress(address patientAddress) public view returns(bytes32[] memory){\n      return p.getConsultationsByPatientAddress(patientAddress);\n    }\n   function testCreate(bytes32 _pname, bytes32 _testDateID, bytes memory newPatientIpfs)public returns(bool){\n      return p.testCreate(_pname,_testDateID,newPatientIpfs);\n    }\n\n   function getTestByTestIndex(uint _index) public view returns(bytes32 testID){\n      return p.getTestByTestIndex(_index);\n    }\n\n   function getTestIndexByTestID(bytes32 _testDateID) public view returns(uint){\n      return p.getTestIndexByTestID(_testDateID);\n    }\n\n   function getTestsByPatientName(bytes32 _pname) public view returns(bytes32[] memory) {\n      return p.getTestsByPatientName(_pname);\n    }\n\n   function getTestsByPatientAddress(address patientAddress) public view returns(bytes32[] memory){\n      return p.getTestsByPatientAddress(patientAddress);\n    }\n   function getTestsCount() public view returns (uint){\n      return p.getTestsCount();\n    }\n   function saveMedicineForPatientUse(bytes32 mname) public returns(bool){\n      return p.saveMedicineForPatientUse(mname);\n    }\n   function getMedicinesFromConsultation() public view returns(bytes32[] memory){\n      return p.getMedicinesFromConsultation();\n    }\n}",
  "sourcePath": "/home/eke/patient-eth-ipfs/contracts/PatientStorage.sol",
  "compiler": {
    "name": "solc",
    "version": "0.5.16+commit.9c3226ce.Emscripten.clang"
  },
  "schemaVersion": "3.0.23",
  "updatedAt": "2020-04-12T12:22:00.670Z",
  "devdoc": {
    "methods": {}
  },
  "userdoc": {
    "methods": {}
  }
}