{
  "contractName": "PatientIndex",
  "abi": [
    {
      "inputs": [],
      "payable": false,
      "stateMutability": "nonpayable",
      "type": "constructor"
    },
    {
      "constant": false,
      "inputs": [
        {
          "internalType": "bytes32",
          "name": "_pname",
          "type": "bytes32"
        },
        {
          "internalType": "bytes32",
          "name": "_consulDateID",
          "type": "bytes32"
        },
        {
          "internalType": "bytes",
          "name": "_ipfsConsulHash",
          "type": "bytes"
        },
        {
          "internalType": "bytes",
          "name": "newPatientIpfs",
          "type": "bytes"
        }
      ],
      "name": "consultationCreate",
      "outputs": [
        {
          "internalType": "bool",
          "name": "",
          "type": "bool"
        }
      ],
      "payable": false,
      "stateMutability": "nonpayable",
      "type": "function"
    },
    {
      "constant": true,
      "inputs": [
        {
          "internalType": "uint256",
          "name": "_index",
          "type": "uint256"
        }
      ],
      "name": "getConsultationByConsultationIndex",
      "outputs": [
        {
          "internalType": "bytes32",
          "name": "consulID",
          "type": "bytes32"
        },
        {
          "internalType": "bytes",
          "name": "ipfs",
          "type": "bytes"
        }
      ],
      "payable": false,
      "stateMutability": "view",
      "type": "function"
    },
    {
      "constant": true,
      "inputs": [
        {
          "internalType": "bytes32",
          "name": "_consulDateID",
          "type": "bytes32"
        }
      ],
      "name": "getConsultationIpfsByConsultationID",
      "outputs": [
        {
          "internalType": "bytes",
          "name": "ipfs",
          "type": "bytes"
        }
      ],
      "payable": false,
      "stateMutability": "view",
      "type": "function"
    },
    {
      "constant": true,
      "inputs": [
        {
          "internalType": "bytes32",
          "name": "_consulDateID",
          "type": "bytes32"
        }
      ],
      "name": "getConsultationIndexByConsultationID",
      "outputs": [
        {
          "internalType": "uint256",
          "name": "",
          "type": "uint256"
        }
      ],
      "payable": false,
      "stateMutability": "view",
      "type": "function"
    },
    {
      "constant": true,
      "inputs": [
        {
          "internalType": "bytes32",
          "name": "_pname",
          "type": "bytes32"
        }
      ],
      "name": "getConsultationsByPatientName",
      "outputs": [
        {
          "internalType": "bytes32[]",
          "name": "",
          "type": "bytes32[]"
        },
        {
          "internalType": "bytes[]",
          "name": "",
          "type": "bytes[]"
        }
      ],
      "payable": false,
      "stateMutability": "view",
      "type": "function"
    },
    {
      "constant": true,
      "inputs": [
        {
          "internalType": "address",
          "name": "patientAddress",
          "type": "address"
        }
      ],
      "name": "getConsultationsByPatientAddress",
      "outputs": [
        {
          "internalType": "bytes32[]",
          "name": "",
          "type": "bytes32[]"
        },
        {
          "internalType": "bytes[]",
          "name": "",
          "type": "bytes[]"
        }
      ],
      "payable": false,
      "stateMutability": "view",
      "type": "function"
    },
    {
      "constant": true,
      "inputs": [
        {
          "internalType": "address",
          "name": "_patientAdresses",
          "type": "address"
        }
      ],
      "name": "hasPatient",
      "outputs": [
        {
          "internalType": "bool",
          "name": "",
          "type": "bool"
        }
      ],
      "payable": false,
      "stateMutability": "view",
      "type": "function"
    },
    {
      "constant": true,
      "inputs": [
        {
          "internalType": "bytes32",
          "name": "pname",
          "type": "bytes32"
        }
      ],
      "name": "patientNameTaken",
      "outputs": [
        {
          "internalType": "bool",
          "name": "takenIndeed",
          "type": "bool"
        }
      ],
      "payable": false,
      "stateMutability": "view",
      "type": "function"
    },
    {
      "constant": false,
      "inputs": [
        {
          "internalType": "bytes32",
          "name": "patientName",
          "type": "bytes32"
        },
        {
          "internalType": "bytes",
          "name": "ipfsHash",
          "type": "bytes"
        }
      ],
      "name": "registerPatient",
      "outputs": [
        {
          "internalType": "bool",
          "name": "",
          "type": "bool"
        }
      ],
      "payable": false,
      "stateMutability": "nonpayable",
      "type": "function"
    },
    {
      "constant": false,
      "inputs": [
        {
          "internalType": "bytes",
          "name": "ipfsHash",
          "type": "bytes"
        }
      ],
      "name": "updatePatient",
      "outputs": [
        {
          "internalType": "bool",
          "name": "",
          "type": "bool"
        }
      ],
      "payable": false,
      "stateMutability": "nonpayable",
      "type": "function"
    },
    {
      "constant": true,
      "inputs": [],
      "name": "getPatientCount",
      "outputs": [
        {
          "internalType": "uint256",
          "name": "",
          "type": "uint256"
        }
      ],
      "payable": false,
      "stateMutability": "view",
      "type": "function"
    },
    {
      "constant": true,
      "inputs": [
        {
          "internalType": "uint256",
          "name": "index",
          "type": "uint256"
        }
      ],
      "name": "getPatientByIndex",
      "outputs": [
        {
          "internalType": "address",
          "name": "",
          "type": "address"
        },
        {
          "internalType": "bytes32",
          "name": "",
          "type": "bytes32"
        },
        {
          "internalType": "bytes",
          "name": "",
          "type": "bytes"
        }
      ],
      "payable": false,
      "stateMutability": "view",
      "type": "function"
    },
    {
      "constant": true,
      "inputs": [
        {
          "internalType": "uint256",
          "name": "index",
          "type": "uint256"
        }
      ],
      "name": "getAddressesByIndex",
      "outputs": [
        {
          "internalType": "address",
          "name": "",
          "type": "address"
        }
      ],
      "payable": false,
      "stateMutability": "view",
      "type": "function"
    },
    {
      "constant": true,
      "inputs": [
        {
          "internalType": "uint256",
          "name": "index",
          "type": "uint256"
        }
      ],
      "name": "getPatientNameByIndex",
      "outputs": [
        {
          "internalType": "bytes32",
          "name": "",
          "type": "bytes32"
        }
      ],
      "payable": false,
      "stateMutability": "view",
      "type": "function"
    },
    {
      "constant": true,
      "inputs": [
        {
          "internalType": "uint256",
          "name": "index",
          "type": "uint256"
        }
      ],
      "name": "getIpfsHashByIndex",
      "outputs": [
        {
          "internalType": "bytes",
          "name": "",
          "type": "bytes"
        }
      ],
      "payable": false,
      "stateMutability": "view",
      "type": "function"
    },
    {
      "constant": true,
      "inputs": [
        {
          "internalType": "address",
          "name": "patientAddress",
          "type": "address"
        }
      ],
      "name": "getPatientByAddress",
      "outputs": [
        {
          "internalType": "uint256",
          "name": "",
          "type": "uint256"
        },
        {
          "internalType": "bytes32",
          "name": "",
          "type": "bytes32"
        },
        {
          "internalType": "bytes",
          "name": "",
          "type": "bytes"
        }
      ],
      "payable": false,
      "stateMutability": "view",
      "type": "function"
    },
    {
      "constant": true,
      "inputs": [
        {
          "internalType": "address",
          "name": "patientAddress",
          "type": "address"
        }
      ],
      "name": "getIndexByAddress",
      "outputs": [
        {
          "internalType": "uint256",
          "name": "",
          "type": "uint256"
        }
      ],
      "payable": false,
      "stateMutability": "view",
      "type": "function"
    },
    {
      "constant": true,
      "inputs": [
        {
          "internalType": "address",
          "name": "patientAddress",
          "type": "address"
        }
      ],
      "name": "getPatientNameByAddress",
      "outputs": [
        {
          "internalType": "bytes32",
          "name": "",
          "type": "bytes32"
        }
      ],
      "payable": false,
      "stateMutability": "view",
      "type": "function"
    },
    {
      "constant": true,
      "inputs": [
        {
          "internalType": "address",
          "name": "patientAddress",
          "type": "address"
        }
      ],
      "name": "getIpfsHashByAddress",
      "outputs": [
        {
          "internalType": "bytes",
          "name": "",
          "type": "bytes"
        }
      ],
      "payable": false,
      "stateMutability": "view",
      "type": "function"
    },
    {
      "constant": true,
      "inputs": [
        {
          "internalType": "bytes32",
          "name": "patientname",
          "type": "bytes32"
        }
      ],
      "name": "getPatientByPatientName",
      "outputs": [
        {
          "internalType": "uint256",
          "name": "",
          "type": "uint256"
        },
        {
          "internalType": "address",
          "name": "",
          "type": "address"
        },
        {
          "internalType": "bytes",
          "name": "",
          "type": "bytes"
        }
      ],
      "payable": false,
      "stateMutability": "view",
      "type": "function"
    },
    {
      "constant": true,
      "inputs": [
        {
          "internalType": "bytes32",
          "name": "patientname",
          "type": "bytes32"
        }
      ],
      "name": "getIndexByPatientName",
      "outputs": [
        {
          "internalType": "uint256",
          "name": "",
          "type": "uint256"
        }
      ],
      "payable": false,
      "stateMutability": "view",
      "type": "function"
    },
    {
      "constant": true,
      "inputs": [
        {
          "internalType": "bytes32",
          "name": "patientname",
          "type": "bytes32"
        }
      ],
      "name": "getAddressByPatientName",
      "outputs": [
        {
          "internalType": "address",
          "name": "",
          "type": "address"
        }
      ],
      "payable": false,
      "stateMutability": "view",
      "type": "function"
    },
    {
      "constant": true,
      "inputs": [
        {
          "internalType": "bytes32",
          "name": "patientname",
          "type": "bytes32"
        }
      ],
      "name": "getIpfsHashByPatientName",
      "outputs": [
        {
          "internalType": "bytes",
          "name": "",
          "type": "bytes"
        }
      ],
      "payable": false,
      "stateMutability": "view",
      "type": "function"
    }
  ],
  "bytecode": "0x60806040523480156200001157600080fd5b5060023390806001815401808255809150509060018203906000526020600020016000909192909190916101000a81548173ffffffffffffffffffffffffffffffffffffffff021916908373ffffffffffffffffffffffffffffffffffffffff1602179055505060038060018154018082558091505090600182039060005260206000200160007f78000000000000000000000000000000000000000000000000000000000000009091909150555060048060018154018082558091505090600182039060005260206000200160006040518060400160405280600d81526020017f6e6f742d617661696c61626c6500000000000000000000000000000000000000815250909190915090805190602001906200013092919062000138565b5050620001e7565b828054600181600116156101000203166002900490600052602060002090601f016020900481019282601f106200017b57805160ff1916838001178555620001ac565b82800160010185558215620001ac579182015b82811115620001ab5782518255916020019190600101906200018e565b5b509050620001bb9190620001bf565b5090565b620001e491905b80821115620001e0576000816000905550600101620001c6565b5090565b90565b612d1380620001f76000396000f3fe60806040523480156200001157600080fd5b50600436106200016c5760003560e01c806394e7ef6e11620000d5578063b9affb931162000087578063b9affb93146200050e578063ba5c03351462000544578063c190665b146200057c578063cbb7e2ff146200059e578063dfb7ab6014620005d4578063eb9fbaa9146200060a576200016c565b806394e7ef6e14620003c75780639b9fc6e014620003fd578063a74380a61462000434578063ad36054b146200046a578063b1d5458d14620004a2578063b564407414620004d8576200016c565b806330ca739b116200012f57806330ca739b146200027f57806357ea0c2f14620002b65780636876195414620002ee5780636cfbc8fd14620003245780637448d8d8146200035a5780637b63cec41462000391576200016c565b806304dd548f14620001715780630831192514620001a75780631973ef9114620001dd57806329f78d8814620002135780632dce41671462000249575b600080fd5b6200018f600480360362000189919081019062002207565b62000640565b6040516200019e9190620025f3565b60405180910390f35b620001c56004803603620001bf91908101906200209e565b620006cc565b604051620001d49190620026fd565b60405180910390f35b620001fb6004803603620001f5919081019062002072565b6200079d565b6040516200020a91906200280f565b60405180910390f35b6200023160048036036200022b919081019062002207565b62000832565b604051620002409190620026fd565b60405180910390f35b6200026760048036036200026191908101906200209e565b6200093a565b6040516200027691906200280f565b60405180910390f35b6200029d600480360362000297919081019062002072565b62000957565b604051620002ad92919062002654565b60405180910390f35b620002d46004803603620002ce919081019062002207565b62000b6b565b604051620002e59392919062002610565b60405180910390f35b6200030c600480360362000306919081019062002168565b62000cd1565b6040516200031b91906200268f565b60405180910390f35b6200034260048036036200033c91908101906200209e565b62000eb7565b604051620003519190620025f3565b60405180910390f35b6200037860048036036200037291908101906200209e565b62000f59565b6040516200038892919062002654565b60405180910390f35b620003af6004803603620003a991908101906200209e565b6200111f565b604051620003be91906200268f565b60405180910390f35b620003e56004803603620003df9190810190620021c2565b62001169565b604051620003f491906200268f565b60405180910390f35b6200041b600480360362000415919081019062002207565b6200122f565b6040516200042b929190620026c9565b60405180910390f35b6200045260048036036200044c919081019062002072565b6200130d565b604051620004619190620026fd565b60405180910390f35b6200048860048036036200048291908101906200209e565b62001456565b60405162000499939291906200282c565b60405180910390f35b620004c06004803603620004ba91908101906200209e565b620015f0565b604051620004cf91906200280f565b60405180910390f35b620004f66004803603620004f09190810190620020ca565b6200165a565b6040516200050591906200268f565b60405180910390f35b6200052c600480360362000526919081019062002072565b6200182a565b6040516200053b9190620026ac565b60405180910390f35b6200056260048036036200055c919081019062002072565b620018d7565b604051620005739392919062002870565b60405180910390f35b6200058662001ac2565b6040516200059591906200280f565b60405180910390f35b620005bc6004803603620005b6919081019062002207565b62001acf565b604051620005cb9190620026ac565b60405180910390f35b620005f26004803603620005ec91908101906200209e565b62001b3b565b604051620006019190620026fd565b60405180910390f35b62000628600480360362000622919081019062002072565b62001c59565b6040516200063791906200268f565b60405180910390f35b600060028054905082106200068c576040517f08c379a00000000000000000000000000000000000000000000000000000000081526004016200068390620027cb565b60405180910390fd5b600282815481106200069a57fe5b9060005260206000200160009054906101000a900473ffffffffffffffffffffffffffffffffffffffff169050919050565b6060600b600560008481526020019081526020016000205481548110620006ef57fe5b906000526020600020018054600181600116156101000203166002900480601f016020809104026020016040519081016040528092919081815260200182805460018160011615610100020316600290048015620007915780601f10620007655761010080835404028352916020019162000791565b820191906000526020600020905b8154815290600101906020018083116200077357829003601f168201915b50505050509050919050565b6000620007aa8262001c59565b620007ec576040517f08c379a0000000000000000000000000000000000000000000000000000000008152600401620007e39062002721565b60405180910390fd5b6000808373ffffffffffffffffffffffffffffffffffffffff1673ffffffffffffffffffffffffffffffffffffffff168152602001908152602001600020549050919050565b606060028054905082106200087e576040517f08c379a00000000000000000000000000000000000000000000000000000000081526004016200087590620027cb565b60405180910390fd5b600482815481106200088c57fe5b906000526020600020018054600181600116156101000203166002900480601f0160208091040260200160405190810160405280929190818152602001828054600181600116156101000203166002900480156200092e5780601f1062000902576101008083540402835291602001916200092e565b820191906000526020600020905b8154815290600101906020018083116200091057829003601f168201915b50505050509050919050565b600060056000838152602001908152602001600020549050919050565b606080620009658362001c59565b620009a7576040517f08c379a00000000000000000000000000000000000000000000000000000000081526004016200099e9062002765565b60405180910390fd5b600860008473ffffffffffffffffffffffffffffffffffffffff1673ffffffffffffffffffffffffffffffffffffffff168152602001908152602001600020600960008573ffffffffffffffffffffffffffffffffffffffff1673ffffffffffffffffffffffffffffffffffffffff1681526020019081526020016000208180548060200260200160405190810160405280929190818152602001828054801562000a7257602002820191906000526020600020905b81548152602001906001019080831162000a5d575b5050505050915080805480602002602001604051908101604052809291908181526020016000905b8282101562000b5c578382906000526020600020018054600181600116156101000203166002900480601f01602080910402602001604051908101604052809291908181526020018280546001816001161561010002031660029004801562000b475780601f1062000b1b5761010080835404028352916020019162000b47565b820191906000526020600020905b81548152906001019060200180831162000b2957829003601f168201915b50505050508152602001906001019062000a9a565b50505050905091509150915091565b6000806060600280549050841062000bba576040517f08c379a000000000000000000000000000000000000000000000000000000000815260040162000bb190620027cb565b60405180910390fd5b6002848154811062000bc857fe5b9060005260206000200160009054906101000a900473ffffffffffffffffffffffffffffffffffffffff166003858154811062000c0157fe5b90600052602060002001546004868154811062000c1a57fe5b90600052602060002001808054600181600116156101000203166002900480601f01602080910402602001604051908101604052809291908181526020018280546001816001161561010002031660029004801562000cbd5780601f1062000c915761010080835404028352916020019162000cbd565b820191906000526020600020905b81548152906001019060200180831162000c9f57829003601f168201915b505050505090509250925092509193909250565b600062000cde3362001c59565b1562000d21576040517f08c379a000000000000000000000000000000000000000000000000000000000815260040162000d1890620027ed565b60405180910390fd5b62000d2c836200111f565b1562000d6f576040517f08c379a000000000000000000000000000000000000000000000000000000000815260040162000d669062002787565b60405180910390fd5b60023390806001815401808255809150509060018203906000526020600020016000909192909190916101000a81548173ffffffffffffffffffffffffffffffffffffffff021916908373ffffffffffffffffffffffffffffffffffffffff160217905550506003839080600181540180825580915050906001820390600052602060002001600090919290919091505550600482908060018154018082558091505090600182039060005260206000200160009091929091909150908051906020019062000e4092919062001d13565b50506001600280549050036000803373ffffffffffffffffffffffffffffffffffffffff1673ffffffffffffffffffffffffffffffffffffffff1681526020019081526020016000208190555060016002805490500360016000858152602001908152602001600020819055506001905092915050565b600062000ec4826200111f565b62000f06576040517f08c379a000000000000000000000000000000000000000000000000000000000815260040162000efd9062002743565b60405180910390fd5b600260016000848152602001908152602001600020548154811062000f2757fe5b9060005260206000200160009054906101000a900473ffffffffffffffffffffffffffffffffffffffff169050919050565b60608062000f7162000f6b8462000eb7565b62001c59565b62000fb3576040517f08c379a000000000000000000000000000000000000000000000000000000000815260040162000faa9062002765565b60405180910390fd5b6006600084815260200190815260200160002060076000858152602001908152602001600020818054806020026020016040519081016040528092919081815260200182805480156200102657602002820191906000526020600020905b81548152602001906001019080831162001011575b5050505050915080805480602002602001604051908101604052809291908181526020016000905b8282101562001110578382906000526020600020018054600181600116156101000203166002900480601f016020809104026020016040519081016040528092919081815260200182805460018160011615610100020316600290048015620010fb5780601f10620010cf57610100808354040283529160200191620010fb565b820191906000526020600020905b815481529060010190602001808311620010dd57829003601f168201915b5050505050815260200190600101906200104e565b50505050905091509150915091565b600080600160008481526020019081526020016000205411806200116257507f73656c660000000000000000000000000000000000000000000000000000000082145b9050919050565b6000620011763362001c59565b15620011b9576040517f08c379a0000000000000000000000000000000000000000000000000000000008152600401620011b090620027ed565b60405180910390fd5b8160046000803373ffffffffffffffffffffffffffffffffffffffff1673ffffffffffffffffffffffffffffffffffffffff16815260200190815260200160002054815481106200120657fe5b9060005260206000200190805190602001906200122592919062001d13565b5060019050919050565b60006060600a83815481106200124157fe5b9060005260206000200154600b84815481106200125a57fe5b90600052602060002001808054600181600116156101000203166002900480601f016020809104026020016040519081016040528092919081815260200182805460018160011615610100020316600290048015620012fd5780601f10620012d157610100808354040283529160200191620012fd565b820191906000526020600020905b815481529060010190602001808311620012df57829003601f168201915b5050505050905091509150915091565b60606200131a8262001c59565b6200135c576040517f08c379a0000000000000000000000000000000000000000000000000000000008152600401620013539062002721565b60405180910390fd5b60046000808473ffffffffffffffffffffffffffffffffffffffff1673ffffffffffffffffffffffffffffffffffffffff1681526020019081526020016000205481548110620013a857fe5b906000526020600020018054600181600116156101000203166002900480601f0160208091040260200160405190810160405280929190818152602001828054600181600116156101000203166002900480156200144a5780601f106200141e576101008083540402835291602001916200144a565b820191906000526020600020905b8154815290600101906020018083116200142c57829003601f168201915b50505050509050919050565b6000806060600280549050600160008681526020019081526020016000205410620014b8576040517f08c379a0000000000000000000000000000000000000000000000000000000008152600401620014af90620027a9565b60405180910390fd5b60016000858152602001908152602001600020546002600160008781526020019081526020016000205481548110620014ed57fe5b9060005260206000200160009054906101000a900473ffffffffffffffffffffffffffffffffffffffff1660046001600088815260200190815260200160002054815481106200153957fe5b90600052602060002001808054600181600116156101000203166002900480601f016020809104026020016040519081016040528092919081815260200182805460018160011615610100020316600290048015620015dc5780601f10620015b057610100808354040283529160200191620015dc565b820191906000526020600020905b815481529060010190602001808311620015be57829003601f168201915b505050505090509250925092509193909250565b6000620015fd826200111f565b6200163f576040517f08c379a0000000000000000000000000000000000000000000000000000000008152600401620016369062002743565b60405180910390fd5b60016000838152602001908152602001600020549050919050565b600083836040516200166c9062001d9a565b62001679929190620026c9565b604051809103906000f08015801562001696573d6000803e3d6000fd5b5050600a849080600181540180825580915050906001820390600052602060002001600090919290919091505550600b8390806001815401808255809150509060018203906000526020600020016000909192909190915090805190602001906200170392919062001d13565b5050600a805490506005600086815260200190815260200160002081905550600a600660008781526020019081526020016000209080546200174792919062001da8565b50600b600760008781526020019081526020016000209080546200176d92919062001dff565b50600a600860003373ffffffffffffffffffffffffffffffffffffffff1673ffffffffffffffffffffffffffffffffffffffff168152602001908152602001600020908054620017bf92919062001da8565b50600b600960003373ffffffffffffffffffffffffffffffffffffffff1673ffffffffffffffffffffffffffffffffffffffff1681526020019081526020016000209080546200181192919062001dff565b506200181d8262001169565b5060019050949350505050565b6000620018378262001c59565b62001879576040517f08c379a0000000000000000000000000000000000000000000000000000000008152600401620018709062002721565b60405180910390fd5b60036000808473ffffffffffffffffffffffffffffffffffffffff1673ffffffffffffffffffffffffffffffffffffffff1681526020019081526020016000205481548110620018c557fe5b90600052602060002001549050919050565b6000806060620018e78462001c59565b62001929576040517f08c379a0000000000000000000000000000000000000000000000000000000008152600401620019209062002721565b60405180910390fd5b6000808573ffffffffffffffffffffffffffffffffffffffff1673ffffffffffffffffffffffffffffffffffffffff1681526020019081526020016000205460036000808773ffffffffffffffffffffffffffffffffffffffff1673ffffffffffffffffffffffffffffffffffffffff1681526020019081526020016000205481548110620019b457fe5b906000526020600020015460046000808873ffffffffffffffffffffffffffffffffffffffff1673ffffffffffffffffffffffffffffffffffffffff168152602001908152602001600020548154811062001a0b57fe5b90600052602060002001808054600181600116156101000203166002900480601f01602080910402602001604051908101604052809291908181526020018280546001816001161561010002031660029004801562001aae5780601f1062001a825761010080835404028352916020019162001aae565b820191906000526020600020905b81548152906001019060200180831162001a9057829003601f168201915b505050505090509250925092509193909250565b6000600280549050905090565b6000600280549050821062001b1b576040517f08c379a000000000000000000000000000000000000000000000000000000000815260040162001b1290620027cb565b60405180910390fd5b6003828154811062001b2957fe5b90600052602060002001549050919050565b606062001b48826200111f565b62001b8a576040517f08c379a000000000000000000000000000000000000000000000000000000000815260040162001b819062002743565b60405180910390fd5b600460016000848152602001908152602001600020548154811062001bab57fe5b906000526020600020018054600181600116156101000203166002900480601f01602080910402602001604051908101604052809291908181526020018280546001816001161561010002031660029004801562001c4d5780601f1062001c215761010080835404028352916020019162001c4d565b820191906000526020600020905b81548152906001019060200180831162001c2f57829003601f168201915b50505050509050919050565b6000806000808473ffffffffffffffffffffffffffffffffffffffff1673ffffffffffffffffffffffffffffffffffffffff16815260200190815260200160002054118062001d0c5750600260008154811062001cb257fe5b9060005260206000200160009054906101000a900473ffffffffffffffffffffffffffffffffffffffff1673ffffffffffffffffffffffffffffffffffffffff168273ffffffffffffffffffffffffffffffffffffffff16145b9050919050565b828054600181600116156101000203166002900490600052602060002090601f016020900481019282601f1062001d5657805160ff191683800117855562001d87565b8280016001018555821562001d87579182015b8281111562001d8657825182559160200191906001019062001d69565b5b50905062001d96919062001e76565b5090565b61020e8062002ac383390190565b82805482825590600052602060002090810192821562001dec5760005260206000209182015b8281111562001deb57825482559160010191906001019062001dce565b5b50905062001dfb919062001e9e565b5090565b82805482825590600052602060002090810192821562001e635760005260206000209182015b8281111562001e62578282908054600181600116156101000203166002900462001e5192919062001ec6565b509160010191906001019062001e25565b5b50905062001e72919062001f54565b5090565b62001e9b91905b8082111562001e9757600081600090555060010162001e7d565b5090565b90565b62001ec391905b8082111562001ebf57600081600090555060010162001ea5565b5090565b90565b828054600181600116156101000203166002900490600052602060002090601f016020900481019282601f1062001f01578054855562001f41565b8280016001018555821562001f4157600052602060002091601f016020900482015b8281111562001f4057825482559160010191906001019062001f23565b5b50905062001f50919062001e76565b5090565b62001f8291905b8082111562001f7e576000818162001f74919062001f85565b5060010162001f5b565b5090565b90565b50805460018160011615610100020316600290046000825580601f1062001fad575062001fce565b601f01602090049060005260206000209081019062001fcd919062001e76565b5b50565b60008135905062001fe28162002a74565b92915050565b60008135905062001ff98162002a8e565b92915050565b600082601f8301126200201157600080fd5b8135620020286200202282620028e2565b620028b4565b915080825260208301602083018583830111156200204557600080fd5b6200205283828462002a1e565b50505092915050565b6000813590506200206c8162002aa8565b92915050565b6000602082840312156200208557600080fd5b6000620020958482850162001fd1565b91505092915050565b600060208284031215620020b157600080fd5b6000620020c18482850162001fe8565b91505092915050565b60008060008060808587031215620020e157600080fd5b6000620020f18782880162001fe8565b9450506020620021048782880162001fe8565b935050604085013567ffffffffffffffff8111156200212257600080fd5b620021308782880162001fff565b925050606085013567ffffffffffffffff8111156200214e57600080fd5b6200215c8782880162001fff565b91505092959194509250565b600080604083850312156200217c57600080fd5b60006200218c8582860162001fe8565b925050602083013567ffffffffffffffff811115620021aa57600080fd5b620021b88582860162001fff565b9150509250929050565b600060208284031215620021d557600080fd5b600082013567ffffffffffffffff811115620021f057600080fd5b620021fe8482850162001fff565b91505092915050565b6000602082840312156200221a57600080fd5b60006200222a848285016200205b565b91505092915050565b600062002241838362002370565b60208301905092915050565b60006200225b8383620023d3565b905092915050565b6200226e81620029ca565b82525050565b600062002281826200292f565b6200228d818562002975565b93506200229a836200290f565b8060005b83811015620022d1578151620022b5888262002233565b9750620022c2836200295b565b9250506001810190506200229e565b5085935050505092915050565b6000620022eb826200293a565b620022f7818562002986565b9350836020820285016200230b856200291f565b8060005b858110156200234d57848403895281516200232b85826200224d565b9450620023388362002968565b925060208a019950506001810190506200230f565b50829750879550505050505092915050565b6200236a81620029de565b82525050565b6200237b81620029ea565b82525050565b6200238c81620029ea565b82525050565b60006200239f8262002950565b620023ab8185620029a8565b9350620023bd81856020860162002a2d565b620023c88162002a63565b840191505092915050565b6000620023e08262002945565b620023ec818562002997565b9350620023fe81856020860162002a2d565b620024098162002a63565b840191505092915050565b600062002423601683620029b9565b91507f50617469656e7420646f65736e277420657869737421000000000000000000006000830152602082019050919050565b600062002465601783620029b9565b91507f43616e27742066696e64207468652070617469656e74210000000000000000006000830152602082019050919050565b6000620024a7601983620029b9565b91507f50617469656e74206861736e2774206265656e20666f756e64000000000000006000830152602082019050919050565b6000620024e9601c83620029b9565b91507f50617469656e74206e616d6520686173206265656e2074616b656e2e000000006000830152602082019050919050565b60006200252b601b83620029b9565b91507f50617469656e7420696e646578206f7574206f6620626f756e642100000000006000830152602082019050919050565b60006200256d601383620029b9565b91507f496e646578206f7574206f6620626f756e6421000000000000000000000000006000830152602082019050919050565b6000620025af601683620029b9565b91507f53656e646572206e6f7420617574686f72697a65642e000000000000000000006000830152602082019050919050565b620025ed8162002a14565b82525050565b60006020820190506200260a600083018462002263565b92915050565b600060608201905062002627600083018662002263565b62002636602083018562002381565b81810360408301526200264a818462002392565b9050949350505050565b6000604082019050818103600083015262002670818562002274565b90508181036020830152620026868184620022de565b90509392505050565b6000602082019050620026a660008301846200235f565b92915050565b6000602082019050620026c3600083018462002381565b92915050565b6000604082019050620026e0600083018562002381565b8181036020830152620026f4818462002392565b90509392505050565b6000602082019050818103600083015262002719818462002392565b905092915050565b600060208201905081810360008301526200273c8162002414565b9050919050565b600060208201905081810360008301526200275e8162002456565b9050919050565b60006020820190508181036000830152620027808162002498565b9050919050565b60006020820190508181036000830152620027a281620024da565b9050919050565b60006020820190508181036000830152620027c4816200251c565b9050919050565b60006020820190508181036000830152620027e6816200255e565b9050919050565b600060208201905081810360008301526200280881620025a0565b9050919050565b6000602082019050620028266000830184620025e2565b92915050565b6000606082019050620028436000830186620025e2565b62002852602083018562002263565b818103604083015262002866818462002392565b9050949350505050565b6000606082019050620028876000830186620025e2565b62002896602083018562002381565b8181036040830152620028aa818462002392565b9050949350505050565b6000604051905081810181811067ffffffffffffffff82111715620028d857600080fd5b8060405250919050565b600067ffffffffffffffff821115620028fa57600080fd5b601f19601f8301169050602081019050919050565b6000819050602082019050919050565b6000819050602082019050919050565b600081519050919050565b600081519050919050565b600081519050919050565b600081519050919050565b6000602082019050919050565b6000602082019050919050565b600082825260208201905092915050565b600082825260208201905092915050565b600082825260208201905092915050565b600082825260208201905092915050565b600082825260208201905092915050565b6000620029d782620029f4565b9050919050565b60008115159050919050565b6000819050919050565b600073ffffffffffffffffffffffffffffffffffffffff82169050919050565b6000819050919050565b82818337600083830152505050565b60005b8381101562002a4d57808201518184015260208101905062002a30565b8381111562002a5d576000848401525b50505050565b6000601f19601f8301169050919050565b62002a7f81620029ca565b811462002a8b57600080fd5b50565b62002a9981620029ea565b811462002aa557600080fd5b50565b62002ab38162002a14565b811462002abf57600080fd5b5056fe608060405234801561001057600080fd5b5060405161020e38038061020e8339818101604052604081101561003357600080fd5b81019080805190602001909291908051604051939291908464010000000082111561005d57600080fd5b8382019150602082018581111561007357600080fd5b825186600182028301116401000000008211171561009057600080fd5b8083526020830192505050908051906020019080838360005b838110156100c45780820151818401526020810190506100a9565b50505050905090810190601f1680156100f15780820380516001836020036101000a031916815260200191505b5060405250505081600081905550806001908051906020019061011592919061011d565b5050506101c2565b828054600181600116156101000203166002900490600052602060002090601f016020900481019282601f1061015e57805160ff191683800117855561018c565b8280016001018555821561018c579182015b8281111561018b578251825591602001919060010190610170565b5b509050610199919061019d565b5090565b6101bf91905b808211156101bb5760008160009055506001016101a3565b5090565b90565b603e806101d06000396000f3fe6080604052600080fdfea265627a7a72315820bd7f20bc6947c2132aa1ba03adacd5019ee6e99bca300435da889dbc5247140764736f6c63430005100032a365627a7a72315820c31a91934f5f4f1f9d73d669734bb6ad10beff4e83f8ffff5afe2631ce8ede3e6c6578706572696d656e74616cf564736f6c63430005100040",
  "source": "pragma solidity >=0.5.16;\npragma experimental ABIEncoderV2;\nimport \"./Consultation.sol\";\n\ncontract PatientIndex{\n   // Patient mapping\n    mapping(address => uint) private addressToIndex;\n    mapping(bytes32 => uint) private patientnameToIndex;\n    address[] private addresses;\n    bytes32[] private patientUnames;\n    bytes[] private ipfsHashes;\n\n    // Consultation mapping\n    mapping(bytes32 => uint) private consulDateIDToIndex;\n    // patient name to consultations\n    mapping(bytes32 => bytes32[]) pnameToConsulArray;\n    mapping(bytes32 => bytes[]) pnameToConsulIpfsArray;\n    // patient address to consultations\n    mapping(address => bytes32[]) paddressToConsulArray;\n    mapping(address => bytes[]) paddressToConsulIpfsArray;\n    bytes32[] consultations;\n    bytes[] private consulIPFShashes;\n\n\nfunction consultationCreate(bytes32 _pname, bytes32 _consulDateID,\n   bytes memory _ipfsConsulHash, bytes memory newPatientIpfs)public returns(bool){\n   // Create new consultation with ID and its IPFS Hash\n   new Consultation(_consulDateID, _ipfsConsulHash);\n   consultations.push(_consulDateID);\n   consulIPFShashes.push(_ipfsConsulHash);\n   consulDateIDToIndex[_consulDateID] = consultations.length;\n   pnameToConsulArray[_pname] = consultations;\n   pnameToConsulIpfsArray[_pname] = consulIPFShashes;\n   paddressToConsulArray[msg.sender] = consultations;\n   paddressToConsulIpfsArray[msg.sender] = consulIPFShashes;\n   // Consultations hash append to patient ipfs storage\n   updatePatient(newPatientIpfs);\n   // emit cons.consultationCreated(_pname, _consulDateID);\n   return true;\n\n}\n\nfunction getConsultationByConsultationIndex(uint _index) public view returns(bytes32 consulID, bytes memory ipfs){\n   return (consultations[_index], consulIPFShashes[_index]);\n}\n\nfunction getConsultationIpfsByConsultationID(bytes32 _consulDateID) public view returns(bytes memory ipfs){\n   return consulIPFShashes[consulDateIDToIndex[_consulDateID]];\n}\n\nfunction getConsultationIndexByConsultationID(bytes32 _consulDateID) public view returns(uint){\n   return consulDateIDToIndex[_consulDateID];\n}\n\nfunction getConsultationsByPatientName(bytes32 _pname) public view returns(bytes32[] memory, bytes[] memory) {\n   require(hasPatient(getAddressByPatientName(_pname)),\n          \"Patient hasn't been found\");\n   return (pnameToConsulArray[_pname], pnameToConsulIpfsArray[_pname]);\n}\n\nfunction getConsultationsByPatientAddress(address patientAddress) public view returns(bytes32[] memory, bytes[] memory){\n   require(hasPatient(patientAddress),\n          \"Patient hasn't been found\");\n   return(paddressToConsulArray[patientAddress],paddressToConsulIpfsArray[patientAddress]);\n}\n\n\n constructor() public{\n        addresses.push(msg.sender);\n        patientUnames.push('x');\n        ipfsHashes.push('not-available');\n }\n\n function hasPatient(address _patientAdresses) public view returns(bool) {\n   return (addressToIndex[_patientAdresses] > 0 || _patientAdresses == addresses[0]);\n }\n\n function patientNameTaken(bytes32 pname) public view returns(bool takenIndeed) {\n   return (patientnameToIndex[pname] > 0 || pname == 'self');\n }\n\n function registerPatient(bytes32 patientName, bytes memory ipfsHash) public returns(bool) {\n   require(!hasPatient(msg.sender),\n           \"Sender not authorized.\");\n   require(!patientNameTaken(patientName),\n           \"Patient name has been taken.\");\n   addresses.push(msg.sender);\n   patientUnames.push(patientName);\n   ipfsHashes.push(ipfsHash);\n   addressToIndex[msg.sender] = addresses.length - 1;\n   patientnameToIndex[patientName] = addresses.length - 1;\n   return true;\n }\n\n function updatePatient(bytes memory ipfsHash) public returns(bool){\n    require(!hasPatient(msg.sender),\n            \"Sender not authorized.\");\n    ipfsHashes[addressToIndex[msg.sender]] = ipfsHash;\n    return true;\n }\n\n function getPatientCount() public view returns(uint){\n    return addresses.length;\n }\n\n function getPatientByIndex(uint index) public view returns(address,bytes32,bytes memory){\n    require((index < addresses.length),\n            \"Index out of bound!\");\n    return(addresses[index], patientUnames[index], ipfsHashes[index]);\n }\n\n function getAddressesByIndex(uint index) public view returns(address){\n    require((index < addresses.length),\n            \"Index out of bound!\");\n    return addresses[index];\n }\n\n function getPatientNameByIndex(uint index) public view returns(bytes32){\n    require((index < addresses.length),\n            \"Index out of bound!\");\n    return patientUnames[index];\n }\n\n function getIpfsHashByIndex(uint index) public view returns(bytes memory){\n    require((index < addresses.length),\n            \"Index out of bound!\");\n    return ipfsHashes[index];\n }\n\n function getPatientByAddress(address patientAddress) public view returns(uint, bytes32, bytes memory){\n    require(hasPatient(patientAddress),\n            \"Patient doesn't exist!\");\n    return(addressToIndex[patientAddress], patientUnames[addressToIndex[patientAddress]], ipfsHashes[addressToIndex[patientAddress]]);\n }\n\n function getIndexByAddress(address patientAddress) public view returns(uint){\n    require(hasPatient(patientAddress),\n            \"Patient doesn't exist!\");\n    return addressToIndex[patientAddress];\n }\n\n function getPatientNameByAddress(address patientAddress) public view returns(bytes32){\n    require(hasPatient(patientAddress),\n            \"Patient doesn't exist!\");\n    return patientUnames[addressToIndex[patientAddress]];\n }\n\n function getIpfsHashByAddress(address patientAddress) public view returns(bytes memory){\n    require(hasPatient(patientAddress),\n            \"Patient doesn't exist!\");\n    return ipfsHashes[addressToIndex[patientAddress]];\n }\n\n function getPatientByPatientName(bytes32 patientname) public view returns(uint,address,bytes memory){\n    require((patientnameToIndex[patientname] < addresses.length),\n            \"Patient index out of bound!\");\n    return(patientnameToIndex[patientname], addresses[patientnameToIndex[patientname]], ipfsHashes[patientnameToIndex[patientname]]);\n }\n\n function getIndexByPatientName(bytes32 patientname) public view returns(uint){\n    require((patientNameTaken(patientname)),\n        \"Can't find the patient!\");\n    return patientnameToIndex[patientname];\n }\n\n function getAddressByPatientName(bytes32 patientname) public view returns(address){\n    require((patientNameTaken(patientname)),\n        \"Can't find the patient!\");\n    return addresses[patientnameToIndex[patientname]];\n }\n function getIpfsHashByPatientName(bytes32 patientname) public view returns(bytes memory){\n    require((patientNameTaken(patientname)),\n            \"Can't find the patient!\");\n    return ipfsHashes[patientnameToIndex[patientname]];\n }\n}",
  "sourcePath": "/home/eke/patient-eth-ipfs/contracts/Patient.sol",
  "compiler": {
    "name": "solc",
    "version": "0.5.16+commit.9c3226ce.Emscripten.clang"
  },
  "schemaVersion": "3.0.23",
  "updatedAt": "2020-04-11T17:09:29.569Z",
  "networkType": "ethereum",
  "devdoc": {
    "methods": {}
  },
  "userdoc": {
    "methods": {}
  }
}