{
  "contractName": "Patient",
  "abi": [
    {
      "inputs": [
        {
          "internalType": "bytes32",
          "name": "_patientuname",
          "type": "bytes32"
        },
        {
          "internalType": "bytes",
          "name": "_IpfsHash",
          "type": "bytes"
        }
      ],
      "payable": false,
      "stateMutability": "nonpayable",
      "type": "constructor"
    },
    {
      "anonymous": false,
      "inputs": [
        {
          "indexed": false,
          "internalType": "bytes32",
          "name": "pname",
          "type": "bytes32"
        },
        {
          "indexed": false,
          "internalType": "bytes32",
          "name": "consID",
          "type": "bytes32"
        }
      ],
      "name": "NewConsultationCreated",
      "type": "event"
    },
    {
      "anonymous": false,
      "inputs": [
        {
          "indexed": false,
          "internalType": "bytes32",
          "name": "pname",
          "type": "bytes32"
        },
        {
          "indexed": false,
          "internalType": "bytes32",
          "name": "consID",
          "type": "bytes32"
        },
        {
          "indexed": false,
          "internalType": "bytes32",
          "name": "medname",
          "type": "bytes32"
        }
      ],
      "name": "NewMedicineCreatedForPatient",
      "type": "event"
    },
    {
      "anonymous": false,
      "inputs": [
        {
          "indexed": false,
          "internalType": "bytes32",
          "name": "pname",
          "type": "bytes32"
        },
        {
          "indexed": false,
          "internalType": "bytes32",
          "name": "testID",
          "type": "bytes32"
        }
      ],
      "name": "NewTestCreated",
      "type": "event"
    },
    {
      "constant": false,
      "inputs": [
        {
          "internalType": "bytes",
          "name": "ipfsHash",
          "type": "bytes"
        }
      ],
      "name": "updatePatient",
      "outputs": [
        {
          "internalType": "bool",
          "name": "",
          "type": "bool"
        }
      ],
      "payable": false,
      "stateMutability": "nonpayable",
      "type": "function"
    },
    {
      "constant": false,
      "inputs": [
        {
          "internalType": "bytes32",
          "name": "_pname",
          "type": "bytes32"
        },
        {
          "internalType": "bytes32",
          "name": "_consulDateID",
          "type": "bytes32"
        },
        {
          "internalType": "bytes",
          "name": "newPatientIpfs",
          "type": "bytes"
        }
      ],
      "name": "consultationCreate",
      "outputs": [
        {
          "internalType": "bool",
          "name": "",
          "type": "bool"
        }
      ],
      "payable": false,
      "stateMutability": "nonpayable",
      "type": "function"
    },
    {
      "constant": true,
      "inputs": [
        {
          "internalType": "uint256",
          "name": "_index",
          "type": "uint256"
        }
      ],
      "name": "getConsultationByConsultationIndex",
      "outputs": [
        {
          "internalType": "bytes32",
          "name": "consulID",
          "type": "bytes32"
        }
      ],
      "payable": false,
      "stateMutability": "view",
      "type": "function"
    },
    {
      "constant": true,
      "inputs": [
        {
          "internalType": "bytes32",
          "name": "_consulDateID",
          "type": "bytes32"
        }
      ],
      "name": "getConsultationIndexByConsultationID",
      "outputs": [
        {
          "internalType": "uint256",
          "name": "",
          "type": "uint256"
        }
      ],
      "payable": false,
      "stateMutability": "view",
      "type": "function"
    },
    {
      "constant": true,
      "inputs": [
        {
          "internalType": "bytes32",
          "name": "_pname",
          "type": "bytes32"
        }
      ],
      "name": "getConsultationsByPatientName",
      "outputs": [
        {
          "internalType": "bytes32[]",
          "name": "",
          "type": "bytes32[]"
        }
      ],
      "payable": false,
      "stateMutability": "view",
      "type": "function"
    },
    {
      "constant": true,
      "inputs": [
        {
          "internalType": "address",
          "name": "patientAddress",
          "type": "address"
        }
      ],
      "name": "getConsultationsByPatientAddress",
      "outputs": [
        {
          "internalType": "bytes32[]",
          "name": "",
          "type": "bytes32[]"
        }
      ],
      "payable": false,
      "stateMutability": "view",
      "type": "function"
    },
    {
      "constant": true,
      "inputs": [],
      "name": "getConsultationsCount",
      "outputs": [
        {
          "internalType": "uint256",
          "name": "",
          "type": "uint256"
        }
      ],
      "payable": false,
      "stateMutability": "view",
      "type": "function"
    },
    {
      "constant": false,
      "inputs": [
        {
          "internalType": "bytes32",
          "name": "_pname",
          "type": "bytes32"
        },
        {
          "internalType": "bytes32",
          "name": "_testDateID",
          "type": "bytes32"
        },
        {
          "internalType": "bytes",
          "name": "newPatientIpfs",
          "type": "bytes"
        }
      ],
      "name": "testCreate",
      "outputs": [
        {
          "internalType": "bool",
          "name": "",
          "type": "bool"
        }
      ],
      "payable": false,
      "stateMutability": "nonpayable",
      "type": "function"
    },
    {
      "constant": true,
      "inputs": [
        {
          "internalType": "uint256",
          "name": "_index",
          "type": "uint256"
        }
      ],
      "name": "getTestByTestIndex",
      "outputs": [
        {
          "internalType": "bytes32",
          "name": "testID",
          "type": "bytes32"
        }
      ],
      "payable": false,
      "stateMutability": "view",
      "type": "function"
    },
    {
      "constant": true,
      "inputs": [
        {
          "internalType": "bytes32",
          "name": "_testDateID",
          "type": "bytes32"
        }
      ],
      "name": "getTestIndexByTestID",
      "outputs": [
        {
          "internalType": "uint256",
          "name": "",
          "type": "uint256"
        }
      ],
      "payable": false,
      "stateMutability": "view",
      "type": "function"
    },
    {
      "constant": true,
      "inputs": [
        {
          "internalType": "bytes32",
          "name": "_pname",
          "type": "bytes32"
        }
      ],
      "name": "getTestsByPatientName",
      "outputs": [
        {
          "internalType": "bytes32[]",
          "name": "",
          "type": "bytes32[]"
        }
      ],
      "payable": false,
      "stateMutability": "view",
      "type": "function"
    },
    {
      "constant": true,
      "inputs": [
        {
          "internalType": "address",
          "name": "patientAddress",
          "type": "address"
        }
      ],
      "name": "getTestsByPatientAddress",
      "outputs": [
        {
          "internalType": "bytes32[]",
          "name": "",
          "type": "bytes32[]"
        }
      ],
      "payable": false,
      "stateMutability": "view",
      "type": "function"
    },
    {
      "constant": true,
      "inputs": [],
      "name": "getTestsCount",
      "outputs": [
        {
          "internalType": "uint256",
          "name": "",
          "type": "uint256"
        }
      ],
      "payable": false,
      "stateMutability": "view",
      "type": "function"
    },
    {
      "constant": false,
      "inputs": [
        {
          "internalType": "bytes32",
          "name": "mname",
          "type": "bytes32"
        }
      ],
      "name": "saveMedicineForPatientUse",
      "outputs": [
        {
          "internalType": "bool",
          "name": "",
          "type": "bool"
        }
      ],
      "payable": false,
      "stateMutability": "nonpayable",
      "type": "function"
    },
    {
      "constant": true,
      "inputs": [],
      "name": "getMedicinesFromConsultation",
      "outputs": [
        {
          "internalType": "bytes32[]",
          "name": "",
          "type": "bytes32[]"
        }
      ],
      "payable": false,
      "stateMutability": "view",
      "type": "function"
    }
  ],
  "bytecode": "0x60806040523480156200001157600080fd5b5060405162001810380380620018108339818101604052620000379190810190620001c1565b336000806101000a81548173ffffffffffffffffffffffffffffffffffffffff021916908373ffffffffffffffffffffffffffffffffffffffff160217905550816001819055508060029080519060200190620000969291906200009f565b505050620002d0565b828054600181600116156101000203166002900490600052602060002090601f016020900481019282601f10620000e257805160ff191683800117855562000113565b8280016001018555821562000113579182015b8281111562000112578251825591602001919060010190620000f5565b5b50905062000122919062000126565b5090565b6200014b91905b80821115620001475760008160009055506001016200012d565b5090565b90565b6000815190506200015f81620002b6565b92915050565b600082601f8301126200017757600080fd5b81516200018e620001888262000249565b6200021b565b91508082526020830160208301858383011115620001ab57600080fd5b620001b883828462000280565b50505092915050565b60008060408385031215620001d557600080fd5b6000620001e5858286016200014e565b925050602083015167ffffffffffffffff8111156200020357600080fd5b620002118582860162000165565b9150509250929050565b6000604051905081810181811067ffffffffffffffff821117156200023f57600080fd5b8060405250919050565b600067ffffffffffffffff8211156200026157600080fd5b601f19601f8301169050602081019050919050565b6000819050919050565b60005b83811015620002a057808201518184015260208101905062000283565b83811115620002b0576000848401525b50505050565b620002c18162000276565b8114620002cd57600080fd5b50565b61153080620002e06000396000f3fe608060405234801561001057600080fd5b50600436106100f55760003560e01c8063511ad5221161009757806377e4afe41161006657806377e4afe4146102f857806394e7ef6e146103165780639b9fc6e014610346578063f811f1ab14610376576100f5565b8063511ad5221461024a578063624a4dac1461027a57806374275255146102985780637448d8d8146102c8576100f5565b80632dce4167116100d35780632dce41671461018a57806330ca739b146101ba57806345cfa71d146101ea5780635035cf521461021a576100f5565b80630b8d6eae146100fa5780631f97c4c31461012a578063234c16181461015a575b600080fd5b610114600480360361010f9190810190610cb3565b610394565b6040516101219190610f38565b60405180910390f35b610144600480360361013f9190810190610d46565b61042b565b6040516101519190610f5a565b60405180910390f35b610174600480360361016f9190810190610d46565b6104e1565b6040516101819190610fb9565b60405180910390f35b6101a4600480360361019f9190810190610d46565b6104fe565b6040516101b19190610fb9565b60405180910390f35b6101d460048036036101cf9190810190610cb3565b61051b565b6040516101e19190610f38565b60405180910390f35b61020460048036036101ff9190810190610d46565b6105b2565b6040516102119190610f38565b60405180910390f35b610234600480360361022f9190810190610d6f565b61061d565b6040516102419190610f5a565b60405180910390f35b610264600480360361025f9190810190610e17565b610763565b6040516102719190610f75565b60405180910390f35b610282610784565b60405161028f9190610fb9565b60405180910390f35b6102b260048036036102ad9190810190610d6f565b610791565b6040516102bf9190610f5a565b60405180910390f35b6102e260048036036102dd9190810190610d46565b6108d7565b6040516102ef9190610f38565b60405180910390f35b610300610942565b60405161030d9190610f38565b60405180910390f35b610330600480360361032b9190810190610dd6565b6109ee565b60405161033d9190610f5a565b60405180910390f35b610360600480360361035b9190810190610e17565b610a10565b60405161036d9190610f75565b60405180910390f35b61037e610a31565b60405161038b9190610fb9565b60405180910390f35b6060600660008373ffffffffffffffffffffffffffffffffffffffff1673ffffffffffffffffffffffffffffffffffffffff16815260200190815260200160002080548060200260200160405190810160405280929190818152602001828054801561041f57602002820191906000526020600020905b81548152602001906001019080831161040b575b50505050509050919050565b6000600360009054906101000a900473ffffffffffffffffffffffffffffffffffffffff1673ffffffffffffffffffffffffffffffffffffffff16631f97c4c3836040518263ffffffff1660e01b81526004016104889190610f75565b602060405180830381600087803b1580156104a257600080fd5b505af11580156104b6573d6000803e3d6000fd5b505050506040513d601f19601f820116820180604052506104da9190810190610d1d565b9050919050565b600060086000838152602001908152602001600020549050919050565b600060046000838152602001908152602001600020549050919050565b6060600660008373ffffffffffffffffffffffffffffffffffffffff1673ffffffffffffffffffffffffffffffffffffffff1681526020019081526020016000208054806020026020016040519081016040528092919081815260200182805480156105a657602002820191906000526020600020905b815481526020019060010190808311610592575b50505050509050919050565b60606009600083815260200190815260200160002080548060200260200160405190810160405280929190818152602001828054801561061157602002820191906000526020600020905b8154815260200190600101908083116105fd575b50505050509050919050565b600033848460405161062e90610a3e565b61063a93929190610f01565b604051809103906000f080158015610656573d6000803e3d6000fd5b5050600b839080600181540180825580915050906001820390600052602060002001600090919290919091505550600b805490506008600085815260200190815260200160002081905550600b600960008681526020019081526020016000209080546106c4929190610a4a565b50600b600a60003373ffffffffffffffffffffffffffffffffffffffff1673ffffffffffffffffffffffffffffffffffffffff168152602001908152602001600020908054610714929190610a4a565b5061071e826109ee565b507f2bb590431d1dfc5d86ac3f951c70a27b4818eb2e4bc69ba773cf6f12b3ca98158484604051610750929190610f90565b60405180910390a1600190509392505050565b6000600b828154811061077257fe5b90600052602060002001549050919050565b6000600b80549050905090565b60003384846040516107a290610a9c565b6107ae93929190610f01565b604051809103906000f0801580156107ca573d6000803e3d6000fd5b505060078390806001815401808255809150509060018203906000526020600020016000909192909190915055506007805490506004600085815260200190815260200160002081905550600760056000868152602001908152602001600020908054610838929190610a4a565b506007600660003373ffffffffffffffffffffffffffffffffffffffff1673ffffffffffffffffffffffffffffffffffffffff168152602001908152602001600020908054610888929190610a4a565b50610892826109ee565b507f8f4940dfc4a4a23294dbd13e6f0929ba11b468a44fc5005a4f895430a844d10884846040516108c4929190610f90565b60405180910390a1600190509392505050565b60606005600083815260200190815260200160002080548060200260200160405190810160405280929190818152602001828054801561093657602002820191906000526020600020905b815481526020019060010190808311610922575b50505050509050919050565b6060600360009054906101000a900473ffffffffffffffffffffffffffffffffffffffff1673ffffffffffffffffffffffffffffffffffffffff166377e4afe46040518163ffffffff1660e01b815260040160006040518083038186803b1580156109ac57600080fd5b505afa1580156109c0573d6000803e3d6000fd5b505050506040513d6000823e3d601f19601f820116820180604052506109e99190810190610cdc565b905090565b60008160029080519060200190610a06929190610aa9565b5060019050919050565b600060078281548110610a1f57fe5b90600052602060002001549050919050565b6000600780549050905090565b60f08061118283390190565b828054828255906000526020600020908101928215610a8b5760005260206000209182015b82811115610a8a578254825591600101919060010190610a6f565b5b509050610a989190610b29565b5090565b61027c8061127283390190565b828054600181600116156101000203166002900490600052602060002090601f016020900481019282601f10610aea57805160ff1916838001178555610b18565b82800160010185558215610b18579182015b82811115610b17578251825591602001919060010190610afc565b5b509050610b259190610b4e565b5090565b610b4b91905b80821115610b47576000816000905550600101610b2f565b5090565b90565b610b7091905b80821115610b6c576000816000905550600101610b54565b5090565b90565b600081359050610b8281611125565b92915050565b600082601f830112610b9957600080fd5b8151610bac610ba782611001565b610fd4565b91508181835260208401935060208101905083856020840282011115610bd157600080fd5b60005b83811015610c015781610be78882610c35565b845260208401935060208301925050600181019050610bd4565b5050505092915050565b600081519050610c1a8161113c565b92915050565b600081359050610c2f81611153565b92915050565b600081519050610c4481611153565b92915050565b600082601f830112610c5b57600080fd5b8135610c6e610c6982611029565b610fd4565b91508082526020830160208301858383011115610c8a57600080fd5b610c95838284611116565b50505092915050565b600081359050610cad8161116a565b92915050565b600060208284031215610cc557600080fd5b6000610cd384828501610b73565b91505092915050565b600060208284031215610cee57600080fd5b600082015167ffffffffffffffff811115610d0857600080fd5b610d1484828501610b88565b91505092915050565b600060208284031215610d2f57600080fd5b6000610d3d84828501610c0b565b91505092915050565b600060208284031215610d5857600080fd5b6000610d6684828501610c20565b91505092915050565b600080600060608486031215610d8457600080fd5b6000610d9286828701610c20565b9350506020610da386828701610c20565b925050604084013567ffffffffffffffff811115610dc057600080fd5b610dcc86828701610c4a565b9150509250925092565b600060208284031215610de857600080fd5b600082013567ffffffffffffffff811115610e0257600080fd5b610e0e84828501610c4a565b91505092915050565b600060208284031215610e2957600080fd5b6000610e3784828501610c9e565b91505092915050565b6000610e4c8383610ed4565b60208301905092915050565b610e61816110e0565b82525050565b6000610e7282611065565b610e7c818561107d565b9350610e8783611055565b8060005b83811015610eb8578151610e9f8882610e40565b9750610eaa83611070565b925050600181019050610e8b565b5085935050505092915050565b610ece816110a0565b82525050565b610edd816110ac565b82525050565b610eec816110ac565b82525050565b610efb816110d6565b82525050565b6000606082019050610f166000830186610e58565b610f236020830185610ee3565b610f306040830184610ee3565b949350505050565b60006020820190508181036000830152610f528184610e67565b905092915050565b6000602082019050610f6f6000830184610ec5565b92915050565b6000602082019050610f8a6000830184610ee3565b92915050565b6000604082019050610fa56000830185610ee3565b610fb26020830184610ee3565b9392505050565b6000602082019050610fce6000830184610ef2565b92915050565b6000604051905081810181811067ffffffffffffffff82111715610ff757600080fd5b8060405250919050565b600067ffffffffffffffff82111561101857600080fd5b602082029050602081019050919050565b600067ffffffffffffffff82111561104057600080fd5b601f19601f8301169050602081019050919050565b6000819050602082019050919050565b600081519050919050565b6000602082019050919050565b600082825260208201905092915050565b6000611099826110b6565b9050919050565b60008115159050919050565b6000819050919050565b600073ffffffffffffffffffffffffffffffffffffffff82169050919050565b6000819050919050565b60006110eb826110f2565b9050919050565b60006110fd82611104565b9050919050565b600061110f826110b6565b9050919050565b82818337600083830152505050565b61112e8161108e565b811461113957600080fd5b50565b611145816110a0565b811461115057600080fd5b50565b61115c816110ac565b811461116757600080fd5b50565b611173816110d6565b811461117e57600080fd5b5056fe6080604052348015600f57600080fd5b5060405160f038038060f083398181016040526060811015602f57600080fd5b81019080805190602001909291908051906020019092919080519060200190929190505050826000806101000a81548173ffffffffffffffffffffffffffffffffffffffff021916908373ffffffffffffffffffffffffffffffffffffffff1602179055508160018190555080600281905550505050603e8060b26000396000f3fe6080604052600080fdfea265627a7a72315820119bb7d6b605b0a513377dcafe1408ee5ce032f383864e14b23f2645bdcd969a64736f6c63430005100032608060405234801561001057600080fd5b5060405161027c38038061027c8339818101604052606081101561003357600080fd5b81019080805190602001909291908051906020019092919080519060200190929190505050826000806101000a81548173ffffffffffffffffffffffffffffffffffffffff021916908373ffffffffffffffffffffffffffffffffffffffff16021790555081600181905550806002819055505050506101c4806100b86000396000f3fe608060405234801561001057600080fd5b50600436106100365760003560e01c80631f97c4c31461003b57806377e4afe414610081575b600080fd5b6100676004803603602081101561005157600080fd5b81019080803590602001909291905050506100e0565b604051808215151515815260200191505060405180910390f35b610089610137565b6040518080602001828103825283818151815260200191508051906020019060200280838360005b838110156100cc5780820151818401526020810190506100b1565b505050509050019250505060405180910390f35b60006003829080600181540180825580915050906001820390600052602060002001600090919290919091505550600160038054905003600460008481526020019081526020016000208190555060019050919050565b6060600380548060200260200160405190810160405280929190818152602001828054801561018557602002820191906000526020600020905b815481526020019060010190808311610171575b505050505090509056fea265627a7a72315820a28acc80c16d4ce281046eedcc0203dc0edc02632ded63becab36794e973bd4964736f6c63430005100032a365627a7a7231582087e57ae635a07ac5c88fb27a6702f020cd21599efc8f2c3f569c4b61af4586f76c6578706572696d656e74616cf564736f6c63430005100040",
  "source": "pragma solidity >=0.5.16;\npragma experimental ABIEncoderV2;\nimport \"./Consultation.sol\";\nimport \"./Test.sol\";\n\ncontract Patient{\n    address private addr;\n    bytes32 private patientuname;\n    bytes private IpfsHash;\n    Consultation c;\n\n    // Consultation mapping\n    mapping(bytes32 => uint) private consulDateIDToIndex;\n    mapping(bytes32 => bytes32[]) pnameToConsulArray;\n    mapping(address => bytes32[]) paddressToConsulArray;\n    bytes32[] consIDs;\n\n    // Test mapping\n\n    mapping(bytes32 => uint) private testDateIDToIndex;\n    mapping(bytes32 => bytes32[]) pnameToTestArray;\n    mapping(address => bytes32[]) paddressToTestArray;\n    bytes32[] testIDs;\n\n    event NewConsultationCreated(bytes32 pname, bytes32 consID);\n    event NewTestCreated(bytes32 pname, bytes32 testID);\n    event NewMedicineCreatedForPatient(bytes32 pname, bytes32 consID, bytes32 medname);\n\n    constructor(bytes32 _patientuname,bytes memory _IpfsHash) public{\n        addr = msg.sender;\n        patientuname = _patientuname;\n        IpfsHash = _IpfsHash;\n     }\n\n    function updatePatient(bytes memory ipfsHash) public returns(bool){\n        IpfsHash = ipfsHash;\n        return true;\n     }\n\n    function consultationCreate(bytes32 _pname, bytes32 _consulDateID, bytes memory newPatientIpfs)public returns(bool){\n        // Create new consultation with ID\n        new Consultation(msg.sender, _pname, _consulDateID);\n        consIDs.push(_consulDateID);\n        consulDateIDToIndex[_consulDateID] = consIDs.length;\n        pnameToConsulArray[_pname] = consIDs;\n        paddressToConsulArray[msg.sender] = consIDs;\n        // Consultations hash append to patient ipfs storage\n        updatePatient(newPatientIpfs);\n        emit NewConsultationCreated(_pname, _consulDateID);\n        return true;\n     }\n\n    function getConsultationByConsultationIndex(uint _index) public view returns(bytes32 consulID){\n        return (consIDs[_index]);\n     }\n\n    function getConsultationIndexByConsultationID(bytes32 _consulDateID) public view returns(uint){\n        return consulDateIDToIndex[_consulDateID];\n     }\n\n    function getConsultationsByPatientName(bytes32 _pname) public view returns(bytes32[] memory) {\n        return (pnameToConsulArray[_pname]);\n     }\n\n    function getConsultationsByPatientAddress(address patientAddress) public view returns(bytes32[] memory){\n        return(paddressToConsulArray[patientAddress]);\n     }\n    function getConsultationsCount() public view returns (uint){\n        return consIDs.length;\n     }\n    function testCreate(bytes32 _pname, bytes32 _testDateID, bytes memory newPatientIpfs)public returns(bool){\n        // Create new test with ID\n        new Test(msg.sender, _pname, _testDateID);\n        testIDs.push(_testDateID);\n        testDateIDToIndex[_testDateID] = testIDs.length;\n        pnameToTestArray[_pname] = testIDs;\n        paddressToTestArray[msg.sender] = testIDs;\n        // Consultations hash append to patient ipfs storage\n        updatePatient(newPatientIpfs);\n        emit NewTestCreated(_pname, _testDateID);\n        return true;\n     }\n\n    function getTestByTestIndex(uint _index) public view returns(bytes32 testID){\n        return (testIDs[_index]);\n     }\n\n    function getTestIndexByTestID(bytes32 _testDateID) public view returns(uint){\n        return testDateIDToIndex[_testDateID];\n     }\n\n    function getTestsByPatientName(bytes32 _pname) public view returns(bytes32[] memory) {\n        return (pnameToTestArray[_pname]);\n     }\n\n    function getTestsByPatientAddress(address patientAddress) public view returns(bytes32[] memory){\n        return(paddressToConsulArray[patientAddress]);\n     }\n    function getTestsCount() public view returns (uint){\n        return testIDs.length;\n     }\n\n    function saveMedicineForPatientUse(bytes32 mname) public returns(bool){\n        return c.saveMedicineForPatientUse(mname);\n     }\n    function getMedicinesFromConsultation() public view returns(bytes32[] memory){\n        return c.getMedicinesFromConsultation();\n     }\n}",
  "sourcePath": "/home/eke/patient-eth-ipfs/contracts/Patient.sol",
  "compiler": {
    "name": "solc",
    "version": "0.5.16+commit.9c3226ce.Emscripten.clang"
  },
  "schemaVersion": "3.0.23",
  "updatedAt": "2020-04-12T12:22:00.663Z",
  "devdoc": {
    "methods": {}
  },
  "userdoc": {
    "methods": {}
  }
}