{
  "contractName": "PatientStorage",
  "abi": [
    {
      "constant": false,
      "inputs": [
        {
          "internalType": "bytes32",
          "name": "patientName",
          "type": "bytes32"
        },
        {
          "internalType": "bytes",
          "name": "ipfsHash",
          "type": "bytes"
        }
      ],
      "name": "registerPatient",
      "outputs": [
        {
          "internalType": "bool",
          "name": "",
          "type": "bool"
        }
      ],
      "payable": false,
      "stateMutability": "nonpayable",
      "type": "function"
    },
    {
      "constant": true,
      "inputs": [
        {
          "internalType": "address",
          "name": "_patientAdresses",
          "type": "address"
        }
      ],
      "name": "hasPatient",
      "outputs": [
        {
          "internalType": "bool",
          "name": "",
          "type": "bool"
        }
      ],
      "payable": false,
      "stateMutability": "view",
      "type": "function"
    },
    {
      "constant": true,
      "inputs": [
        {
          "internalType": "bytes32",
          "name": "pname",
          "type": "bytes32"
        }
      ],
      "name": "patientNameTaken",
      "outputs": [
        {
          "internalType": "bool",
          "name": "takenIndeed",
          "type": "bool"
        }
      ],
      "payable": false,
      "stateMutability": "view",
      "type": "function"
    },
    {
      "constant": false,
      "inputs": [
        {
          "internalType": "bytes",
          "name": "ipfsHash",
          "type": "bytes"
        }
      ],
      "name": "updatePatient",
      "outputs": [
        {
          "internalType": "bool",
          "name": "",
          "type": "bool"
        }
      ],
      "payable": false,
      "stateMutability": "nonpayable",
      "type": "function"
    },
    {
      "constant": true,
      "inputs": [],
      "name": "getPatientCount",
      "outputs": [
        {
          "internalType": "uint256",
          "name": "",
          "type": "uint256"
        }
      ],
      "payable": false,
      "stateMutability": "view",
      "type": "function"
    },
    {
      "constant": true,
      "inputs": [
        {
          "internalType": "bytes32",
          "name": "_pname",
          "type": "bytes32"
        }
      ],
      "name": "getPatientByPatientname",
      "outputs": [
        {
          "internalType": "contract Patient",
          "name": "",
          "type": "address"
        }
      ],
      "payable": false,
      "stateMutability": "view",
      "type": "function"
    },
    {
      "constant": true,
      "inputs": [
        {
          "internalType": "uint256",
          "name": "index",
          "type": "uint256"
        }
      ],
      "name": "getPatientByIndex",
      "outputs": [
        {
          "internalType": "address",
          "name": "",
          "type": "address"
        },
        {
          "internalType": "bytes32",
          "name": "",
          "type": "bytes32"
        },
        {
          "internalType": "bytes",
          "name": "",
          "type": "bytes"
        }
      ],
      "payable": false,
      "stateMutability": "view",
      "type": "function"
    },
    {
      "constant": true,
      "inputs": [
        {
          "internalType": "uint256",
          "name": "index",
          "type": "uint256"
        }
      ],
      "name": "getAddressByIndex",
      "outputs": [
        {
          "internalType": "address",
          "name": "",
          "type": "address"
        }
      ],
      "payable": false,
      "stateMutability": "view",
      "type": "function"
    },
    {
      "constant": true,
      "inputs": [
        {
          "internalType": "uint256",
          "name": "index",
          "type": "uint256"
        }
      ],
      "name": "getPatientNameByIndex",
      "outputs": [
        {
          "internalType": "bytes32",
          "name": "",
          "type": "bytes32"
        }
      ],
      "payable": false,
      "stateMutability": "view",
      "type": "function"
    },
    {
      "constant": true,
      "inputs": [
        {
          "internalType": "uint256",
          "name": "index",
          "type": "uint256"
        }
      ],
      "name": "getIpfsHashByIndex",
      "outputs": [
        {
          "internalType": "bytes",
          "name": "",
          "type": "bytes"
        }
      ],
      "payable": false,
      "stateMutability": "view",
      "type": "function"
    },
    {
      "constant": true,
      "inputs": [
        {
          "internalType": "address",
          "name": "patientAddress",
          "type": "address"
        }
      ],
      "name": "getPatientByAddress",
      "outputs": [
        {
          "internalType": "uint256",
          "name": "",
          "type": "uint256"
        },
        {
          "internalType": "bytes32",
          "name": "",
          "type": "bytes32"
        },
        {
          "internalType": "bytes",
          "name": "",
          "type": "bytes"
        }
      ],
      "payable": false,
      "stateMutability": "view",
      "type": "function"
    },
    {
      "constant": true,
      "inputs": [
        {
          "internalType": "address",
          "name": "patientAddress",
          "type": "address"
        }
      ],
      "name": "getIndexByAddress",
      "outputs": [
        {
          "internalType": "uint256",
          "name": "",
          "type": "uint256"
        }
      ],
      "payable": false,
      "stateMutability": "view",
      "type": "function"
    },
    {
      "constant": true,
      "inputs": [
        {
          "internalType": "address",
          "name": "patientAddress",
          "type": "address"
        }
      ],
      "name": "getPatientNameByAddress",
      "outputs": [
        {
          "internalType": "bytes32",
          "name": "",
          "type": "bytes32"
        }
      ],
      "payable": false,
      "stateMutability": "view",
      "type": "function"
    },
    {
      "constant": true,
      "inputs": [
        {
          "internalType": "address",
          "name": "patientAddress",
          "type": "address"
        }
      ],
      "name": "getIpfsHashByAddress",
      "outputs": [
        {
          "internalType": "bytes",
          "name": "",
          "type": "bytes"
        }
      ],
      "payable": false,
      "stateMutability": "view",
      "type": "function"
    },
    {
      "constant": true,
      "inputs": [
        {
          "internalType": "bytes32",
          "name": "patientname",
          "type": "bytes32"
        }
      ],
      "name": "getPatientByPatientName",
      "outputs": [
        {
          "internalType": "uint256",
          "name": "",
          "type": "uint256"
        },
        {
          "internalType": "address",
          "name": "",
          "type": "address"
        },
        {
          "internalType": "bytes",
          "name": "",
          "type": "bytes"
        }
      ],
      "payable": false,
      "stateMutability": "view",
      "type": "function"
    },
    {
      "constant": true,
      "inputs": [
        {
          "internalType": "bytes32",
          "name": "patientname",
          "type": "bytes32"
        }
      ],
      "name": "getIndexByPatientName",
      "outputs": [
        {
          "internalType": "uint256",
          "name": "",
          "type": "uint256"
        }
      ],
      "payable": false,
      "stateMutability": "view",
      "type": "function"
    },
    {
      "constant": true,
      "inputs": [
        {
          "internalType": "bytes32",
          "name": "patientname",
          "type": "bytes32"
        }
      ],
      "name": "getAddressByPatientName",
      "outputs": [
        {
          "internalType": "address",
          "name": "",
          "type": "address"
        }
      ],
      "payable": false,
      "stateMutability": "view",
      "type": "function"
    },
    {
      "constant": true,
      "inputs": [
        {
          "internalType": "bytes32",
          "name": "patientname",
          "type": "bytes32"
        }
      ],
      "name": "getIpfsHashByPatientName",
      "outputs": [
        {
          "internalType": "bytes",
          "name": "",
          "type": "bytes"
        }
      ],
      "payable": false,
      "stateMutability": "view",
      "type": "function"
    },
    {
      "constant": false,
      "inputs": [
        {
          "internalType": "bytes32",
          "name": "_pname",
          "type": "bytes32"
        },
        {
          "internalType": "bytes32",
          "name": "_consulDateID",
          "type": "bytes32"
        },
        {
          "internalType": "bytes",
          "name": "newPatientIpfs",
          "type": "bytes"
        }
      ],
      "name": "consultationCreate",
      "outputs": [
        {
          "internalType": "bool",
          "name": "",
          "type": "bool"
        }
      ],
      "payable": false,
      "stateMutability": "nonpayable",
      "type": "function"
    },
    {
      "constant": true,
      "inputs": [
        {
          "internalType": "bytes32",
          "name": "patientName",
          "type": "bytes32"
        },
        {
          "internalType": "uint256",
          "name": "_index",
          "type": "uint256"
        }
      ],
      "name": "getConsultationByConsultationIndex",
      "outputs": [
        {
          "internalType": "bytes32",
          "name": "consulID",
          "type": "bytes32"
        }
      ],
      "payable": false,
      "stateMutability": "view",
      "type": "function"
    },
    {
      "constant": true,
      "inputs": [
        {
          "internalType": "bytes32",
          "name": "patientName",
          "type": "bytes32"
        },
        {
          "internalType": "bytes32",
          "name": "_consulDateID",
          "type": "bytes32"
        }
      ],
      "name": "getConsultationIndexByConsultationID",
      "outputs": [
        {
          "internalType": "uint256",
          "name": "",
          "type": "uint256"
        }
      ],
      "payable": false,
      "stateMutability": "view",
      "type": "function"
    },
    {
      "constant": true,
      "inputs": [
        {
          "internalType": "bytes32",
          "name": "_pname",
          "type": "bytes32"
        }
      ],
      "name": "getConsultationsByPatientName",
      "outputs": [
        {
          "internalType": "bytes32[]",
          "name": "",
          "type": "bytes32[]"
        }
      ],
      "payable": false,
      "stateMutability": "view",
      "type": "function"
    },
    {
      "constant": true,
      "inputs": [
        {
          "internalType": "address",
          "name": "patientAddress",
          "type": "address"
        }
      ],
      "name": "getConsultationsByPatientAddress",
      "outputs": [
        {
          "internalType": "bytes32[]",
          "name": "",
          "type": "bytes32[]"
        }
      ],
      "payable": false,
      "stateMutability": "view",
      "type": "function"
    },
    {
      "constant": false,
      "inputs": [
        {
          "internalType": "bytes32",
          "name": "_pname",
          "type": "bytes32"
        },
        {
          "internalType": "bytes32",
          "name": "_testDateID",
          "type": "bytes32"
        },
        {
          "internalType": "bytes",
          "name": "newPatientIpfs",
          "type": "bytes"
        }
      ],
      "name": "testCreate",
      "outputs": [
        {
          "internalType": "bool",
          "name": "",
          "type": "bool"
        }
      ],
      "payable": false,
      "stateMutability": "nonpayable",
      "type": "function"
    },
    {
      "constant": true,
      "inputs": [
        {
          "internalType": "bytes32",
          "name": "patientName",
          "type": "bytes32"
        },
        {
          "internalType": "uint256",
          "name": "_index",
          "type": "uint256"
        }
      ],
      "name": "getTestByTestIndex",
      "outputs": [
        {
          "internalType": "bytes32",
          "name": "testID",
          "type": "bytes32"
        }
      ],
      "payable": false,
      "stateMutability": "view",
      "type": "function"
    },
    {
      "constant": true,
      "inputs": [
        {
          "internalType": "bytes32",
          "name": "patientName",
          "type": "bytes32"
        },
        {
          "internalType": "bytes32",
          "name": "_testDateID",
          "type": "bytes32"
        }
      ],
      "name": "getTestIndexByTestID",
      "outputs": [
        {
          "internalType": "uint256",
          "name": "",
          "type": "uint256"
        }
      ],
      "payable": false,
      "stateMutability": "view",
      "type": "function"
    },
    {
      "constant": true,
      "inputs": [
        {
          "internalType": "bytes32",
          "name": "_pname",
          "type": "bytes32"
        }
      ],
      "name": "getTestsByPatientName",
      "outputs": [
        {
          "internalType": "bytes32[]",
          "name": "",
          "type": "bytes32[]"
        }
      ],
      "payable": false,
      "stateMutability": "view",
      "type": "function"
    },
    {
      "constant": true,
      "inputs": [
        {
          "internalType": "address",
          "name": "patientAddress",
          "type": "address"
        }
      ],
      "name": "getTestsByPatientAddress",
      "outputs": [
        {
          "internalType": "bytes32[]",
          "name": "",
          "type": "bytes32[]"
        }
      ],
      "payable": false,
      "stateMutability": "view",
      "type": "function"
    },
    {
      "constant": true,
      "inputs": [
        {
          "internalType": "bytes32",
          "name": "patientName",
          "type": "bytes32"
        }
      ],
      "name": "getTestsCount",
      "outputs": [
        {
          "internalType": "uint256",
          "name": "",
          "type": "uint256"
        }
      ],
      "payable": false,
      "stateMutability": "view",
      "type": "function"
    },
    {
      "constant": false,
      "inputs": [
        {
          "internalType": "bytes32",
          "name": "patientName",
          "type": "bytes32"
        },
        {
          "internalType": "bytes32",
          "name": "consulDateID",
          "type": "bytes32"
        },
        {
          "internalType": "bytes32",
          "name": "mname",
          "type": "bytes32"
        }
      ],
      "name": "saveMedicineForPatientUse",
      "outputs": [
        {
          "internalType": "bool",
          "name": "",
          "type": "bool"
        }
      ],
      "payable": false,
      "stateMutability": "nonpayable",
      "type": "function"
    },
    {
      "constant": true,
      "inputs": [
        {
          "internalType": "bytes32",
          "name": "patientName",
          "type": "bytes32"
        },
        {
          "internalType": "bytes32",
          "name": "consulDateID",
          "type": "bytes32"
        }
      ],
      "name": "getMedicinesFromConsultation",
      "outputs": [
        {
          "internalType": "bytes32[]",
          "name": "",
          "type": "bytes32[]"
        }
      ],
      "payable": false,
      "stateMutability": "view",
      "type": "function"
    },
    {
      "constant": true,
      "inputs": [
        {
          "internalType": "bytes32",
          "name": "patientName",
          "type": "bytes32"
        },
        {
          "internalType": "bytes32",
          "name": "_consulDateID",
          "type": "bytes32"
        },
        {
          "internalType": "uint256",
          "name": "index",
          "type": "uint256"
        }
      ],
      "name": "getMedicineByIndex",
      "outputs": [
        {
          "internalType": "bytes32",
          "name": "",
          "type": "bytes32"
        }
      ],
      "payable": false,
      "stateMutability": "view",
      "type": "function"
    },
    {
      "constant": true,
      "inputs": [
        {
          "internalType": "bytes32",
          "name": "patientName",
          "type": "bytes32"
        },
        {
          "internalType": "bytes32",
          "name": "_consulDateID",
          "type": "bytes32"
        },
        {
          "internalType": "bytes32",
          "name": "medname",
          "type": "bytes32"
        }
      ],
      "name": "getMedicineByMedicineName",
      "outputs": [
        {
          "internalType": "bytes32",
          "name": "",
          "type": "bytes32"
        }
      ],
      "payable": false,
      "stateMutability": "view",
      "type": "function"
    },
    {
      "constant": true,
      "inputs": [
        {
          "internalType": "bytes32",
          "name": "patientName",
          "type": "bytes32"
        },
        {
          "internalType": "bytes32",
          "name": "_consulDateID",
          "type": "bytes32"
        }
      ],
      "name": "getMedicinesCountFromConsultation",
      "outputs": [
        {
          "internalType": "uint256",
          "name": "",
          "type": "uint256"
        }
      ],
      "payable": false,
      "stateMutability": "view",
      "type": "function"
    }
  ],
  "bytecode": "0x608060405234801561001057600080fd5b506153dd806100206000396000f3fe60806040523480156200001157600080fd5b5060043610620002385760003560e01c80637b63cec41162000135578063c190665b11620000bd578063eb9fbaa91162000087578063eb9fbaa9146200084d578063ed96cf391462000883578063f421ba1014620008b9578063f7932fb014620008ef578063f7a65e6014620009255762000238565b8063c190665b1462000789578063cbb7e2ff14620007ab578063ce10cf8814620007e1578063dfb7ab6014620008175762000238565b8063b1d5458d11620000ff578063b1d5458d14620006af578063b9aa549b14620006e5578063b9affb93146200071b578063ba5c033514620007515762000238565b80637b63cec414620005d557806394e7ef6e146200060b578063a74380a61462000641578063ad36054b14620006775762000238565b806345cfa71d11620001c55780635fe721ff116200018f5780635fe721ff14620004c75780636876195414620004fd5780636cfbc8fd14620005335780637427525514620005695780637448d8d8146200059f5762000238565b806345cfa71d14620003ed5780634809979714620004235780635035cf52146200045957806357ea0c2f146200048f5762000238565b806324ecae0b116200020757806324ecae0b146200031557806329f78d88146200034b57806330ca739b14620003815780633fe285d514620003b75762000238565b8063083121ad146200023d5780630b8d6eae14620002735780631973ef9114620002a957806320cfcbfa14620002df575b600080fd5b6200025b600480360362000255919081019062002b0f565b6200095b565b6040516200026a9190620030e0565b60405180910390f35b6200029160048036036200028b9190810190620029d9565b62000a2c565b604051620002a09190620030bc565b60405180910390f35b620002c76004803603620002c19190810190620029d9565b62000aeb565b604051620002d691906200331b565b60405180910390f35b620002fd6004803603620002f7919081019062002a76565b62000b80565b6040516200030c91906200331b565b60405180910390f35b6200033360048036036200032d919081019062002b0f565b62000c3e565b604051620003429190620030fd565b60405180910390f35b62000369600480360362000363919081019062002d0a565b62000d0d565b604051620003789190620031ec565b60405180910390f35b6200039f6004803603620003999190810190620029d9565b62000e15565b604051620003ae9190620030bc565b60405180910390f35b620003d56004803603620003cf919081019062002ace565b62000f11565b604051620003e491906200331b565b60405180910390f35b6200040b600480360362000405919081019062002a76565b62000fdd565b6040516200041a9190620030bc565b60405180910390f35b6200044160048036036200043b919081019062002ace565b620010ad565b604051620004509190620030bc565b60405180910390f35b62000477600480360362000471919081019062002b65565b6200117e565b604051620004869190620030e0565b60405180910390f35b620004ad6004803603620004a7919081019062002d0a565b62001251565b604051620004be9392919062003078565b60405180910390f35b620004e56004803603620004df919081019062002c84565b620013b7565b604051620004f49190620030fd565b60405180910390f35b6200051b600480360362000515919081019062002c2a565b62001483565b6040516200052a9190620030e0565b60405180910390f35b6200055160048036036200054b919081019062002a76565b62001771565b6040516200056091906200305b565b60405180910390f35b62000587600480360362000581919081019062002b65565b62001813565b604051620005969190620030e0565b60405180910390f35b620005bd6004803603620005b7919081019062002a76565b620018e6565b604051620005cc9190620030bc565b60405180910390f35b620005f36004803603620005ed919081019062002a76565b62001a20565b604051620006029190620030e0565b60405180910390f35b62000629600480360362000623919081019062002cc5565b62001a6a565b604051620006389190620030e0565b60405180910390f35b6200065f6004803603620006599190810190620029d9565b62001b77565b6040516200066e9190620031ec565b60405180910390f35b6200069560048036036200068f919081019062002a76565b62001cc0565b604051620006a69392919062003338565b60405180910390f35b620006cd6004803603620006c7919081019062002a76565b62001e5a565b604051620006dc91906200331b565b60405180910390f35b620007036004803603620006fd919081019062002c84565b62001ec4565b604051620007129190620030fd565b60405180910390f35b620007396004803603620007339190810190620029d9565b62001f90565b604051620007489190620030fd565b60405180910390f35b6200076f6004803603620007699190810190620029d9565b6200203d565b60405162000780939291906200337c565b60405180910390f35b6200079362002228565b604051620007a291906200331b565b60405180910390f35b620007c96004803603620007c3919081019062002d0a565b62002235565b604051620007d89190620030fd565b60405180910390f35b620007ff6004803603620007f9919081019062002d0a565b620022a1565b6040516200080e91906200305b565b60405180910390f35b6200083560048036036200082f919081019062002a76565b6200232d565b604051620008449190620031ec565b60405180910390f35b6200086b6004803603620008659190810190620029d9565b6200244b565b6040516200087a9190620030e0565b60405180910390f35b620008a160048036036200089b919081019062002ace565b62002505565b604051620008b091906200331b565b60405180910390f35b620008d76004803603620008d1919081019062002ace565b620025d1565b604051620008e691906200331b565b60405180910390f35b6200090d600480360362000907919081019062002a76565b6200269d565b6040516200091c919062003210565b60405180910390f35b6200094360048036036200093d919081019062002bd4565b620026da565b604051620009529190620030fd565b60405180910390f35b60006006600085815260200190815260200160002060009054906101000a900473ffffffffffffffffffffffffffffffffffffffff1673ffffffffffffffffffffffffffffffffffffffff16631aa5346a84846040518363ffffffff1660e01b8152600401620009cd9291906200311a565b602060405180830381600087803b158015620009e857600080fd5b505af1158015620009fd573d6000803e3d6000fd5b505050506040513d601f19601f8201168201806040525062000a23919081019062002a4a565b90509392505050565b6060600560009054906101000a900473ffffffffffffffffffffffffffffffffffffffff1673ffffffffffffffffffffffffffffffffffffffff16630b8d6eae836040518263ffffffff1660e01b815260040162000a8b91906200305b565b60006040518083038186803b15801562000aa457600080fd5b505afa15801562000ab9573d6000803e3d6000fd5b505050506040513d6000823e3d601f19601f8201168201806040525062000ae4919081019062002a05565b9050919050565b600062000af8826200244b565b62000b3a576040517f08c379a000000000000000000000000000000000000000000000000000000000815260040162000b31906200322d565b60405180910390fd5b6000808373ffffffffffffffffffffffffffffffffffffffff1673ffffffffffffffffffffffffffffffffffffffff168152602001908152602001600020549050919050565b60006006600083815260200190815260200160002060009054906101000a900473ffffffffffffffffffffffffffffffffffffffff1673ffffffffffffffffffffffffffffffffffffffff1663624a4dac6040518163ffffffff1660e01b815260040160206040518083038186803b15801562000bfc57600080fd5b505afa15801562000c11573d6000803e3d6000fd5b505050506040513d601f19601f8201168201806040525062000c37919081019062002d36565b9050919050565b60006006600085815260200190815260200160002060009054906101000a900473ffffffffffffffffffffffffffffffffffffffff1673ffffffffffffffffffffffffffffffffffffffff16634b0cf75e84846040518363ffffffff1660e01b815260040162000cb09291906200311a565b60206040518083038186803b15801562000cc957600080fd5b505afa15801562000cde573d6000803e3d6000fd5b505050506040513d601f19601f8201168201806040525062000d04919081019062002aa2565b90509392505050565b6060600280549050821062000d59576040517f08c379a000000000000000000000000000000000000000000000000000000000815260040162000d5090620032d7565b60405180910390fd5b6004828154811062000d6757fe5b906000526020600020018054600181600116156101000203166002900480601f01602080910402602001604051908101604052809291908181526020018280546001816001161561010002031660029004801562000e095780601f1062000ddd5761010080835404028352916020019162000e09565b820191906000526020600020905b81548152906001019060200180831162000deb57829003601f168201915b50505050509050919050565b6060600760008373ffffffffffffffffffffffffffffffffffffffff1673ffffffffffffffffffffffffffffffffffffffff16815260200190815260200160002060009054906101000a900473ffffffffffffffffffffffffffffffffffffffff1673ffffffffffffffffffffffffffffffffffffffff166330ca739b836040518263ffffffff1660e01b815260040162000eb191906200305b565b60006040518083038186803b15801562000eca57600080fd5b505afa15801562000edf573d6000803e3d6000fd5b505050506040513d6000823e3d601f19601f8201168201806040525062000f0a919081019062002a05565b9050919050565b60006006600084815260200190815260200160002060009054906101000a900473ffffffffffffffffffffffffffffffffffffffff1673ffffffffffffffffffffffffffffffffffffffff16632dce4167836040518263ffffffff1660e01b815260040162000f819190620030fd565b60206040518083038186803b15801562000f9a57600080fd5b505afa15801562000faf573d6000803e3d6000fd5b505050506040513d601f19601f8201168201806040525062000fd5919081019062002d36565b905092915050565b60606006600083815260200190815260200160002060009054906101000a900473ffffffffffffffffffffffffffffffffffffffff1673ffffffffffffffffffffffffffffffffffffffff166345cfa71d836040518263ffffffff1660e01b81526004016200104d9190620030fd565b60006040518083038186803b1580156200106657600080fd5b505afa1580156200107b573d6000803e3d6000fd5b505050506040513d6000823e3d601f19601f82011682018060405250620010a6919081019062002a05565b9050919050565b60606006600084815260200190815260200160002060009054906101000a900473ffffffffffffffffffffffffffffffffffffffff1673ffffffffffffffffffffffffffffffffffffffff1663281c8ab7836040518263ffffffff1660e01b81526004016200111d9190620030fd565b60006040518083038186803b1580156200113657600080fd5b505afa1580156200114b573d6000803e3d6000fd5b505050506040513d6000823e3d601f19601f8201168201806040525062001176919081019062002a05565b905092915050565b60006006600085815260200190815260200160002060009054906101000a900473ffffffffffffffffffffffffffffffffffffffff1673ffffffffffffffffffffffffffffffffffffffff16635035cf528585856040518463ffffffff1660e01b8152600401620011f29392919062003147565b602060405180830381600087803b1580156200120d57600080fd5b505af115801562001222573d6000803e3d6000fd5b505050506040513d601f19601f8201168201806040525062001248919081019062002a4a565b90509392505050565b60008060606002805490508410620012a0576040517f08c379a00000000000000000000000000000000000000000000000000000000081526004016200129790620032d7565b60405180910390fd5b60028481548110620012ae57fe5b9060005260206000200160009054906101000a900473ffffffffffffffffffffffffffffffffffffffff1660038581548110620012e757fe5b9060005260206000200154600486815481106200130057fe5b90600052602060002001808054600181600116156101000203166002900480601f016020809104026020016040519081016040528092919081815260200182805460018160011615610100020316600290048015620013a35780601f106200137757610100808354040283529160200191620013a3565b820191906000526020600020905b8154815290600101906020018083116200138557829003601f168201915b505050505090509250925092509193909250565b60006006600084815260200190815260200160002060009054906101000a900473ffffffffffffffffffffffffffffffffffffffff1673ffffffffffffffffffffffffffffffffffffffff16639b9fc6e0836040518263ffffffff1660e01b81526004016200142791906200331b565b60206040518083038186803b1580156200144057600080fd5b505afa15801562001455573d6000803e3d6000fd5b505050506040513d601f19601f820116820180604052506200147b919081019062002aa2565b905092915050565b600062001490336200244b565b15620014d3576040517f08c379a0000000000000000000000000000000000000000000000000000000008152600401620014ca90620032f9565b60405180910390fd5b620014de8362001a20565b1562001521576040517f08c379a0000000000000000000000000000000000000000000000000000000008152600401620015189062003271565b60405180910390fd5b82826040516200153190620027a9565b6200153e9291906200318b565b604051809103906000f0801580156200155b573d6000803e3d6000fd5b50600760003373ffffffffffffffffffffffffffffffffffffffff1673ffffffffffffffffffffffffffffffffffffffff16815260200190815260200160002060006101000a81548173ffffffffffffffffffffffffffffffffffffffff021916908373ffffffffffffffffffffffffffffffffffffffff16021790556006600085815260200190815260200160002060006101000a81548173ffffffffffffffffffffffffffffffffffffffff021916908373ffffffffffffffffffffffffffffffffffffffff16021790555060023390806001815401808255809150509060018203906000526020600020016000909192909190916101000a81548173ffffffffffffffffffffffffffffffffffffffff021916908373ffffffffffffffffffffffffffffffffffffffff1602179055505060038390806001815401808255809150509060018203906000526020600020016000909192909190915055506004829080600181540180825580915050906001820390600052602060002001600090919290919091509080519060200190620016fa929190620027b7565b50506001600280549050036000803373ffffffffffffffffffffffffffffffffffffffff1673ffffffffffffffffffffffffffffffffffffffff1681526020019081526020016000208190555060016002805490500360016000858152602001908152602001600020819055506001905092915050565b60006200177e8262001a20565b620017c0576040517f08c379a0000000000000000000000000000000000000000000000000000000008152600401620017b7906200324f565b60405180910390fd5b6002600160008481526020019081526020016000205481548110620017e157fe5b9060005260206000200160009054906101000a900473ffffffffffffffffffffffffffffffffffffffff169050919050565b60006006600085815260200190815260200160002060009054906101000a900473ffffffffffffffffffffffffffffffffffffffff1673ffffffffffffffffffffffffffffffffffffffff1663742752558585856040518463ffffffff1660e01b8152600401620018879392919062003147565b602060405180830381600087803b158015620018a257600080fd5b505af1158015620018b7573d6000803e3d6000fd5b505050506040513d601f19601f82011682018060405250620018dd919081019062002a4a565b90509392505050565b6060620019106200190a6001600085815260200190815260200160002054620022a1565b6200244b565b62001952576040517f08c379a00000000000000000000000000000000000000000000000000000000081526004016200194990620032b5565b60405180910390fd5b6006600083815260200190815260200160002060009054906101000a900473ffffffffffffffffffffffffffffffffffffffff1673ffffffffffffffffffffffffffffffffffffffff16637448d8d8836040518263ffffffff1660e01b8152600401620019c09190620030fd565b60006040518083038186803b158015620019d957600080fd5b505afa158015620019ee573d6000803e3d6000fd5b505050506040513d6000823e3d601f19601f8201168201806040525062001a19919081019062002a05565b9050919050565b6000806001600084815260200190815260200160002054118062001a6357507f73656c660000000000000000000000000000000000000000000000000000000082145b9050919050565b600062001a77336200244b565b1562001aba576040517f08c379a000000000000000000000000000000000000000000000000000000000815260040162001ab190620032f9565b60405180910390fd5b600560009054906101000a900473ffffffffffffffffffffffffffffffffffffffff1673ffffffffffffffffffffffffffffffffffffffff166394e7ef6e836040518263ffffffff1660e01b815260040162001b179190620031ec565b602060405180830381600087803b15801562001b3257600080fd5b505af115801562001b47573d6000803e3d6000fd5b505050506040513d601f19601f8201168201806040525062001b6d919081019062002a4a565b5060019050919050565b606062001b84826200244b565b62001bc6576040517f08c379a000000000000000000000000000000000000000000000000000000000815260040162001bbd906200322d565b60405180910390fd5b60046000808473ffffffffffffffffffffffffffffffffffffffff1673ffffffffffffffffffffffffffffffffffffffff168152602001908152602001600020548154811062001c1257fe5b906000526020600020018054600181600116156101000203166002900480601f01602080910402602001604051908101604052809291908181526020018280546001816001161561010002031660029004801562001cb45780601f1062001c885761010080835404028352916020019162001cb4565b820191906000526020600020905b81548152906001019060200180831162001c9657829003601f168201915b50505050509050919050565b600080606060028054905060016000868152602001908152602001600020541062001d22576040517f08c379a000000000000000000000000000000000000000000000000000000000815260040162001d199062003293565b60405180910390fd5b6001600085815260200190815260200160002054600260016000878152602001908152602001600020548154811062001d5757fe5b9060005260206000200160009054906101000a900473ffffffffffffffffffffffffffffffffffffffff16600460016000888152602001908152602001600020548154811062001da357fe5b90600052602060002001808054600181600116156101000203166002900480601f01602080910402602001604051908101604052809291908181526020018280546001816001161561010002031660029004801562001e465780601f1062001e1a5761010080835404028352916020019162001e46565b820191906000526020600020905b81548152906001019060200180831162001e2857829003601f168201915b505050505090509250925092509193909250565b600062001e678262001a20565b62001ea9576040517f08c379a000000000000000000000000000000000000000000000000000000000815260040162001ea0906200324f565b60405180910390fd5b60016000838152602001908152602001600020549050919050565b60006006600084815260200190815260200160002060009054906101000a900473ffffffffffffffffffffffffffffffffffffffff1673ffffffffffffffffffffffffffffffffffffffff1663511ad522836040518263ffffffff1660e01b815260040162001f3491906200331b565b60206040518083038186803b15801562001f4d57600080fd5b505afa15801562001f62573d6000803e3d6000fd5b505050506040513d601f19601f8201168201806040525062001f88919081019062002aa2565b905092915050565b600062001f9d826200244b565b62001fdf576040517f08c379a000000000000000000000000000000000000000000000000000000000815260040162001fd6906200322d565b60405180910390fd5b60036000808473ffffffffffffffffffffffffffffffffffffffff1673ffffffffffffffffffffffffffffffffffffffff16815260200190815260200160002054815481106200202b57fe5b90600052602060002001549050919050565b60008060606200204d846200244b565b6200208f576040517f08c379a000000000000000000000000000000000000000000000000000000000815260040162002086906200322d565b60405180910390fd5b6000808573ffffffffffffffffffffffffffffffffffffffff1673ffffffffffffffffffffffffffffffffffffffff1681526020019081526020016000205460036000808773ffffffffffffffffffffffffffffffffffffffff1673ffffffffffffffffffffffffffffffffffffffff16815260200190815260200160002054815481106200211a57fe5b906000526020600020015460046000808873ffffffffffffffffffffffffffffffffffffffff1673ffffffffffffffffffffffffffffffffffffffff16815260200190815260200160002054815481106200217157fe5b90600052602060002001808054600181600116156101000203166002900480601f016020809104026020016040519081016040528092919081815260200182805460018160011615610100020316600290048015620022145780601f10620021e85761010080835404028352916020019162002214565b820191906000526020600020905b815481529060010190602001808311620021f657829003601f168201915b505050505090509250925092509193909250565b6000600280549050905090565b6000600280549050821062002281576040517f08c379a00000000000000000000000000000000000000000000000000000000081526004016200227890620032d7565b60405180910390fd5b600382815481106200228f57fe5b90600052602060002001549050919050565b60006002805490508210620022ed576040517f08c379a0000000000000000000000000000000000000000000000000000000008152600401620022e490620032d7565b60405180910390fd5b60028281548110620022fb57fe5b9060005260206000200160009054906101000a900473ffffffffffffffffffffffffffffffffffffffff169050919050565b60606200233a8262001a20565b6200237c576040517f08c379a000000000000000000000000000000000000000000000000000000000815260040162002373906200324f565b60405180910390fd5b60046001600084815260200190815260200160002054815481106200239d57fe5b906000526020600020018054600181600116156101000203166002900480601f0160208091040260200160405190810160405280929190818152602001828054600181600116156101000203166002900480156200243f5780601f1062002413576101008083540402835291602001916200243f565b820191906000526020600020905b8154815290600101906020018083116200242157829003601f168201915b50505050509050919050565b6000806000808473ffffffffffffffffffffffffffffffffffffffff1673ffffffffffffffffffffffffffffffffffffffff168152602001908152602001600020541180620024fe57506002600081548110620024a457fe5b9060005260206000200160009054906101000a900473ffffffffffffffffffffffffffffffffffffffff1673ffffffffffffffffffffffffffffffffffffffff168273ffffffffffffffffffffffffffffffffffffffff16145b9050919050565b60006006600084815260200190815260200160002060009054906101000a900473ffffffffffffffffffffffffffffffffffffffff1673ffffffffffffffffffffffffffffffffffffffff1663234c1618836040518263ffffffff1660e01b8152600401620025759190620030fd565b60206040518083038186803b1580156200258e57600080fd5b505afa158015620025a3573d6000803e3d6000fd5b505050506040513d601f19601f82011682018060405250620025c9919081019062002d36565b905092915050565b60006006600084815260200190815260200160002060009054906101000a900473ffffffffffffffffffffffffffffffffffffffff1673ffffffffffffffffffffffffffffffffffffffff16634ed37f49836040518263ffffffff1660e01b8152600401620026419190620030fd565b60206040518083038186803b1580156200265a57600080fd5b505afa1580156200266f573d6000803e3d6000fd5b505050506040513d601f19601f8201168201806040525062002695919081019062002d36565b905092915050565b60006006600083815260200190815260200160002060009054906101000a900473ffffffffffffffffffffffffffffffffffffffff169050919050565b60006006600085815260200190815260200160002060009054906101000a900473ffffffffffffffffffffffffffffffffffffffff1673ffffffffffffffffffffffffffffffffffffffff166348ec275584846040518363ffffffff1660e01b81526004016200274c929190620031bf565b60206040518083038186803b1580156200276557600080fd5b505afa1580156200277a573d6000803e3d6000fd5b505050506040513d601f19601f82011682018060405250620027a0919081019062002aa2565b90509392505050565b611db680620035e583390190565b828054600181600116156101000203166002900490600052602060002090601f016020900481019282601f10620027fa57805160ff19168380011785556200282b565b828001600101855582156200282b579182015b828111156200282a5782518255916020019190600101906200280d565b5b5090506200283a91906200283e565b5090565b6200286391905b808211156200285f57600081600090555060010162002845565b5090565b90565b60008135905062002877816200357c565b92915050565b600082601f8301126200288f57600080fd5b8151620028a6620028a082620033ee565b620033c0565b91508181835260208401935060208101905083856020840282011115620028cc57600080fd5b60005b83811015620029005781620028e5888262002938565b845260208401935060208301925050600181019050620028cf565b5050505092915050565b6000815190506200291b8162003596565b92915050565b6000813590506200293281620035b0565b92915050565b6000815190506200294981620035b0565b92915050565b600082601f8301126200296157600080fd5b813562002978620029728262003417565b620033c0565b915080825260208301602083018583830111156200299557600080fd5b620029a283828462003526565b50505092915050565b600081359050620029bc81620035ca565b92915050565b600081519050620029d381620035ca565b92915050565b600060208284031215620029ec57600080fd5b6000620029fc8482850162002866565b91505092915050565b60006020828403121562002a1857600080fd5b600082015167ffffffffffffffff81111562002a3357600080fd5b62002a41848285016200287d565b91505092915050565b60006020828403121562002a5d57600080fd5b600062002a6d848285016200290a565b91505092915050565b60006020828403121562002a8957600080fd5b600062002a998482850162002921565b91505092915050565b60006020828403121562002ab557600080fd5b600062002ac58482850162002938565b91505092915050565b6000806040838503121562002ae257600080fd5b600062002af28582860162002921565b925050602062002b058582860162002921565b9150509250929050565b60008060006060848603121562002b2557600080fd5b600062002b358682870162002921565b935050602062002b488682870162002921565b925050604062002b5b8682870162002921565b9150509250925092565b60008060006060848603121562002b7b57600080fd5b600062002b8b8682870162002921565b935050602062002b9e8682870162002921565b925050604084013567ffffffffffffffff81111562002bbc57600080fd5b62002bca868287016200294f565b9150509250925092565b60008060006060848603121562002bea57600080fd5b600062002bfa8682870162002921565b935050602062002c0d8682870162002921565b925050604062002c2086828701620029ab565b9150509250925092565b6000806040838503121562002c3e57600080fd5b600062002c4e8582860162002921565b925050602083013567ffffffffffffffff81111562002c6c57600080fd5b62002c7a858286016200294f565b9150509250929050565b6000806040838503121562002c9857600080fd5b600062002ca88582860162002921565b925050602062002cbb85828601620029ab565b9150509250929050565b60006020828403121562002cd857600080fd5b600082013567ffffffffffffffff81111562002cf357600080fd5b62002d01848285016200294f565b91505092915050565b60006020828403121562002d1d57600080fd5b600062002d2d84828501620029ab565b91505092915050565b60006020828403121562002d4957600080fd5b600062002d5984828501620029c2565b91505092915050565b600062002d70838362002e08565b60208301905092915050565b62002d8781620034aa565b82525050565b600062002d9a8262003454565b62002da6818562003477565b935062002db38362003444565b8060005b8381101562002dea57815162002dce888262002d62565b975062002ddb836200346a565b92505060018101905062002db7565b5085935050505092915050565b62002e0281620034be565b82525050565b62002e1381620034ca565b82525050565b62002e2481620034ca565b82525050565b600062002e37826200345f565b62002e43818562003488565b935062002e5581856020860162003535565b62002e60816200356b565b840191505092915050565b62002e7681620034fe565b82525050565b600062002e8b60168362003499565b91507f50617469656e7420646f65736e277420657869737421000000000000000000006000830152602082019050919050565b600062002ecd60178362003499565b91507f43616e27742066696e64207468652070617469656e74210000000000000000006000830152602082019050919050565b600062002f0f601c8362003499565b91507f50617469656e74206e616d6520686173206265656e2074616b656e2e000000006000830152602082019050919050565b600062002f51601b8362003499565b91507f50617469656e7420696e646578206f7574206f6620626f756e642100000000006000830152602082019050919050565b600062002f93601a8362003499565b91507f50617469656e74206861736e2774206265656e20666f756e642e0000000000006000830152602082019050919050565b600062002fd560138362003499565b91507f496e646578206f7574206f6620626f756e6421000000000000000000000000006000830152602082019050919050565b60006200301760168362003499565b91507f53656e646572206e6f7420617574686f72697a65642e000000000000000000006000830152602082019050919050565b6200305581620034f4565b82525050565b600060208201905062003072600083018462002d7c565b92915050565b60006060820190506200308f600083018662002d7c565b6200309e602083018562002e19565b8181036040830152620030b2818462002e2a565b9050949350505050565b60006020820190508181036000830152620030d8818462002d8d565b905092915050565b6000602082019050620030f7600083018462002df7565b92915050565b600060208201905062003114600083018462002e19565b92915050565b600060408201905062003131600083018562002e19565b62003140602083018462002e19565b9392505050565b60006060820190506200315e600083018662002e19565b6200316d602083018562002e19565b818103604083015262003181818462002e2a565b9050949350505050565b6000604082019050620031a2600083018562002e19565b8181036020830152620031b6818462002e2a565b90509392505050565b6000604082019050620031d6600083018562002e19565b620031e560208301846200304a565b9392505050565b6000602082019050818103600083015262003208818462002e2a565b905092915050565b600060208201905062003227600083018462002e6b565b92915050565b60006020820190508181036000830152620032488162002e7c565b9050919050565b600060208201905081810360008301526200326a8162002ebe565b9050919050565b600060208201905081810360008301526200328c8162002f00565b9050919050565b60006020820190508181036000830152620032ae8162002f42565b9050919050565b60006020820190508181036000830152620032d08162002f84565b9050919050565b60006020820190508181036000830152620032f28162002fc6565b9050919050565b60006020820190508181036000830152620033148162003008565b9050919050565b60006020820190506200333260008301846200304a565b92915050565b60006060820190506200334f60008301866200304a565b6200335e602083018562002d7c565b818103604083015262003372818462002e2a565b9050949350505050565b60006060820190506200339360008301866200304a565b620033a2602083018562002e19565b8181036040830152620033b6818462002e2a565b9050949350505050565b6000604051905081810181811067ffffffffffffffff82111715620033e457600080fd5b8060405250919050565b600067ffffffffffffffff8211156200340657600080fd5b602082029050602081019050919050565b600067ffffffffffffffff8211156200342f57600080fd5b601f19601f8301169050602081019050919050565b6000819050602082019050919050565b600081519050919050565b600081519050919050565b6000602082019050919050565b600082825260208201905092915050565b600082825260208201905092915050565b600082825260208201905092915050565b6000620034b782620034d4565b9050919050565b60008115159050919050565b6000819050919050565b600073ffffffffffffffffffffffffffffffffffffffff82169050919050565b6000819050919050565b60006200350b8262003512565b9050919050565b60006200351f82620034d4565b9050919050565b82818337600083830152505050565b60005b838110156200355557808201518184015260208101905062003538565b8381111562003565576000848401525b50505050565b6000601f19601f8301169050919050565b6200358781620034aa565b81146200359357600080fd5b50565b620035a181620034be565b8114620035ad57600080fd5b50565b620035bb81620034ca565b8114620035c757600080fd5b50565b620035d581620034f4565b8114620035e157600080fd5b5056fe60806040523480156200001157600080fd5b5060405162001db638038062001db68339818101604052620000379190810190620001c1565b336000806101000a81548173ffffffffffffffffffffffffffffffffffffffff021916908373ffffffffffffffffffffffffffffffffffffffff160217905550816001819055508060029080519060200190620000969291906200009f565b505050620002d0565b828054600181600116156101000203166002900490600052602060002090601f016020900481019282601f10620000e257805160ff191683800117855562000113565b8280016001018555821562000113579182015b8281111562000112578251825591602001919060010190620000f5565b5b50905062000122919062000126565b5090565b6200014b91905b80821115620001475760008160009055506001016200012d565b5090565b90565b6000815190506200015f81620002b6565b92915050565b600082601f8301126200017757600080fd5b81516200018e620001888262000249565b6200021b565b91508082526020830160208301858383011115620001ab57600080fd5b620001b883828462000280565b50505092915050565b60008060408385031215620001d557600080fd5b6000620001e5858286016200014e565b925050602083015167ffffffffffffffff8111156200020357600080fd5b620002118582860162000165565b9150509250929050565b6000604051905081810181811067ffffffffffffffff821117156200023f57600080fd5b8060405250919050565b600067ffffffffffffffff8211156200026157600080fd5b601f19601f8301169050602081019050919050565b6000819050919050565b60005b83811015620002a057808201518184015260208101905062000283565b83811115620002b0576000848401525b50505050565b620002c18162000276565b8114620002cd57600080fd5b50565b611ad680620002e06000396000f3fe608060405234801561001057600080fd5b50600436106101165760003560e01c80634ed37f49116100a2578063742752551161007157806374275255146103795780637448d8d8146103a957806394e7ef6e146103d95780639b9fc6e014610409578063f811f1ab1461043957610116565b80634ed37f49146102cb5780635035cf52146102fb578063511ad5221461032b578063624a4dac1461035b57610116565b80632dce4167116100e95780632dce4167146101db57806330ca739b1461020b57806345cfa71d1461023b57806348ec27551461026b5780634b0cf75e1461029b57610116565b80630b8d6eae1461011b5780631aa5346a1461014b578063234c16181461017b578063281c8ab7146101ab575b600080fd5b6101356004803603610130919081019061106a565b610457565b60405161014291906113b9565b60405180910390f35b6101656004803603610160919081019061114f565b6104ee565b60405161017291906113db565b60405180910390f35b610195600480360361019091908101906110fd565b6105b6565b6040516101a2919061143a565b60405180910390f35b6101c560048036036101c091908101906110fd565b6105d3565b6040516101d291906113b9565b60405180910390f35b6101f560048036036101f091908101906110fd565b610692565b604051610202919061143a565b60405180910390f35b6102256004803603610220919081019061106a565b6106af565b60405161023291906113b9565b60405180910390f35b610255600480360361025091908101906110fd565b610746565b60405161026291906113b9565b60405180910390f35b610285600480360361028091908101906111f2565b6107b1565b60405161029291906113f6565b60405180910390f35b6102b560048036036102b0919081019061114f565b610877565b6040516102c291906113f6565b60405180910390f35b6102e560048036036102e091908101906110fd565b61093d565b6040516102f2919061143a565b60405180910390f35b6103156004803603610310919081019061118b565b6109f7565b60405161032291906113db565b60405180910390f35b6103456004803603610340919081019061126f565b610b3d565b60405161035291906113f6565b60405180910390f35b610363610b5e565b604051610370919061143a565b60405180910390f35b610393600480360361038e919081019061118b565b610b6b565b6040516103a091906113db565b60405180910390f35b6103c360048036036103be91908101906110fd565b610d25565b6040516103d091906113b9565b60405180910390f35b6103f360048036036103ee919081019061122e565b610d90565b60405161040091906113db565b60405180910390f35b610423600480360361041e919081019061126f565b610db2565b60405161043091906113f6565b60405180910390f35b610441610dd3565b60405161044e919061143a565b60405180910390f35b6060600660008373ffffffffffffffffffffffffffffffffffffffff1673ffffffffffffffffffffffffffffffffffffffff1681526020019081526020016000208054806020026020016040519081016040528092919081815260200182805480156104e257602002820191906000526020600020905b8154815260200190600101908083116104ce575b50505050509050919050565b60006007600084815260200190815260200160002060009054906101000a900473ffffffffffffffffffffffffffffffffffffffff1673ffffffffffffffffffffffffffffffffffffffff16631f97c4c3836040518263ffffffff1660e01b815260040161055c91906113f6565b602060405180830381600087803b15801561057657600080fd5b505af115801561058a573d6000803e3d6000fd5b505050506040513d601f19601f820116820180604052506105ae91908101906110d4565b905092915050565b600060096000838152602001908152602001600020549050919050565b60606007600083815260200190815260200160002060009054906101000a900473ffffffffffffffffffffffffffffffffffffffff1673ffffffffffffffffffffffffffffffffffffffff166377e4afe46040518163ffffffff1660e01b815260040160006040518083038186803b15801561064e57600080fd5b505afa158015610662573d6000803e3d6000fd5b505050506040513d6000823e3d601f19601f8201168201806040525061068b9190810190611093565b9050919050565b600060046000838152602001908152602001600020549050919050565b6060600660008373ffffffffffffffffffffffffffffffffffffffff1673ffffffffffffffffffffffffffffffffffffffff16815260200190815260200160002080548060200260200160405190810160405280929190818152602001828054801561073a57602002820191906000526020600020905b815481526020019060010190808311610726575b50505050509050919050565b6060600a60008381526020019081526020016000208054806020026020016040519081016040528092919081815260200182805480156107a557602002820191906000526020600020905b815481526020019060010190808311610791575b50505050509050919050565b60006007600084815260200190815260200160002060009054906101000a900473ffffffffffffffffffffffffffffffffffffffff1673ffffffffffffffffffffffffffffffffffffffff16631e50b182836040518263ffffffff1660e01b815260040161081f919061143a565b60206040518083038186803b15801561083757600080fd5b505afa15801561084b573d6000803e3d6000fd5b505050506040513d601f19601f8201168201806040525061086f9190810190611126565b905092915050565b60006007600084815260200190815260200160002060009054906101000a900473ffffffffffffffffffffffffffffffffffffffff1673ffffffffffffffffffffffffffffffffffffffff1663c294ab1e836040518263ffffffff1660e01b81526004016108e591906113f6565b60206040518083038186803b1580156108fd57600080fd5b505afa158015610911573d6000803e3d6000fd5b505050506040513d601f19601f820116820180604052506109359190810190611126565b905092915050565b60006007600083815260200190815260200160002060009054906101000a900473ffffffffffffffffffffffffffffffffffffffff1673ffffffffffffffffffffffffffffffffffffffff1663cd2483416040518163ffffffff1660e01b815260040160206040518083038186803b1580156109b857600080fd5b505afa1580156109cc573d6000803e3d6000fd5b505050506040513d601f19601f820116820180604052506109f09190810190611298565b9050919050565b6000338484604051610a0890610de0565b610a1493929190611382565b604051809103906000f080158015610a30573d6000803e3d6000fd5b5050600c839080600181540180825580915050906001820390600052602060002001600090919290919091505550600c805490506009600085815260200190815260200160002081905550600c600a6000868152602001908152602001600020908054610a9e929190610dec565b50600c600b60003373ffffffffffffffffffffffffffffffffffffffff1673ffffffffffffffffffffffffffffffffffffffff168152602001908152602001600020908054610aee929190610dec565b50610af882610d90565b507f2bb590431d1dfc5d86ac3f951c70a27b4818eb2e4bc69ba773cf6f12b3ca98158484604051610b2a929190611411565b60405180910390a1600190509392505050565b6000600c8281548110610b4c57fe5b90600052602060002001549050919050565b6000600c80549050905090565b6000338484604051610b7c90610e3e565b610b8893929190611382565b604051809103906000f080158015610ba4573d6000803e3d6000fd5b505060088390806001815401808255809150509060018203906000526020600020016000909192909190915055506008805490506004600085815260200190815260200160002081905550600860056000868152602001908152602001600020908054610c12929190610dec565b506008600660003373ffffffffffffffffffffffffffffffffffffffff1673ffffffffffffffffffffffffffffffffffffffff168152602001908152602001600020908054610c62929190610dec565b50600360009054906101000a900473ffffffffffffffffffffffffffffffffffffffff166007600085815260200190815260200160002060006101000a81548173ffffffffffffffffffffffffffffffffffffffff021916908373ffffffffffffffffffffffffffffffffffffffff160217905550610ce082610d90565b507f8f4940dfc4a4a23294dbd13e6f0929ba11b468a44fc5005a4f895430a844d1088484604051610d12929190611411565b60405180910390a1600190509392505050565b606060056000838152602001908152602001600020805480602002602001604051908101604052809291908181526020018280548015610d8457602002820191906000526020600020905b815481526020019060010190808311610d70575b50505050509050919050565b60008160029080519060200190610da8929190610e4b565b5060019050919050565b600060088281548110610dc157fe5b90600052602060002001549050919050565b6000600880549050905090565b60f08061160383390190565b828054828255906000526020600020908101928215610e2d5760005260206000209182015b82811115610e2c578254825591600101919060010190610e11565b5b509050610e3a9190610ecb565b5090565b6103a1806116f383390190565b828054600181600116156101000203166002900490600052602060002090601f016020900481019282601f10610e8c57805160ff1916838001178555610eba565b82800160010185558215610eba579182015b82811115610eb9578251825591602001919060010190610e9e565b5b509050610ec79190610ef0565b5090565b610eed91905b80821115610ee9576000816000905550600101610ed1565b5090565b90565b610f1291905b80821115610f0e576000816000905550600101610ef6565b5090565b90565b600081359050610f24816115a6565b92915050565b600082601f830112610f3b57600080fd5b8151610f4e610f4982611482565b611455565b91508181835260208401935060208101905083856020840282011115610f7357600080fd5b60005b83811015610fa35781610f898882610fd7565b845260208401935060208301925050600181019050610f76565b5050505092915050565b600081519050610fbc816115bd565b92915050565b600081359050610fd1816115d4565b92915050565b600081519050610fe6816115d4565b92915050565b600082601f830112610ffd57600080fd5b813561101061100b826114aa565b611455565b9150808252602083016020830185838301111561102c57600080fd5b611037838284611597565b50505092915050565b60008135905061104f816115eb565b92915050565b600081519050611064816115eb565b92915050565b60006020828403121561107c57600080fd5b600061108a84828501610f15565b91505092915050565b6000602082840312156110a557600080fd5b600082015167ffffffffffffffff8111156110bf57600080fd5b6110cb84828501610f2a565b91505092915050565b6000602082840312156110e657600080fd5b60006110f484828501610fad565b91505092915050565b60006020828403121561110f57600080fd5b600061111d84828501610fc2565b91505092915050565b60006020828403121561113857600080fd5b600061114684828501610fd7565b91505092915050565b6000806040838503121561116257600080fd5b600061117085828601610fc2565b925050602061118185828601610fc2565b9150509250929050565b6000806000606084860312156111a057600080fd5b60006111ae86828701610fc2565b93505060206111bf86828701610fc2565b925050604084013567ffffffffffffffff8111156111dc57600080fd5b6111e886828701610fec565b9150509250925092565b6000806040838503121561120557600080fd5b600061121385828601610fc2565b925050602061122485828601611040565b9150509250929050565b60006020828403121561124057600080fd5b600082013567ffffffffffffffff81111561125a57600080fd5b61126684828501610fec565b91505092915050565b60006020828403121561128157600080fd5b600061128f84828501611040565b91505092915050565b6000602082840312156112aa57600080fd5b60006112b884828501611055565b91505092915050565b60006112cd8383611355565b60208301905092915050565b6112e281611561565b82525050565b60006112f3826114e6565b6112fd81856114fe565b9350611308836114d6565b8060005b8381101561133957815161132088826112c1565b975061132b836114f1565b92505060018101905061130c565b5085935050505092915050565b61134f81611521565b82525050565b61135e8161152d565b82525050565b61136d8161152d565b82525050565b61137c81611557565b82525050565b600060608201905061139760008301866112d9565b6113a46020830185611364565b6113b16040830184611364565b949350505050565b600060208201905081810360008301526113d381846112e8565b905092915050565b60006020820190506113f06000830184611346565b92915050565b600060208201905061140b6000830184611364565b92915050565b60006040820190506114266000830185611364565b6114336020830184611364565b9392505050565b600060208201905061144f6000830184611373565b92915050565b6000604051905081810181811067ffffffffffffffff8211171561147857600080fd5b8060405250919050565b600067ffffffffffffffff82111561149957600080fd5b602082029050602081019050919050565b600067ffffffffffffffff8211156114c157600080fd5b601f19601f8301169050602081019050919050565b6000819050602082019050919050565b600081519050919050565b6000602082019050919050565b600082825260208201905092915050565b600061151a82611537565b9050919050565b60008115159050919050565b6000819050919050565b600073ffffffffffffffffffffffffffffffffffffffff82169050919050565b6000819050919050565b600061156c82611573565b9050919050565b600061157e82611585565b9050919050565b600061159082611537565b9050919050565b82818337600083830152505050565b6115af8161150f565b81146115ba57600080fd5b50565b6115c681611521565b81146115d157600080fd5b50565b6115dd8161152d565b81146115e857600080fd5b50565b6115f481611557565b81146115ff57600080fd5b5056fe6080604052348015600f57600080fd5b5060405160f038038060f083398181016040526060811015602f57600080fd5b81019080805190602001909291908051906020019092919080519060200190929190505050826000806101000a81548173ffffffffffffffffffffffffffffffffffffffff021916908373ffffffffffffffffffffffffffffffffffffffff1602179055508160018190555080600281905550505050603e8060b26000396000f3fe6080604052600080fdfea265627a7a72315820119bb7d6b605b0a513377dcafe1408ee5ce032f383864e14b23f2645bdcd969a64736f6c63430005100032608060405234801561001057600080fd5b506040516103a13803806103a18339818101604052606081101561003357600080fd5b81019080805190602001909291908051906020019092919080519060200190929190505050826000806101000a81548173ffffffffffffffffffffffffffffffffffffffff021916908373ffffffffffffffffffffffffffffffffffffffff16021790555081600181905550806002819055505050506102e9806100b86000396000f3fe608060405234801561001057600080fd5b50600436106100575760003560e01c80631e50b1821461005c5780631f97c4c31461009e57806377e4afe4146100e4578063c294ab1e14610143578063cd24834114610185575b600080fd5b6100886004803603602081101561007257600080fd5b81019080803590602001909291905050506101a3565b6040518082815260200191505060405180910390f35b6100ca600480360360208110156100b457600080fd5b81019080803590602001909291905050506101c4565b604051808215151515815260200191505060405180910390f35b6100ec61021b565b6040518080602001828103825283818151815260200191508051906020019060200280838360005b8381101561012f578082015181840152602081019050610114565b505050509050019250505060405180910390f35b61016f6004803603602081101561015957600080fd5b8101908080359060200190929190505050610273565b6040518082815260200191505060405180910390f35b61018d6102a7565b6040518082815260200191505060405180910390f35b6000600382815481106101b257fe5b90600052602060002001549050919050565b60006003829080600181540180825580915050906001820390600052602060002001600090919290919091505550600160038054905003600460008481526020019081526020016000208190555060019050919050565b6060600380548060200260200160405190810160405280929190818152602001828054801561026957602002820191906000526020600020905b815481526020019060010190808311610255575b5050505050905090565b6000600360046000848152602001908152602001600020548154811061029557fe5b90600052602060002001549050919050565b600060038054905090509056fea265627a7a72315820fc0228fae71216a509e244ec8f9fdc7def038ca0f48e9842c08d8ab4275c99f164736f6c63430005100032a365627a7a72315820eb6e3747238902b5eb4680ef5643ef9ea81059b5326fc1e748b5776bf57a9f7e6c6578706572696d656e74616cf564736f6c63430005100040a365627a7a7231582097e5bdf8b3b3eb90d64214d4cd41e72f764f697c9fa2c59af5e88e733a37f1af6c6578706572696d656e74616cf564736f6c63430005100040",
  "source": "pragma solidity >=0.5.16;\npragma experimental ABIEncoderV2;\nimport \"./Patient.sol\";\n\ncontract PatientStorage {\n   mapping(address => uint) private addressToIndex;\n   mapping(bytes32 => uint) private patientnameToIndex;\n   address[] private addresses;\n   bytes32[] private patientUnames;\n   bytes[] private ipfsHashes;\n   Patient p;\n   mapping(bytes32 => Patient) patientnameToPatient;\n   mapping(address => Patient) patientAddressToPatient;\n\n   function registerPatient(bytes32 patientName, bytes memory ipfsHash) public returns(bool) {\n     require(!hasPatient(msg.sender),\n            \"Sender not authorized.\");\n     require(!patientNameTaken(patientName),\n            \"Patient name has been taken.\");\n      patientnameToPatient[patientName] = patientAddressToPatient[msg.sender] = new Patient(patientName, ipfsHash);\n      addresses.push(msg.sender);\n      patientUnames.push(patientName);\n      ipfsHashes.push(ipfsHash);\n      addressToIndex[msg.sender] = addresses.length - 1;\n      patientnameToIndex[patientName] = addresses.length - 1;\n      return true;\n    }\n\n   function hasPatient(address _patientAdresses) public view returns(bool) {\n      return (addressToIndex[_patientAdresses] > 0 || _patientAdresses == addresses[0]);\n    }\n\n   function patientNameTaken(bytes32 pname) public view returns(bool takenIndeed) {\n      return (patientnameToIndex[pname] > 0 || pname == 'self');\n    }\n\n   function updatePatient(bytes memory ipfsHash) public returns(bool){\n      require(!hasPatient(msg.sender),\n            \"Sender not authorized.\");\n      p.updatePatient(ipfsHash);\n      return true;\n    }\n\n   function getPatientCount() public view returns(uint){\n      return addresses.length;\n    }\n   function getPatientByPatientname(bytes32 _pname) public view returns(Patient){\n      return patientnameToPatient[_pname];\n   }\n   function getPatientByIndex(uint index) public view returns(address,bytes32,bytes memory){\n      require((index < addresses.length),\n            \"Index out of bound!\");\n      return(addresses[index], patientUnames[index], ipfsHashes[index]);\n    }\n\n   function getAddressByIndex(uint index) public view returns(address){\n      require((index < addresses.length),\n            \"Index out of bound!\");\n      return addresses[index];\n    }\n\n   function getPatientNameByIndex(uint index) public view returns(bytes32){\n      require((index < addresses.length),\n            \"Index out of bound!\");\n      return patientUnames[index];\n    }\n\n   function getIpfsHashByIndex(uint index) public view returns(bytes memory){\n      require((index < addresses.length),\n            \"Index out of bound!\");\n      return ipfsHashes[index];\n    }\n\n   function getPatientByAddress(address patientAddress) public view returns(uint, bytes32, bytes memory){\n      require(hasPatient(patientAddress),\n            \"Patient doesn't exist!\");\n      return(addressToIndex[patientAddress], patientUnames[addressToIndex[patientAddress]], ipfsHashes[addressToIndex[patientAddress]]);\n    }\n\n   function getIndexByAddress(address patientAddress) public view returns(uint){\n      require(hasPatient(patientAddress),\n            \"Patient doesn't exist!\");\n      return addressToIndex[patientAddress];\n    }\n\n   function getPatientNameByAddress(address patientAddress) public view returns(bytes32){\n      require(hasPatient(patientAddress),\n            \"Patient doesn't exist!\");\n      return patientUnames[addressToIndex[patientAddress]];\n    }\n\n   function getIpfsHashByAddress(address patientAddress) public view returns(bytes memory){\n      require(hasPatient(patientAddress),\n            \"Patient doesn't exist!\");\n      return ipfsHashes[addressToIndex[patientAddress]];\n    }\n\n   function getPatientByPatientName(bytes32 patientname) public view returns(uint,address,bytes memory){\n      require((patientnameToIndex[patientname] < addresses.length),\n            \"Patient index out of bound!\");\n      return(patientnameToIndex[patientname], addresses[patientnameToIndex[patientname]], ipfsHashes[patientnameToIndex[patientname]]);\n    }\n\n   function getIndexByPatientName(bytes32 patientname) public view returns(uint){\n      require((patientNameTaken(patientname)),\n            \"Can't find the patient!\");\n      return patientnameToIndex[patientname];\n    }\n\n   function getAddressByPatientName(bytes32 patientname) public view returns(address){\n      require((patientNameTaken(patientname)),\n        \"Can't find the patient!\");\n      return addresses[patientnameToIndex[patientname]];\n    }\n\n   function getIpfsHashByPatientName(bytes32 patientname) public view returns(bytes memory){\n      require((patientNameTaken(patientname)),\n            \"Can't find the patient!\");\n      return ipfsHashes[patientnameToIndex[patientname]];\n    }\n  // CONSULTATIONS\n   function consultationCreate(bytes32 _pname, bytes32 _consulDateID, bytes memory newPatientIpfs)public returns(bool){\n      return patientnameToPatient[_pname].consultationCreate(_pname, _consulDateID, newPatientIpfs);\n    }\n\n   function getConsultationByConsultationIndex(bytes32 patientName, uint _index) public view returns(bytes32 consulID){\n      return patientnameToPatient[patientName].getConsultationByConsultationIndex(_index);\n    }\n   function getConsultationIndexByConsultationID(bytes32 patientName, bytes32 _consulDateID) public view returns(uint){\n      return patientnameToPatient[patientName].getConsultationIndexByConsultationID(_consulDateID);\n    }\n\n   function getConsultationsByPatientName(bytes32 _pname) public view returns(bytes32[] memory){\n      require(hasPatient(getAddressByIndex(patientnameToIndex[_pname])),\"Patient hasn't been found.\");\n      return patientnameToPatient[_pname].getConsultationsByPatientName(_pname);\n    }\n\n   function getConsultationsByPatientAddress(address patientAddress) public view returns(bytes32[] memory){\n      return patientAddressToPatient[patientAddress].getConsultationsByPatientAddress(patientAddress);\n    }\n  // TESTS\n   function testCreate(bytes32 _pname, bytes32 _testDateID, bytes memory newPatientIpfs)public returns(bool){\n      return patientnameToPatient[_pname].testCreate(_pname,_testDateID,newPatientIpfs);\n    }\n\n   function getTestByTestIndex(bytes32 patientName, uint _index) public view returns(bytes32 testID){\n      return patientnameToPatient[patientName].getTestByTestIndex(_index);\n    }\n\n   function getTestIndexByTestID(bytes32 patientName, bytes32 _testDateID) public view returns(uint){\n      return patientnameToPatient[patientName].getTestIndexByTestID(_testDateID);\n    }\n\n   function getTestsByPatientName(bytes32 _pname) public view returns(bytes32[] memory) {\n      return patientnameToPatient[_pname].getTestsByPatientName(_pname);\n    }\n\n   function getTestsByPatientAddress(address patientAddress) public view returns(bytes32[] memory){\n      return p.getTestsByPatientAddress(patientAddress);\n    }\n   function getTestsCount(bytes32 patientName) public view returns (uint){\n      return patientnameToPatient[patientName].getTestsCount();\n    }\n  // MEDICINES\n   function saveMedicineForPatientUse(bytes32 patientName, bytes32 consulDateID,bytes32 mname) public returns(bool){\n      return patientnameToPatient[patientName].saveMedicineForPatientUse(consulDateID,mname);\n    }\n   function getMedicinesFromConsultation(bytes32 patientName, bytes32 consulDateID) public view returns(bytes32[] memory){\n      return patientnameToPatient[patientName].getMedicinesFromConsultation(consulDateID);\n     }\n   function getMedicineByIndex(bytes32 patientName, bytes32 _consulDateID,uint index) public view returns(bytes32){\n        return patientnameToPatient[patientName].getMedicineByIndex(_consulDateID,index);\n     }\n   function getMedicineByMedicineName(bytes32 patientName, bytes32 _consulDateID, bytes32 medname)public view returns(bytes32){\n        return patientnameToPatient[patientName].getMedicineByMedicineName(_consulDateID, medname);\n     }\n   function getMedicinesCountFromConsultation(bytes32 patientName, bytes32 _consulDateID) public view returns(uint){\n      return patientnameToPatient[patientName].getMedicinesCountFromConsultation(_consulDateID);\n  }\n}",
  "sourcePath": "/home/eke/patient-eth-ipfs/contracts/PatientStorage.sol",
  "compiler": {
    "name": "solc",
    "version": "0.5.16+commit.9c3226ce.Emscripten.clang"
  },
  "schemaVersion": "3.1.0",
  "updatedAt": "2020-04-13T16:34:15.546Z",
  "devdoc": {
    "methods": {}
  },
  "userdoc": {
    "methods": {}
  }
}