{
  "contractName": "Patient",
  "abi": [
    {
      "inputs": [
        {
          "internalType": "bytes32",
          "name": "_patientuname",
          "type": "bytes32"
        },
        {
          "internalType": "bytes",
          "name": "_IpfsHash",
          "type": "bytes"
        }
      ],
      "payable": false,
      "stateMutability": "nonpayable",
      "type": "constructor"
    },
    {
      "anonymous": false,
      "inputs": [
        {
          "indexed": false,
          "internalType": "bytes32",
          "name": "pname",
          "type": "bytes32"
        },
        {
          "indexed": false,
          "internalType": "bytes32",
          "name": "consID",
          "type": "bytes32"
        }
      ],
      "name": "NewConsultationCreated",
      "type": "event"
    },
    {
      "anonymous": false,
      "inputs": [
        {
          "indexed": false,
          "internalType": "bytes32",
          "name": "pname",
          "type": "bytes32"
        },
        {
          "indexed": false,
          "internalType": "bytes32",
          "name": "consID",
          "type": "bytes32"
        },
        {
          "indexed": false,
          "internalType": "bytes32",
          "name": "medname",
          "type": "bytes32"
        }
      ],
      "name": "NewMedicineCreatedForPatient",
      "type": "event"
    },
    {
      "anonymous": false,
      "inputs": [
        {
          "indexed": false,
          "internalType": "bytes32",
          "name": "pname",
          "type": "bytes32"
        },
        {
          "indexed": false,
          "internalType": "bytes32",
          "name": "testID",
          "type": "bytes32"
        }
      ],
      "name": "NewTestCreated",
      "type": "event"
    },
    {
      "constant": false,
      "inputs": [
        {
          "internalType": "bytes",
          "name": "ipfsHash",
          "type": "bytes"
        }
      ],
      "name": "updatePatient",
      "outputs": [
        {
          "internalType": "bool",
          "name": "",
          "type": "bool"
        }
      ],
      "payable": false,
      "stateMutability": "nonpayable",
      "type": "function"
    },
    {
      "constant": false,
      "inputs": [
        {
          "internalType": "bytes32",
          "name": "_pname",
          "type": "bytes32"
        },
        {
          "internalType": "bytes32",
          "name": "_consulDateID",
          "type": "bytes32"
        },
        {
          "internalType": "bytes",
          "name": "newPatientIpfs",
          "type": "bytes"
        }
      ],
      "name": "consultationCreate",
      "outputs": [
        {
          "internalType": "bool",
          "name": "",
          "type": "bool"
        }
      ],
      "payable": false,
      "stateMutability": "nonpayable",
      "type": "function"
    },
    {
      "constant": true,
      "inputs": [
        {
          "internalType": "uint256",
          "name": "_index",
          "type": "uint256"
        }
      ],
      "name": "getConsultationByConsultationIndex",
      "outputs": [
        {
          "internalType": "bytes32",
          "name": "consulID",
          "type": "bytes32"
        }
      ],
      "payable": false,
      "stateMutability": "view",
      "type": "function"
    },
    {
      "constant": true,
      "inputs": [
        {
          "internalType": "bytes32",
          "name": "_consulDateID",
          "type": "bytes32"
        }
      ],
      "name": "getConsultationIndexByConsultationID",
      "outputs": [
        {
          "internalType": "uint256",
          "name": "",
          "type": "uint256"
        }
      ],
      "payable": false,
      "stateMutability": "view",
      "type": "function"
    },
    {
      "constant": true,
      "inputs": [
        {
          "internalType": "bytes32",
          "name": "_pname",
          "type": "bytes32"
        }
      ],
      "name": "getConsultationsByPatientName",
      "outputs": [
        {
          "internalType": "bytes32[]",
          "name": "",
          "type": "bytes32[]"
        }
      ],
      "payable": false,
      "stateMutability": "view",
      "type": "function"
    },
    {
      "constant": true,
      "inputs": [
        {
          "internalType": "address",
          "name": "patientAddress",
          "type": "address"
        }
      ],
      "name": "getConsultationsByPatientAddress",
      "outputs": [
        {
          "internalType": "bytes32[]",
          "name": "",
          "type": "bytes32[]"
        }
      ],
      "payable": false,
      "stateMutability": "view",
      "type": "function"
    },
    {
      "constant": true,
      "inputs": [],
      "name": "getConsultationsCount",
      "outputs": [
        {
          "internalType": "uint256",
          "name": "",
          "type": "uint256"
        }
      ],
      "payable": false,
      "stateMutability": "view",
      "type": "function"
    },
    {
      "constant": false,
      "inputs": [
        {
          "internalType": "bytes32",
          "name": "_pname",
          "type": "bytes32"
        },
        {
          "internalType": "bytes32",
          "name": "_testDateID",
          "type": "bytes32"
        },
        {
          "internalType": "bytes",
          "name": "newPatientIpfs",
          "type": "bytes"
        }
      ],
      "name": "testCreate",
      "outputs": [
        {
          "internalType": "bool",
          "name": "",
          "type": "bool"
        }
      ],
      "payable": false,
      "stateMutability": "nonpayable",
      "type": "function"
    },
    {
      "constant": true,
      "inputs": [
        {
          "internalType": "uint256",
          "name": "_index",
          "type": "uint256"
        }
      ],
      "name": "getTestByTestIndex",
      "outputs": [
        {
          "internalType": "bytes32",
          "name": "testID",
          "type": "bytes32"
        }
      ],
      "payable": false,
      "stateMutability": "view",
      "type": "function"
    },
    {
      "constant": true,
      "inputs": [
        {
          "internalType": "bytes32",
          "name": "_testDateID",
          "type": "bytes32"
        }
      ],
      "name": "getTestIndexByTestID",
      "outputs": [
        {
          "internalType": "uint256",
          "name": "",
          "type": "uint256"
        }
      ],
      "payable": false,
      "stateMutability": "view",
      "type": "function"
    },
    {
      "constant": true,
      "inputs": [
        {
          "internalType": "bytes32",
          "name": "_pname",
          "type": "bytes32"
        }
      ],
      "name": "getTestsByPatientName",
      "outputs": [
        {
          "internalType": "bytes32[]",
          "name": "",
          "type": "bytes32[]"
        }
      ],
      "payable": false,
      "stateMutability": "view",
      "type": "function"
    },
    {
      "constant": true,
      "inputs": [
        {
          "internalType": "address",
          "name": "patientAddress",
          "type": "address"
        }
      ],
      "name": "getTestsByPatientAddress",
      "outputs": [
        {
          "internalType": "bytes32[]",
          "name": "",
          "type": "bytes32[]"
        }
      ],
      "payable": false,
      "stateMutability": "view",
      "type": "function"
    },
    {
      "constant": true,
      "inputs": [],
      "name": "getTestsCount",
      "outputs": [
        {
          "internalType": "uint256",
          "name": "",
          "type": "uint256"
        }
      ],
      "payable": false,
      "stateMutability": "view",
      "type": "function"
    },
    {
      "constant": false,
      "inputs": [
        {
          "internalType": "bytes32",
          "name": "_consulDateID",
          "type": "bytes32"
        },
        {
          "internalType": "bytes32",
          "name": "mname",
          "type": "bytes32"
        }
      ],
      "name": "saveMedicineForPatientUse",
      "outputs": [
        {
          "internalType": "bool",
          "name": "",
          "type": "bool"
        }
      ],
      "payable": false,
      "stateMutability": "nonpayable",
      "type": "function"
    },
    {
      "constant": true,
      "inputs": [
        {
          "internalType": "bytes32",
          "name": "_consulDateID",
          "type": "bytes32"
        }
      ],
      "name": "getMedicinesFromConsultation",
      "outputs": [
        {
          "internalType": "bytes32[]",
          "name": "",
          "type": "bytes32[]"
        }
      ],
      "payable": false,
      "stateMutability": "view",
      "type": "function"
    },
    {
      "constant": true,
      "inputs": [
        {
          "internalType": "bytes32",
          "name": "_consulDateID",
          "type": "bytes32"
        },
        {
          "internalType": "uint256",
          "name": "index",
          "type": "uint256"
        }
      ],
      "name": "getMedicineByIndex",
      "outputs": [
        {
          "internalType": "bytes32",
          "name": "",
          "type": "bytes32"
        }
      ],
      "payable": false,
      "stateMutability": "view",
      "type": "function"
    },
    {
      "constant": true,
      "inputs": [
        {
          "internalType": "bytes32",
          "name": "_consulDateID",
          "type": "bytes32"
        },
        {
          "internalType": "bytes32",
          "name": "medname",
          "type": "bytes32"
        }
      ],
      "name": "getMedicineByMedicineName",
      "outputs": [
        {
          "internalType": "bytes32",
          "name": "",
          "type": "bytes32"
        }
      ],
      "payable": false,
      "stateMutability": "view",
      "type": "function"
    },
    {
      "constant": true,
      "inputs": [
        {
          "internalType": "bytes32",
          "name": "_consulDateID",
          "type": "bytes32"
        }
      ],
      "name": "getMedicinesCountFromConsultation",
      "outputs": [
        {
          "internalType": "uint256",
          "name": "",
          "type": "uint256"
        }
      ],
      "payable": false,
      "stateMutability": "view",
      "type": "function"
    }
  ],
  "bytecode": "0x60806040523480156200001157600080fd5b5060405162001db638038062001db68339818101604052620000379190810190620001c1565b336000806101000a81548173ffffffffffffffffffffffffffffffffffffffff021916908373ffffffffffffffffffffffffffffffffffffffff160217905550816001819055508060029080519060200190620000969291906200009f565b505050620002d0565b828054600181600116156101000203166002900490600052602060002090601f016020900481019282601f10620000e257805160ff191683800117855562000113565b8280016001018555821562000113579182015b8281111562000112578251825591602001919060010190620000f5565b5b50905062000122919062000126565b5090565b6200014b91905b80821115620001475760008160009055506001016200012d565b5090565b90565b6000815190506200015f81620002b6565b92915050565b600082601f8301126200017757600080fd5b81516200018e620001888262000249565b6200021b565b91508082526020830160208301858383011115620001ab57600080fd5b620001b883828462000280565b50505092915050565b60008060408385031215620001d557600080fd5b6000620001e5858286016200014e565b925050602083015167ffffffffffffffff8111156200020357600080fd5b620002118582860162000165565b9150509250929050565b6000604051905081810181811067ffffffffffffffff821117156200023f57600080fd5b8060405250919050565b600067ffffffffffffffff8211156200026157600080fd5b601f19601f8301169050602081019050919050565b6000819050919050565b60005b83811015620002a057808201518184015260208101905062000283565b83811115620002b0576000848401525b50505050565b620002c18162000276565b8114620002cd57600080fd5b50565b611ad680620002e06000396000f3fe608060405234801561001057600080fd5b50600436106101165760003560e01c80634ed37f49116100a2578063742752551161007157806374275255146103795780637448d8d8146103a957806394e7ef6e146103d95780639b9fc6e014610409578063f811f1ab1461043957610116565b80634ed37f49146102cb5780635035cf52146102fb578063511ad5221461032b578063624a4dac1461035b57610116565b80632dce4167116100e95780632dce4167146101db57806330ca739b1461020b57806345cfa71d1461023b57806348ec27551461026b5780634b0cf75e1461029b57610116565b80630b8d6eae1461011b5780631aa5346a1461014b578063234c16181461017b578063281c8ab7146101ab575b600080fd5b6101356004803603610130919081019061106a565b610457565b60405161014291906113b9565b60405180910390f35b6101656004803603610160919081019061114f565b6104ee565b60405161017291906113db565b60405180910390f35b610195600480360361019091908101906110fd565b6105b6565b6040516101a2919061143a565b60405180910390f35b6101c560048036036101c091908101906110fd565b6105d3565b6040516101d291906113b9565b60405180910390f35b6101f560048036036101f091908101906110fd565b610692565b604051610202919061143a565b60405180910390f35b6102256004803603610220919081019061106a565b6106af565b60405161023291906113b9565b60405180910390f35b610255600480360361025091908101906110fd565b610746565b60405161026291906113b9565b60405180910390f35b610285600480360361028091908101906111f2565b6107b1565b60405161029291906113f6565b60405180910390f35b6102b560048036036102b0919081019061114f565b610877565b6040516102c291906113f6565b60405180910390f35b6102e560048036036102e091908101906110fd565b61093d565b6040516102f2919061143a565b60405180910390f35b6103156004803603610310919081019061118b565b6109f7565b60405161032291906113db565b60405180910390f35b6103456004803603610340919081019061126f565b610b3d565b60405161035291906113f6565b60405180910390f35b610363610b5e565b604051610370919061143a565b60405180910390f35b610393600480360361038e919081019061118b565b610b6b565b6040516103a091906113db565b60405180910390f35b6103c360048036036103be91908101906110fd565b610d25565b6040516103d091906113b9565b60405180910390f35b6103f360048036036103ee919081019061122e565b610d90565b60405161040091906113db565b60405180910390f35b610423600480360361041e919081019061126f565b610db2565b60405161043091906113f6565b60405180910390f35b610441610dd3565b60405161044e919061143a565b60405180910390f35b6060600660008373ffffffffffffffffffffffffffffffffffffffff1673ffffffffffffffffffffffffffffffffffffffff1681526020019081526020016000208054806020026020016040519081016040528092919081815260200182805480156104e257602002820191906000526020600020905b8154815260200190600101908083116104ce575b50505050509050919050565b60006007600084815260200190815260200160002060009054906101000a900473ffffffffffffffffffffffffffffffffffffffff1673ffffffffffffffffffffffffffffffffffffffff16631f97c4c3836040518263ffffffff1660e01b815260040161055c91906113f6565b602060405180830381600087803b15801561057657600080fd5b505af115801561058a573d6000803e3d6000fd5b505050506040513d601f19601f820116820180604052506105ae91908101906110d4565b905092915050565b600060096000838152602001908152602001600020549050919050565b60606007600083815260200190815260200160002060009054906101000a900473ffffffffffffffffffffffffffffffffffffffff1673ffffffffffffffffffffffffffffffffffffffff166377e4afe46040518163ffffffff1660e01b815260040160006040518083038186803b15801561064e57600080fd5b505afa158015610662573d6000803e3d6000fd5b505050506040513d6000823e3d601f19601f8201168201806040525061068b9190810190611093565b9050919050565b600060046000838152602001908152602001600020549050919050565b6060600660008373ffffffffffffffffffffffffffffffffffffffff1673ffffffffffffffffffffffffffffffffffffffff16815260200190815260200160002080548060200260200160405190810160405280929190818152602001828054801561073a57602002820191906000526020600020905b815481526020019060010190808311610726575b50505050509050919050565b6060600a60008381526020019081526020016000208054806020026020016040519081016040528092919081815260200182805480156107a557602002820191906000526020600020905b815481526020019060010190808311610791575b50505050509050919050565b60006007600084815260200190815260200160002060009054906101000a900473ffffffffffffffffffffffffffffffffffffffff1673ffffffffffffffffffffffffffffffffffffffff16631e50b182836040518263ffffffff1660e01b815260040161081f919061143a565b60206040518083038186803b15801561083757600080fd5b505afa15801561084b573d6000803e3d6000fd5b505050506040513d601f19601f8201168201806040525061086f9190810190611126565b905092915050565b60006007600084815260200190815260200160002060009054906101000a900473ffffffffffffffffffffffffffffffffffffffff1673ffffffffffffffffffffffffffffffffffffffff1663c294ab1e836040518263ffffffff1660e01b81526004016108e591906113f6565b60206040518083038186803b1580156108fd57600080fd5b505afa158015610911573d6000803e3d6000fd5b505050506040513d601f19601f820116820180604052506109359190810190611126565b905092915050565b60006007600083815260200190815260200160002060009054906101000a900473ffffffffffffffffffffffffffffffffffffffff1673ffffffffffffffffffffffffffffffffffffffff1663cd2483416040518163ffffffff1660e01b815260040160206040518083038186803b1580156109b857600080fd5b505afa1580156109cc573d6000803e3d6000fd5b505050506040513d601f19601f820116820180604052506109f09190810190611298565b9050919050565b6000338484604051610a0890610de0565b610a1493929190611382565b604051809103906000f080158015610a30573d6000803e3d6000fd5b5050600c839080600181540180825580915050906001820390600052602060002001600090919290919091505550600c805490506009600085815260200190815260200160002081905550600c600a6000868152602001908152602001600020908054610a9e929190610dec565b50600c600b60003373ffffffffffffffffffffffffffffffffffffffff1673ffffffffffffffffffffffffffffffffffffffff168152602001908152602001600020908054610aee929190610dec565b50610af882610d90565b507f2bb590431d1dfc5d86ac3f951c70a27b4818eb2e4bc69ba773cf6f12b3ca98158484604051610b2a929190611411565b60405180910390a1600190509392505050565b6000600c8281548110610b4c57fe5b90600052602060002001549050919050565b6000600c80549050905090565b6000338484604051610b7c90610e3e565b610b8893929190611382565b604051809103906000f080158015610ba4573d6000803e3d6000fd5b505060088390806001815401808255809150509060018203906000526020600020016000909192909190915055506008805490506004600085815260200190815260200160002081905550600860056000868152602001908152602001600020908054610c12929190610dec565b506008600660003373ffffffffffffffffffffffffffffffffffffffff1673ffffffffffffffffffffffffffffffffffffffff168152602001908152602001600020908054610c62929190610dec565b50600360009054906101000a900473ffffffffffffffffffffffffffffffffffffffff166007600085815260200190815260200160002060006101000a81548173ffffffffffffffffffffffffffffffffffffffff021916908373ffffffffffffffffffffffffffffffffffffffff160217905550610ce082610d90565b507f8f4940dfc4a4a23294dbd13e6f0929ba11b468a44fc5005a4f895430a844d1088484604051610d12929190611411565b60405180910390a1600190509392505050565b606060056000838152602001908152602001600020805480602002602001604051908101604052809291908181526020018280548015610d8457602002820191906000526020600020905b815481526020019060010190808311610d70575b50505050509050919050565b60008160029080519060200190610da8929190610e4b565b5060019050919050565b600060088281548110610dc157fe5b90600052602060002001549050919050565b6000600880549050905090565b60f08061160383390190565b828054828255906000526020600020908101928215610e2d5760005260206000209182015b82811115610e2c578254825591600101919060010190610e11565b5b509050610e3a9190610ecb565b5090565b6103a1806116f383390190565b828054600181600116156101000203166002900490600052602060002090601f016020900481019282601f10610e8c57805160ff1916838001178555610eba565b82800160010185558215610eba579182015b82811115610eb9578251825591602001919060010190610e9e565b5b509050610ec79190610ef0565b5090565b610eed91905b80821115610ee9576000816000905550600101610ed1565b5090565b90565b610f1291905b80821115610f0e576000816000905550600101610ef6565b5090565b90565b600081359050610f24816115a6565b92915050565b600082601f830112610f3b57600080fd5b8151610f4e610f4982611482565b611455565b91508181835260208401935060208101905083856020840282011115610f7357600080fd5b60005b83811015610fa35781610f898882610fd7565b845260208401935060208301925050600181019050610f76565b5050505092915050565b600081519050610fbc816115bd565b92915050565b600081359050610fd1816115d4565b92915050565b600081519050610fe6816115d4565b92915050565b600082601f830112610ffd57600080fd5b813561101061100b826114aa565b611455565b9150808252602083016020830185838301111561102c57600080fd5b611037838284611597565b50505092915050565b60008135905061104f816115eb565b92915050565b600081519050611064816115eb565b92915050565b60006020828403121561107c57600080fd5b600061108a84828501610f15565b91505092915050565b6000602082840312156110a557600080fd5b600082015167ffffffffffffffff8111156110bf57600080fd5b6110cb84828501610f2a565b91505092915050565b6000602082840312156110e657600080fd5b60006110f484828501610fad565b91505092915050565b60006020828403121561110f57600080fd5b600061111d84828501610fc2565b91505092915050565b60006020828403121561113857600080fd5b600061114684828501610fd7565b91505092915050565b6000806040838503121561116257600080fd5b600061117085828601610fc2565b925050602061118185828601610fc2565b9150509250929050565b6000806000606084860312156111a057600080fd5b60006111ae86828701610fc2565b93505060206111bf86828701610fc2565b925050604084013567ffffffffffffffff8111156111dc57600080fd5b6111e886828701610fec565b9150509250925092565b6000806040838503121561120557600080fd5b600061121385828601610fc2565b925050602061122485828601611040565b9150509250929050565b60006020828403121561124057600080fd5b600082013567ffffffffffffffff81111561125a57600080fd5b61126684828501610fec565b91505092915050565b60006020828403121561128157600080fd5b600061128f84828501611040565b91505092915050565b6000602082840312156112aa57600080fd5b60006112b884828501611055565b91505092915050565b60006112cd8383611355565b60208301905092915050565b6112e281611561565b82525050565b60006112f3826114e6565b6112fd81856114fe565b9350611308836114d6565b8060005b8381101561133957815161132088826112c1565b975061132b836114f1565b92505060018101905061130c565b5085935050505092915050565b61134f81611521565b82525050565b61135e8161152d565b82525050565b61136d8161152d565b82525050565b61137c81611557565b82525050565b600060608201905061139760008301866112d9565b6113a46020830185611364565b6113b16040830184611364565b949350505050565b600060208201905081810360008301526113d381846112e8565b905092915050565b60006020820190506113f06000830184611346565b92915050565b600060208201905061140b6000830184611364565b92915050565b60006040820190506114266000830185611364565b6114336020830184611364565b9392505050565b600060208201905061144f6000830184611373565b92915050565b6000604051905081810181811067ffffffffffffffff8211171561147857600080fd5b8060405250919050565b600067ffffffffffffffff82111561149957600080fd5b602082029050602081019050919050565b600067ffffffffffffffff8211156114c157600080fd5b601f19601f8301169050602081019050919050565b6000819050602082019050919050565b600081519050919050565b6000602082019050919050565b600082825260208201905092915050565b600061151a82611537565b9050919050565b60008115159050919050565b6000819050919050565b600073ffffffffffffffffffffffffffffffffffffffff82169050919050565b6000819050919050565b600061156c82611573565b9050919050565b600061157e82611585565b9050919050565b600061159082611537565b9050919050565b82818337600083830152505050565b6115af8161150f565b81146115ba57600080fd5b50565b6115c681611521565b81146115d157600080fd5b50565b6115dd8161152d565b81146115e857600080fd5b50565b6115f481611557565b81146115ff57600080fd5b5056fe6080604052348015600f57600080fd5b5060405160f038038060f083398181016040526060811015602f57600080fd5b81019080805190602001909291908051906020019092919080519060200190929190505050826000806101000a81548173ffffffffffffffffffffffffffffffffffffffff021916908373ffffffffffffffffffffffffffffffffffffffff1602179055508160018190555080600281905550505050603e8060b26000396000f3fe6080604052600080fdfea265627a7a72315820119bb7d6b605b0a513377dcafe1408ee5ce032f383864e14b23f2645bdcd969a64736f6c63430005100032608060405234801561001057600080fd5b506040516103a13803806103a18339818101604052606081101561003357600080fd5b81019080805190602001909291908051906020019092919080519060200190929190505050826000806101000a81548173ffffffffffffffffffffffffffffffffffffffff021916908373ffffffffffffffffffffffffffffffffffffffff16021790555081600181905550806002819055505050506102e9806100b86000396000f3fe608060405234801561001057600080fd5b50600436106100575760003560e01c80631e50b1821461005c5780631f97c4c31461009e57806377e4afe4146100e4578063c294ab1e14610143578063cd24834114610185575b600080fd5b6100886004803603602081101561007257600080fd5b81019080803590602001909291905050506101a3565b6040518082815260200191505060405180910390f35b6100ca600480360360208110156100b457600080fd5b81019080803590602001909291905050506101c4565b604051808215151515815260200191505060405180910390f35b6100ec61021b565b6040518080602001828103825283818151815260200191508051906020019060200280838360005b8381101561012f578082015181840152602081019050610114565b505050509050019250505060405180910390f35b61016f6004803603602081101561015957600080fd5b8101908080359060200190929190505050610273565b6040518082815260200191505060405180910390f35b61018d6102a7565b6040518082815260200191505060405180910390f35b6000600382815481106101b257fe5b90600052602060002001549050919050565b60006003829080600181540180825580915050906001820390600052602060002001600090919290919091505550600160038054905003600460008481526020019081526020016000208190555060019050919050565b6060600380548060200260200160405190810160405280929190818152602001828054801561026957602002820191906000526020600020905b815481526020019060010190808311610255575b5050505050905090565b6000600360046000848152602001908152602001600020548154811061029557fe5b90600052602060002001549050919050565b600060038054905090509056fea265627a7a72315820fc0228fae71216a509e244ec8f9fdc7def038ca0f48e9842c08d8ab4275c99f164736f6c63430005100032a365627a7a72315820eb6e3747238902b5eb4680ef5643ef9ea81059b5326fc1e748b5776bf57a9f7e6c6578706572696d656e74616cf564736f6c63430005100040",
  "source": "pragma solidity >=0.5.16;\npragma experimental ABIEncoderV2;\nimport \"./Consultation.sol\";\nimport \"./Test.sol\";\n\ncontract Patient{\n    address private addr;\n    bytes32 private patientuname;\n    bytes private IpfsHash;\n    Consultation c;\n\n    // Consultation mapping\n    mapping(bytes32 => uint) private consulDateIDToIndex;\n    mapping(bytes32 => bytes32[]) pnameToConsulArray;\n    mapping(address => bytes32[]) paddressToConsulArray;\n    mapping(bytes32 => Consultation) consulDateIDToCons;\n    bytes32[] consIDs;\n\n    // Test mapping\n\n    mapping(bytes32 => uint) private testDateIDToIndex;\n    mapping(bytes32 => bytes32[]) pnameToTestArray;\n    mapping(address => bytes32[]) paddressToTestArray;\n    bytes32[] testIDs;\n\n    event NewConsultationCreated(bytes32 pname, bytes32 consID);\n    event NewTestCreated(bytes32 pname, bytes32 testID);\n    event NewMedicineCreatedForPatient(bytes32 pname, bytes32 consID, bytes32 medname);\n\n    constructor(bytes32 _patientuname,bytes memory _IpfsHash) public{\n        addr = msg.sender;\n        patientuname = _patientuname;\n        IpfsHash = _IpfsHash;\n     }\n    function updatePatient(bytes memory ipfsHash) public returns(bool){\n        IpfsHash = ipfsHash;\n        return true;\n     }\n\n    // CONSULTATIONS\n    function consultationCreate(bytes32 _pname, bytes32 _consulDateID, bytes memory newPatientIpfs)public returns(bool){\n        // Create new consultation with ID\n        new Consultation(msg.sender, _pname, _consulDateID);\n        consIDs.push(_consulDateID);\n        consulDateIDToIndex[_consulDateID] = consIDs.length;\n        pnameToConsulArray[_pname] = consIDs;\n        paddressToConsulArray[msg.sender] = consIDs;\n        consulDateIDToCons[_consulDateID] = c;\n        // Consultations hash append to patient ipfs storage\n        updatePatient(newPatientIpfs);\n        emit NewConsultationCreated(_pname, _consulDateID);\n        return true;\n     }\n\n    function getConsultationByConsultationIndex(uint _index) public view returns(bytes32 consulID){\n        return (consIDs[_index]);\n     }\n\n    function getConsultationIndexByConsultationID(bytes32 _consulDateID) public view returns(uint){\n        return consulDateIDToIndex[_consulDateID];\n     }\n\n    function getConsultationsByPatientName(bytes32 _pname) public view returns(bytes32[] memory) {\n        return (pnameToConsulArray[_pname]);\n     }\n\n    function getConsultationsByPatientAddress(address patientAddress) public view returns(bytes32[] memory){\n        return(paddressToConsulArray[patientAddress]);\n     }\n    function getConsultationsCount() public view returns (uint){\n        return consIDs.length;\n     }\n    // TESTS\n    function testCreate(bytes32 _pname, bytes32 _testDateID, bytes memory newPatientIpfs)public returns(bool){\n        // Create new test with ID\n        new Test(msg.sender, _pname, _testDateID);\n        testIDs.push(_testDateID);\n        testDateIDToIndex[_testDateID] = testIDs.length;\n        pnameToTestArray[_pname] = testIDs;\n        paddressToTestArray[msg.sender] = testIDs;\n        // Consultations hash append to patient ipfs storage\n        updatePatient(newPatientIpfs);\n        emit NewTestCreated(_pname, _testDateID);\n        return true;\n     }\n\n    function getTestByTestIndex(uint _index) public view returns(bytes32 testID){\n        return (testIDs[_index]);\n     }\n\n    function getTestIndexByTestID(bytes32 _testDateID) public view returns(uint){\n        return testDateIDToIndex[_testDateID];\n     }\n\n    function getTestsByPatientName(bytes32 _pname) public view returns(bytes32[] memory) {\n        return (pnameToTestArray[_pname]);\n     }\n\n    function getTestsByPatientAddress(address patientAddress) public view returns(bytes32[] memory){\n        return(paddressToConsulArray[patientAddress]);\n     }\n    function getTestsCount() public view returns (uint){\n        return testIDs.length;\n     }\n\n    function saveMedicineForPatientUse(bytes32 _consulDateID, bytes32 mname) public returns(bool){\n        return consulDateIDToCons[_consulDateID].saveMedicineForPatientUse(mname);\n     }\n    function getMedicinesFromConsultation(bytes32 _consulDateID) public view returns(bytes32[] memory){\n        return consulDateIDToCons[_consulDateID].getMedicinesFromConsultation();\n     }\n    function getMedicineByIndex(bytes32 _consulDateID,uint index) public view returns(bytes32){\n        return consulDateIDToCons[_consulDateID].getMedicineByIndex(index);\n     }\n    function getMedicineByMedicineName(bytes32 _consulDateID, bytes32 medname)public view returns(bytes32){\n        return consulDateIDToCons[_consulDateID].getMedicineByMedicineName(medname);\n     }\n    function getMedicinesCountFromConsultation(bytes32 _consulDateID) public view returns(uint){\n        return consulDateIDToCons[_consulDateID].getMedicinesCountFromConsultation();\n     }\n}",
  "sourcePath": "/home/eke/patient-eth-ipfs/contracts/Patient.sol",
  "compiler": {
    "name": "solc",
    "version": "0.5.16+commit.9c3226ce.Emscripten.clang"
  },
  "schemaVersion": "3.1.0",
  "updatedAt": "2020-04-13T16:34:15.532Z",
  "devdoc": {
    "methods": {}
  },
  "userdoc": {
    "methods": {}
  }
}