{
  "contractName": "Patient",
  "abi": [
    {
      "inputs": [
        {
          "internalType": "bytes32",
          "name": "_patientuname",
          "type": "bytes32"
        },
        {
          "internalType": "bytes",
          "name": "_IpfsHash",
          "type": "bytes"
        }
      ],
      "payable": false,
      "stateMutability": "nonpayable",
      "type": "constructor"
    },
    {
      "anonymous": false,
      "inputs": [
        {
          "indexed": false,
          "internalType": "bytes32",
          "name": "pname",
          "type": "bytes32"
        },
        {
          "indexed": false,
          "internalType": "bytes32",
          "name": "consID",
          "type": "bytes32"
        }
      ],
      "name": "NewConsultationCreadted",
      "type": "event"
    },
    {
      "constant": false,
      "inputs": [
        {
          "internalType": "bytes",
          "name": "ipfsHash",
          "type": "bytes"
        }
      ],
      "name": "updatePatient",
      "outputs": [
        {
          "internalType": "bool",
          "name": "",
          "type": "bool"
        }
      ],
      "payable": false,
      "stateMutability": "nonpayable",
      "type": "function"
    },
    {
      "constant": false,
      "inputs": [
        {
          "internalType": "bytes32",
          "name": "_pname",
          "type": "bytes32"
        },
        {
          "internalType": "bytes32",
          "name": "_consulDateID",
          "type": "bytes32"
        },
        {
          "internalType": "bytes",
          "name": "_ipfsConsulHash",
          "type": "bytes"
        },
        {
          "internalType": "bytes",
          "name": "newPatientIpfs",
          "type": "bytes"
        }
      ],
      "name": "consultationCreate",
      "outputs": [
        {
          "internalType": "bool",
          "name": "",
          "type": "bool"
        }
      ],
      "payable": false,
      "stateMutability": "nonpayable",
      "type": "function"
    },
    {
      "constant": true,
      "inputs": [
        {
          "internalType": "uint256",
          "name": "_index",
          "type": "uint256"
        }
      ],
      "name": "getConsultationByConsultationIndex",
      "outputs": [
        {
          "internalType": "bytes32",
          "name": "consulID",
          "type": "bytes32"
        },
        {
          "internalType": "bytes",
          "name": "ipfs",
          "type": "bytes"
        }
      ],
      "payable": false,
      "stateMutability": "view",
      "type": "function"
    },
    {
      "constant": true,
      "inputs": [
        {
          "internalType": "bytes32",
          "name": "_consulDateID",
          "type": "bytes32"
        }
      ],
      "name": "getConsultationIpfsByConsultationID",
      "outputs": [
        {
          "internalType": "bytes",
          "name": "ipfs",
          "type": "bytes"
        }
      ],
      "payable": false,
      "stateMutability": "view",
      "type": "function"
    },
    {
      "constant": true,
      "inputs": [
        {
          "internalType": "bytes32",
          "name": "_consulDateID",
          "type": "bytes32"
        }
      ],
      "name": "getConsultationIndexByConsultationID",
      "outputs": [
        {
          "internalType": "uint256",
          "name": "",
          "type": "uint256"
        }
      ],
      "payable": false,
      "stateMutability": "view",
      "type": "function"
    },
    {
      "constant": true,
      "inputs": [
        {
          "internalType": "bytes32",
          "name": "_pname",
          "type": "bytes32"
        }
      ],
      "name": "getConsultationsByPatientName",
      "outputs": [
        {
          "internalType": "bytes32[]",
          "name": "",
          "type": "bytes32[]"
        },
        {
          "internalType": "bytes[]",
          "name": "",
          "type": "bytes[]"
        }
      ],
      "payable": false,
      "stateMutability": "view",
      "type": "function"
    },
    {
      "constant": true,
      "inputs": [
        {
          "internalType": "address",
          "name": "patientAddress",
          "type": "address"
        }
      ],
      "name": "getConsultationsByPatientAddress",
      "outputs": [
        {
          "internalType": "bytes32[]",
          "name": "",
          "type": "bytes32[]"
        },
        {
          "internalType": "bytes[]",
          "name": "",
          "type": "bytes[]"
        }
      ],
      "payable": false,
      "stateMutability": "view",
      "type": "function"
    }
  ],
  "bytecode": "0x60806040523480156200001157600080fd5b506040516200180a3803806200180a8339818101604052620000379190810190620001c1565b336000806101000a81548173ffffffffffffffffffffffffffffffffffffffff021916908373ffffffffffffffffffffffffffffffffffffffff160217905550816001819055508060029080519060200190620000969291906200009f565b505050620002d0565b828054600181600116156101000203166002900490600052602060002090601f016020900481019282601f10620000e257805160ff191683800117855562000113565b8280016001018555821562000113579182015b8281111562000112578251825591602001919060010190620000f5565b5b50905062000122919062000126565b5090565b6200014b91905b80821115620001475760008160009055506001016200012d565b5090565b90565b6000815190506200015f81620002b6565b92915050565b600082601f8301126200017757600080fd5b81516200018e620001888262000249565b6200021b565b91508082526020830160208301858383011115620001ab57600080fd5b620001b883828462000280565b50505092915050565b60008060408385031215620001d557600080fd5b6000620001e5858286016200014e565b925050602083015167ffffffffffffffff8111156200020357600080fd5b620002118582860162000165565b9150509250929050565b6000604051905081810181811067ffffffffffffffff821117156200023f57600080fd5b8060405250919050565b600067ffffffffffffffff8211156200026157600080fd5b601f19601f8301169050602081019050919050565b6000819050919050565b60005b83811015620002a057808201518184015260208101905062000283565b83811115620002b0576000848401525b50505050565b620002c18162000276565b8114620002cd57600080fd5b50565b61152a80620002e06000396000f3fe60806040523480156200001157600080fd5b5060043610620000885760003560e01c80637448d8d811620000635780637448d8d8146200013057806394e7ef6e14620001675780639b9fc6e0146200019d578063b564407414620001d45762000088565b806308311925146200008d5780632dce416714620000c357806330ca739b14620000f9575b600080fd5b620000ab6004803603620000a5919081019062000cc6565b6200020a565b604051620000ba91906200109b565b60405180910390f35b620000e16004803603620000db919081019062000cc6565b620002db565b604051620000f09190620010bf565b60405180910390f35b62000117600480360362000111919081019062000c9a565b620002f8565b6040516200012792919062000fe2565b60405180910390f35b6200014e600480360362000148919081019062000cc6565b620004bf565b6040516200015e92919062000fe2565b60405180910390f35b6200018560048036036200017f919081019062000d90565b6200062e565b6040516200019491906200101d565b60405180910390f35b620001bb6004803603620001b5919081019062000dd5565b62000652565b604051620001cb92919062001067565b60405180910390f35b620001f26004803603620001ec919081019062000cf2565b62000730565b6040516200020191906200101d565b60405180910390f35b606060096003600084815260200190815260200160002054815481106200022d57fe5b906000526020600020018054600181600116156101000203166002900480601f016020809104026020016040519081016040528092919081815260200182805460018160011615610100020316600290048015620002cf5780601f10620002a357610100808354040283529160200191620002cf565b820191906000526020600020905b815481529060010190602001808311620002b157829003601f168201915b50505050509050919050565b600060036000838152602001908152602001600020549050919050565b606080600660008473ffffffffffffffffffffffffffffffffffffffff1673ffffffffffffffffffffffffffffffffffffffff168152602001908152602001600020600760008573ffffffffffffffffffffffffffffffffffffffff1673ffffffffffffffffffffffffffffffffffffffff16815260200190815260200160002081805480602002602001604051908101604052809291908181526020018280548015620003c657602002820191906000526020600020905b815481526020019060010190808311620003b1575b5050505050915080805480602002602001604051908101604052809291908181526020016000905b82821015620004b0578382906000526020600020018054600181600116156101000203166002900480601f0160208091040260200160405190810160405280929190818152602001828054600181600116156101000203166002900480156200049b5780601f106200046f576101008083540402835291602001916200049b565b820191906000526020600020905b8154815290600101906020018083116200047d57829003601f168201915b505050505081526020019060010190620003ee565b50505050905091509150915091565b6060806004600084815260200190815260200160002060056000858152602001908152602001600020818054806020026020016040519081016040528092919081815260200182805480156200053557602002820191906000526020600020905b81548152602001906001019080831162000520575b5050505050915080805480602002602001604051908101604052809291908181526020016000905b828210156200061f578382906000526020600020018054600181600116156101000203166002900480601f0160208091040260200160405190810160405280929190818152602001828054600181600116156101000203166002900480156200060a5780601f10620005de576101008083540402835291602001916200060a565b820191906000526020600020905b815481529060010190602001808311620005ec57829003601f168201915b5050505050815260200190600101906200055d565b50505050905091509150915091565b60008160029080519060200190620006489291906200093b565b5060019050919050565b60006060600883815481106200066457fe5b9060005260206000200154600984815481106200067d57fe5b90600052602060002001808054600181600116156101000203166002900480601f016020809104026020016040519081016040528092919081815260200182805460018160011615610100020316600290048015620007205780601f10620006f45761010080835404028352916020019162000720565b820191906000526020600020905b8154815290600101906020018083116200070257829003601f168201915b5050505050905091509150915091565b600083836040516200074290620009c2565b6200074f92919062001067565b604051809103906000f0801580156200076c573d6000803e3d6000fd5b505060088490806001815401808255809150509060018203906000526020600020016000909192909190915055506009839080600181540180825580915050906001820390600052602060002001600090919290919091509080519060200190620007d99291906200093b565b505060088054905060036000868152602001908152602001600020819055506008600460008781526020019081526020016000209080546200081d929190620009d0565b506009600560008781526020019081526020016000209080546200084392919062000a27565b506008600660003373ffffffffffffffffffffffffffffffffffffffff1673ffffffffffffffffffffffffffffffffffffffff16815260200190815260200160002090805462000895929190620009d0565b506009600760003373ffffffffffffffffffffffffffffffffffffffff1673ffffffffffffffffffffffffffffffffffffffff168152602001908152602001600020908054620008e792919062000a27565b50620008f3826200062e565b507f41b2e073fbf43cb699db875e3be6df3a636e7c7bf81caabef8e1d3ae5e49e52f8585604051620009279291906200103a565b60405180910390a160019050949350505050565b828054600181600116156101000203166002900490600052602060002090601f016020900481019282601f106200097e57805160ff1916838001178555620009af565b82800160010185558215620009af579182015b82811115620009ae57825182559160200191906001019062000991565b5b509050620009be919062000a9e565b5090565b61020e80620012da83390190565b82805482825590600052602060002090810192821562000a145760005260206000209182015b8281111562000a13578254825591600101919060010190620009f6565b5b50905062000a23919062000ac6565b5090565b82805482825590600052602060002090810192821562000a8b5760005260206000209182015b8281111562000a8a578282908054600181600116156101000203166002900462000a7992919062000aee565b509160010191906001019062000a4d565b5b50905062000a9a919062000b7c565b5090565b62000ac391905b8082111562000abf57600081600090555060010162000aa5565b5090565b90565b62000aeb91905b8082111562000ae757600081600090555060010162000acd565b5090565b90565b828054600181600116156101000203166002900490600052602060002090601f016020900481019282601f1062000b29578054855562000b69565b8280016001018555821562000b6957600052602060002091601f016020900482015b8281111562000b6857825482559160010191906001019062000b4b565b5b50905062000b78919062000a9e565b5090565b62000baa91905b8082111562000ba6576000818162000b9c919062000bad565b5060010162000b83565b5090565b90565b50805460018160011615610100020316600290046000825580601f1062000bd5575062000bf6565b601f01602090049060005260206000209081019062000bf5919062000a9e565b5b50565b60008135905062000c0a816200128b565b92915050565b60008135905062000c2181620012a5565b92915050565b600082601f83011262000c3957600080fd5b813562000c5062000c4a826200110a565b620010dc565b9150808252602083016020830185838301111562000c6d57600080fd5b62000c7a83828462001235565b50505092915050565b60008135905062000c9481620012bf565b92915050565b60006020828403121562000cad57600080fd5b600062000cbd8482850162000bf9565b91505092915050565b60006020828403121562000cd957600080fd5b600062000ce98482850162000c10565b91505092915050565b6000806000806080858703121562000d0957600080fd5b600062000d198782880162000c10565b945050602062000d2c8782880162000c10565b935050604085013567ffffffffffffffff81111562000d4a57600080fd5b62000d588782880162000c27565b925050606085013567ffffffffffffffff81111562000d7657600080fd5b62000d848782880162000c27565b91505092959194509250565b60006020828403121562000da357600080fd5b600082013567ffffffffffffffff81111562000dbe57600080fd5b62000dcc8482850162000c27565b91505092915050565b60006020828403121562000de857600080fd5b600062000df88482850162000c83565b91505092915050565b600062000e0f838362000f2d565b60208301905092915050565b600062000e29838362000f90565b905092915050565b600062000e3e8262001157565b62000e4a81856200119d565b935062000e578362001137565b8060005b8381101562000e8e57815162000e72888262000e01565b975062000e7f8362001183565b92505060018101905062000e5b565b5085935050505092915050565b600062000ea88262001162565b62000eb48185620011ae565b93508360208202850162000ec88562001147565b8060005b8581101562000f0a578484038952815162000ee8858262000e1b565b945062000ef58362001190565b925060208a0199505060018101905062000ecc565b50829750879550505050505092915050565b62000f2781620011f5565b82525050565b62000f388162001201565b82525050565b62000f498162001201565b82525050565b600062000f5c8262001178565b62000f688185620011d0565b935062000f7a81856020860162001244565b62000f85816200127a565b840191505092915050565b600062000f9d826200116d565b62000fa98185620011bf565b935062000fbb81856020860162001244565b62000fc6816200127a565b840191505092915050565b62000fdc816200122b565b82525050565b6000604082019050818103600083015262000ffe818562000e31565b9050818103602083015262001014818462000e9b565b90509392505050565b600060208201905062001034600083018462000f1c565b92915050565b600060408201905062001051600083018562000f3e565b62001060602083018462000f3e565b9392505050565b60006040820190506200107e600083018562000f3e565b818103602083015262001092818462000f4f565b90509392505050565b60006020820190508181036000830152620010b7818462000f4f565b905092915050565b6000602082019050620010d6600083018462000fd1565b92915050565b6000604051905081810181811067ffffffffffffffff821117156200110057600080fd5b8060405250919050565b600067ffffffffffffffff8211156200112257600080fd5b601f19601f8301169050602081019050919050565b6000819050602082019050919050565b6000819050602082019050919050565b600081519050919050565b600081519050919050565b600081519050919050565b600081519050919050565b6000602082019050919050565b6000602082019050919050565b600082825260208201905092915050565b600082825260208201905092915050565b600082825260208201905092915050565b600082825260208201905092915050565b6000620011ee826200120b565b9050919050565b60008115159050919050565b6000819050919050565b600073ffffffffffffffffffffffffffffffffffffffff82169050919050565b6000819050919050565b82818337600083830152505050565b60005b838110156200126457808201518184015260208101905062001247565b8381111562001274576000848401525b50505050565b6000601f19601f8301169050919050565b6200129681620011e1565b8114620012a257600080fd5b50565b620012b08162001201565b8114620012bc57600080fd5b50565b620012ca816200122b565b8114620012d657600080fd5b5056fe608060405234801561001057600080fd5b5060405161020e38038061020e8339818101604052604081101561003357600080fd5b81019080805190602001909291908051604051939291908464010000000082111561005d57600080fd5b8382019150602082018581111561007357600080fd5b825186600182028301116401000000008211171561009057600080fd5b8083526020830192505050908051906020019080838360005b838110156100c45780820151818401526020810190506100a9565b50505050905090810190601f1680156100f15780820380516001836020036101000a031916815260200191505b5060405250505081600081905550806001908051906020019061011592919061011d565b5050506101c2565b828054600181600116156101000203166002900490600052602060002090601f016020900481019282601f1061015e57805160ff191683800117855561018c565b8280016001018555821561018c579182015b8281111561018b578251825591602001919060010190610170565b5b509050610199919061019d565b5090565b6101bf91905b808211156101bb5760008160009055506001016101a3565b5090565b90565b603e806101d06000396000f3fe6080604052600080fdfea265627a7a723158206e388a93b2642edbe6d6024e9b94b5dce9e9ce64dd927a280b477d69c55fe32664736f6c63430005100032a365627a7a723158203b9097e07d9951617efbc8c6933ea37fdcd4aef397875d12fcff6517b7b4a3e46c6578706572696d656e74616cf564736f6c63430005100040",
  "source": "pragma solidity >=0.5.16;\npragma experimental ABIEncoderV2;\nimport \"./Consultation.sol\";\n\ncontract Patient{\n    address private addr;\n    bytes32 private patientuname;\n    bytes private IpfsHash;\n\n    // Consultation mapping\n    mapping(bytes32 => uint) private consulDateIDToIndex;\n    // patient name to consultations\n    mapping(bytes32 => bytes32[]) pnameToConsulArray;\n    mapping(bytes32 => bytes[]) pnameToConsulIpfsArray;\n    // patient address to consultations\n    mapping(address => bytes32[]) paddressToConsulArray;\n    mapping(address => bytes[]) paddressToConsulIpfsArray;\n    bytes32[] consIDs;\n    bytes[] private consulIPFShashes;\n\n    event NewConsultationCreadted(bytes32 pname, bytes32 consID);\n\n    constructor(bytes32 _patientuname,bytes memory _IpfsHash) public{\n        addr = msg.sender;\n        patientuname = _patientuname;\n        IpfsHash = _IpfsHash;\n    }\n\n    function updatePatient(bytes memory ipfsHash) public returns(bool){\n        IpfsHash = ipfsHash;\n        return true;\n    }\n\n    function consultationCreate(bytes32 _pname, bytes32 _consulDateID,\n        bytes memory _ipfsConsulHash, bytes memory newPatientIpfs)public returns(bool){\n        // Create new consultation with ID and its IPFS Hash\n        new Consultation(_consulDateID, _ipfsConsulHash);\n        consIDs.push(_consulDateID);\n        consulIPFShashes.push(_ipfsConsulHash);\n        consulDateIDToIndex[_consulDateID] = consIDs.length;\n        pnameToConsulArray[_pname] = consIDs;\n        pnameToConsulIpfsArray[_pname] = consulIPFShashes;\n        paddressToConsulArray[msg.sender] = consIDs;\n        paddressToConsulIpfsArray[msg.sender] = consulIPFShashes;\n        // Consultations hash append to patient ipfs storage\n        updatePatient(newPatientIpfs);\n        emit NewConsultationCreadted(_pname, _consulDateID);\n        return true;\n    }\n\n    function getConsultationByConsultationIndex(uint _index) public view returns(bytes32 consulID, bytes memory ipfs){\n        return (consIDs[_index], consulIPFShashes[_index]);\n    }\n\n    function getConsultationIpfsByConsultationID(bytes32 _consulDateID) public view returns(bytes memory ipfs){\n        return consulIPFShashes[consulDateIDToIndex[_consulDateID]];\n    }\n\n    function getConsultationIndexByConsultationID(bytes32 _consulDateID) public view returns(uint){\n        return consulDateIDToIndex[_consulDateID];\n    }\n\n    function getConsultationsByPatientName(bytes32 _pname) public view returns(bytes32[] memory, bytes[] memory) {\n        return (pnameToConsulArray[_pname], pnameToConsulIpfsArray[_pname]);\n    }\n\n    function getConsultationsByPatientAddress(address patientAddress) public view returns(bytes32[] memory, bytes[] memory){\n        return(paddressToConsulArray[patientAddress],paddressToConsulIpfsArray[patientAddress]);\n    }\n}",
  "sourcePath": "/home/eke/patient-eth-ipfs/contracts/Patient.sol",
  "compiler": {
    "name": "solc",
    "version": "0.5.16+commit.9c3226ce.Emscripten.clang"
  },
  "schemaVersion": "3.0.23",
  "updatedAt": "2020-04-11T19:15:35.827Z",
  "devdoc": {
    "methods": {}
  },
  "userdoc": {
    "methods": {}
  }
}